:020000040800F2
:10000000500B002051C2000813A6000815A60008D6
:1000100017A6000819A600081BA60008000000008B
:100020000000000000000000000000001DA6000805
:100030001FA600080000000021A6000823A6000853
:10004000ADC20008B1C20008B5C20008B9C20008BC
:10005000BDC20008C1C20008C5C20008C9C200086C
:10006000CDC20008D1C20008D5C20008D9C200081C
:10007000DDC20008E1C20008E5C20008E9C20008CC
:10008000EDC20008F1C20008F5C20008F9C200087C
:10009000FDC2000801C3000805C3000809C3000829
:1000A0000DC3000811C3000815C3000819C30008D8
:1000B0001DC3000821C3000825C3000829C3000888
:1000C0002DC3000831C3000835C3000839C3000838
:1000D0003DC3000841C300082BA6000845C3000823
:1000E00029B7000849C300084DC3000851C30008E0
:1000F00055C3000859C300085DC3000861C3000868
:1001000065C3000869C300086DC3000871C3000817
:1001100075C3000879C300087DC300083DA6000828
:1001200081C3000885C3000889C300088DC3000887
:1001300091C3000895C3000899C300089DC3000837
:10014000A1C30008A5C30008A9C300080DB7000893
:10015000ADC30008B1C30008B5C30008B9C30008A7
:10016000BDC30008C1C30008C5C30008C9C3000857
:10017000CDC30008D1C30008D5C3000800000000AB
:10018000D9C30008DDC30008DFF84C0D0068C0F3D8
:1001900002207047012110F01F029140DFF83C2D32
:1001A00040B2400942F82010704740B2002809D5FB
:1001B0000901DFF8302940B210F00F00104400F8B8
:1001C000041C04E00901DFF8182D40B211547047F7
:1001D00010B410F00700D0F10703052B01D304235E
:1001E00001E0D0F10703041D072C01D2002000E03C
:1001F000C01E012414FA03F35B1E19408140012341
:1002000013FA00F0401E1040084310BC704781688C
:10021000DFF8D02C114051F00101816070478268F5
:10022000DFF8D03C1A4011F08041114351F00041F9
:10023000816070478068C00F70478168DFF8A42C28
:10024000114051F0040181607047016851F00101D3
:100250000160704701687FF0020211400160704741
:10026000C16851F00101C160704781B0DFF8881C9E
:1002700009680143DFF8802C1160DFF87C1C0968F5
:1002800008400090009801B07047000038B50400A5
:100290000D00DFF854080068B0F5802F22D2DFF897
:1002A000680C02F0E0FD002012E0C0B234F810103B
:1002B000DFF834281268520002F1C842203211805F
:1002C000DFF824180968491CDFF81C281160401C5D
:1002D00001002A00C9B2D2B29142E6D3DFF8280C5D
:1002E00002F0AAFD31BD70B504000D001600DFF864
:1002F000180C02F0B8FD00200BE0C0B2710011EB49
:10030000400101F1C84120310988C0B224F8101021
:10031000401C01002A00C9B2D2B29142EDD3DFF8ED
:10032000E80B02F089FD70BD38B504000D00DFF860
:10033000D80B02F098FDEDB2680010F1C8400480BF
:10034000DFF8C40B02F078FD31BD38B5040000259C
:10035000DFF8B40B02F087FDE4B2600010F1C84092
:100360000588DFF8A40B02F067FD280080B232BDDB
:1003700010B50400DFF8900B02F075FDDFF8680798
:100380000068400000F1C84020300480DFF85807C2
:100390000068401CDFF850170860DFF84C07006861
:1003A000DFF8441B0860DFF8600B02F045FD10BD6C
:1003B00038B50400DFF8440BDFF8302B128820F842
:1003C0001240DFF8280B0088401CDFF8202B10803B
:1003D000DFF8180B00881E2803DB0020DFF80C2B49
:1003E0001080DFF80C0B00781E280DDADFF8000B08
:1003F0000078401CDFF8F82A1070DFF8100B007846
:10040000401CDFF8082B1070DFF8E40A00781E2883
:10041000C0F23A82DFF8F40A00781E2806DADFF824
:10042000EC0A0078401CDFF8E42A10700020DFF8A6
:10043000D02A108040F6FF70DFF8C82A1080002014
:1004400024E0DFF8BC2A1288DFF8B03AC0B233F8F3
:1004500010309A4207D2DFF8A42AC0B232F8102036
:10046000DFF89C3A1A80DFF8942AC0B232F81020E4
:10047000DFF8903A1B889A4207D2DFF8802AC0B290
:1004800032F81020DFF87C3A1A80401CC0B21D28D8
:10049000D7DB89B2DFF8680A0088DFF8682A12889B
:1004A000801A81422ADADFF8640A00781E2811DBFC
:1004B0000120DFF85C1A0870DFF8580A007801287C
:1004C00003D00120DFF8501A08700120DFF8441A29
:1004D00008701FE00120DFF8381A08700120DFF8EB
:1004E000341A08700020DFF8301A0870DFF81C0A90
:1004F0000078401EDFF8141A08700BE00020DFF8C7
:100500001C1A08700020DFF8081A08700020DFF8B5
:10051000041A0870DFF8F8090078012840F02F81EC
:100520000022DFF8FC19DFF8FC0902F0B8FD002218
:10053000DFF8F419DFF8EC0902F065FEDFF8E009F6
:100540008078DFF8E8198870DFF8D4094078DFF8A0
:10055000DC194870DFF8C8090078DFF8D019087096
:10056000DFF8C4098078DFF8C8198870DFF8B809A7
:100570004078DFF8BC194870DFF8AC09C078DFF8C4
:10058000B019C8700120DFF8AC194871DFF888098C
:100590000078012840F0A68041F28930DFF89819F0
:1005A00008600020DFF894190870DFF83C05006847
:1005B000DFF88C1908600120DFF860190870DFF897
:1005C00084090078401CDFF87C1908700020DFF8EF
:1005D000781908804AF65520DFF86C194880DFF852
:1005E00064090078DFF860198880DFF86009007816
:1005F000DFF85419C880DFF858090078DFF8481987
:100600000881DFF84C094088DFF83C194881DFF8A1
:1006100040090079DFF830198881DFF83409C08893
:10062000DFF82419C881DFF828090089DFF81819D4
:100630000882DFF81C09807ADFF80C194882DFF89D
:10064000F0088078DFF800198882DFF8E408407845
:10065000DFF8F418C882DFF8D808C078DFF8E818A7
:100660000883DFF8C8080078DFF8DC184883DFF873
:10067000BC084078DFF8D0188883DFF8B0088078AD
:10068000DFF8C418C883DFF8C808C08980B2000A40
:10069000C0B2DFF8B41808841121DFF8AC08FFF706
:1006A000F5FD002517E0DFF8AC080088411CDFF8F5
:1006B000A4281180DFF8441880B231F81000FFF749
:1006C00057FEDFF8900800881E2803DB0020DFF8C3
:1006D000841808806D1CEDB21D2DE4DB0020DFF8CE
:1006E00038180870DFF830080078002836D1DFF8B5
:1006F0001C0800781E2831DA0120DFF82018087065
:10070000DFF808080078002820D0002517E0DFF87F
:1007100044080088411CDFF83C281180DFF8DC1712
:1007200080B231F81000FFF723FEDFF828080088B8
:100730001E2803DB0020DFF81C1808806D1C280031
:10074000DFF8C8170978C0B28842E0D3200080B231
:10075000FFF70EFE0020DFF8B4170870DFF8B807C7
:100760000078002840F08A80DFF8A00700781E2873
:1007700040F08480200080B2FFF7FAFD7EE0DFF8D1
:10078000D8070078012862D100241BE0DFF8C407F5
:100790000088411CDFF8BC271180DFF8601780B2A9
:1007A00031F81000FFF7E4FDDFF8A80700881E28E5
:1007B00003DB0020DFF89C1708800020DFF84C17CF
:1007C0000870641CE4B21D2CE0DB0621C6480068FA
:1007D000000C80B2FFF7A8FD0721C348006880B273
:1007E000FFF7A2FD0821DFF85C07007880B2FFF771
:1007F0009BFDDFF848070078002828D1DFF838078C
:100800000068002823D0DFF83C070078401EDFF89E
:10081000341708700020DFF8201708600821DFF87F
:100820002407007880B2FFF77FFDDFF81407006827
:10083000AD4908600621AC480068000C80B2FFF7A3
:1008400073FD0721A848006880B2FFF76DFDDFF84F
:100850000C070088401CDFF804170880DFF8000749
:100860000078DFF8F816098880B2884206D2DFF8EF
:10087000E4060088401CDFF8DC160880DFF89406E8
:100880000078DFF8D416087031BD00B585B020209F
:10089000FFF7EBFC684602F03CFD6320029000206D
:1008A0000390002001902F20ADF800006946DFF88A
:1008B000B40602F03AFDDFF8AC06FFF7CBFCFFF719
:1008C00063FC00220021FFF783FC01003720FFF7C3
:1008D0006CFCDFF89006FFF7C3FC3720FFF75AFCEB
:1008E000DFF88006FFF7B1FC05B000BD0FB480B59E
:1008F0004FF47A700090169B9BB2DFF86C26159926
:1009000089B202A802F0F6FD01BC5DF814FB0FB439
:1009100080B54FF47A700090169B9BB2DFF84C269E
:10092000159989B202A802F0E5FD01BC5DF814FB3F
:1009300000000000F0B59BB01020DFF83016087002
:10094000CA20DFF8281648700024C8253BE0DFF8ED
:10095000201609780129FAD10021DFF81426117038
:10096000DFF81016098811AAC0B222F81010310061
:1009700011AAC0B232F8102089B2914203D211A953
:10098000C0B231F8106011A9C0B231F810103A00AD
:1009900092B2914203D211A9C0B231F81070C0B224
:1009A000002806D0ADB2B6B2BFB2F11B8D4200DA5C
:1009B0000124401CC0B20A28C9DBDFF8B00540782A
:1009C000332800DA0124E4B2012C22D0DFF89C05A0
:1009D0004078801EDFF894154870002640F6FF77B7
:1009E0000220109058200F90DFF88C1584B06846D4
:1009F0004C2202F033FF0FBCFFF789FF002001E01B
:100A000000BF401C80B242F210718842F8DB002027
:100A1000D0E7DFF858054078801CDFF850154870A3
:100A2000DFF848054078DFF8541508701BB0F0BDBA
:100A300080B5DFF84C15884253D10122DFF8441508
:100A4000DFF83C0502F0AFFFDFF838050078DFF88B
:100A50003815DFF8382512788854DFF8300500782B
:100A6000401CDFF828150870DFF820050078C8283A
:100A700003DB0020DFF814150870DFF808050078A4
:100A8000242804D0DFF808050078012829D10120A6
:100A9000DFF8FC140870DFF8EC040078DFF8F414D9
:100AA000DFF8F42412788854DFF8EC040078401C56
:100AB000DFF8E4140870DFF8DC04DFF8DC140978F0
:100AC000084410F8010C2A280BD10020DFF8C014CC
:100AD00008700020DFF8C01408700120DFF8BC1493
:100AE000087001BD18ED00E0442B002000B591B066
:100AF000DFF8AC0400787F2804D1DFF8A404407844
:100B0000AA2805D0DFF89C040078012840F0E28193
:100B1000DFF89004007801283DD1DFF88C040068EC
:100B20002030DFF884140860DFF87C040068DFF808
:100B30007C140988884203D30020DFF86814087009
:100B4000DFF8640402682021DFF86404FFF7CBFBC0
:100B5000002017E0DFF85814C0B231F8101089B245
:100B6000090ADFF85024C0B202F81010DFF8401470
:100B7000C0B231F81010DFF83C24C0B202EB4002E2
:100B80005170401CC0B22028E4DB4021DFF824046F
:100B900003F049FC9EE1DFF80804C07801284CD13D
:100BA0000720FFF7D2FBDFF8041408800020DFF8ED
:100BB000F813086000222021DFF8F403FFF793FB0D
:100BC0000020DFF8F01308700020DFF8E813487009
:100BD000DFF8D803008880B2000ADFF8D8138870E5
:100BE000DFF8C8030088DFF8CC13C870002018E0D5
:100BF000DFF8BC13C0B231F8101089B2090ADFF86F
:100C0000B423C0B202EB40021171DFF8A413C0B2EA
:100C100031F81010DFF89C23C0B202EB4002517192
:100C2000401CC0B21E28E3DB4021DFF8880303F03C
:100C3000FAFB0120DFF86C130870DFF86403C0785A
:100C4000022810D1DFF858030079DFF854134979EE
:100C500051EA0020DFF8DC1208800A21DFF8D40214
:100C60000088FFF761FBDFF83803C078032803D161
:100C70000120DFF844130870DFF82403C07804284B
:100C800015D10120DFF834130870DFF81403007960
:100C9000002803D10020DFF8B4120872DFF8000347
:100CA0000079012803D10120DFF8A0120872DFF8D3
:100CB000F002C078062853D11020DFF8AC1208707B
:100CC000DFF8DC020079DFF8A012487002201090F3
:100CD0005E200F90DFF8A01284B068464C2202F02C
:100CE000BDFD0FBCFFF702FE0120DFF8D412087033
:100CF000DFF8CC0200780128FAD00020DFF8B41227
:100D000008700020DFF8AC124870AA20DFF8A412A7
:100D100088705E20DFF89C12C870002018E0DFF8B1
:100D2000A412C0B231F8101089B2090ADFF8842287
:100D3000C0B202EB40021171DFF88812C0B231F884
:100D40001010DFF87022C0B202EB40025171401C5B
:100D5000C0B21428E3DB4021DFF8580203F063FB44
:100D6000DFF83C02C07807281FD1DFF83402007991
:100D7000002805D1DFF828024079DFF84C1208700E
:100D800087480079012804D185484079DFF83C1272
:100D900008700921DFF830020078DFF8302212787D
:100DA00052EA002080B2FFF7BFFA7D48C0780828D9
:100DB00040F08D807A480079002837D10620FFF76F
:100DC000C4FA0720FFF7C1FA784908800020764965
:100DD000086000207E4908600020764908700020E5
:100DE000744948707148008880B2000A714988705F
:100DF0006E4800886F49C870F0206E490871FE2067
:100E00006C49487100206B49887100206949C8719C
:100E10006648008880B2000A664908726348008804
:100E2000644948724021634803F0FDFA5C48007948
:100E300001284CD166480068143065490860644850
:100E4000026814216348FFF74EFA61480068000EFB
:100E5000584908705E480068000C564948705C4864
:100E60000068000A53498870594800685149C870A1
:100E7000F12050490871FE204E49487154480068DD
:100E80001430534908605248026814215148FFF752
:100E90002AFA002014E04F49C0B231F8101089B28C
:100EA000090A444AC0B202EB400291714949C0B2FA
:100EB00031F810103F4AC0B202EB4002D171401C21
:100EC000C0B21428E7DB40213A4803F0ACFA002016
:100ED0003349087011B000BD0CED00E000E100E006
:100EE00000E400E0C0FFFF7F482B0020742B0020AF
:100EF000B92B0020C0FFFF3F5810024044250020BE
:100F0000702B00203E07002064280020B72B002013
:100F1000B82B0020BB2B00208C2B0020C52B0020E1
:100F2000B02A0020402A0020382B0020C42A0020AC
:100F30003C2B0020042B0020302B00209B2B00207A
:100F4000202B0020BA2B0020F0290020102B00209D
:100F50009C2A0020722B0020BC2B0020762B002026
:100F60004407002000140040282B0020EC2A002019
:100F7000C92B00207C2B002018280020952B002056
:100F8000D4260020F82A00200C260020C42B0020A4
:100F9000BF2B0020B4270020BE2B0020C02B002038
:100FA000FC2800208E2B00201C2B0020782B0020FA
:100FB000500B00203C290020B12B0020B42B002036
:100FC0008F2B0020BC290020450700204607002069
:100FD000342B0020182A002010B592B003F03CFA00
:100FE00001F014FB01F0ACFD01F0CEFC01F072FC4D
:100FF00001F05CFB01F031FC01F0EDFB03F066FA5F
:101000000620FFF7A2F9DFF83C1E08600720FFF773
:101010009CF9DFF8301E0968090411FA80F0DFF846
:10102000241E0860DFF81C0E0068B0F5802F03D97D
:101030000020DFF8101E0860DFF8080E0068DFF8F7
:10104000081E08600820FFF780F9DFF8001E08700E
:101050000A20FFF77AF9DFF8F81D08800920FFF76A
:1010600074F980B2000ADFF8EC1D08700920FFF760
:101070006CF9DFF8E41D08700B20FFF766F9DFF864
:10108000DC1D08700B20FFF760F980B2000ADFF862
:10109000D01D0870DFF8B80D0088B0F57A7F03DB4B
:1010A0000120DFF8AC1D0880FFF7EFFB00224FF4B2
:1010B0000071DFF8B00D03F01DFB01220121DFF804
:1010C000A40D03F017FB00220421DFF89C0D03F0B0
:1010D00011FB03F0FDFB04F0CBFA47F23050DFF8D0
:1010E000441E08800320DFF8681DC8710020DFF867
:1010F000601D88700020DFF8581D48710020DFF85F
:10110000501D08720020DFF8481D88710120DFF8AB
:10111000401DC8700020DFF8381D08710020DFF87E
:10112000081E08700120DFF8001E48700A20DFF852
:10113000F81D88700020DFF8F01DC8700020DFF86F
:10114000E81D08710020DFF8E01D08720020DFF8BC
:10115000D81DC8710020DFF8D01D8871DFF8CC0DD4
:10116000FFF76BF81020DFF8C81D0870DFF8EC0CF3
:101170000078002804D0DFF8E40C0078FF2806D1BE
:10118000DFF8D00C0078DFF8A81D487005E0DFF824
:10119000C80C0078DFF8981D4870022010905E207F
:1011A0000F90DFF8901D84B068464C2202F056FB89
:1011B0000FBCFFF79BFB0C20FFF7C7F8DFF8681D9B
:1011C00048700C20FFF7C1F880B2000ADFF8581D04
:1011D0008870DFF8540D8078FF2803D10020DFF8F5
:1011E000481D8870DFF8400D40780A2871D0DFF87C
:1011F000380D40780B286CDA1020DFF83C1D0870A1
:10120000DFF8240D4078002803D11120DFF8281DD5
:101210004870DFF8140D4078012803D10D20DFF865
:10122000181D4870DFF8000D4078022803D10A200D
:10123000DFF8041D4870DFF8F00C4078032803D174
:101240000920DFF8F41C4870DFF8DC0C4078042833
:1012500003D10820DFF8E01C4870DFF8CC0C4078A0
:10126000052803D10720DFF8D01C4870DFF8B80C40
:101270004078062803D10620DFF8BC1C4870DFF850
:10128000A80C4078072803D10520DFF8AC1C487073
:10129000DFF8940C4078082803D10420DFF8981C6C
:1012A0004870DFF8840C4078092803D10320DFF868
:1012B000881C48700220109058200F90DFF8741C92
:1012C00084B068464C2202F0C9FA0FBCFFF71FFB3E
:1012D00003E00020DFF8501C4870DFF8840B007832
:1012E000002803D10020DFF8401C4871DFF8700BA4
:1012F0000078012807D10120DFF82C1C487101205B
:10130000DFF8381C08700024B7E10020DFF8301C3B
:101310000870DFF8300C0078082813D1DFF8080CCB
:10132000007A002803D10220DFF8FC1B0872DFF8E6
:10133000F80B007A401EDFF8F01B08720120DFF87E
:10134000081C0870DFF8F80B007801284AD1DFF894
:10135000FC0B0078022845D00020DFF8E81A08606E
:101360000020DFF8E41A08600621DFF8D80A0068D8
:10137000000C80B2FEF7D8FF0721DFF8C80A00682A
:1013800080B2FEF7D1FF0020DFF8B41B0870002008
:10139000DFF8B81A08700821DFF8B00A007880B2C8
:1013A000FEF7C2FF0020DFF8801BC8710020DFF8C5
:1013B000A01A48710020DFF8981B88700020DFF821
:1013C000901B48700020DFF8881B08700020DFF8B1
:1013D000841B88700020DFF87C1B48700020DFF839
:1013E000741BC870DFF8600B0078012846D1DFF865
:1013F0005C0B0078022841D01020DFF8341B087005
:10140000DFF8240B007A002810D1DFF8480A0078B2
:10141000DFF81C1B48700020DFF8401A08700B2111
:10142000DFF8380A007880B2FEF77EFFDFF8F80AAE
:10143000007A012810D1DFF8200A0078DFF8F01ACE
:1014400048700120DFF8141A08700B21DFF80C0A2D
:10145000007880B2FEF768FF022010905E200F90A7
:10146000DFF8D01A84B068464C2202F0F7F90FBCBE
:10147000FFF73CFA0020DFF8D01A0870DFF8D80A2E
:101480000078012840F0F980DFF8C00A00780228CF
:1014900000F0F380DFF8900A407800280ED1112088
:1014A000DFF8941A48700020DFF8B01A08700C2199
:1014B000DFF8740A407880B2FEF736FFDFF8680A7A
:1014C000407801280ED10D20DFF86C1A48700020FA
:1014D000DFF8881A08700C21DFF84C0A407880B2D7
:1014E000FEF722FFDFF8400A407802280ED10A20DA
:1014F000DFF8441A48700020DFF8601A08700C21E9
:10150000DFF8240A407880B2FEF70EFFDFF8180AF1
:10151000407803280ED10920DFF81C1A48700020FB
:10152000DFF8381A08700C21DFF8FC09407880B227
:10153000FEF7FAFEDFF8F009407804280ED1082003
:10154000DFF8F41948700020DFF8101A08700C2139
:10155000DFF8D409407880B2FEF7E6FEDFF8C8096C
:10156000407805280ED10720DFF8CC1948700020FC
:10157000DFF8E81908700C21DFF8AC09407880B278
:10158000FEF7D2FEDFF8A009407806280ED106202B
:10159000DFF8A41948700020DFF8C01908700C218A
:1015A000DFF88409407880B2FEF7BEFEDFF87809E4
:1015B000407807280ED10520DFF87C1948700020FC
:1015C000DFF8981908700C21DFF85C09407880B2C8
:1015D000FEF7AAFEDFF85009407808280ED1042053
:1015E000DFF8541948700020DFF8701908700C21DA
:1015F000DFF83409407880B2FEF796FEDFF828095C
:10160000407809280ED10320DFF82C1948700020FB
:10161000DFF8481908700C21DFF80C09407880B217
:10162000FEF782FEDFF8000940780A280AD101207F
:10163000DFF8281908700C21DFF8EC08407880B238
:10164000FEF772FEDFF814090078002811D110208F
:10165000DFF8E41808700220109058200F90DFF88F
:10166000D41884B068464C2202F0F8F80FBCFFF79B
:101670004EF90020DFF8E0180870641CB4F57A7F9A
:1016800002D30024FFF732FADFF8D40800780128EB
:1016900008D1DFF8B8080078032803D10020DFF86C
:1016A000AC180870DFF8BC080088002812D10022AE
:1016B000DFF8B418DFF8B40801F0F1FC0022DFF81D
:1016C000B018DFF8A80801F09EFD42F21070DFF8B4
:1016D00094180880DFF89C080078012840F0B68252
:1016E000DFF8940880792C2840F01682DFF888080B
:1016F000C0792C2800F01082DFF87C08807C41281B
:1017000040F00A820020DFF874180870DFF86808DB
:101710000078DFF86C180870DFF85C084078DFF8B4
:1017200060184870DFF850088078DFF85418887027
:10173000DFF84408C078DFF84818C870DFF83808C8
:101740000079DFF83C180871DFF82C084079DFF8E1
:1017500030184871DFF820088079DFF82418887184
:10176000DFF81408C079DFF81818C871DFF8080826
:10177000007ADFF80C180872DFF8FC07407ADFF80F
:1017800000184872DFF8F007807ADFF8F4178872E3
:10179000DFF8E407C07ADFF8E817C872DFF8D80787
:1017A000007BDFF8DC170873DFF8CC07407BDFF83D
:1017B000D0174873DFF8C007807BDFF8C417887341
:1017C000DFF8B407C07BDFF8B817C873DFF8A807E5
:1017D000007CDFF8AC170874DFF89C07407CDFF86A
:1017E000A0174874DFF89007807CDFF8941788749E
:1017F000DFF88407C07CDFF88817C874DFF8780743
:10180000007DDFF87C170875DFF86C07407DDFF896
:1018100070174875DFF86007807DDFF864178875FA
:10182000002015E0DFF85017C0B2095C2C290ED15A
:10183000DFF8BC1D0978491CDFF8B42D1170DFF802
:10184000B01D0978092902D1DFF8A81D0870401CD5
:10185000C0B23C28E6DB0020DFF8941D0870DFF8FA
:101860001807007D0A21DFF81027527D01FB0020B8
:101870001038DFF8841D0870DFF8FC06807D6421D5
:1018800010FB01F0DFF8F016C97D0A2211FB0200FF
:10189000DFF8E416497E401841F2D041401ADFF8E3
:1018A000581D4880DFF8D006807FDFF84C1D087196
:1018B000DFF8C40690F82000642110FB01F0DFF887
:1018C000B81691F821100A2211FB0200DFF8A816C1
:1018D00091F82210401841F2D041401ADFF8181D4B
:1018E000C880DFF8940690F82300642110FB01F013
:1018F000DFF8841691F824100A2211FB0200DFF8A9
:10190000781691F82610401841F2D041401ADFF8BD
:10191000E81C0881DFF8600690F82B00DFF8D81C7F
:101920008872DFF85406C0790A21DFF84C26127A53
:1019300001FB00201038DFF8C01CC872DFF8380641
:10194000407A0A21DFF83026927A01FB0020103815
:10195000DFF8A41C0873DFF82006C07A0A21DFF83C
:101960001826127B01FB00201038DFF88C1C48730E
:10197000DFF80406807B642110FB01F0DFF8F81526
:10198000C97B0A2211FB0200DFF8EC15097C401824
:1019900041F2D041401ADFF8601CC881DFF8D80559
:1019A00090F837002C282DD1DFF8CC0590F83800BE
:1019B0000A21DFF8C42592F8392001FB00201038F5
:1019C000DFF8341C0874DFF8B00590F83A000A21FB
:1019D000DFF8A42592F83B2001FB00201038DFF847
:1019E000181C4874DFF8900590F83C000A21DFF8D5
:1019F000882592F83D2001FB00201038DFF8F81B05
:101A000088743EE0DFF87005DFF8E81B09780844C9
:101A100040780A21DFF86025DFF8D83B1B781A44AC
:101A2000927801FB00201038DFF8CC1B0874DFF837
:101A30004805DFF8C01B09780844C0780A21DFF8A0
:101A40003825DFF8B03B1B781A44127901FB0020DF
:101A50001038DFF8A41B4874DFF81C05DFF8941B6E
:101A60000978084440790A21DFF80C25DFF8843B27
:101A70001B781A44927901FB00201038DFF8781B9C
:101A80008874DFF8740B007CDFF8701B8870DFF857
:101A9000680B407CDFF8641B4870DFF85C0B807CCF
:101AA000DFF8581BC8700022DFF8501BDFF8BC04B9
:101AB00001F024FBDFF8400BC07ADFF8441B08700C
:101AC000DFF8340B007BDFF8381B4870DFF8280B99
:101AD000407BDFF82C1B88700022DFF8241BDFF826
:101AE0008C0401F04AFA0120D9494872DFF8140B3E
:101AF0000078401CDFF80C1B0870DFF8080B00783A
:101B00000328C0F2A0800020DFF8F81A0870012036
:101B1000DFF8F41A087096E0DFF85C0480792C286E
:101B200040F08E80DFF85004C0792C2800F08880C7
:101B3000DFF84404807C562840F082800120DFF8E2
:101B40003C140870DFF830040078DFF834140870B3
:101B5000DFF824044078DFF828144870DFF8180410
:101B60008078DFF81C148870DFF80C04C078DFF888
:101B70001014C870DFF800040079DFF8041408714D
:101B8000DFF8F4034079DFF8F8134871DFF8E80371
:101B90008079DFF8EC138871DFF8DC03C079DFF8B7
:101BA000E013C871DFF8D003007ADFF8D4130872AD
:101BB000DFF8C403407ADFF8C8134872DFF8B803CF
:101BC000807ADFF8BC138872DFF8AC03C07ADFF8E4
:101BD000B013C872DFF8A003007BDFF8A41308730A
:101BE000DFF89403407BDFF898134873DFF888032D
:101BF000807BDFF88C138873DFF87C03C07BDFF811
:101C00008013C873DC48007CDFF874130874DA486A
:101C1000407CDB494874D848807CD9498874D648D0
:101C2000C07CD749C874D448007DD5490875D248CE
:101C3000407DD3494875D048807DD149887502E000
:101C40000220CE4908700020CA490870DFF8740CE1
:101C50000078002859D1B4484079012855D1BB48B3
:101C60000078022851D0DFF8600C0078002820D1DD
:101C700001224FF400717B4802F03CFDDFF84C0C70
:101C80000078002808D144F62060DFF8441C088062
:101C90000120DFF8381C0870DFF8340C00880028B9
:101CA00007D10120DFF8201C08700020DFF81C1C81
:101CB0000870DFF8140C0078012826D100224FF4B8
:101CC0000071684802F016FD0120DFF8F81B08706B
:101CD000C82002F0E7FB0422DFF8941CDFF81C0E9A
:101CE00001F028FE47F23050DFF8881C086001221E
:101CF000DFF8841CDFF8040E01F055FE0320544980
:101D000048720320DFF8741C0870DFF8B80B007805
:101D1000012840D18448407900283CD18B48007884
:101D2000022838D0DFF8A00B0078012820D101224A
:101D30004FF400714B4802F0DDFCDFF8900B0078A7
:101D4000002808D14FF4FA50DFF8841B08800120E6
:101D5000DFF8781B0870DFF8780B0088002807D1BF
:101D60000020DFF8641B08700020DFF8601B08709B
:101D7000DFF8540B007800280DD100224FF40071D9
:101D8000384802F0B7FC0020DFF8381B087000204C
:101D9000DFF8EC1B0860DFF8DC0B0068002840F07F
:101DA000908061484079012840F08B80DFF8140B67
:101DB0000078012840F0858064480078022800F00F
:101DC0008080DFF8BC0B006800287AD1DFF8AC0B0C
:101DD000007803280ED1DFF8A40B0078401EDFF84E
:101DE0009C1B08700B22DFF89C1BDFF8100D01F024
:101DF000A1FD61E0DFF8840B007802280ED1DFF846
:101E00007C0B0078401EDFF8741B08700C22DFF892
:101E1000F01CDFF8E80C01F08DFD4DE0DFF85C0B05
:101E20000078012822D1DFF8540B0078401EDFF83B
:101E30004C1B08700D22DFF8CC1CDFF8C00C01F041
:101E400079FD39E0442B0020482B0020BA2B0020DC
:101E5000042B00204507002046070020912B00207E
:101E6000B62B00200004004800080048DFF80C0BE7
:101E70000078002820D1DFF890070078002806D1EC
:101E80001722DFF8841CDFF8740C01F053FDDFF833
:101E90007807007801280FD10D22DFF8701CDFF8D9
:101EA0005C0C01F047FDDFF8680CDFF8D41A08601D
:101EB0000020DFF85417087043F69820DFF8B41AB2
:101EC0000860DFF8500C0078012867D1DFF8480C73
:101ED0000078012862D10020DFF8381C087000204B
:101EE000DFF8341C0870DFF8340C0079002849D181
:101EF0001A480078012801D1FEF71CFD0120DFF807
:101F0000201C087047F23150DFF8181C08800120AF
:101F1000DFF8081C0871DFF8100CDFF8101C0860EF
:101F20003CE000BF42070020102B002000000450BE
:101F3000282B002018280020EC2A0020B22B00209B
:101F4000B12B0020962B0020B42B00204807002046
:101F5000C42A00203C2B0020B52B0020BD2B0020E4
:101F6000CB2B00203C070020B02A0020402A002074
:101F7000382B0020C02B0020B42700209A2B0020F3
:101F8000842A00200020DFF8A81B08700020DFF85A
:101F9000901B08700020DFF8841B0871DFF8740BB9
:101FA0000078012823D1DFF88C0B007800281ED19F
:101FB0000020DFF8601B0870DFF87C0B0078032836
:101FC00003D10020DFF8701B0870DFF86C0B00787D
:101FD000012803D10320DFF8601B0870DFF8580BDD
:101FE0000078022803D10120DFF84C1B0870DFF8CD
:101FF000280B007801281AD1DFF8400B0078002860
:1020000015D10020DFF8101B0870DFF82C0B0078CA
:10201000012803D10220DFF8201B0870DFF8180B1D
:102020000078032803D10120DFF80C1B0870DFF8CB
:102030002C0D0078012810D1DFF8240D007801283C
:102040000BD10020DFF8D41A48710020DFF80C1DF6
:1020500008700020DFF8081D0870DFF8040D007814
:10206000012840F06C810020DFF8B01A4871002090
:10207000DFF8EC1C0870DFF8EC0C0078401CDFF88F
:10208000E41C0870DFF8DC0C0078022803DB002079
:10209000DFF8D01C0870DFF8CC0C0078002808D1DD
:1020A000DFF8940A0078002803D10320DFF8881AAB
:1020B0000870DFF8B00C0078012808D1DFF8780A42
:1020C0000078032803D10020DFF86C1A0870DFF8CD
:1020D000680A007801280FD1DFF88C0C0078401CCA
:1020E000DFF8841C0870DFF8800C0078092803DB17
:1020F0000020DFF8741C0870DFF83C0A0078022822
:1021000040F01D81DFF8600C007800280FD1DFF867
:102110005C0C0078401CDFF8541C0870DFF84C0C95
:102120000078032803DB0020DFF8401C0870DFF88C
:10213000380C0078012813D1DFF8300C4078401CAF
:10214000DFF8281C4870DFF8240C40780B2803DBEC
:102150000020DFF8181C48700120DFF8141C0870FC
:10216000DFF8040C007802280FD1DFF8000C80782B
:10217000401CDFF8F81B8870DFF8F00B80780B2824
:1021800003DB0020DFF8E41B8870DFF8DC0B00784D
:1021900003280FD1DFF8D40BC078401CDFF8CC1B2C
:1021A000C870DFF8C80BC078032803DB0020DFF815
:1021B000BC1BC870DFF8B00B007804282AD1DFF808
:1021C000AC0B0079401CDFF8A41B0871DFF89C0BF6
:1021D0000079022803DB0020DFF8901B0871DFF88C
:1021E0008C0B0079002803D10020DFF83019087229
:1021F000DFF8780B007901280CD1DFF8780B007834
:10220000002803D10120DFF8141908720120DFF83B
:10221000641B0870DFF8500B007805283ED1DFF80A
:102220004C0B4079401CDFF8441B4871DFF83C0B35
:102230004079022803DB0020DFF8301B48710020C2
:10224000DFF8280B4079002810D10020DFF8CC18E7
:1022500048720120DFF8201B08700B20FEF775F88C
:1022600000F0FF000B2180B2FEF75EF8DFF8FC0AF9
:102270004079012812D10120DFF8A018487201200E
:10228000DFF8F81A08700B20FEF75FF800F0FF0087
:1022900050F480700B2180B2FEF746F8DFF8C80AD0
:1022A000007806280FD1DFF8C40A8079401CDFF8D7
:1022B000BC1A8871DFF8B40A8079022803DB002099
:1022C000DFF8A81A8871DFF8A00A007807281DD166
:1022D000DFF8980AC079401CDFF8901AC871DFF85F
:1022E0008C0AC079022803DB0020DFF8801AC8714D
:1022F000DFF8780AC079012804D10120DFF8801ABC
:10230000087003E00020DFF8781A0870DFF8580A38
:102310000078082813D1DFF8540A007A401CDFF84F
:102320004C1A0872DFF8440A007A022803DB002006
:10233000DFF8381A08720120DFF8481A0870DFF851
:102340001C0A007801287EF4FDAF0020DFF8CC17CE
:1023500048710020DFF8041A0870DFF8080A0078D6
:10236000401CDFF8001A0870DFF8F809007802282E
:1023700003DB0020DFF8EC190870DFF8E8090078CB
:10238000002808D1DFF8B0070078002803D1032027
:10239000DFF8A4170870DFF8CC090078012808D10D
:1023A000DFF894070078032803D10020DFF88817AE
:1023B0000870DFF88407007801280FD1DFF8A8093A
:1023C0000078002803D10920DFF89C190870DFF895
:1023D00098090078401EDFF890190870DFF8580758
:1023E000007802287EF4AEAFDFF87C090078002880
:1023F0000FD1DFF878090078002803D10320DFF837
:102400006C190870DFF864090078401EDFF85C1969
:102410000870DFF854090078012813D1DFF84C095F
:102420004078002803D10B20DFF840194870DFF80E
:102430003C094078401EDFF8341948700120DFF86D
:1024400030190870DFF82009007802280FD1DFF872
:102450001C098078002803D10B20DFF81019887040
:10246000DFF808098078401EDFF800198870DFF86F
:10247000F808007803280FD1DFF8F008C0780028AA
:1024800003D10320DFF8E418C870DFF8E008C07853
:10249000401EDFF8D818C870DFF8CC080078042890
:1024A0002AD1DFF8C8080079002803D10220DFF81C
:1024B000BC180871DFF8B4080079401EDFF8AC18CA
:1024C0000871DFF8A8080079002803D10020DFF8A0
:1024D0004C160872DFF89408007901280CD1DFF857
:1024E00094080078002803D10120DFF83016087224
:1024F0000120DFF880180870DFF86C0800780528E4
:102500003ED1DFF868084079002803D10220DFF8C7
:102510005C184871DFF854084079401EDFF84C1809
:1025200048710020DFF844084079002810D10020CD
:10253000DFF8E81548720120DFF83C1808700B201E
:10254000FDF703FF00F0FF000B2180B2FDF7ECFE6A
:10255000DFF818084079012812D10120DFF8BC15F6
:1025600048720B20FDF7F1FE00F0FF0050F4807080
:102570000B2180B2FDF7D8FE0120DFF800180870AB
:10258000DFF8E407007806280FD1DFF8E00780794C
:10259000002803D10220DFF8D4178871DFF8CC07B8
:1025A0008079401EDFF8C4178871DFF8BC07007817
:1025B00007287EF4AEAEDFF8B407C079002803D157
:1025C0000220DFF8A817C871DFF8A007C079401E05
:1025D000DFF89817C871DFF89407C07901287EF4F6
:1025E00094AE0120DFF898170870FEF792BE000045
:1025F000982B0020992B00209C2A0020402B0020A3
:10260000D82A0020942B0020932B002000B5B9B0CD
:1026100027A8442103F006F96846142103F002F9C3
:1026200005A8882103F0FEF81020279001202D90A6
:10263000B0202F90002031900020329027A803F086
:10264000F5F8002801D000F0C7FB0F200090002013
:1026500001900020029000200390002004900221AD
:10266000684603F000FC002801D000F0B5FB46F2FC
:1026700042000590042014904FF4805019905FF0B0
:10268000405023905FF04060209005A803F0CEFDFD
:10269000002801D000F0A0FB4FF4007004F086F990
:1026A000002801D000F098FB39B000BD00B589B01A
:1026B00006A80021002200230EC00C386846DFF86F
:1026C000C81691EC060B80EC060BDFF8C006DFF8AD
:1026D000C01608605FF40020DFF8B41648600020E0
:1026E000DFF8AC1688600020DFF8A416C86001206F
:1026F000DFF89C1608610420DFF89416486100207A
:10270000DFF88C1688610020DFF88416C86102208B
:10271000DFF87C1608620020DFF87416486201209A
:10272000DFF86C16C8620020DFF86416086300202A
:10273000DFF85C1648630020DFF854168863002039
:10274000DFF84C16C863DFF8480604F08FF900285C
:1027500001D000F041FB0020069006A9DFF830060A
:1027600004F06CFD002801D000F036FB0120009041
:102770000120019005200290002003900020049089
:10278000002005906946DFF8080604F0E9FA002801
:1027900001D000F021FB0220009002200190694648
:1027A000DFF8EC0504F0DCFA002801D000F014FB9F
:1027B0007F21DFF8D805FDF732FD00E000BFDFF82C
:1027C000CC05FDF737FD0028F8D1DFF8C005FDF78F
:1027D0001EFD09B000BD80B5DFF8B805DFF8B815FB
:1027E0000860DFF8B805DFF8B01548600020DFF8B2
:1027F000A81588600120DFF8A015C8600020DFF868
:10280000981508610020DFF8901548610020DFF876
:10281000881588610020DFF88015C8610020DFF886
:1028200078150862DFF8700500F0FEFD002801D081
:1028300000F0D2FA0021DFF8600504F099FD0028CD
:1028400001D000F0C9FA0021DFF84C0504F0C1FD09
:10285000002801D000F0C0FA01BD00B58BB0684679
:10286000282102F0DFFFDFF83805DFF838150860AF
:102870000020DFF8301548607F20DFF828158860D9
:10288000FF20DFF82015C8600020DFF81815086168
:102890000020DFF8101548610020DFF80815886176
:1028A0000020DFF80015C861DFF8F80400F0F6FA40
:1028B000002801D000F090FADFF8E80404F0B8FD39
:1028C0000BB000BDC12B0020C22B0020C32B002069
:1028D000642B002080B5DFF8D004006850F400308D
:1028E000DFF8C4140860DFF8C004006810F400309A
:1028F00000900098DFF8B404804908604FF4165047
:102900007E49486000207D49886000207B49C8607E
:1029100000207A4908610C207849486100207749F5
:1029200088614FF400407549C8614FF400607349F5
:1029300008620820714948624FF400406F494863BB
:102940006E4800F0B7FF002801D000F045FA0022E1
:102950000021262004F0F8FD262004F006FE67483A
:102960000068006850F0010064490968086001BD12
:1029700090C200082C2B0020F82A002047070020D6
:10298000242B002060C2000800B587B05FF0204013
:10299000DFF81C140860DFF81C04DFF8141448602A
:1029A0000020DFF80C1488600020DFF80414C860F1
:1029B0000020DFF8FC1308610020DFF8F413486101
:1029C0000020DFF8EC1388610020DFF8E413C86111
:1029D0000020DFF8DC1308624FF48050DFF8D013DA
:1029E00048620020DFF8C81388620020DFF8C013B7
:1029F000C8620020DFF8B81308630020DFF8B013C6
:102A000048630020DFF8A81388630020DFF8A013D4
:102A100008640F2000900F200190FF2002900F20EB
:102A200003901020049011200590002006900022B1
:102A30006946DFF87C0300F0D1F9002801D000F0EE
:102A4000CBF95FF02040DFF870130860DFF8640313
:102A5000DFF8641348600220DFF85C138860002010
:102A6000DFF85413C8600020DFF84C130861102011
:102A7000DFF8441348610020DFF83C138861002030
:102A8000DFF83413C8610020DFF82C1308624FF41C
:102A90008050DFF8241348620020DFF81C1388629E
:102AA0000020DFF81413C8620020DFF80C1308635D
:102AB0000020DFF8041348630020DFF8FC1288636D
:102AC0000020DFF8F41208640F2000900F2001901E
:102AD000C82002900F200390102004901120059030
:102AE0000020069000226946DFF8CC0200F076F95B
:102AF000002801D000F070F907B000BDD4260020F6
:102B0000C0C10008D0C100086CBF0008E0C10008C7
:102B1000804F1200A62B0020AA2B0020042B00209F
:102B2000972B0020662B0020109802005C2B0020C1
:102B3000922B0020AC2B002048070020A82B00205F
:102B400000B587B001A8142102F06CFEDFF86C021A
:102B5000006850F00400DFF864120860DFF85C02DF
:102B6000006810F0040000900098DFF85002006840
:102B700050F02000914908609048006810F0200053
:102B8000009000988D48006850F080008B490860E4
:102B90008A48006810F0800000900098874800681C
:102BA00050F00100854908608448006810F0010079
:102BB000009000988148006850F002007F4908604A
:102BC0007E48006810F00200009000987B48006882
:102BD00050F04000794908607848006810F04000E3
:102BE000009000987548006850F010007349086024
:102BF0007248006810F01000009000986F4800685C
:102C000050F008006D4908606C48006810F008003A
:102C10000090009803F017FF00221C21684801F083
:102C200069FD002230215FF0904001F063FD002239
:102C300042F20321634801F05DFD1C200190012058
:102C40000290002003900020049001A95C4801F04C
:102C50005DFC4FF4FE500190002002900220039092
:102C60000020049001A9564801F050FC4FF47C600C
:102C7000019000200290022003900020049001A9FE
:102C8000514801F043FC4FF6C050019000200290E3
:102C9000022003900020049001A94C4801F036FC6A
:102CA0003020019001200290002003900020049029
:102CB00001A95FF0904001F029FC20200190002044
:102CC00002900020039001A93D4801F01FFC42F250
:102CD0000120019001200290002003900020049028
:102CE00001A9384801F012FC022001900020029056
:102CF000002003900020049001A9324801F006FC56
:102D00004FF4E0500190002002900120039001A9AF
:102D10002C4801F0FBFB04200190012002900020D0
:102D200003900020049001A9294801F0EFFB4FF423
:102D3000005001902748029000200390002004904A
:102D400001A91F4801F0E2FB00220321282004F022
:102D5000FBFB282004F009FC07B000BDA72B0020D6
:102D6000AB2B0020CB2B0020962B0020102B00201B
:102D7000B52B0020B32B00208D2B0020B22B002080
:102D8000B12B0020B42B002084BF000800000450A9
:102D90004C2700200054004018280020D38D8010BC
:102DA00000280040402A0020581002400044004003
:102DB00064280020040100A0B02800204C1002402C
:102DC00000080048000400480014004800180048AB
:102DD00000100048000011107047000070B504009A
:102DE0000D001600002C01D1012024E094F84500CC
:102DF000002805D1002084F84400200004F020FDC4
:102E000014F10801206804F03DFDA2682900206843
:102E100004F099FDE36AA2683100606804F0E8FDFF
:102E20002068A16850F8210050F001002168A268D4
:102E300041F82200002070BD10B5040094F8440051
:102E4000012801D102200DE0012084F84400A1688E
:102E5000206804F0FAFD012084F84500002084F881
:102E60004400002010BD10B5040094F8440001286F
:102E700001D1022010E0012084F84400022084F8EF
:102E80004500A168206804F0E8FD042084F84500AE
:102E9000002084F84400002010BD000010B504009C
:102EA000002C01D1012067E094F82100002805D111
:102EB000002084F82000200004F0F2FB022084F8B7
:102EC0002100CA20216848625320216848622000FE
:102ED00000F0DFF9002807D0FF20216848620420B5
:102EE00084F82100012047E020688068DFF8601343
:102EF0000840216888602068806861682269114301
:102F0000A2691143084321688860E068216808616C
:102F100020680069A16850EA0140216808612068C2
:102F2000C0687FF0800108402168C8602068806820
:102F300080060CD4200000F091F9002807D0FF2073
:102F400021684862042084F82100012014E02068F0
:102F5000C06C800880002168C8642068C06CE1698A
:102F60006269114308432168C864FF2021684862F0
:102F7000012084F82100002010BDF8B504000D00E8
:102F8000002694F82000012801D1022086E00120CB
:102F900084F82000022084F82100002A1BD1206838
:102FA0008068400601D40020E870287800F08DF990
:102FB0000600687800F089F90700A87800F085F924
:102FC000F6B2FFB2390251EA0641C0B20843E978CD
:102FD00050EA014614E020688068400604D528784D
:102FE00000F07EF9060001E00020E870287869789A
:102FF000090251EA0040A9780843E97850EA0146FD
:10300000CA2021684862532021684862200000F0ED
:1030100040F900280AD0FF2021684862042084F883
:103020002100002084F82000012037E0DFF824028E
:103030003040216808602068806830F48020216872
:10304000886020688068E9682A691143084321681C
:1030500088602068C0687FF0800108402168C860EF
:103060002068806880060FD4200000F0F7F8002860
:103070000AD0FF2021684862042084F82100002043
:1030800084F82000012009E0FF2021684862012027
:1030900084F82100002084F820000020F2BD10B543
:1030A0000C0000210168896A6160016809694904AE
:1030B000490CA16000680068DFF898110140080C15
:1030C00010F03F002070080A10F07F00607011F0CF
:1030D0007F00A070080C10F04000E070002A0BD1B7
:1030E000207800F0FDF82070607800F0F9F860704A
:1030F000A07800F0F5F8A070002010BDF8B504002D
:103100000D00002694F82000012801D1022079E06A
:10311000012084F82000022084F82100002A07D131
:103120006878C00604D5687810F0EF000A3068703F
:10313000002A15D1E87800F0C8F80600687800F099
:10314000C4F80700A87800F0C0F8F6B2FFB2390260
:1031500051EA0641C0B20843297850EA413611E0ED
:10316000687800F0BDF80600A87800F0B9F806000D
:10317000E8786978090251EA0040A978084329787B
:1031800050EA4136CA2021684862532021684862CB
:10319000200000F07EF800280AD0FF202168486255
:1031A000042084F82100002084F82000012029E078
:1031B000DFF8A4003040216848602068C0687FF0D4
:1031C000800108402168C8602068806880060FD4AC
:1031D000200000F043F800280AD0FF202168486250
:1031E000042084F82100002084F82000012009E058
:1031F000FF2021684862012084F82100002084F823
:1032000020000020F2BD10B50C00002100684068CD
:10321000DFF844100140080CE070080A10F01F00AD
:10322000607011F03F00A070480B10F00700207094
:10323000002A0BD1E07800F053F8E070607800F0DD
:103240004FF86070A07800F04BF8A070002010BD1F
:10325000BFFF8FFF7F7F7F003FFFFF0038B5040077
:1032600000252068C0687FF0A00108402168C86080
:1032700001F015F905002068C068800607D401F048
:103280000EF9401BB0F57A7FF5D9032000E000204D
:1032900032BD38B5040000252068C068400612D44D
:1032A0005FF0FF302168C86001F0F9F80500206880
:1032B000C068400607D401F0F2F8401BB0F57A7FF1
:1032C000F5D9032000E0002032BD002101E0491CB7
:1032D0000A38C0B20A28FADA50EA0110C0B27047C0
:1032E00000210100C9B20909C9B20A225143C0B282
:1032F00010F00F004018C0B27047000081627047A4
:10330000C162704701637047416951F00101416139
:10331000704700210180002141605FF0FF31816032
:103320000021C16000210174704738B504000D0010
:1033300000202068DFF8D0108C4212D0B4F1804F0A
:103340000FD0DFF8C8108C420BD0DFF8C4108C42CD
:1033500007D0DFF8C0108C4203D0DFF8BC108C42DD
:1033600004D17FF07001084069680843DFF89810C5
:103370008C421ED0B4F1804F1BD0DFF890108C42ED
:1033800017D0DFF88C108C4213D0DFF888108C42F5
:103390000FD0DFF884108C420BD0DFF880108C4205
:1033A00007D0DFF87C108C4203D0DFF878108C4215
:1033B00003D130F44070E96808432060A968200018
:1033C000FFF79EFF29882000FFF798FFDFF83800FD
:1033D00084420FD0DFF8400084420BD0DFF83C007D
:1033E000844207D0DFF83800844203D0DFF834008D
:1033F000844203D1297C2000FFF784FF2000FFF7DF
:1034000083FF012032BD0000002C01400004004079
:1034100000080040000C0040003401400040014022
:10342000004401400048014010B50400002C01D1C7
:1034300001205EE094F84100002805D1002084F8C6
:103440004000200004F0F9F8242084F841002068AE
:1034500000684008400021680860606830F07060D3
:10346000216808612068806830F400402168886025
:10347000E068012805D1A06850F400402168886008
:1034800004E0A06850F4044021688860E0680228E5
:1034900003D14FF40060216848602068406840F024
:1034A000007050F40040216848602068C06830F423
:1034B00000402168C860206961690843A16950EA39
:1034C00001202168C860E069216A0843216808601A
:1034D0002068006850F001002168086000206064E6
:1034E000202084F8410000202063002084F842005E
:1034F000002010BD2DE9F04182B004000D0016003F
:103500001F005FF0000894F84100202840F0B780C9
:1035100094F84000012801D10220B1E0012084F894
:10352000400000F0BCFF8046CDF800801923012246
:103530004FF40041200000F0B9F8002801D003202A
:103540009EE0212084F84100102084F842000020F1
:1035500060646662678500206063608DFF280FD914
:10356000FF2020854FF4005000905FF08073228D83
:10357000D2B2290089B2200000F058F9089E1BE061
:10358000608D20854FF4005000905FF00073228D15
:10359000D2B2290089B2200000F048F9EEE7FF20FE
:1035A0002085002000905FF08073228DD2B2290028
:1035B00089B2200000F03AF9608D00283CD04246E4
:1035C0003100200000F09EF8002806D0606C04282E
:1035D00001D1012054E0032052E0606A411C616285
:1035E000007821688862608D401E6085208D401EB5
:1035F0002085208D0028DFD1608D0028DCD0CDF81B
:103600000080330000228021200000F04FF80028C5
:1036100001D0032034E0608DFF28C0D8608D208564
:10362000002000905FF00073228DD2B2290089B291
:10363000200000F0FBF8BFE742463100200000F018
:103640008DF8002806D0606C042801D1012017E015
:10365000032015E020202168C86120684068DFF859
:103660002410084021684860202084F84100002090
:1036700084F84200002084F84000002000E002208E
:10368000BDE8F68100E800FE01688969890702D576
:1036900000210268916201688969C90705D401683F
:1036A000896951F001010068816170472DE9F0419D
:1036B00004000D0016001F00DDF8188020688069E6
:1036C0002840A84201D1012000E00020F6B2B0421B
:1036D00015D117F1010FF1D0002F05D000F0DFFE5A
:1036E000B0EB08008742E9D2202084F84100002096
:1036F00084F84200002084F84000032000E000200D
:10370000BDE8F08170B504000D00160020688069E6
:10371000800721D432002900200000F048F800285A
:1037200001D0012019E015F1010FEFD0002D04D0D8
:1037300000F0B5FE801B8542E8D2606C50F020009E
:103740006064202084F84100002084F842000020BA
:1037500084F84000032000E0002070BD70B5040034
:103760000D0016002068806980061ED432002900F2
:10377000200000F01CF8002801D0012016E0002DE8
:1037800004D000F08CFE801B8542EBD2606C50F0C0
:1037900020006064202084F84100002084F842006A
:1037A000002084F84000032000E0002070BD70B5C8
:1037B00004000D00160020688069C00634D520681A
:1037C0008069800614D415F1010FF8D0002D04D0C3
:1037D00000F065FE801B8542F1D2202084F8410074
:1037E000002084F84200002084F8400003201CE000
:1037F00010202168C86120202168C8612000FFF7DF
:1038000043FF20684068134908402168486004204D
:103810006064202084F84100002084F842000020E9
:1038200084F84000012000E0002070BD30B4002486
:1038300004686468084D2C4089B28905890DD2B2AC
:1038400051EA02411943029A11430C430068446053
:1038500030BC704700E800FE009800FC103A07D327
:1038600030B4B1E83810103AA0E83810F9D230BCC2
:10387000530724BFB1E80810A0E8081044BF51F86E
:10388000043B40F8043BD20724BF31F8022B20F858
:10389000022B44BF0B7803707047083A07D3B1E896
:1038A0000810083A40F8043B40F804CBF7D253071D
:1038B000E4E7000010B50400002C01D1012038E03D
:1038C000A0690028FFD194F87100002805D10020DC
:1038D00084F87000200003F015FF242084F87100A4
:1038E000206800684008400021680860200000F05F
:1038F0008DF9012801D101201BE0606A002802D067
:10390000200000F09BFB2068406830F49040216864
:103910004860206880687FF02A010840216888603C
:103920002068006850F0010021680860200000F065
:10393000F2FB10BD90F87130202B32D1002902D05B
:1039400092B2002A01D101202CE090F87030012BB6
:1039500001D1022026E0012380F87030C164A0F874
:103960005020A0F85220002141660021416721210A
:1039700080F871108168B1F5805F05D10169002977
:1039800002D13F49416601E03E494166002180F88D
:1039900070100168096851F0800100680160002022
:1039A00000E00220704790F87230202B66D1002989
:1039B00002D092B2002A01D1012060E090F870306C
:1039C000012B01D102205AE0012380F870304165BB
:1039D000A0F85820A0F85A20002101668168B1F5AE
:1039E000805F0BD10169002904D140F2FF11A0F8DA
:1039F0005C101FE0FF21A0F85C101BE0816800292B
:103A00000AD10169002903D1FF21A0F85C1011E05F
:103A10007F21A0F85C100DE08168B1F1805F09D1D1
:103A20000169002903D17F21A0F85C1002E03F2149
:103A3000A0F85C1000214167222180F87210016813
:103A4000896851F00101026891608168B1F5805F79
:103A500006D10169002903D1DFF8AC15016602E047
:103A6000DFF8A8150166002180F870100168096868
:103A700051F4907100680160002000E0022070475E
:103A8000754200083142000838B504002068C0695A
:103A9000216809682268926810F00F03002B0AD190
:103AA000850608D58D0606D5206E002802D0200098
:103AB000216E8847A7E0002B00F08080D30702D456
:103AC00011F4907F7AD010F00103DBB2002B08D004
:103AD000CB0506D5012325682B62636F53F00103E4
:103AE000636783070BD512F00103DBB2002B06D00E
:103AF000022325682B62636F53F004036367430757
:103B00000BD512F00103DBB2002B06D0042325688D
:103B10002B62636F53F00203636703070DD58B06B7
:103B200004D412F00102D2B2002A06D0082223687F
:103B30001A62626F52F008026267626F002A3CD01C
:103B4000800607D5880605D5206E002802D0200003
:103B5000216E8847606F000703D4206880684006A4
:103B600026D5200000F046FB2068806840061BD563
:103B7000206880687FF04001084021688860E06E1E
:103B800000280DD00FF29160E16E8863E06E03F0C3
:103B900071FF002811D0E06EE16E896B88470CE060
:103BA000200000F032F808E0200000F02EF804E0D9
:103BB000200000F02AF80020606724E0C3020FD53F
:103BC00052020DD55FF4801021680862202084F82D
:103BD0007100202084F87200200003F075FF12E0CD
:103BE000020608D50A0606D5606E002802D020001D
:103BF000616E884707E0400605D5480603D52000DA
:103C000000F05DFBFFE731BD70477047F8B5040079
:103C10000021102700200026002500202168DFF861
:103C2000F0239142FFD0A1682269114362691143D8
:103C3000E269114322681268DFF8D8331A40114351
:103C4000226811602168496831F44051E2681143EB
:103C500022685160A1692268DFF8B4339A4201D02A
:103C6000226A11432268926832F43062114322685A
:103C700091602168DFF8A023914216D1DFF89C13F0
:103C8000096811F00301002905D0022905D006D3E7
:103C9000032906D007E0012797E0022795E00427D3
:103CA00093E0082791E010278FE02168DFF8702368
:103CB000914217D1DFF86413096811F00C01002953
:103CC00006D0042908D0082904D00C2906D007E022
:103CD00000277AE0022778E0042776E0082774E0DE
:103CE000102772E02168DFF83C23914217D1DFF8FA
:103CF0002C13096811F03001002906D0102908D0D2
:103D0000202904D0302906D007E000275DE00227F3
:103D10005BE0042759E0082757E0102755E02168A9
:103D2000C14A914216D1BD49096811F0C00100296C
:103D300006D0402908D0802904D0C02906D007E049
:103D4000002742E0022740E004273EE008273CE04D
:103D500010273AE02168B54A914219D1AF49096864
:103D600011F44071002909D0B1F5807F0AD0B1F576
:103D7000007F05D0B1F5407F06D007E0002724E0A2
:103D8000022722E0042720E008271EE010271CE07D
:103D900021689F4A914218D1A049096811F44061F5
:103DA000002909D0B1F5806F0AD0B1F5006F05D0B8
:103DB000B1F5406F06D007E0002706E0022704E0D7
:103DC000042702E0082700E010272168904A91426A
:103DD00071D1FFB23900002906D0022907D0042989
:103DE00007D0082908D00AE002F0A2F908E09048BC
:103DF00006E002F027F903E04FF4004000E001255F
:103E0000002800F0F980616803225143884205D3FD
:103E100061684FF480525143814201D20125EBE0A9
:103E2000FFB2002F06D0022F15D0042F20D0082F6C
:103E30002ED035E002F07CF94FF4807162685208B0
:103E40000023E1FB0023100019006268002303F047
:103E50003DFE060025E0606840080021754A002309
:103E6000801859416268002303F030FE060018E014
:103E700002F0E8F802004FF4807360684008002107
:103E8000E3FB02016268002303F020FE060008E065
:103E90006068400810F500006168B0FBF1F600E0D2
:103EA0000125B6F540706449884202D22068C66098
:103EB000A2E00125A0E0E069B0F5004F53D1FFB2C8
:103EC000002F08D0012F11D0022F1AD0042F23D099
:103ED000082F2CD034E002F02BF96168490811EB6F
:103EE00040006168B0FBF1F6B6B22AE002F02BF9AF
:103EF0006168490811EB40006168B0FBF1F6B6B2A9
:103F00001FE06068400800F1F47010F590406168AF
:103F1000B0FBF1F6B6B214E002F094F8616849081B
:103F200011EB40006168B0FBF1F6B6B209E06068E1
:103F3000400810F580306168B0FBF1F6B6B200E0E1
:103F40000125B6F110004FF6F071884209D24FF604
:103F5000F0703040C6F34201084380B22168C86067
:103F60004AE0012548E0FFB2002F08D0012F10D011
:103F7000022F18D0042F21D0082F29D031E002F0D1
:103F8000D7F8616810EB51006168B0FBF1F6B6B28A
:103F900028E002F0D8F8616810EB51006168B0FBCE
:103FA000F1F6B6B21EE06068400800F5740010F546
:103FB00010506168B0FBF1F6B6B213E002F042F8BF
:103FC000616810EB51006168B0FBF1F6B6B209E030
:103FD0006068400810F500406168B0FBF1F6B6B2C9
:103FE00000E00125B6F110004FF6F071884202D2D0
:103FF0002068C66000E00125002020660020606681
:104000002800C0B2F2BD000041430008DF420008B2
:1040100000800040F369FFEF003801408810024043
:104020000044004000480040004C00400050004068
:104030000024F400000024F400FD0F0090F8241088
:10404000C90707D50168496831F40031826A114314
:104050000268516090F82410890707D50168496803
:1040600031F48031C26A11430268516090F8241023
:10407000490707D50168496831F48021026B114373
:104080000268516090F82410090707D50168496853
:1040900031F40041426B11430268516090F82410E2
:1040A000C90607D50168896831F48051826B1143D4
:1040B0000268916090F82410890607D50168896824
:1040C00031F40051C26B11430268916090F82410E2
:1040D000490613D50168496831F48011026C114317
:1040E00002685160016CB1F5801F07D10168496811
:1040F00031F4C001426C11430268516090F8241001
:10410000090607D50168496831F40021826C114322
:1041100000684160704738B50400002500206067E2
:1041200000F0BDF905002068006800070DD57FF09C
:104130007E4000902B0000225FF40011200000F070
:1041400021F8002801D003201BE020680068400708
:104150000DD57FF07E4000902B0000225FF480019F
:10416000200000F00FF8002801D0032009E02020F3
:1041700084F87100202084F87200002084F8700018
:10418000002032BD2DE9F04104000D0016001F0093
:10419000DDF818802068C0692840A84201D10120BC
:1041A00000E00020F6B2B04221D118F1010FF1D0A9
:1041B000B8F1000F04D000F072F9C01B8045E9D2BD
:1041C0002068006830F4D07021680860206880683A
:1041D0004008400021688860202084F87100202079
:1041E00084F87200002084F87000032000E00020B2
:1041F000BDE8F0810168096831F4907102681160CE
:10420000016889684908490002689160202180F8A6
:10421000721000210166704780B5806A0021A0F805
:104220005A100021A0F85210FFF7EFFC01BD00006A
:1042300090F8711021291CD1B0F8521000290DD12D
:10424000016809687FF0800211400268116001680E
:10425000096851F04001006801600AE0C16C4A1C25
:10426000C264097802681185B0F85210491EA0F89E
:104270005210704790F8711021291FD1B0F85210D8
:1042800000290DD1016809687FF0800211400268A1
:1042900011600168096851F04001006801600DE09B
:1042A000C16C0988C905C90D02681185C16C891CDA
:1042B000C164B0F85210491EA0F85210704780B582
:1042C000016809687FF040021140026811602021F6
:1042D00080F8711000214166FFF796FC01BD10B512
:1042E000B0F85C1090F87220222A22D10268928CD9
:1042F000436D5C1C446511401970B0F85A10491E9A
:10430000A0F85A1089B2002919D10168096831F45E
:104310009071026811600168896849084900026863
:104320009160202180F8721000210166FCF780FB6B
:1043300005E00168098B51F008010068018310BD98
:1043400080B5B0F85C2090F87210222923D1016862
:104350008B8C416D1A400A80416D891C4165B0F813
:104360005A10491EA0F85A1089B2002919D10168C3
:10437000096831F490710268116001688968490820
:10438000490002689160202180F8721000210166C6
:10439000FCF74EFB05E00168098B51F0080100684D
:1043A000018301BD80B528482849086000222849BA
:1043B0002648006803F029FD26492448006803F0D8
:1043C0002DFD002002BD00207047C0B2002810D093
:1043D00001280FD002280ED003280DD004280CD0BD
:1043E00020280BD021280AD0222809D0232808D041
:1043F00008E007E006E005E004E003E002E001E099
:1044000000E0FFE70020704710B504000221200003
:1044100000F009F821000C4803F000FD0A4803F001
:104420001FFD002010BD80B5030000200A0092B2DD
:1044300019000648006803F0E8FC0448006803F02F
:10444000F3FCC0B202BD00001C1F0020602B002046
:104450003C290020FC28002080B5032003F070F8E0
:10446000002000F004F803F099F8002002BD10B518
:104470000400144800684FF47A71B0FBF1F003F0C7
:1044800079F8002221005FF0FF3003F05DF8002092
:1044900010BD0D480068401C0B49086070470A4871
:1044A0000068704738B50400FFF7F9FF050014F104
:1044B000010F00D0641CFFF7F2FF401BA042FAD3AB
:1044C00031BD0000E40500204C2B002080B5002207
:1044D0000A490B4803F0E0FC0A49094803F0F4FCE0
:1044E0000949074803F088FC054804F0C0F8002893
:1044F00002D0034803F0F3FC01BD000008070020D0
:104500001C1F0020F4050020F806002078B40022CB
:104510000023002436E0072512F00306F6B2B600A9
:10452000B5402C43DFF80452960845F82640DFF8E2
:10453000004224689C434D68ED0300D51C43DFF81E
:10454000F0512C60DFF8EC4124689C434D68AD03CA
:1045500000D51C43DFF8DC512C60DFF8DC41246817
:104560009C434D68ED0200D51C43DFF8CC512C6014
:10457000724C24689C434D68AD0200D51C436F4BC0
:104580001C60521C0B68D340002B00F0B1800B68FC
:10459000012494402340002BF3D04C68022C02D01D
:1045A0004C68122C15D1D40800EB8404246A0F2522
:1045B00012F00706F6B2B600B540AC430D6912F032
:1045C0000706F6B2B600B5402C43D50800EB8505CA
:1045D0002C62046803251600F6B27600B540AC43A1
:1045E0000D7915F003051600F6B27600B5402C43A0
:1045F00004604C68012C08D04C68022C05D04C6833
:10460000112C02D04C68122C17D184680325160097
:10461000F6B27600B540AC43CD681600F6B276002F
:10462000B5402C438460446801259540AC434D68F7
:10463000C5F3001595402C4344600C7914F0030435
:10464000032C09D1C46A01259540AC434D68C5F3DC
:10465000C00595402C43C462C46803251600F6B219
:104660007600B540AC438D681600F6B27600B540D2
:104670002C43C4604C68E40083D5314C246854F06A
:1046800001042F4D2C602E4C246814F0010400947A
:10469000009C264C950854F825400F2512F003067F
:1046A000F6B2B600B540AC43B0F1904F01D1002551
:1046B00032E7244DA84201D101252DE7224DA84221
:1046C00001D1022528E7214DA84201D1032523E786
:1046D0001F4DA84201D104251EE71E4DA84201D15D
:1046E000052519E71C4DA8427FF415AF062513E7F1
:1046F00071BC7047D2B2002A02D089B2816101E058
:1047000089B281627047426989B251404161704704
:1047100080B51249096880B2014205D080B20F49C4
:10472000086080B200F01CF801BD000008000140E4
:104730000004014004040140080401400C0401404D
:10474000601002400004004800080048000C0048C7
:1047500000100048001400480018004814040140EC
:1047600070470000C0B2102190FBF1F201FB120172
:104770005FF0C0421170C0B2102190FBF1F0103018
:104780005FF0C0410870704710B5030008000024B6
:10479000DFF8C019DBB2052463431944B1F1A0046A
:1047A00052F0B0015FF0C042117004215FF0C042CE
:1047B000117010215FF0C0421170C0B2FFF7D2FF3C
:1047C000002005E02178DFF8982D1170641C401C52
:1047D000C0B20528F6DB10BD10B5030008000024A8
:1047E000DBB27A2B00D15A23DFF86C19DBB2052437
:1047F00063431944B1F1A00452F0B0015FF0C0422C
:10480000117004215FF0C042117010215FF0C042AE
:104810001170C0B2FFF7A6FFFF20DFF8441D08703B
:10482000002006E02178C943DFF8342D1170641CA4
:10483000401CC0B20528F5DB10BD70B504000D00AA
:10484000042608E02A00D2B23100C9B22078FFF76E
:10485000C3FF641CB61D20780028F3D170BD2DE97C
:10486000F04104000D00160000275FF004080AE084
:104870002A00D2B24146C9B22078FFF785FF641CF6
:104880007F1C18F10608207800280DD03800310070
:10489000C0B2C9B28842EBD22A00D2B24146C9B2F4
:1048A0002078FFF799FFEAE7BDE8F08170B50400D2
:1048B0000D00042608E02A00D2B23100C9B22078E7
:1048C000FFF762FF641CB61D20780028F3D170BD8D
:1048D000AE205FF0C041087020205FF0C04108703A
:1048E00002205FF0C0410870B0205FF0C041087046
:1048F000C8205FF0C041087040205FF0C0410870E0
:10490000FF205FF0C041087030205FF0C0410870A8
:10491000A1205FF0C0410870A6205FF0C041087080
:10492000A8205FF0C04108701F205FF0C0410870F0
:10493000A4205FF0C0410870D3205FF0C041087030
:1049400000205FF0C0410870D5205FF0C0410870C2
:1049500010205FF0C0410870D9205FF0C04108709E
:1049600022205FF0C0410870DA205FF0C04108707B
:1049700012205FF0C0410870DB205FF0C04108707A
:1049800020205FF0C04108708D205FF0C0410870AA
:1049900014205FF0C0410870AF205FF0C041087084
:1049A0007047002104E3DFF8A82CD279002A14D143
:1049B000DFF8B02BC9B20A44127CDFF8983CC9B2C8
:1049C0000B4483F87020DFF89C2BC9B2525CDFF8EF
:1049D000843CC9B20B4483F8F020DFF8742CD27900
:1049E000012A14D1DFF8802BC9B20A44127CDFF807
:1049F000643CC9B20B4483F87020DFF86C2BC9B259
:104A0000525CDFF8503CC9B20B4483F8F020DFF869
:104A1000402CD279022A14D1DFF83C2CC9B20A44C6
:104A2000127CDFF8303CC9B20B4483F87020DFF809
:104A3000282CC9B2525CDFF81C3CC9B20B4483F885
:104A4000F020DFF80C2CD279032A14D1DFF80C2CDB
:104A5000C9B20A44127CDFF8FC3BC9B20B4483F8AC
:104A60007020DFF8F82BC9B2525CDFF8E83BC9B21E
:104A70000B4483F8F020DFF8E82BD278012A12D11A
:104A8000DFF8E02BC9B20A44127CDFF8C83BC9B298
:104A90005A54DFF8D02BC9B2525CDFF8B83BC9B228
:104AA0000B4483F88020DFF8B82BD278022A12D189
:104AB000DFF8B42BC9B20A44127CDFF8983BC9B2C4
:104AC0005A54DFF8A42BC9B2525CDFF8883BC9B254
:104AD0000B4483F88020DFF8882BD278002A12D18B
:104AE000DFF8882BC9B20A44127CDFF8683BC9B2F0
:104AF0005A54DFF8782BC9B2525CDFF8583BC9B280
:104B00000B4483F88020DFF8482B5279002A14D117
:104B1000DFF8582BC9B20A44127CDFF8383BC9B21F
:104B20000B4483F83020DFF8442BC9B2525CDFF825
:104B3000243BC9B20B4483F8B020DFF8142B527920
:104B4000012A14D1DFF8282CC9B20A44127CDFF8FC
:104B5000043BC9B20B4483F83020DFF8142CC9B2EF
:104B6000525CDFF8F03AC9B20B4483F8B020DFF8AA
:104B7000E02A527A002A14D1DFF8F02AC9B20A4496
:104B8000127CDFF8D03AC9B20B4483F85020DFF82A
:104B9000DC2AC9B2525CDFF8BC3AC9B20B4483F8D4
:104BA000D020DFF8AC2A527A022A14D1DFF8C42BC5
:104BB000C9B20A44127CDFF89C3AC9B20B4483F8AC
:104BC0005020DFF8B02BC9B2525CDFF8883AC9B286
:104BD0000B4483F8D020DFF8782A527A012A14D1C6
:104BE000DFF8942BC9B20A44127CDFF8683AC9B2E4
:104BF0000B4483F85020DFF8802BC9B2525CDFF8F9
:104C0000543AC9B20B4483F8D020DFF8442A527AD0
:104C1000032A2FD1C0B2002814D1DFF8502AC9B21C
:104C20000A44127CDFF82C3AC9B20B4483F85020B6
:104C3000DFF8382AC9B2525CDFF8183AC9B20B441F
:104C400083F8D020C0B2012814D1DFF82C2BC9B2D0
:104C50000A44127CDFF8FC39C9B20B4483F85020B7
:104C6000DFF8142BC9B2525CDFF8E839C9B20B4443
:104C700083F8D020DFF8D829127A002A14D1DFF87F
:104C8000EC29C9B20A44127CDFF8C839C9B20B4416
:104C900083F86020DFF8D429C9B2525CDFF8B43958
:104CA000C9B20B4483F8E020DFF8A429127A012A64
:104CB00014D1DFF8C82AC9B20A44127CDFF894394B
:104CC000C9B20B4483F86020DFF8B02AC9B2525C45
:104CD000DFF88039C9B20B4483F8E020DFF870298F
:104CE000127A022A14D1DFF8982AC9B20A44127C37
:104CF000DFF86039C9B20B4483F86020DFF8802AFE
:104D0000C9B2525CDFF84C39C9B20B4483F8E020D9
:104D1000DFF83C29127A032A14D1DFF8682AC9B2D5
:104D20000A44127CDFF82C39C9B20B4483F86020A6
:104D3000DFF8502AC9B2525CDFF81839C9B20B4407
:104D400083F8E020DFF80829127A042A14D1DFF86A
:104D5000382AC9B20A44127CDFF8F838C9B20B44C9
:104D600083F86020DFF8202AC9B2525CDFF8E4380B
:104D7000C9B20B4483F8E020DFF8D428127A052A60
:104D800014D1DFF8082AC9B20A44127CDFF8C4380B
:104D9000C9B20B4483F86020DFF8F029C9B2525C35
:104DA000DFF8B038C9B20B4483F8E020DFF8A02860
:104DB0009279002A14D1DFF8D829C9B20A44127CAA
:104DC000DFF89038C9B20B4483F84020DFF8C029DF
:104DD000C9B2525CDFF87C38C9B20B4483F8C020FA
:104DE000DFF86C289279012A14D1DFF8A429C9B21E
:104DF0000A44127CDFF85C38C9B20B4483F84020C7
:104E0000DFF88C29C9B2525CDFF84838C9B20B44CC
:104E100083F8C020DFF838289279022A14D1DFF80D
:104E20007429C9B20A44127CDFF82838C9B20B448D
:104E300083F84020DFF85C29C9B2525CDFF81438EF
:104E4000C9B20B4483F8C020DFF804289279032A02
:104E500014D1DFF84029C9B20A44127CDFF8F437D4
:104E6000C9B20B4483F84020DFF82829C9B2525C4C
:104E7000DFF8E037C9B20B4483F8C020DFF8D02751
:104E80009279042A14D1DFF81029C9B20A44127C9D
:104E9000DFF8C037C9B20B4483F84020DFF8F828A8
:104EA000C9B2525CDFF8AC37C9B20B4483F8C020FA
:104EB000DFF89C27D278002A13D1DFF8E028C9B2A6
:104EC0000A44127CDFF88C37C9B20B441A74DFF83D
:104ED000CC28C9B2525CDFF87C37C9B20B4483F8E6
:104EE0009020DFF86C27D278012A13D1DFF8B028A0
:104EF000C9B20A44127CDFF85C37C9B20B441A7499
:104F0000DFF89C28C9B2525CDFF84837C9B20B44BD
:104F100083F89020DFF83827D278022A13D1DFF8FF
:104F20008428C9B20A44127CDFF82837C9B20B447E
:104F30001A74DFF87028C9B2525CDFF81837C9B2AA
:104F40000B4483F89020DFF808271279002A14D147
:104F5000DFF85428C9B20A44127CDFF8F836C9B227
:104F60000B4483F82020DFF84028C9B2525CDFF8F8
:104F7000E436C9B20B4483F8A020DFF8D4261279B6
:104F8000012A14D1DFF82428C9B20A44127CDFF8C0
:104F9000C436C9B20B4483F82020DFF81028C9B208
:104FA000525CDFF8B036C9B20B4483F8A020491C2C
:104FB000C9B21029FFF6F7ACB3205FF0C04108700A
:104FC00004205FF0C041087010205FF0C0410870FD
:104FD000002007E0DFF87C16C0B2095CDFF880250E
:104FE0001170401CC0B28028F4DBB2205FF0C041D9
:104FF000087004205FF0C041087010205FF0C041CD
:105000000870002009E0DFF84C16C0B2014491F8A6
:105010008010DFF84C251170401CC0B28028F2DBF4
:10502000704710B50400002000F07CFADFF88027FC
:10503000DFF88007E4B2012C40F08080DFF8101622
:105040000979012975D10121FFF730FC022000F018
:1050500069FA032000F066FA00202EE0DFF8F01570
:105060004979012911D1DFF80817C0B20144097C40
:10507000DFF84427C0B21154DFF8F416C0B2095C5F
:10508000DFF83427C0B202441174DFF8C41549793F
:10509000002911D1DFF8D415C0B20144097CDFF832
:1050A0001827C0B21154DFF8C415C0B2095CDFF88C
:1050B0000827C0B202441174401CC0B21028CDDBD6
:1050C000B3205FF0C041087004205FF0C041087059
:1050D00010205FF0C04108701420FFF743FB002050
:1050E00007E0DFF8D416C0B2095CDFF87424117051
:1050F000401CC0B21028F4DBB2205FF0C041087041
:1051000004205FF0C041087010205FF0C0410870BB
:105110001420FFF727FB0020C0B2102817DADFF8B1
:105120009816C0B20144097CDFF834241170401C89
:10513000F2E701211000FFF7B9FB08E0012000F0C1
:10514000F1F9022000F0EEF9032000F0EBF910BDB8
:105150000000000000000020A404002010B504009E
:105160000020CAE02021DFF85426C0B2024482F8B1
:105170003210DFF8EC14C978002909D1DFF84016A5
:10518000C0B2095CDFF83426C0B2024482F84B108A
:10519000DFF8CC14C978012909D1DFF82816C0B28C
:1051A000095CDFF81826C0B2024482F84B10DFF821
:1051B000B014C978022909D1DFF80C16C0B2095C15
:1051C000DFF8F825C0B2024482F84B10DFF89014E3
:1051D0000979002909D1DFF8F415C0B2095CDFF8BC
:1051E000DC25C0B2024482F86410DFF87414097937
:1051F000012909D1DFF8D815C0B2095CDFF8BC2558
:10520000C0B2024482F86410DFF8541449790029CE
:1052100009D1DFF8C015C0B2095CDFF8A025C0B223
:10522000024482F87D10DFF838144979012909D148
:10523000DFF8A415C0B2095CDFF88025C0B20244D3
:1052400082F87D10DFF818148979002909D1DFF878
:105250008C15C0B2095CDFF86425C0B2024482F844
:105260009610DFF8FC138979012909D1DFF8701550
:10527000C0B2095CDFF84425C0B2024482F896103F
:10528000DFF8DC13C979002909D1DFF85815C0B25D
:10529000095CDFF82825C0B2024482F8AF10DFF8BD
:1052A000C013C979012909D1DFF83C15C0B2095CE6
:1052B000DFF80825C0B2024482F8AF10DFF8A0136F
:1052C000097A002909D1DFF82415C0B2095CDFF89A
:1052D000EC24C0B2024482F8C810DFF88413097AC3
:1052E000012909D1DFF80815C0B2095CDFF8CC2428
:1052F000C0B2024482F8C810401CC0B2152880F227
:105300008480D7490978002907D1DFF8E814C0B2B2
:10531000095CDFF8A824C0B21154D14909780129E9
:1053200007D1DFF8D414C0B2095CDFF89024C0B212
:105330001154CB490978022907D1DFF8C014C0B253
:10534000095CDFF87824C0B21154C0B2112809DA20
:10535000DFF8AC14C0B2095CDFF86024C0B20244CC
:10536000517623E0BE4949780A290BD1DFF894141D
:10537000C0B2014411F8111CDFF84024C0B202444D
:10538000517613E0C0B211280AD1DFF87C14B44A78
:105390005278895CDFF82424C0B20244517605E0DB
:1053A0002021DFF81824C0B202445176C0B211287F
:1053B0000ADADFF85814C0B2095CDFF80024C0B282
:1053C000024482F83210D4E6A54989780A290CD122
:1053D000DFF83014C0B2014411F8111CDFF8DC23EF
:1053E000C0B2024482F83210C3E6C0B211287FF482
:1053F000B9AEDFF814149A4A9278895CDFF8BC23BE
:10540000C0B2024482F83210B3E6E4B2022C0AD1F0
:105410000021DFF8A803DFF8F823127819235A4394
:105420001044FFF70AFAE4B2012C0AD10021DFF898
:105430008C03DFF8DC23127819235A431044FFF75A
:1054400035FAE4B2002C02D1002000F06BF8DFF84E
:10545000C0030078062820DA0121D848DFF8B023FD
:10546000127819235A4310441930FFF71FFA02210A
:10547000D248DFF89C23127819235A431044323063
:10548000FFF714FA0321CD48DFF88423127819239B
:105490005A4310444B30FFF709FADFF874030078E1
:1054A000062817D10121C548D94A127819235A4331
:1054B00010441930FFF7FAF90221C048D44A127893
:1054C00019235A4310443230FFF7F0F90321BB4847
:1054D000FFF7ECF9CE480078072811D10121B74831
:1054E000CB4A127819235A4310441930FFF7DEF9DA
:1054F0000221B248FFF7DAF90321C648FFF7D6F9CF
:10550000C348007808280BD10121AC48FFF7CEF939
:105510000221C048FFF7CAF90321BF48FFF7C6F9C7
:1055200010BD000050F0B0005FF0C04108700420D2
:105530005FF0C041087010205FF0C041087000208B
:1055400005E000BF491CB1F5FA7FFAD3401C80B2D8
:10555000802804DA0021024A11700021F3E7704725
:105560000100006084020020A4020020B0205FF04F
:10557000C041087004205FF0C041087010205FF047
:10558000C0410870002005E000BF491CB1F5FA7F5A
:10559000FAD3401C80B2802804DA00219F4A11709F
:1055A0000021F3E7B1205FF0C041087004205FF0F4
:1055B000C041087010205FF0C0410870002005E075
:1055C00000BF491CB1F5FA7FFAD3401C80B2802895
:1055D00004DA0021914A11700021F3E7B2205FF054
:1055E000C041087004205FF0C041087010205FF0D7
:1055F000C0410870002005E000BF491CB1F5FA7FEA
:10560000FAD3401C80B2802804DA0021834A11704A
:105610000021F3E7B3205FF0C041087004205FF081
:10562000C041087010205FF0C0410870002005E004
:1056300000BF491CB1F5FA7FFAD3401C80B2802824
:1056400004DA0021754A11700021F3E77047000069
:10565000042B002060220020C4020020E40200206D
:10566000102B00204402002064020020642A002045
:10567000B0205FF0C041087004205FF0C0410870A6
:1056800010205FF0C0410870002005E000BF491CF9
:10569000B1F5FA7FFAD3401C80B2802806DA60495F
:1056A00080B2095C5D4A11700021F1E7B1205FF022
:1056B000C041087004205FF0C041087010205FF006
:1056C000C0410870002005E000BF491CB1F5FA7F19
:1056D000FAD3401C80B2802808DA514980B20144D4
:1056E00091F880104D4A11700021EFE7B2205FF071
:1056F000C041087004205FF0C041087010205FF0C6
:10570000C0410870002005E000BF491CB1F5FA7FD8
:10571000FAD3401C80B2802808DA414980B20144A3
:1057200091F800113D4A11700021EFE7B3205FF0BE
:10573000C041087004205FF0C041087010205FF085
:10574000C0410870002005E000BF491CB1F5FA7F98
:10575000FAD3401C80B2802808DA314980B2014473
:1057600091F880112D4A11700021EFE77047000079
:10577000E4030020C4030020A403002084030020CD
:1057800004030020240300204403002064030020BD
:10579000440400206404002084040020E40100206C
:1057A000040200202402002004040020240400201D
:1057B000F0C1000800C2000860230020602400201F
:1057C00044C0000814C000082CC0000874C00008C1
:1057D0005CC00008A4C000088CC00008D4C0000849
:1057E000BCC0000804C10008ECC000081CC10008CF
:1057F00034C100089CBF0008B4BF0008CCBF00083B
:10580000E4BF0008A8C200086CC20008FCBF000882
:10581000962B0020792400209224002001000060B3
:10582000A0BA0008002202F02BBF000070B582B0C1
:10583000040000252078C0065AD5DFF8B4090068B6
:1058400010F00C0F40F0A080DFF81009006880070E
:1058500004D5A069002801D1012003E3DFF8FC088A
:105860000068000705D5DFF8F408006810F0F000C4
:1058700005E0DFF888090068000910F0F000216AEF
:1058800088425CD2206A00F06BFC002801D0012025
:10589000E8E2DFF8C808006850F00800DFF8BC183C
:1058A0000860DFF8B80800687FF0F0010840216A5E
:1058B0000843DFF8A8180860DFF84409006830F4EE
:1058C0007F40E16950EA0120DFF83419086000F0F8
:1058D000B9FBDFF83019DFF818291268C2F3031298
:1058E000895CC840DFF8101908600020FEF7BFFD92
:1058F0002078C00740F1EC80DFF8F408006810F071
:105900000C0008280FD0DFF8E808006810F00C0041
:105910000C2840F08A80DFF8DC08006810F00300F3
:10592000032840F08280DFF834080068800340F1EB
:10593000CF806068002840F0CB80012092E2DFF841
:105940001C08006850F00800DFF810180860DFF845
:105950000C0800687FF0F0010840216A0843DFF876
:10596000FC170860DFF89808006830F47F40E169B0
:1059700050EA0120DFF888180860206A00F0F0FB88
:105980000028A4D001206DE2A069002835D0DFF8FE
:10599000CC07006850F00100DFF8C0170860FEF780
:1059A0007EFD0500DFF8B4070068800706D4FEF727
:1059B00076FD401B0328F5D3032053E2DFF89C0754
:1059C000006850F00800DFF894170860DFF88C07D3
:1059D00000687FF0F0010840216A0843DFF87C1777
:1059E0000860DFF81C08006830F47F40E16950EA85
:1059F0000120DFF80C1808607AE7DFF8600700681C
:105A000040084000DFF854170860FEF748FD050025
:105A1000DFF84807006880077FF56AAFFEF73FFDB3
:105A2000401B0328F4D303201CE26068B0F5803FDC
:105A300008D1DFF82807006850F48030DFF81C1721
:105A4000086024E06068B0F5A02F10D1DFF80C07E3
:105A5000006850F48020DFF804170860DFF8FC06C7
:105A6000006850F48030DFF8F41608600FE0DFF8CB
:105A7000EC06006830F48030DFF8E0160860DFF8EC
:105A8000DC06006830F48020DFF8D016086060681B
:105A900000280ED0FEF703FD0500DFF8C006006801
:105AA000800315D4FEF7FBFC401B6528F5D30320CB
:105AB000D8E1FEF7F4FC0500DFF8A00600688003DB
:105AC00006D5FEF7ECFC401B6528F5D30320C9E1A1
:105AD0002078800729D5DFF81807006810F00C003F
