:020000040800F2
:10000000500B002065C1000843A5000845A5000865
:1000100047A5000849A500084BA5000800000000FE
:100020000000000000000000000000004DA50008D6
:100030004FA500080000000051A5000853A50008C6
:10004000C1C10008C5C10008C9C10008CDC1000870
:10005000D1C10008D5C10008D9C10008DDC1000820
:10006000E1C10008E5C10008E9C10008EDC10008D0
:10007000F1C10008F5C10008F9C10008FDC1000880
:1000800001C2000805C2000809C200080DC200082C
:1000900011C2000815C2000819C200081DC20008DC
:1000A00021C2000825C2000829C200082DC200088C
:1000B00031C2000835C2000839C200083DC200083C
:1000C00041C2000845C2000849C200084DC20008EC
:1000D00051C2000855C200085BA5000859C20008BB
:1000E0005DC2000861C2000865C2000869C200085C
:1000F0006DC2000871C2000875C2000879C200080C
:100100007DC2000881C2000885C2000889C20008BB
:100110008DC2000891C2000895C200086DA50008B4
:1001200099C200089DC20008A1C20008A5C200082B
:10013000A9C20008ADC20008B1C20008B5C20008DB
:10014000B9C20008BDC20008C1C2000841B600081B
:10015000C5C20008C9C20008CDC20008D1C200084B
:10016000D5C20008D9C20008DDC20008E1C20008FB
:10017000E5C20008E9C20008EDC200080000000066
:10018000F1C20008F5C20008DFF8CC0B0068C0F32C
:1001900002207047012110F01F029140DFF8BC2BB4
:1001A00040B2400942F82010704740B2002809D5FB
:1001B0000901DFF8602940B210F00F00104400F888
:1001C000041C04E00901DFF8982B40B21154704779
:1001D00010B410F00700D0F10703052B01D304235E
:1001E00001E0D0F10703041D072C01D2002000E03C
:1001F000C01E012414FA03F35B1E19408140012341
:1002000013FA00F0401E1040084310BC704781688C
:10021000DFF8502B114051F0010181607047826876
:10022000DFF8443B1A4011F08041114351F0004186
:10023000816070478068C00F70478168DFF8242BA9
:10024000114051F0040181607047016851F00101D3
:100250000160704701687FF0020211400160704741
:10026000C16851F00101C160704781B0DFF8FC1A2C
:1002700009680143DFF8F42A1160DFF8F01A096811
:1002800008400090009801B07047000038B50400A5
:100290000D00DFF8DC0A0068B0F5802F22D2DFF80D
:1002A000D40A02F0FCFC002012E0C0B234F81010B6
:1002B000DFF8BC2A1268520002F1C84220321180D5
:1002C000DFF8AC1A0968491CDFF8A42A1160401C49
:1002D00001002A00C9B2D2B29142E6D3DFF8940AF3
:1002E00002F0C6FC31BD70B504000D001600DFF849
:1002F000840A02F0D4FC00200BE0C0B2710011EBC4
:10030000400101F1C84120310988C0B224F8101021
:10031000401C01002A00C9B2D2B29142EDD3DFF8ED
:10032000540A02F0A5FC70BD38B504000D00DFF8DA
:10033000440A02F0B4FCEDB2680010F1C840048039
:10034000DFF8300A02F094FC31BD38B50400002516
:10035000DFF8200A02F0A3FCE4B2600010F1C8400C
:100360000588DFF8100A02F083FC280080B232BD55
:1003700010B50400DFF8FC0902F091FCDFF8F00989
:100380000068400000F1C84020300480DFF8E00938
:100390000068401CDFF8D8190860DFF8D40900684D
:1003A000DFF8D4190860DFF8CC0902F061FC10BD59
:1003B00038B50400DFF8C409DFF8C429128820F832
:1003C0001240DFF8BC090088401CDFF8B429108017
:1003D000DFF8AC0900881E2803DB0020DFF8A02925
:1003E0001080DFF8A00900781E280DDADFF89409E4
:1003F0000078401CDFF88C291070DFF88C09007839
:10040000401CDFF884291070DFF8780900781E2876
:10041000C0F23F82DFF8700900781E2806DADFF8A4
:1004200068090078401CDFF8602910700020DFF8B0
:100430005C29108040F6FF70DFF8542910800020FE
:1004400024E0DFF848291288DFF83039C0B233F8E9
:1004500010309A4207D2DFF82429C0B232F81020B7
:10046000DFF828391A80DFF81429C0B232F81020DA
:10047000DFF81C391B889A4207D2DFF80029C0B286
:1004800032F81020DFF808391A80401CC0B21D284D
:10049000D7DB89B2DFF8F4080088DFF8F428128887
:1004A000801A81422ADADFF8E00800781E2811DB82
:1004B0000120DFF8E0180870DFF8DC080078012878
:1004C00003D00120DFF8D41808700120DFF8C81825
:1004D00008701FE00120DFF8BC1808700120DFF869
:1004E000B81808700020DFF8B4180870DFF8980812
:1004F0000078401EDFF8901808700BE00020DFF84D
:10050000A01808700020DFF88C1808700020DFF8B1
:1005100088180870DFF87C080078012840F02F81E7
:100520000022DFF88018DFF8800802F0D4FC0022F7
:10053000DFF87818DFF8700802F081FDDFF8640852
:100540008078DFF86C188870DFF858084078DFF89A
:1005500060184870DFF84C080078DFF8541808700D
:10056000DFF848088078DFF84C188870DFF83C081E
:100570004078DFF840184870DFF83008C078DFF8BE
:100580003418C8700120DFF830184871DFF80C0803
:100590000078012840F0A68047F23150DFF81C189F
:1005A00008600020DFF818180870DFF8C40700683A
:1005B000DFF8101808600120DFF8E4170870DFF892
:1005C00008080078401CDFF8001808700020DFF8E9
:1005D000FC1708804AF65520DFF8F0174880DFF84E
:1005E000E8070078DFF8E4178880DFF8E407007890
:1005F000DFF8D817C880DFF8DC070078DFF8CC1701
:100600000881DFF8D0074088DFF8C0174881DFF89D
:10061000C4070079DFF8B4178881DFF8B807C0880D
:10062000DFF8A817C881DFF8AC070089DFF89C174E
:100630000882DFF8A007807ADFF890174882DFF899
:1006400074078078DFF884178882DFF868074078BD
:10065000DFF87817C882DFF85C07C078DFF86C171E
:100660000883DFF84C070078DFF860174883DFF86D
:1006700040074078DFF854178883DFF83407807824
:10068000DFF84817C883DFF84C07C08980B2000A3A
:10069000C0B2DFF8381708841121DFF83007FFF700
:1006A000F5FD002517E0DFF830070088411CDFF872
:1006B00028271180DFF8C41680B231F81000FFF748
:1006C00057FEDFF8140700881E2803DB0020DFF840
:1006D000081708806D1CEDB21D2DE4DB0020DFF84B
:1006E000BC160870DFF8B4060078002836D1DFF8B1
:1006F000980600781E2831DA0120DFF8A416087069
:10070000DFF884060078002820D0002517E0DFF805
:10071000C8060088411CDFF8C0261180DFF85C168F
:1007200080B231F81000FFF723FEDFF8AC06008836
:100730001E2803DB0020DFF8A01608806D1C2800AF
:10074000DFF844160978C0B28842E0D3200080B2B6
:10075000FFF70EFE0020DFF830160870DFF83C06C9
:100760000078002840F08F80DFF81C0600781E28F3
:1007700040F08980200080B2FFF7FAFD83E0DFF8C7
:100780005C060078012867D100241BE0DFF84806EA
:100790000088411CDFF840261180DFF8E01580B2A8
:1007A00031F81000FFF7E4FDDFF82C0600881E2862
:1007B00003DB0020DFF8201608800020DFF8C815D2
:1007C0000870641CE4B21D2CE0DB0621DFF8A005F4
:1007D0000068000C80B2FFF7A7FD0721DFF8900545
:1007E000006880B2FFF7A0FD0821DFF8DC05007883
:1007F00080B2FFF799FDDFF8C805007800282BD1FB
:10080000DFF8B8050068002826D0DFF8BC050078BE
:10081000401EDFF8B41508700020DFF8A01508604E
:100820000821DFF8A405007880B2FFF77DFDDFF82E
:1008300094050068DFF8381508600621DFF83005F8
:100840000068000C80B2FFF76FFD0721DFF820057C
:10085000006880B2FFF768FDDFF884050088401C5F
:10086000DFF87C150880DFF87C050078DFF870156C
:10087000098880B2884206D2DFF85C050088401CF7
:10088000DFF854150880DFF810050078DFF84C1504
:10089000087031BD00B585B02020FFF7E6FC684642
:1008A00002F053FC6320029000200390002001908E
:1008B0002F20ADF800006946DFF82C0502F051FC4E
:1008C000DFF82405FFF7C6FCFFF75EFC00220021DD
:1008D000FFF77EFC01003720FFF767FCDFF8080513
:1008E000FFF7BEFC3720FFF755FCDFF8FC04FFF7ED
:1008F000ACFC05B000BD0FB438B5179D189C4FF483
:100900007A700090E4B223009BB2DFF8E024EDB2ED
:10091000290089B204A802F009FD002804D004A827
:1009200002F0CEFD0428EAD131BC5DF814FB0FB40F
:1009300038B5179D189C4FF47A700090E4B22300EC
:100940009BB2DFF8AC24EDB2290089B204A802F012
:10095000EDFC002804D004A802F0B2FD0428EAD17E
:1009600031BC5DF814FB0000F0B59BB01020DFF83F
:1009700080140870CA20DFF8781448700024C82555
:100980003BE0DFF8701409780129FAD10021DFF883
:1009900064241170DFF86014098811AAC0B222F82B
:1009A0001010310011AAC0B232F8102089B2914261
:1009B00003D211A9C0B231F8106011A9C0B231F848
:1009C00010103A0092B2914203D211A9C0B231F88C
:1009D0001070C0B2002806D0ADB2B6B2BFB2F11BE3
:1009E0008D4200DA0124401CC0B20A28C9DBDFF8BE
:1009F00000044078332800DA0124E4B2012C22D02C
:100A0000DFF8EC034078801EDFF8E413487000261E
:100A100040F6FF770220109058200F90DFF8DC138B
:100A200084B068464C2202F037FE0FBCFFF77FFF10
:100A3000002001E000BF401C80B242F210718842E9
:100A4000F8DB0020D0E7DFF8A8034078801CDFF84F
:100A5000A0134870DFF898034078DFF8A4130870FB
:100A60001BB0F0BD80B5DFF89C13884250D1012245
:100A7000DFF89413DFF88C0302F0B3FEDFF888038D
:100A80000078DFF88813DFF8882312788854DFF8BD
:100A900080030078401CDFF878130870DFF87003DB
:100AA0000078C82803DB0020DFF864130870DFF843
:100AB00058030078242804D0DFF858030078012870
:100AC00026D10120DFF84C130870DFF83C030078D2
:100AD000DFF84413DFF8442312788854DFF83C032E
:100AE0000078401CDFF834130870DFF82C03DFF8BF
:100AF0002C130978084410F8010C2A2808D100208A
:100B0000C44908700020C54908700120C449087014
:100B100001BD000018ED00E000B591B0C1480078BB
:100B20007F2803D1BF484078AA2804D0BE48007867
:100B3000012840F00F81BC480078012831D1BB4822
:100B400000682030B9490860B8480068B849098889
:100B5000884202D30020B4490870B44802682021BA
:100B6000B448FFF7C0FB002013E0B249C0B231F82F
:100B7000101089B2090AB04AC0B202F81010AD498B
:100B8000C0B231F81010AC4AC0B202EB4002517052
:100B9000401CC0B22028E8DB4021A74803F061FBDD
:100BA000D8E0A048C07801283DD10720FFF7CDFB51
:100BB0009F49088000209D490860002220219D480F
:100BC000FFF791FB00209C49087000209A4948706B
:100BD0009748008880B2000A974988709448008836
:100BE0009549C870002014E09249C0B231F8101045
:100BF00089B2090A904AC0B202EB400211718D49D4
:100C0000C0B231F810108C4AC0B202EB40025171F0
:100C1000401CC0B21E28E7DB4021874803F021FBBF
:100C20000120814908707F48C07802280CD17D4896
:100C300000797C49497951EA00205F4908800A21FE
:100C40005D480088FFF770FB7648C078032802D122
:100C500001207A4908707348C078042810D1012017
:100C6000774908706F480079002802D10020584960
:100C700008726C480079012802D101205449087299
:100C80006848C078062844D1102058490870654843
:100C9000007956494870022010905E200F90574905
:100CA00084B068464C2202F0F7FC0FBCFFF723FE2D
:100CB000012064490870634800780128FBD00020B7
:100CC0005D49087000205C494870AA205A49887024
:100CD0005E205949C870002014E05B49C0B231F869
:100CE000101089B2090A544AC0B202EB40021171D5
:100CF0005549C0B231F810104F4AC0B202EB400261
:100D00005171401CC0B21428E7DB40214A4803F06F
:100D1000A8FA4448C078072819D142480079002829
:100D200003D140484079494908703E48007901287C
:100D300003D13C484079464908700921434800786E
:100D4000434A127852EA002080B2FFF7EDFA002001
:100D50003449087011B000BD0CED00E000E100E086
:100D600000E400E0C0FFFF7FC0FFFF3F58100240DB
:100D7000182B0020642800201C2B00204425002074
:100D8000482B00208E2B00208C2B0020442B002091
:100D90003E0700208D2B0020902B0020602B002090
:100DA0009A2B0020882A0020182A00200C2B0020D3
:100DB0009C2A0020102B0020DC2A0020082B002079
:100DC000702B0020F82A00208F2B0020F029002013
:100DD000E82A0020742A0020462B0020912B0020B6
:100DE0004A2B00204407002000140040002B002064
:100DF000C42A00209E2B0020502B00201828002001
:100E00006A2B0020D4260020D02A00200C260020A7
:100E1000992B0020942B0020B4270020932B002036
:100E2000952B0020FC280020632B0020F42A0020B2
:100E30004C2B0020500B00203C290020862B00204A
:100E4000892B0020642B0020BC29002045070020AE
:100E50004607002010B592B003F01CFA01F00CFB1D
:100E600001F0BAFD01F002FD01F0A4FC01F0FBFB72
:100E700001F064FB01F039FC03F046FA0620FFF7AD
:100E800064FADFF83C1E08600720FFF75EFADFF81F
:100E9000301E0968090411FA80F0DFF8241E08608A
:100EA000DFF81C0E0068B0F5802F03D90020DFF8B2
:100EB000101E0860DFF8080E0068DFF8081E0860E2
:100EC0000820FFF742FADFF8001E08700A20FFF73B
:100ED0003CFADFF8F81D08800920FFF736FA80B2E7
:100EE000000ADFF8EC1D08700920FFF72EFADFF882
:100EF000E41D08700B20FFF728FADFF8DC1D0870EE
:100F00000B20FFF722FA80B2000ADFF8D01D08702C
:100F1000DFF8B80D0088B0F57A7F03DB0120DFF839
:100F2000AC1D0880FFF7B6FC00224FF40071DFF81B
:100F3000B00D03F0FDFA01220121DFF8A40D03F04A
:100F4000F7FA00220421DFF89C0D03F0F1FA03F018
:100F5000CBFB04F099FA47F23050DFF8441E0880CA
:100F60000320DFF8681DC8710020DFF8601D88705D
:100F70000020DFF8581D48710020DFF8501D08726E
:100F80000020DFF8481D88710120DFF8401DC8707F
:100F90000020DFF8381D08710020DFF8081E0870F7
:100FA0000120DFF8001E48700A20DFF8F81D887065
:100FB0000020DFF8F01DC8700020DFF8E81D087180
:100FC0000020DFF8E01D08720020DFF8D81DC8718E
:100FD0000020DFF8D01D8871DFF8CC0DFFF72DF968
:100FE0001020DFF8C81D0870DFF8EC0C007800282E
:100FF00004D0DFF8E40C0078FF2806D1DFF8D00C2D
:101000000078DFF8A81D487005E0DFF8C80C00780C
:10101000DFF8981D4870022010905E200F90DFF8D6
:10102000901D84B068464C2202F036FB0FBCFFF7DF
:1010300062FC0C20FFF789F9DFF8681D48700C206E
:10104000FFF783F980B2000ADFF8581D8870DFF8D7
:10105000540D8078FF2803D10020DFF8481D8870E8
:10106000DFF8400D40780A2871D0DFF8380D40785D
:101070000B286CDA1020DFF83C1D0870DFF8240D17
:101080004078002803D11120DFF8281D4870DFF8D0
:10109000140D4078012803D10D20DFF8181D487089
:1010A000DFF8000D4078022803D10A20DFF8041D84
:1010B0004870DFF8F00C4078032803D10920DFF8EE
:1010C000F41C4870DFF8DC0C4078042803D10820B9
:1010D000DFF8E01C4870DFF8CC0C4078052803D11D
:1010E0000720DFF8D01C4870DFF8B80C40780628DD
:1010F00003D10620DFF8BC1C4870DFF8A80C40784C
:10110000072803D10520DFF8AC1C4870DFF8940CE9
:101110004078082803D10420DFF8981C4870DFF8D5
:10112000840C4078092803D10320DFF8881C48701C
:101130000220109058200F90DFF8741C84B068468D
:101140004C2202F0A9FA0FBCFFF7F1FB03E00020EC
:10115000DFF8501C4870DFF8840B0078002803D1BA
:101160000020DFF8401C4871DFF8700B0078012880
:1011700007D10120DFF82C1C48710120DFF8381C52
:1011800008700024B7E10020DFF8301C0870DFF899
:10119000300C0078082813D1DFF8080C007A0028FA
:1011A00003D10220DFF8FC1B0872DFF8F80B007A8D
:1011B000401EDFF8F01B08720120DFF8081C0870E1
:1011C000DFF8F80B007801284AD1DFF8FC0B007833
:1011D000022845D00020DFF8E81A08600020DFF878
:1011E000E41A08600621DFF8D80A0068000C80B213
:1011F000FFF79AF80721DFF8C80A006880B2FFF706
:1012000093F80020DFF8B41B08700020DFF8B81A4C
:1012100008700821DFF8B00A007880B2FFF784F880
:101220000020DFF8801BC8710020DFF8A01A487189
:101230000020DFF8981B88700020DFF8901B4870B2
:101240000020DFF8881B08700020DFF8841B8870FE
:101250000020DFF87C1B48700020DFF8741BC8708A
:10126000DFF8600B0078012846D1DFF85C0B0078CE
:10127000022841D01020DFF8341B0870DFF8240B5F
:10128000007A002810D1DFF8480A0078DFF81C1B2C
:1012900048700020DFF8401A08700B21DFF8380A88
:1012A000007880B2FFF740F8DFF8F80A007A0128EA
:1012B00010D1DFF8200A0078DFF8F01A487001201A
:1012C000DFF8141A08700B21DFF80C0A007880B2DE
:1012D000FFF72AF8022010905E200F90DFF8D01A56
:1012E00084B068464C2202F0D7F90FBCFFF703FB2D
:1012F0000020DFF8D01A0870DFF8D80A007801283B
:1013000040F0F980DFF8C00A0078022800F0F3808E
:10131000DFF8900A407800280ED11120DFF8941AE7
:1013200048700020DFF8B01A08700C21DFF8740A4A
:10133000407880B2FEF7F8FFDFF8680A40780128AD
:101340000ED10D20DFF86C1A48700020DFF8881AE3
:1013500008700C21DFF84C0A407880B2FEF7E4FFF9
:10136000DFF8400A407802280ED10A20DFF8441A3C
:1013700048700020DFF8601A08700C21DFF8240A9A
:10138000407880B2FEF7D0FFDFF8180A40780328D3
:101390000ED10920DFF81C1A48700020DFF8381A37
:1013A00008700C21DFF8FC09407880B2FEF7BCFF22
:1013B000DFF8F009407804280ED10820DFF8F4198E
:1013C00048700020DFF8101A08700C21DFF8D409EB
:1013D000407880B2FEF7A8FFDFF8C80940780528FA
:1013E0000ED10720DFF8CC1948700020DFF8E8198B
:1013F00008700C21DFF8AC09407880B2FEF794FF4A
:10140000DFF8A009407806280ED10620DFF8A419DD
:1014100048700020DFF8C01908700C21DFF884093B
:10142000407880B2FEF780FFDFF87809407807281F
:101430000ED10520DFF87C1948700020DFF89819DC
:1014400008700C21DFF85C09407880B2FEF76CFF71
:10145000DFF85009407808280ED10420DFF854192D
:1014600048700020DFF8701908700C21DFF834098B
:10147000407880B2FEF758FFDFF828094078092845
:101480000ED10320DFF82C1948700020DFF848192E
:1014900008700C21DFF80C09407880B2FEF744FF99
:1014A000DFF8000940780A280AD10120DFF828195E
:1014B00008700C21DFF8EC08407880B2FEF734FFAA
:1014C000DFF814090078002811D11020DFF8E418A3
:1014D00008700220109058200F90DFF8D41884B0C4
:1014E00068464C2202F0D8F80FBCFFF720FA002023
:1014F000DFF8E0180870641CB4F57A7F02D300248A
:10150000FFF70AFBDFF8D4080078012808D1DFF8DC
:10151000B8080078032803D10020DFF8AC18087061
:10152000DFF8BC080088002812D10022DFF8B418C8
:10153000DFF8B40801F0CFFC0022DFF8B018DFF8C4
:10154000A80801F07CFD42F21070DFF894180880C2
:10155000DFF89C080078012840F0B682DFF8940894
:1015600080792C2840F01682DFF88808C0792C2872
:1015700000F01082DFF87C08807C412840F00A826D
:101580000020DFF874180870DFF868080078DFF8CA
:101590006C180870DFF85C084078DFF86018487055
:1015A000DFF850088078DFF854188870DFF84408B6
:1015B000C078DFF84818C870DFF838080079DFF81D
:1015C0003C180871DFF82C084079DFF830184871B2
:1015D000DFF820088079DFF824188871DFF8140814
:1015E000C079DFF81818C871DFF80808007ADFF84A
:1015F0000C180872DFF8FC07407ADFF80018487210
:10160000DFF8F007807ADFF8F4178872DFF8E40774
:10161000C07ADFF8E817C872DFF8D807007BDFF878
:10162000DC170873DFF8CC07407BDFF8D01748736E
:10163000DFF8C007807BDFF8C4178873DFF8B407D2
:10164000C07BDFF8B817C873DFF8A807007CDFF8A5
:10165000AC170874DFF89C07407CDFF8A0174874CB
:10166000DFF89007807CDFF894178874DFF8840730
:10167000C07CDFF88817C874DFF87807007DDFF8D2
:101680007C170875DFF86C07407DDFF87017487528
:10169000DFF86007807DDFF864178875002015E0AB
:1016A000DFF85017C0B2095C2C290ED1DFF8BC1D41
:1016B0000978491CDFF8B42D1170DFF8B01D0978E6
:1016C000092902D1DFF8A81D0870401CC0B23C28CF
:1016D000E6DB0020DFF8941D0870DFF81807007DB6
:1016E0000A21DFF81027527D01FB00201038DFF8B7
:1016F000841D0870DFF8FC06807D642110FB01F07A
:10170000DFF8F016C97D0A2211FB0200DFF8E416AB
:10171000497E401841F2D041401ADFF8581D4880F8
:10172000DFF8D006807FDFF84C1D0871DFF8C406B3
:1017300090F82000642110FB01F0DFF8B81691F852
:1017400021100A2211FB0200DFF8A81691F82210DE
:10175000401841F2D041401ADFF8181DC880DFF868
:10176000940690F82300642110FB01F0DFF8841642
:1017700091F824100A2211FB0200DFF8781691F884
:101780002610401841F2D041401ADFF8E81C0881C9
:10179000DFF8600690F82B00DFF8D81C8872DFF8BD
:1017A0005406C0790A21DFF84C26127A01FB00208A
:1017B0001038DFF8C01CC872DFF83806407A0A21FA
:1017C000DFF83026927A01FB00201038DFF8A41CE5
:1017D0000873DFF82006C07A0A21DFF81826127B8A
:1017E00001FB00201038DFF88C1C4873DFF804067A
:1017F000807B642110FB01F0DFF8F815C97B0A2219
:1018000011FB0200DFF8EC15097C401841F2D041D1
:10181000401ADFF8601CC881DFF8D80590F837005F
:101820002C282DD1DFF8CC0590F838000A21DFF8FC
:10183000C42592F8392001FB00201038DFF8341C51
:101840000874DFF8B00590F83A000A21DFF8A42503
:1018500092F83B2001FB00201038DFF8181C487478
:10186000DFF8900590F83C000A21DFF8882592F80F
:101870003D2001FB00201038DFF8F81B88743EE0A3
:10188000DFF87005DFF8E81B0978084440780A2182
:10189000DFF86025DFF8D83B1B781A44927801FB0B
:1018A00000201038DFF8CC1B0874DFF84805DFF89B
:1018B000C01B09780844C0780A21DFF83825DFF812
:1018C000B03B1B781A44127901FB00201038DFF876
:1018D000A41B4874DFF81C05DFF8941B0978084442
:1018E00040790A21DFF80C25DFF8843B1B781A4485
:1018F000927901FB00201038DFF8781B8874DFF83C
:10190000740B007CDFF8241C8870DFF8680B407CC7
:10191000DFF8181C4870DFF85C0B807CDFF80C1CCB
:10192000C8700022DFF8041CDFF8BC0401F002FBE1
:10193000DFF8400BC07ADFF8F81B0870DFF8340BD3
:10194000007BDFF8EC1B4870DFF8280B407BDFF8EA
:10195000E01B88700022DFF8D81BDFF88C0401F050
:1019600028FA0120D9494872DFF8C80B0078401CDA
:10197000DFF8C01B0870DFF8BC0B00780328C0F24A
:10198000A0800020DFF8AC1B08700120DFF8A81B46
:10199000087096E0DFF85C0480792C2840F08E8097
:1019A000DFF85004C0792C2800F08880DFF8440468
:1019B000807C562840F082800120DFF83C140870BB
:1019C000DFF830040078DFF834140870DFF82404FE
:1019D0004078DFF828144870DFF818048078DFF8C2
:1019E0001C148870DFF80C04C078DFF81014C8707D
:1019F000DFF800040079DFF804140871DFF8F4035D
:101A00004079DFF8F8134871DFF8E8038079DFF8F0
:101A1000EC138871DFF8DC03C079DFF8E013C871DC
:101A2000DFF8D003007ADFF8D4130872DFF8C403BC
:101A3000407ADFF8C8134872DFF8B803807ADFF81D
:101A4000BC138872DFF8AC03C07ADFF8B013C87239
:101A5000DFF8A003007BDFF8A4130873DFF894031A
:101A6000407BDFF898134873DFF88803807BDFF84A
:101A70008C138873DFF87C03C07BDFF88013C87396
:101A8000DC48007CDFF874130874DA48407CDB49DA
:101A90004874D848807CD9498874D648C07CD749D6
:101AA000C874D448007DD5490875D248407DD349D3
:101AB0004875D048807DD149887502E00220CE4922
:101AC00008700020CA490870DFF8D00C00780028A0
:101AD00059D1B4484079012855D1BB480078022833
:101AE00051D0DFF8BC0C0078002820D101224FF43F
:101AF00000717B4802F01CFDDFF8A80C007800287C
:101B000008D144F62060DFF8A01C08800120DFF82F
:101B1000941C0870DFF8900C0088002807D1012081
:101B2000DFF87C1C08700020DFF8781C0870DFF8F4
:101B3000700C0078012826D100224FF4007168480B
:101B400002F0F6FC0120DFF8541C0870C82002F0F7
:101B5000C7FB0422DFF8541CDFF8F40C01F008FE88
:101B600047F23050DFF8EC1C08600122DFF8401C1F
:101B7000DFF8DC0C01F035FE0320544948720320E5
:101B8000DFF8D41C0870DFF8140C0078012840D16D
:101B90008448407900283CD18B480078022838D00E
:101BA000DFF8FC0B0078012820D101224FF40071EE
:101BB0004B4802F0BDFCDFF8EC0B0078002808D1A0
:101BC0004FF4FA50DFF8E01B08800120DFF8D41B47
:101BD0000870DFF8D40B0088002807D10020DFF858
:101BE000C01B08700020DFF8BC1B0870DFF8B00BCA
:101BF000007800280DD100224FF40071384802F01F
:101C000097FC0020DFF8941B08700020DFF84C1CC4
:101C10000860DFF8400C0068002840F090806148C0
:101C20004079012840F08B80DFF8700B00780128A4
:101C300040F0858064480078022800F08080DFF85A
:101C40001C0C006800287AD1DFF80C0C00780328FF
:101C50000ED1DFF8040C0078401EDFF8FC1B087082
:101C60000B22DFF8FC1BDFF8E80B01F081FD61E0DF
:101C7000DFF8E40B007802280ED1DFF8DC0B0078E7
:101C8000401EDFF8D41B08700C22DFF8D81BDFF8E9
:101C9000C00B01F06DFD4DE0DFF8BC0B00780128B2
:101CA00022D1DFF8B40B0078401EDFF8AC1B0870BF
:101CB0000D22DFF8B41BDFF8980B01F059FD39E075
:101CC000182B00201C2B00208F2B0020DC2A00204A
:101CD0004507002046070020662B00208B2B0020A4
:101CE0000004004800080048DFF86C0B007800286A
:101CF00020D1DFF844080078002806D11722DFF849
:101D0000A01CDFF84C0B01F033FDDFF82C08007845
:101D100001280FD10D22DFF88C1CDFF8340B01F005
:101D200027FDDFF8840CDFF8341B08600020DFF8A3
:101D30000818087043F69820DFF8181B0860DFF8D1
:101D40006C0C0078012867D1DFF8640C007801285A
:101D500062D10020DFF8541C08700020DFF8501C0E
:101D60000870DFF8500C0079002849D11A48007833
:101D7000012801D1FEF7F8FD0120DFF83C1C0870B6
:101D800047F23150DFF8341C08800120DFF8241CB2
:101D90000871DFF82C0CDFF82C1C08603CE000BF59
:101DA00042070020E82A002000000450002B0020F9
:101DB00018280020C42A0020872B0020862B002012
:101DC0006B2B0020892B0020480700209C2A002034
:101DD000102B00208A2B0020922B0020A02B00200B
:101DE0003C070020882A0020182A00200C2B002005
:101DF000952B0020B42700206F2B00205C2A0020A8
:101E00000020DFF8C41B08700020DFF8AC1B08704E
:101E10000020DFF8A01B0871DFF8900B0078012884
:101E200023D1DFF8A80B007800281ED10020DFF8AE
:101E30007C1B0870DFF8980B0078032803D1002082
:101E4000DFF88C1B0870DFF8880B0078012803D1BD
:101E50000320DFF87C1B0870DFF8740B0078022881
:101E600003D10120DFF8681B0870DFF8440B00780D
:101E700001281AD1DFF85C0B0078002815D100206A
:101E8000DFF82C1B0870DFF8480B0078012803D11D
:101E90000220DFF83C1B0870DFF8340B00780328C1
:101EA00003D10120DFF8281B0870DFF8E80C007868
:101EB000012810D1DFF8E00C007801280BD10020B8
:101EC000DFF8F01A48710020DFF8C81C0870002005
:101ED000DFF8C41C0870DFF8C00C0078012840F05F
:101EE0006C810020DFF8CC1A48710020DFF8A81CB4
:101EF0000870DFF8A80C0078401CDFF8A01C087000
:101F0000DFF8980C0078022803DB0020DFF88C1C37
:101F10000870DFF8880C0078002808D1DFF8B00AD4
:101F20000078002803D10320DFF8A41A0870DFF836
:101F30006C0C0078012808D1DFF8940A0078032897
:101F400003D10020DFF8881A0870DFF8840A0078CF
:101F500001280FD1DFF8480C0078401CDFF8401C46
:101F60000870DFF83C0C0078092803DB0020DFF85C
:101F7000301C0870DFF8580A0078022840F01D81F4
:101F8000DFF81C0C007800280FD1DFF8180C00785F
:101F9000401CDFF8101C0870DFF8080C00780328DC
:101FA00003DB0020DFF8FC1B0870DFF8F40B00787F
:101FB000012813D1DFF8EC0B4078401CDFF8E41B5C
:101FC0004870DFF8E00B40780B2803DB0020DFF8D7
:101FD000D41B48700120DFF8D01B0870DFF8C00B5D
:101FE000007802280FD1DFF8BC0B8078401CDFF8A6
:101FF000B41B8870DFF8AC0B80780B2803DB002063
:10200000DFF8A01B8870DFF8980B007803280FD149
:10201000DFF8900BC078401CDFF8881BC870DFF831
:10202000840BC078032803DB0020DFF8781BC8701E
:10203000DFF86C0B007804282AD1DFF8680B0079F0
:10204000401CDFF8601B0871DFF8580B007902288C
:1020500003DB0020DFF84C1B0871DFF8480B007928
:10206000002803D10020DFF84C190872DFF8340B88
:10207000007901280CD1DFF8340B0078002803D157
:102080000120DFF8301908720120DFF8201B0870EA
:10209000DFF80C0B007805283ED1DFF8080B4079FB
:1020A000401CDFF8001B4871DFF8F80A407902286D
:1020B00003DB0020DFF8EC1A48710020DFF8E40AA7
:1020C0004079002810D10020DFF8E818487201207C
:1020D000DFF8DC1A08700B20FEF737F900F0FF007C
:1020E0000B2180B2FEF720F9DFF8B80A4079012809
:1020F00012D10120DFF8BC1848720120DFF8B41AB1
:1021000008700B20FEF721F900F0FF0050F48070FA
:102110000B2180B2FEF708F9DFF8840A0078062860
:102120000FD1DFF8800A8079401CDFF8781A8871B7
:10213000DFF8700A8079022803DB0020DFF8641AD8
:102140008871DFF85C0A007807281DD1DFF8540A8F
:10215000C079401CDFF84C1AC871DFF8480AC07912
:10216000022803DB0020DFF83C1AC871DFF8340ACC
:10217000C079012804D10120DFF83C1A087003E07F
:102180000020DFF8341A0870DFF8140A00780828F5
:1021900013D1DFF8100A007A401CDFF8081A087221
:1021A000DFF8000A007A022803DB0020DFF8F419C8
:1021B00008720120DFF8041A0870DFF8D8090078E7
:1021C00001287EF4FDAF0020DFF8E81748710020F9
:1021D000DFF8C0190870DFF8C4090078401CDFF888
:1021E000BC190870DFF8B4090078022803DB00206E
:1021F000DFF8A8190870DFF8A4090078002808D1D2
:10220000DFF8CC070078002803D10320DFF8C017DF
:102210000870DFF888090078012808D1DFF8B007D6
:102220000078032803D10020DFF8A4170870DFF836
:10223000A007007801280FD1DFF864090078002892
:1022400003D10920DFF858190870DFF85409007825
:10225000401EDFF84C190870DFF874070078022878
:102260007EF4AEAFDFF83809007800280FD1DFF830
:1022700034090078002803D10320DFF828190870FA
:10228000DFF820090078401EDFF818190870DFF821
:1022900010090078012813D1DFF8080940780028D8
:1022A00003D10B20DFF8FC184870DFF8F8084078FD
:1022B000401EDFF8F01848700120DFF8EC180870B5
:1022C000DFF8DC08007802280FD1DFF8D808807822
:1022D000002803D10B20DFF8CC188870DFF8C40881
:1022E0008078401EDFF8BC188870DFF8B4080078EA
:1022F00003280FD1DFF8AC08C078002803D10320F1
:10230000DFF8A018C870DFF89C08C078401EDFF81E
:102310009418C870DFF88808007804282AD1DFF8FC
:1023200084080079002803D10220DFF878180871AA
:10233000DFF870080079401EDFF868180871DFF8D0
:1023400064080079002803D10020DFF868160872BD
:10235000DFF85008007901280CD1DFF85008007828
:10236000002803D10120DFF84C1608720120DFF8A5
:102370003C180870DFF82808007805283ED1DFF8FF
:1023800024084079002803D10220DFF8181848718A
:10239000DFF810084079401EDFF808184871002067
:1023A000DFF800084079002810D10020DFF804167B
:1023B00048720120DFF8F81708700B20FDF7C5FF01
:1023C00000F0FF000B2180B2FDF7AEFFDFF8D4076D
:1023D0004079012812D10120DFF8D81548720B206E
:1023E000FDF7B3FF00F0FF0050F480700B2180B2C6
:1023F000FDF79AFF0120DFF8BC170870DFF8A0078F
:10240000007806280FD1DFF89C078079002803D1D7
:102410000220DFF890178871DFF888078079401E66
:10242000DFF880178871DFF87807007807287EF4D6
:10243000AEAEDFF87007C079002803D10220DFF8C4
:102440006417C871DFF85C07C079401EDFF85417C5
:10245000C871DFF85007C07901287EF494AE0120DE
:10246000DFF854170870FEF792BE00006D2B0020B5
:102470006E2B0020742A002000B5B9B005A84421B5
:1024800003F0DCF86846142103F0D8F816A8882178
:1024900003F0D4F8142005900520079001200B903C
:1024A000B0200D9000200F900020109005A803F0A0
:1024B000C9F8002805D00120DFF80417087000F0E3
:1024C000A7FB0F2000900020019000200290002028
:1024D0000390002004900221684603F0D0FB0028FE
:1024E00001D000F095FBDFF8DC0616900420259063
:1024F0004FF480502A905FF0405034904FF4807039
:1025000037905FF04060319016A803F09BFD0028E3
:1025100001D000F07DFB4FF4007004F053F9002867
:1025200001D000F075FB39B000BD0000142B002075
:10253000B02A0020692B0020682B002000B589B04C
:1025400006A80021002200230EC00C386846DFF8E0
:10255000781691EC060B80EC060BDFF87006DFF8BE
:10256000701608605FF40020DFF8641648600020F1
:10257000DFF85C1688600020DFF85416C860012080
:10258000DFF84C1608610420DFF84416486100208B
:10259000DFF83C1688610020DFF83416C86102209D
:1025A000DFF82C1608620020DFF8241648620120AC
:1025B000DFF81C16C8620020DFF81416086300203C
:1025C000DFF80C1648630020DFF80416886300204B
:1025D000DFF8FC15C863DFF8F80504F053F90028AC
:1025E00001D000F015FB0020069006A9DFF8E005F9
:1025F00004F030FD002801D000F00AFB012000901B
:1026000001200190052002900020039000200490FA
:10261000002005906946DFF8B80504F0ADFA0028FF
:1026200001D000F0F5FA02200090022001906946E6
:10263000DFF89C0504F0A0FA002801D000F0E8FAC9
:102640007F21DFF88805FDF7EAFD00E000BFDFF835
:102650007C05FDF7EFFD0028F8D1DFF87005FDF7E8
:10266000D6FD09B000BD80B5DFF86805DFF8681554
:102670000860DFF86805DFF8601548600020DFF8C3
:10268000581588600120DFF85015C8600020DFF879
:10269000481508610020DFF8401548610020DFF888
:1026A000381588610020DFF83015C8610020DFF898
:1026B00028150862DFF8200500F0D2FD002801D0BF
:1026C00000F0A6FA0021DFF8100504F05DFD0028F7
:1026D00001D000F09DFA0021DFF8FC0404F085FD34
:1026E000002801D000F094FA01BD00B58BB0684617
:1026F000282102F0A3FFDFF8E804DFF8E8140860FF
:102700000020DFF8E01448607F20DFF8D8148860EC
:10271000FF20DFF8D014C8600020DFF8C81408617B
:102720000020DFF8C01448610020DFF8B814886189
:102730000020DFF8B014C861DFF8A80400F0CAFA7E
:10274000002801D000F064FA0120009000200290DF
:1027500000200390002004900020059000200690A7
:102760000020079000200890802009906946DFF83B
:10277000740404F069FD002801D000F049FADFF884
:10278000640404F0D7FD002801D000F041FADFF81E
:10279000540404F00BFE0BB000BD0000962B00208B
:1027A000972B0020982B0020382B0020A4C1000874
:1027B000D02A002080B5DFF83004006850F40030E3
:1027C000DFF824140860DFF82004006810F40030FB
:1027D00000900098DFF814041D4908604FF416506B
:1027E0001B49486000201A49886000201849C860C9
:1027F0000020174908610C20154948610020144940
:1028000088614FF400401249C8614FF400601049DC
:10281000086208200E4948624FF400400C494863A2
:102820000B4800F065FF002801D000F0F1F900220C
:102830000021262004F046FE262004F054FE044821
:102840000068006850F0010001490968086001BD96
:10285000D4260020042B002047070020FC2A00205B
:1028600074C10008D4C00008E4C0000800B587B0F7
:102870005FF02040DFF878130860DFF87803DFF8B6
:10288000701348600020DFF8681388600020D84982
:10289000C8600020D64908610020D5494861002061
:1028A000D34988610020D249C8610020D04908621C
:1028B0004FF48050CE4948620020CD498862002004
:1028C000CB49C8620020CA4908630020C849486350
:1028D0000020C74988630020C54908640F20009084
:1028E0000F200190FF2002900F20039010200490F1
:1028F000112005900020069000226946BC4800F097
:1029000089F9002801D000F083F95FF02040BA492E
:102910000860B848B84948600220B749886000207C
:10292000B549C8600020B44908611020B249486127
:102930000020B14988610020AF49C8610020AE493C
:1029400008624FF48050AC4948620020AA4988626E
:102950000020A949C8620020A74908630020A649B1
:1029600048630020A44988630020A34908640F201D
:1029700000900F200190C82002900F20039010209B
:1029800004901120059000200690002269469A4884
:1029900000F040F9002801D000F03AF907B000BD7E
:1029A00080BE0008F4C00008804F12007B2B00207E
:1029B0007F2B0020DC2A00206C2B00203A2B0020EB
:1029C00010980200302B0020672B0020812B002064
:1029D000480700207D2B002000B587B001A81421F6
:1029E00002F02CFE8548006850F00400834908601E
:1029F0008248006810F00400009000987F4800684A
:102A000050F020007D4908607C48006810F02000EC
:102A1000009000987948006850F08000774908607D
:102A20007648006810F080000090009873480068B5
:102A300050F00100714908607048006810F0010012
:102A4000009000986D48006850F002006B490860E3
:102A50006A48006810F0020000900098674800681B
:102A600050F04000654908606448006810F040007C
:102A7000009000986148006850F010005F490860BD
:102A80005E48006810F01000009000985B480068F5
:102A900050F00800594908605848006810F00800D4
:102AA0000090009803F0DBFE00221C21544801F046
:102AB0003FFD002230215FF0904001F039FD0022FF
:102AC00042F203214F4801F033FD1C200190012008
:102AD0000290002003900020049001A9484801F0D2
:102AE00033FC4FF4FE50019000200290022003902E
:102AF0000020049001A9424801F026FC4FF47C60BC
:102B0000019000200290022003900020049001A96F
:102B10003D4801F019FC4FF6C05001900020029092
:102B2000022003900020049001A9384801F00CFC19
:102B3000302001900120029000200390002004909A
:102B400001A95FF0904001F0FFFB202001900020E0
:102B500002900020039001A9294801F0F5FB42F200
:102B60000320019001200290002003900020049097
:102B700001A9244801F0E8FB4FF4E0500190002047
:102B800002900120039001A91E4801F0DDFB07B06F
:102B900000BD00007C2B0020802B0020A02B0020FB
:102BA0006B2B0020E82A00208A2B0020882B002095
:102BB000612B0020872B0020862B0020892B0020F2
:102BC000622B00204260020098BE00080000045002
:102BD0004C2700200054004018280020D38D80107E
:102BE00000280040182A00205810024000440040ED
:102BF00064280020040100A0B02800204C100240EE
:102C0000000800480004004800140048001800486C
:102C10007047000070B504000D001600002C01D1B3
:102C2000012024E094F84500002805D1002084F814
:102C30004400200004F0A4FD14F10801206804F011
:102C4000C3FDA2682900206804F01FFEE36AA268A1
:102C50003100606804F06EFE2068A16850F8210021
:102C600050F001002168A26841F82200002070BDE8
:102C700010B5040094F84400012801D102200DE0B1
:102C8000012084F84400A168206804F080FE01203F
:102C900084F84500002084F84400002010BD10B5E1
:102CA000040094F84400012801D1022010E0012022
:102CB00084F84400022084F84500A168206804F0EC
:102CC0006EFE042084F84500002084F844000020B3
:102CD00010BD000010B50400002C01D1012067E0F8
:102CE00094F82100002805D1002084F8200020005D
:102CF00004F08FFC022084F82100CA202168486279
:102D0000532021684862200000F0DFF9002807D036
:102D1000FF2021684862042084F82100012047E058
:102D200020688068DFF860130840216888602068A8
:102D30008068616822691143A269114308432168D0
:102D40008860E0682168086120680069A16850EA2D
:102D50000140216808612068C0687FF08001084058
:102D60002168C8602068806880060CD4200000F0CC
:102D700091F9002807D0FF2021684862042084F8D8
:102D80002100012014E02068C06C800880002168C8
:102D9000C8642068C06CE169626911430843216816
:102DA000C864FF2021684862012084F821000020C7
:102DB00010BDF8B504000D00002694F8200001288D
:102DC00001D1022086E0012084F82000022084F84E
:102DD0002100002A1BD120688068400601D4002011
:102DE000E870287800F08DF90600687800F089F91D
:102DF0000700A87800F085F9F6B2FFB2390251EA6F
:102E00000641C0B20843E97850EA014614E0206860
:102E10008068400604D5287800F07EF9060001E0BD
:102E20000020E87028786978090251EA0040A97802
:102E30000843E97850EA0146CA20216848625320D5
:102E400021684862200000F040F900280AD0FF20E5
:102E500021684862042084F82100002084F82000C2
:102E6000012037E0DFF82402304021680860206844
:102E7000806830F480202168886020688068E96874
:102E80002A6911430843216888602068C0687FF080
:102E9000800108402168C8602068806880060FD4DF
:102EA000200000F0F7F800280AD0FF2021684862CF
:102EB000042084F82100002084F82000012009E08B
:102EC000FF2021684862012084F82100002084F856
:102ED00020000020F2BD10B50C0000210168896AB5
:102EE0006160016809694904490CA16000680068D3
:102EF000DFF898110140080C10F03F002070080A1C
:102F000010F07F00607011F07F00A070080C10F0CE
:102F10004000E070002A0BD1207800F0FDF820700E
:102F2000607800F0F9F86070A07800F0F5F8A07013
:102F3000002010BDF8B504000D00002694F8200014
:102F4000012801D1022079E0012084F8200002202C
:102F500084F82100002A07D16878C00604D5687873
:102F600010F0EF000A306870002A15D1E87800F000
:102F7000C8F80600687800F0C4F80700A87800F0E8
:102F8000C0F8F6B2FFB2390251EA0641C0B20843B6
:102F9000297850EA413611E0687800F0BDF8060063
:102FA000A87800F0B9F80600E8786978090251EAD3
:102FB0000040A9780843297850EA4136CA202168A0
:102FC0004862532021684862200000F07EF8002803
:102FD0000AD0FF2021684862042084F821000020E4
:102FE00084F82000012029E0DFF8A40030402168A7
:102FF00048602068C0687FF0800108402168C86090
:103000002068806880060FD4200000F043F8002874
:103010000AD0FF2021684862042084F821000020A3
:1030200084F82000012009E0FF2021684862012087
:1030300084F82100002084F820000020F2BD10B5A3
:103040000C00002100684068DFF844100140080CC3
:10305000E070080A10F01F00607011F03F00A070CF
:10306000480B10F007002070002A0BD1E07800F028
:1030700053F8E070607800F04FF86070A07800F0CE
:103080004BF8A070002010BDBFFF8FFF7F7F7F0037
:103090003FFFFF0038B5040000252068C0687FF0BE
:1030A000A00108402168C86001F017F905002068F8
:1030B000C068800607D401F010F9401BB0F57A7F94
:1030C000F5D9032000E0002032BD38B5040000250A
:1030D0002068C068400612D45FF0FF302168C860E5
:1030E00001F0FBF805002068C068400607D401F035
:1030F000F4F8401BB0F57A7FF5D9032000E00020FA
:1031000032BD002101E0491C0A38C0B20A28FADAAF
:1031100050EA0110C0B2704700210100C9B209098C
:10312000C9B20A225143C0B210F00F004018C0B219
:103130007047000081627047C16270470163704749
:10314000416951F001014161704700210180002176
:1031500041605FF0FF3181600021C1600021017496
:10316000704738B504000D0000202068DFF8D0104B
:103170008C4212D0B4F1804F0FD0DFF8C8108C42CF
:103180000BD0DFF8C4108C4207D0DFF8C0108C429F
:1031900003D0DFF8BC108C4204D17FF070010840EE
:1031A00069680843DFF898108C421ED0B4F1804F54
:1031B0001BD0DFF890108C4217D0DFF88C108C42B7
:1031C00013D0DFF888108C420FD0DFF884108C42C7
:1031D0000BD0DFF880108C4207D0DFF87C108C42D7
:1031E00003D0DFF878108C4203D130F44070E968E6
:1031F00008432060A9682000FFF79EFF298820006F
:10320000FFF798FFDFF8380084420FD0DFF8400066
:1032100084420BD0DFF83C00844207D0DFF838004E
:10322000844203D0DFF83400844203D1297C20009B
:10323000FFF784FF2000FFF783FF012032BD00006D
:10324000002C01400004004000080040000C004039
:10325000003401400040014000440140004801406A
:1032600010B50400002C01D101205EE094F841006B
:10327000002805D1002084F84000200004F096F9D1
:10328000242084F84100206800684008400021683C
:103290000860606830F070602168086120688068AC
:1032A00030F4004021688860E068012805D1A068FA
:1032B00050F400402168886004E0A06850F40440A5
:1032C00021688860E068022803D14FF4006021681B
:1032D00048602068406840F0007050F40040216869
:1032E00048602068C06830F400402168C8602069E8
:1032F00061690843A16950EA01202168C860E0695A
:10330000216A0843216808602068006850F00100C5
:103310002168086000206064202084F841000020BB
:103320002063002084F84200002010BD2DE9F04108
:1033300082B004000D0016001F005FF0000894F832
:103340004100202840F0B78094F84000012801D1C6
:103350000220B1E0012084F8400000F0BEFF80466A
:10336000CDF80080192301224FF40041200000F025
:10337000BBF8002801D003209EE0212084F8410002
:10338000102084F842000020606466626785002097
:103390006063608DFF280FD9FF2020854FF4005017
:1033A00000905FF08073228DD2B2290089B2200094
:1033B00000F05AF9089E1BE0608D20854FF4005004
:1033C00000905FF00073228DD2B2290089B22000F4
:1033D00000F04AF9EEE7FF202085002000905FF022
:1033E0008073228DD2B2290089B2200000F03CF90E
:1033F000608D00283CD042463100200000F0A0F84B
:10340000002806D0606C042801D1012054E003207C
:1034100052E0606A411C6162007821688862608DB8
:10342000401E6085208D401E2085208D0028DFD124
:10343000608D0028DCD0CDF8008033000022802190
:10344000200000F051F8002801D0032034E0608D06
:10345000FF28C0D8608D2085002000905FF00073A9
:10346000228DD2B2290089B2200000F0FDF8BFE71A
:1034700042463100200000F08FF8002806D0606C32
:10348000042801D1012017E0032015E02020216845
:10349000C86120684068DFF824100840216848604F
:1034A000202084F84100002084F84200002084F8A5
:1034B0004000002000E00220BDE8F68100E800FEA8
:1034C000406C704701688969890702D5002102684C
:1034D000916201688969C90705D40168896951F059
:1034E00001010068816170472DE9F04104000D0081
:1034F00016001F00DDF81880206880692840A84267
:1035000001D1012000E00020F6B2B04215D117F140
:10351000010FF1D0002F05D000F0DFFEB0EB080066
:103520008742E9D2202084F84100002084F842003C
:10353000002084F84000032000E00020BDE8F08176
:1035400070B504000D00160020688069800721D442
:1035500032002900200000F048F8002801D00120A6
:1035600019E015F1010FEFD0002D04D000F0B5FEE9
:10357000801B8542E8D2606C50F0200060642020FF
:1035800084F84100002084F84200002084F84000C4
:10359000032000E0002070BD70B504000D0016008F
:1035A0002068806980061ED432002900200000F0C7
:1035B0001CF8002801D0012016E0002D04D000F0F6
:1035C0008CFE801B8542EBD2606C50F02000606462
:1035D000202084F84100002084F84200002084F874
:1035E0004000032000E0002070BD70B504000D0015
:1035F000160020688069C00634D52068806980067E
:1036000014D415F1010FF8D0002D04D000F065FEA0
:10361000801B8542F1D2202084F84100002084F8EC
:103620004200002084F8400003201CE010202168A4
:10363000C86120202168C8612000FFF743FF20688F
:1036400040681349084021684860042060642020D5
:1036500084F84100002084F84200002084F84000F3
:10366000012000E0002070BD30B4002404686468CC
:10367000084D2C4089B28905890DD2B251EA024128
:103680001943029A11430C430068446030BC7047F0
:1036900000E800FE009800FC103A07D330B4B1E80F
:1036A0003810103AA0E83810F9D230BC530724BFC4
:1036B000B1E80810A0E8081044BF51F8043B40F8F6
:1036C000043BD20724BF31F8022B20F8022B44BF61
:1036D0000B7803707047083A07D3B1E80810083A2E
:1036E00040F8043B40F804CBF7D25307E4E700006E
:1036F00010B50400002C01D1012038E0A069002899
:10370000FFD194F87100002805D1002084F87000E2
:10371000200003F097FF242084F8710020680068DF
:103720004008400021680860200000F08DF9012861
:1037300001D101201BE0606A002802D0200000F0C7
:103740009BFB2068406830F4904021684860206806
:1037500080687FF02A01084021688860206800683E
:1037600050F0010021680860200000F0F2FB10BD5D
:1037700090F87130202B32D1002902D092B2002A69
:1037800001D101202CE090F87030012B01D10220F2
:1037900026E0012380F87030C164A0F85020A0F822
:1037A00052200021416600214167212180F87110DB
:1037B0008168B1F5805F05D10169002902D13F49D7
:1037C000416601E03E494166002180F870100168C1
:1037D000096851F0800100680160002000E00220CB
:1037E000704790F87230202B66D1002902D092B237
:1037F000002A01D1012060E090F87030012B01D146
:1038000002205AE0012380F870304165A0F858206A
:10381000A0F85A20002101668168B1F5805F0BD1C4
:103820000169002904D140F2FF11A0F85C101FE0EB
:10383000FF21A0F85C101BE0816800290AD1016912
:10384000002903D1FF21A0F85C1011E07F21A0F82E
:103850005C100DE08168B1F1805F09D10169002938
:1038600003D17F21A0F85C1002E03F21A0F85C109A
:1038700000214167222180F872100168896851F0A7
:103880000101026891608168B1F5805F06D101692C
:10389000002903D1DFF8AC15016602E0DFF8A815B6
:1038A0000166002180F870100168096851F4907178
:1038B00000680160002000E002207047B14000086D
:1038C0006D40000838B504002068C06921680968A7
:1038D0002268926810F00F03002B0AD1850608D5E4
:1038E0008D0606D5206E002802D02000216E884764
:1038F000A7E0002B00F08080D30702D411F4907F62
:103900007AD010F00103DBB2002B08D0CB0506D52E
:10391000012325682B62636F53F0010363678307FC
:103920000BD512F00103DBB2002B06D00223256871
:103930002B62636F53F00403636743070BD512F0E8
:103940000103DBB2002B06D0042325682B62636FD2
:1039500053F00203636703070DD58B0604D412F0FE
:103960000102D2B2002A06D0082223681A62626FCE
:1039700052F008026267626F002A3CD0800607D5C9
:10398000880605D5206E002802D02000216E8847C9
:10399000606F000703D420688068400626D52000A9
:1039A00000F046FB2068806840061BD520688068D0
:1039B0007FF04001084021688860E06E00280DD04B
:1039C0000FF29160E16E8863E06E03F0F5FF00286E
:1039D00011D0E06EE16E896B88470CE0200000F0AA
:1039E00032F808E0200000F02EF804E0200000F09B
:1039F0002AF80020606724E0C3020FD552020DD5DB
:103A00005FF4801021680862202084F87100202073
:103A100084F87200200003F0F9FF12E0020608D5D6
:103A20000A0606D5606E002802D02000616E884725
:103A300007E0400605D5480603D5200000F05DFBF1
:103A4000FFE731BD70477047F8B50400002110272B
:103A500000200026002500202168DFF8F023914295
:103A6000FFD0A1682269114362691143E2691143E1
:103A700022681268DFF8D8331A40114322681160B7
:103A80002168496831F44051E2681143226851606D
:103A9000A1692268DFF8B4339A4201D0226A114347
:103AA0002268926832F43062114322689160216882
:103AB000DFF8A023914216D1DFF89C13096811F0BA
:103AC0000301002905D0022905D006D3032906D019
:103AD00007E0012797E0022795E0042793E00827F5
:103AE00091E010278FE02168DFF87023914217D111
:103AF000DFF86413096811F00C01002906D00429CD
:103B000008D0082904D00C2906D007E000277AE065
:103B1000022778E0042776E0082774E0102772E097
:103B20002168DFF83C23914217D1DFF82C13096894
:103B300011F03001002906D0102908D0202904D026
:103B4000302906D007E000275DE002275BE004276C
:103B500059E0082757E0102755E02168C14A9142F3
:103B600016D1BD49096811F0C001002906D04029CD
:103B700008D0802904D0C02906D007E0002742E001
:103B8000022740E004273EE008273CE010273AE007
:103B90002168B54A914219D1AF49096811F44071C1
:103BA000002909D0B1F5807F0AD0B1F5007F05D09A
:103BB000B1F5407F06D007E0002724E0022722E08D
:103BC000042720E008271EE010271CE021689F4AF8
:103BD000914218D1A049096811F44061002909D027
:103BE000B1F5806F0AD0B1F5006F05D0B1F5406F27
:103BF00006D007E0002706E0022704E0042702E0E1
:103C0000082700E010272168904A914271D1FFB245
:103C10003900002906D0022907D0042907D0082935
:103C200008D00AE002F090F908E0904806E002F0BF
:103C300015F903E04FF4004000E00125002800F0F2
:103C4000F980616803225143884205D361684FF4CB
:103C500080525143814201D20125EBE0FFB2002F97
:103C600006D0022F15D0042F20D0082F2ED035E0FB
:103C700002F06AF94FF48071626852080023E1FB98
:103C80000023100019006268002303F0C1FE060043
:103C900025E0606840080021754A002380185941DA
:103CA0006268002303F0B4FE060018E002F0D6F8C4
:103CB00002004FF48073606840080021E3FB0201BA
:103CC0006268002303F0A4FE060008E06068400874
:103CD00010F500006168B0FBF1F600E00125B6F5D3
:103CE00040706449884202D22068C660A2E0012583
:103CF000A0E0E069B0F5004F53D1FFB2002F08D02B
:103D0000012F11D0022F1AD0042F23D0082F2CD02E
:103D100034E002F019F96168490811EB400061686C
:103D2000B0FBF1F6B6B22AE002F019F96168490871
:103D300011EB40006168B0FBF1F6B6B21FE06068BD
:103D4000400800F1F47010F590406168B0FBF1F6A6
:103D5000B6B214E002F082F86168490811EB400045
:103D60006168B0FBF1F6B6B209E06068400810F592
:103D700080306168B0FBF1F6B6B200E00125B6F123
:103D800010004FF6F071884209D24FF6F0703040C3
:103D9000C6F34201084380B22168C8604AE00125A9
:103DA00048E0FFB2002F08D0012F10D0022F18D00A
:103DB000042F21D0082F29D031E002F0C5F8616826
:103DC00010EB51006168B0FBF1F6B6B228E002F0EA
:103DD000C6F8616810EB51006168B0FBF1F6B6B24D
:103DE0001EE06068400800F5740010F5105061682E
:103DF000B0FBF1F6B6B213E002F030F8616810EBF8
:103E000051006168B0FBF1F6B6B209E060684008A5
:103E100010F500406168B0FBF1F6B6B200E0012594
:103E2000B6F110004FF6F071884202D22068C660E9
:103E300000E0012500202066002060662800C0B256
:103E4000F2BD00007D4100081B41000800800040D9
:103E5000F369FFEF00380140881002400044004041
:103E600000480040004C0040005000400024F40096
:103E7000000024F400FD0F0090F82410C90707D5B6
:103E80000168496831F40031826A11430268516067
:103E900090F82410890707D50168496831F480310A
:103EA000C26A11430268516090F82410490707D58F
:103EB0000168496831F48021026B11430268516046
:103EC00090F82410090707D50168496831F40041CA
:103ED000426B11430268516090F82410C90607D55F
:103EE0000168896831F48051826B114302689160E6
:103EF00090F82410890607D50168896831F40051CB
:103F0000C26B11430268916090F82410490613D5E2
:103F10000168496831F48011026C114302685160F4
:103F2000016CB1F5801F07D10168496831F4C00107
:103F3000426C11430268516090F82410090607D5BD
:103F40000168496831F40021826C114300684160C6
:103F5000704738B5040000250020606700F0BDF907
:103F600005002068006800070DD57FF07E400090B6
:103F70002B0000225FF40011200000F021F800283F
:103F800001D003201BE02068006840070DD57FF0BA
:103F90007E4000902B0000225FF48001200000F0A2
:103FA0000FF8002801D0032009E0202084F87100D8
:103FB000202084F87200002084F87000002032BDB8
:103FC0002DE9F04104000D0016001F00DDF81880F7
:103FD0002068C0692840A84201D1012000E00020EB
:103FE000F6B2B04221D118F1010FF1D0B8F1000FB3
:103FF00004D000F072F9C01B8045E9D22068006847
:1040000030F4D07021680860206880684008400063
:1040100021688860202084F87100202084F87200D4
:10402000002084F87000032000E00020BDE8F0814B
:104030000168096831F4907102681160016889684B
:104040004908490002689160202180F8721000211F
:104050000166704780B5806A0021A0F85A100021DF
:10406000A0F85210FFF7EFFC01BD000090F87110AE
:1040700021291CD1B0F8521000290DD1016809681E
:104080007FF080021140026811600168096851F0F8
:104090004001006801600AE0C16C4A1CC2640978F2
:1040A00002681185B0F85210491EA0F852107047EE
:1040B00090F8711021291FD1B0F8521000290DD1AC
:1040C000016809687FF08002114002681160016890
:1040D000096851F04001006801600DE0C16C098879
:1040E000C905C90D02681185C16C891CC164B0F88D
:1040F0005210491EA0F85210704780B50168096837
:104100007FF04002114002681160202180F8711098
:1041100000214166FFF796FC01BD10B5B0F85C10B8
:1041200090F87220222A22D10268928C436D5C1C86
:10413000446511401970B0F85A10491EA0F85A1081
:1041400089B2002919D10168096831F490710268B7
:10415000116001688968490849000268916020215E
:1041600080F8721000210166FCF77CFC05E0016814
:10417000098B51F008010068018310BD80B5B0F8CB
:104180005C2090F87210222923D101688B8C416D3C
:104190001A400A80416D891C4165B0F85A10491EC9
:1041A000A0F85A1089B2002919D10168096831F4C0
:1041B00090710268116001688968490849000268C5
:1041C0009160202180F8721000210166FCF74AFC02
:1041D00005E00168098B51F008010068018301BD09
:1041E00080B52848284908600022284926480068E8
:1041F00003F0ADFD26492448006803F0B1FD00201E
:1042000002BD00207047C0B2002810D001280FD096
:1042100002280ED003280DD004280CD020280BD063
:1042200021280AD0222809D0232808D008E007E056
:1042300006E005E004E003E002E001E000E0FFE763
:104240000020704710B504000221200000F009F89A
:1042500021000C4803F084FD0A4803F0A3FD002070
:1042600010BD80B5030000200A0092B21900064874
:10427000006803F06CFD0448006803F077FDC0B2ED
:1042800002BD00001C1F0020342B00203C29002010
:10429000FC28002080B5032003F010F9002000F076
:1042A00004F803F039F9002002BD10B504001448E9
:1042B00000684FF47A71B0FBF1F003F019F90022B5
:1042C00021005FF0FF3003F0FDF8002010BD0D4825
:1042D0000068401C0B49086070470A480068704736
:1042E00038B50400FFF7F9FF050014F1010F00D005
:1042F000641CFFF7F2FF401BA042FAD331BD00005F
:10430000E4050020202B002080B500220A490B483C
:1043100003F064FD0A49094803F078FD094907489C
:1043200003F00CFD054804F044F9002802D00348CE
:1043300003F077FD01BD0000080700201C1F0020CE
:10434000F4050020F806002078B4002200230024A1
:1043500036E0072512F00306F6B2B600B5402C434E
:10436000DFF8E851960845F82640DFF8E441246874
:104370009C434D68ED0300D51C43DFF8D4512C60FD
:10438000DFF8D04124689C434D68AD0300D51C4341
:10439000DFF8C0512C60DFF8C04124689C434D68B1
:1043A000ED0200D51C43DFF8B0512C606B4C246843
:1043B0009C434D68AD0200D51C43684B1C60521CE9
:1043C0000B68D340002B00F0B1800B6801249440AF
:1043D0002340002BF3D04C68022C02D04C68122CE6
:1043E00015D1D40800EB8404246A0F2512F00706C7
:1043F000F6B2B600B540AC430D6912F00706F6B24E
:10440000B600B5402C43D50800EB85052C62046846
:1044100003251600F6B27600B540AC430D7915F0D1
:1044200003051600F6B27600B5402C4304604C68D4
:10443000012C08D04C68022C05D04C68112C02D0FD
:104440004C68122C17D1846803251600F6B276004A
:10445000B540AC43CD681600F6B27600B5402C43AB
:104460008460446801259540AC434D68C5F3001550
:1044700095402C4344600C7914F00304032C09D1BB
:10448000C46A01259540AC434D68C5F3C00595400D
:104490002C43C462C46803251600F6B27600B5400A
:1044A000AC438D681600F6B27600B5402C43C4606C
:1044B0004C68E40083D52A4C246854F00104284D4C
:1044C0002C60274C246814F001040094009C1F4CBD
:1044D000950854F825400F2512F00306F6B2B600F1
:1044E000B540AC43B0F1904F01D1002532E71D4DEE
:1044F000A84201D101252DE71B4DA84201D102257B
:1045000028E71A4DA84201D1032523E7184DA842F8
:1045100001D104251EE7174DA84201D1052519E751
:10452000154DA8427FF415AF062513E771BC7047FF
:10453000D2B2002A02D089B2816101E089B28162DF
:104540007047426989B2514041617047080001409B
:104550000004014004040140080401400C0401402F
:10456000601002400004004800080048000C0048A9
:10457000001000480014004800180048C0B2102184
:1045800090FBF1F201FB12015FF0C0421170C0B26A
:10459000102190FBF1F010305FF0C04108707047BF
:1045A00010B5030008000024DFF8C019DBB20524B1
:1045B00063431944B1F1A00452F0B0015FF0C0426E
:1045C000117004215FF0C042117010215FF0C042F1
:1045D0001170C0B2FFF7D2FF002005E02178DFF8AC
:1045E000982D1170641C401CC0B20528F6DB10BD6C
:1045F00010B5030008000024DBB27A2B00D15A2347
:10460000DFF86C19DBB2052463431944B1F1A0044F
:1046100052F0B0015FF0C042117004215FF0C0425F
:10462000117010215FF0C0421170C0B2FFF7A6FFF9
:10463000FF20DFF8441D0870002006E02178C94300
:10464000DFF8342D1170641C401CC0B20528F5DB66
:1046500010BD70B504000D00042608E02A00D2B297
:104660003100C9B22078FFF7C3FF641CB61D207863
:104670000028F3D170BD2DE9F04104000D001600B3
:1046800000275FF004080AE02A00D2B24146C9B20E
:104690002078FFF785FF641C7F1C18F1060820783E
:1046A00000280DD038003100C0B2C9B28842EBD228
:1046B0002A00D2B24146C9B22078FFF799FFEAE753
:1046C000BDE8F08170B504000D00042608E02A0062
:1046D000D2B23100C9B22078FFF762FF641CB61D68
:1046E00020780028F3D170BDAE205FF0C041087083
:1046F00020205FF0C041087002205FF0C0410870C8
:10470000B0205FF0C0410870C8205FF0C041087061
:1047100040205FF0C0410870FF205FF0C04108708A
:1047200030205FF0C0410870A1205FF0C0410870E8
:10473000A6205FF0C0410870A8205FF0C04108705B
:104740001F205FF0C0410870A4205FF0C0410870D6
:10475000D3205FF0C041087000205FF0C0410870B6
:10476000D5205FF0C041087010205FF0C041087094
:10477000D9205FF0C041087022205FF0C04108706E
:10478000DA205FF0C041087012205FF0C04108706D
:10479000DB205FF0C041087020205FF0C04108704E
:1047A0008D205FF0C041087014205FF0C041087098
:1047B000AF205FF0C04108707047002104E3DFF8CC
:1047C000A82CD279002A14D1DFF8B02BC9B20A4440
:1047D000127CDFF8983CC9B20B4483F87020DFF8F4
:1047E0009C2BC9B2525CDFF8843CC9B20B4483F8FD
:1047F000F020DFF8742CD279012A14D1DFF8802B55
:10480000C9B20A44127CDFF8643CC9B20B4483F895
:104810007020DFF86C2BC9B2525CDFF8503CC9B293
:104820000B4483F8F020DFF8402CD279022A14D10F
:10483000DFF83C2CC9B20A44127CDFF8303CC9B224
:104840000B4483F87020DFF8282CC9B2525CDFF8E3
:104850001C3CC9B20B4483F8F020DFF80C2CD27951
:10486000032A14D1DFF80C2CC9B20A44127CDFF8F9
:10487000FC3BC9B20B4483F87020DFF8F82BC9B2B7
:10488000525CDFF8E83BC9B20B4483F8F020DFF854
:10489000E82BD278012A12D1DFF8E02BC9B20A4402
:1048A000127CDFF8C83BC9B25A54DFF8D02BC9B22A
:1048B000525CDFF8B83BC9B20B4483F88020DFF8C4
:1048C000B82BD278022A12D1DFF8B42BC9B20A442D
:1048D000127CDFF8983BC9B25A54DFF8A42BC9B256
:1048E000525CDFF8883BC9B20B4483F88020DFF8C4
:1048F000882BD278002A12D1DFF8882BC9B20A445B
:10490000127CDFF8683BC9B25A54DFF8782BC9B281
:10491000525CDFF8583BC9B20B4483F88020DFF8C3
:10492000482B5279002A14D1DFF8582BC9B20A4417
:10493000127CDFF8383BC9B20B4483F83020DFF833
:10494000442BC9B2525CDFF8243BC9B20B4483F854
:10495000B020DFF8142B5279012A14D1DFF8282C6B
:10496000C9B20A44127CDFF8043BC9B20B4483F895
:104970003020DFF8142CC9B2525CDFF8F03AC9B22B
:104980000B4483F8B020DFF8E02A527A002A14D1D1
:10499000DFF8F02AC9B20A44127CDFF8D03AC9B273
:1049A0000B4483F85020DFF8DC2AC9B2525CDFF8F0
:1049B000BC3AC9B20B4483F8D020DFF8AC2A527A53
:1049C000022A14D1DFF8C42BC9B20A44127CDFF8E2
:1049D0009C3AC9B20B4483F85020DFF8B02BC9B21F
:1049E000525CDFF8883AC9B20B4483F8D020DFF874
:1049F000782A527A012A14D1DFF8942BC9B20A44DA
:104A0000127CDFF8683AC9B20B4483F85020DFF813
:104A1000802BC9B2525CDFF8543AC9B20B4483F818
:104A2000D020DFF8442A527A032A2FD1C0B20028BE
:104A300014D1DFF8502AC9B20A44127CDFF82C3AAC
:104A4000C9B20B4483F85020DFF8382AC9B2525C4F
:104A5000DFF8183AC9B20B4483F8D020C0B201285D
:104A600014D1DFF82C2BC9B20A44127CDFF8FC39D0
:104A7000C9B20B4483F85020DFF8142BC9B2525C42
:104A8000DFF8E839C9B20B4483F8D020DFF8D82921
:104A9000127A002A14D1DFF8EC29C9B20A44127C38
:104AA000DFF8C839C9B20B4483F86020DFF8D42995
:104AB000C9B2525CDFF8B439C9B20B4483F8E020C4
:104AC000DFF8A429127A012A14D1DFF8C82AC9B262
:104AD0000A44127CDFF89439C9B20B4483F8602091
:104AE000DFF8B02AC9B2525CDFF88039C9B20B4492
:104AF00083F8E020DFF87029127A022A14D1DFF857
:104B0000982AC9B20A44127CDFF86039C9B20B4452
:104B100083F86020DFF8802AC9B2525CDFF84C3994
:104B2000C9B20B4483F8E020DFF83C29127A032A4B
:104B300014D1DFF8682AC9B20A44127CDFF82C3994
:104B4000C9B20B4483F86020DFF8502AC9B2525C26
:104B5000DFF81839C9B20B4483F8E020DFF80829E0
:104B6000127A042A14D1DFF8382AC9B20A44127C16
:104B7000DFF8F838C9B20B4483F86020DFF8202A48
:104B8000C9B2525CDFF8E438C9B20B4483F8E020C4
:104B9000DFF8D428127A052A14D1DFF8082AC9B21E
:104BA0000A44127CDFF8C438C9B20B4483F8602091
:104BB000DFF8F029C9B2525CDFF8B038C9B20B4453
:104BC00083F8E020DFF8A0289279002A14D1DFF8DA
:104BD000D829C9B20A44127CDFF89038C9B20B4414
:104BE00083F84020DFF8C029C9B2525CDFF87C3876
:104BF000C9B20B4483F8C020DFF86C289279012AEF
:104C000014D1DFF8A429C9B20A44127CDFF85C3859
:104C1000C9B20B4483F84020DFF88C29C9B2525C3A
:104C2000DFF84838C9B20B4483F8C020DFF83828D1
:104C30009279022A14D1DFF87429C9B20A44127C8D
:104C4000DFF82838C9B20B4483F84020DFF85C292C
:104C5000C9B2525CDFF81438C9B20B4483F8C020E3
:104C6000DFF804289279032A14D1DFF84029C9B269
:104C70000A44127CDFF8F437C9B20B4483F84020B1
:104C8000DFF82829C9B2525CDFF8E037C9B20B441B
:104C900083F8C020DFF8D0279279042A14D1DFF8F6
:104CA0001029C9B20A44127CDFF8C037C9B20B44DC
:104CB00083F84020DFF8F828C9B2525CDFF8AC373F
:104CC000C9B20B4483F8C020DFF89C27D278002AB1
:104CD00013D1DFF8E028C9B20A44127CDFF88C3720
:104CE000C9B20B441A74DFF8CC28C9B2525CDFF8A1
:104CF0007C37C9B20B4483F89020DFF86C27D27858
:104D0000012A13D1DFF8B028C9B20A44127CDFF8B7
:104D10005C37C9B20B441A74DFF89C28C9B2525CE4
:104D2000DFF84837C9B20B4483F89020DFF8382702
:104D3000D278022A13D1DFF88428C9B20A44127C3F
:104D4000DFF82837C9B20B441A74DFF87028C9B2EB
:104D5000525CDFF81837C9B20B4483F89020DFF8B3
:104D600008271279002A14D1DFF85428C9B20A445E
:104D7000127CDFF8F836C9B20B4483F82020DFF844
:104D80004028C9B2525CDFF8E436C9B20B4483F85C
:104D9000A020DFF8D4261279012A14D1DFF82428C4
:104DA000C9B20A44127CDFF8C436C9B20B4483F896
:104DB0002020DFF81028C9B2525CDFF8B036C9B243
:104DC0000B4483F8A020491CC9B21029FFF6F7ACA8
:104DD000B3205FF0C041087004205FF0C04108704C
:104DE00010205FF0C0410870002007E0DFF87C165B
:104DF000C0B2095CDFF880251170401CC0B2802869
:104E0000F4DBB2205FF0C041087004205FF0C041C5
:104E1000087010205FF0C0410870002009E0DFF842
:104E20004C16C0B2014491F88010DFF84C25117087
:104E3000401CC0B28028F2DB704710B5040000208F
:104E400000F07CFADFF88027DFF88007E4B2012C5D
:104E500040F08080DFF810160979012975D1012111
:104E6000FFF730FC022000F069FA032000F066FA38
:104E700000202EE0DFF8F0154979012911D1DFF883
:104E80000817C0B20144097CDFF84427C0B21154AE
:104E9000DFF8F416C0B2095CDFF83427C0B2024470
:104EA0001174DFF8C4154979002911D1DFF8D41540
:104EB000C0B20144097CDFF81827C0B21154DFF8F2
:104EC000C415C0B2095CDFF80827C0B202441174EF
:104ED000401CC0B21028CDDBB3205FF0C041087089
:104EE00004205FF0C041087010205FF0C0410870DE
:104EF0001420FFF743FB002007E0DFF8D416C0B210
:104F0000095CDFF874241170401CC0B21028F4DB77
:104F1000B2205FF0C041087004205FF0C04108700B
:104F200010205FF0C04108701420FFF727FB00201D
:104F3000C0B2102817DADFF89816C0B20144097C15
:104F4000DFF834241170401CF2E701211000FFF754
:104F5000B9FB08E0012000F0F1F9022000F0EEF9C1
:104F6000032000F0EBF910BD00000000000000205D
:104F7000A404002010B504000020CAE02021DFF8BE
:104F80005426C0B2024482F83210DFF8EC14C9781B
:104F9000002909D1DFF84016C0B2095CDFF83426D9
:104FA000C0B2024482F84B10DFF8CC14C978012952
:104FB00009D1DFF82816C0B2095CDFF81826C0B2A4
:104FC000024482F84B10DFF8B014C978022909D1E5
:104FD000DFF80C16C0B2095CDFF8F825C0B2024455
:104FE00082F84B10DFF890140979002909D1DFF815
:104FF000F415C0B2095CDFF8DC25C0B2024482F8C7
:105000006410DFF874140979012909D1DFF8D81583
:10501000C0B2095CDFF8BC25C0B2024482F864105B
:10502000DFF854144979002909D1DFF8C015C0B25E
:10503000095CDFF8A025C0B2024482F87D10DFF8D9
:1050400038144979012909D1DFF8A415C0B2095CE7
:10505000DFF88025C0B2024482F87D10DFF8181412
:105060008979002909D1DFF88C15C0B2095CDFF815
:105070006425C0B2024482F89610DFF8FC138979E7
:10508000012909D1DFF87015C0B2095CDFF84425A9
:10509000C0B2024482F89610DFF8DC13C979002907
:1050A00009D1DFF85815C0B2095CDFF82825C0B275
:1050B000024482F8AF10DFF8C013C979012909D181
:1050C000DFF83C15C0B2095CDFF80825C0B2024425
:1050D00082F8AF10DFF8A013097A002909D1DFF8B0
:1050E0002415C0B2095CDFF8EC24C0B2024482F897
:1050F000C810DFF88413097A012909D1DFF80815EF
:10510000C0B2095CDFF8CC24C0B2024482F8C810F7
:10511000401CC0B2152880F28480D7490978002944
:1051200007D1DFF8E814C0B2095CDFF8A824C0B2E8
:105130001154D1490978012907D1DFF8D414C0B23C
:10514000095CDFF89024C0B21154CB4909780229D8
:1051500007D1DFF8C014C0B2095CDFF87824C0B210
:105160001154C0B2112809DADFF8AC14C0B2095CDE
:10517000DFF86024C0B20244517623E0BE4949788A
:105180000A290BD1DFF89414C0B2014411F8111CA4
:10519000DFF84024C0B20244517613E0C0B21128B7
:1051A0000AD1DFF87C14B44A5278895CDFF82424F1
:1051B000C0B20244517605E02021DFF81824C0B2C5
:1051C00002445176C0B211280ADADFF85814C0B28E
:1051D000095CDFF80024C0B2024482F83210D4E641
:1051E000A54989780A290CD1DFF83014C0B20144EE
:1051F00011F8111CDFF8DC23C0B2024482F832102F
:10520000C3E6C0B211287FF4B9AEDFF814149A4A8D
:105210009278895CDFF8BC23C0B2024482F8321075
:10522000B3E6E4B2022C0AD10021DFF8A803DFF8CC
:10523000F823127819235A431044FFF70AFAE4B20C
:10524000012C0AD10021DFF88C03DFF8DC2312786F
:1052500019235A431044FFF735FAE4B2002C02D167
:10526000002000F06BF8DFF8C0030078062820DA91
:105270000121D848DFF8B023127819235A4310448B
:105280001930FFF71FFA0221D248DFF89C23127869
:1052900019235A4310443230FFF714FA0321CD4842
:1052A000DFF88423127819235A4310444B30FFF758
:1052B00009FADFF874030078062817D10121C548E0
:1052C000D94A127819235A4310441930FFF7FAF9D2
:1052D0000221C048D44A127819235A43104432306C
:1052E000FFF7F0F90321BB48FFF7ECF9CE4800784F
:1052F000072811D10121B748CB4A127819235A4304
:1053000010441930FFF7DEF90221B248FFF7DAF94D
:105310000321C648FFF7D6F9C348007808280BD107
:105320000121AC48FFF7CEF90221C048FFF7CAF9C6
:105330000321BF48FFF7C6F910BD000050F0B000D0
:105340005FF0C041087004205FF0C0410870102079
:105350005FF0C0410870002005E000BF491CB1F5B6
:10536000FA7FFAD3401C80B2802804DA0021024A76
:1053700011700021F3E770470100006084020020F3
:10538000A4020020B0205FF0C041087004205FF04C
:10539000C041087010205FF0C0410870002005E097
:1053A00000BF491CB1F5FA7FFAD3401C80B28028B7
:1053B00004DA00219F4A11700021F3E7B1205FF069
:1053C000C041087004205FF0C041087010205FF0F9
:1053D000C0410870002005E000BF491CB1F5FA7F0C
:1053E000FAD3401C80B2802804DA0021914A11705F
:1053F0000021F3E7B2205FF0C041087004205FF0A5
:10540000C041087010205FF0C0410870002005E026
:1054100000BF491CB1F5FA7FFAD3401C80B2802846
:1054200004DA0021834A11700021F3E7B3205FF012
:10543000C041087004205FF0C041087010205FF088
:10544000C0410870002005E000BF491CB1F5FA7F9B
:10545000FAD3401C80B2802804DA0021754A11700A
:105460000021F3E770470000DC2A002060220020C2
:10547000C4020020E4020020E82A002044020020A8
:10548000640200203C2A0020B0205FF0C041087078
:1054900004205FF0C041087010205FF0C041087028
:1054A000002005E000BF491CB1F5FA7FFAD3401C8B
:1054B00080B2802806DA604980B2095C5D4A1170CA
:1054C0000021F1E7B1205FF0C041087004205FF0D7
:1054D000C041087010205FF0C0410870002005E056
:1054E00000BF491CB1F5FA7FFAD3401C80B2802876
:1054F00008DA514980B2014491F880104D4A117088
:105500000021EFE7B2205FF0C041087004205FF097
:10551000C041087010205FF0C0410870002005E015
:1055200000BF491CB1F5FA7FFAD3401C80B2802835
:1055300008DA414980B2014491F800113D4A1170E6
:105540000021EFE7B3205FF0C041087004205FF056
:10555000C041087010205FF0C0410870002005E0D5
:1055600000BF491CB1F5FA7FFAD3401C80B28028F5
:1055700008DA314980B2014491F880112D4A117046
:105580000021EFE770470000E4030020C40300207F
:10559000A40300208403002004030020240300202F
:1055A000440300206403002044040020640400201D
:1055B00084040020E40100200402002024020020D2
:1055C000040400202404002004C1000814C10008C1
:1055D000602300206024002058BF000828BF000876
:1055E00040BF000888BF000870BF0008B8BF0008AF
:1055F000A0BF0008E8BF0008D0BF000818C000081E
:1056000000C0000830C0000848C00008B0BE000854
:10561000C8BE0008E0BE0008F8BE0008BCC1000813
:1056200080C1000810BF00086B2B002079240020E7
:105630009224002001000060B4B90008002202F0AA
:10564000C1BF000070B582B0040000252078C006FC
:105650005AD5DFF8B409006810F00C0F40F0A080B4
:10566000DFF810090068800704D5A069002801D17F
:10567000012003E3DFF8FC080068000705D5DFF828
:10568000F408006810F0F00005E0DFF88809006811
:10569000000910F0F000216A88425CD2206A00F014
:1056A0006BFC002801D00120E8E2DFF8C8080068A0
:1056B00050F00800DFF8BC180860DFF8B808006890
:1056C0007FF0F0010840216A0843DFF8A81808605D
:1056D000DFF84409006830F47F40E16950EA0120B6
:1056E000DFF83419086000F0B9FBDFF83019DFF893
:1056F00018291268C2F30312895CC840DFF8101938
:1057000008600020FEF7D1FD2078C00740F1EC8052
:10571000DFF8F408006810F00C0008280FD0DFF85C
:10572000E808006810F00C000C2840F08A80DFF8D0
:10573000DC08006810F00300032840F08280DFF8E6
:1057400034080068800340F1CF806068002840F092
:10575000CB80012092E2DFF81C08006850F00800BE
:10576000DFF810180860DFF80C0800687FF0F0011F
:105770000840216A0843DFF8FC170860DFF8980842
:10578000006830F47F40E16950EA0120DFF88818B2
:105790000860206A00F0F0FB0028A4D001206DE230
:1057A000A069002835D0DFF8CC07006850F0010070
:1057B000DFF8C0170860FEF790FD0500DFF8B407BA
:1057C0000068800706D4FEF788FD401B0328F5D348
:1057D000032053E2DFF89C07006850F00800DFF870
:1057E00094170860DFF88C0700687FF0F00108402C
:1057F000216A0843DFF87C170860DFF81C0800689E
:1058000030F47F40E16950EA0120DFF80C180860AD
:105810007AE7DFF86007006840084000DFF85417B7
:105820000860FEF75AFD0500DFF8480700688007AA
:105830007FF56AAFFEF751FD401B0328F4D3032028
:105840001CE26068B0F5803F08D1DFF828070068E7
:1058500050F48030DFF81C17086024E06068B0F571
:10586000A02F10D1DFF80C07006850F48020DFF87B
:1058700004170860DFF8FC06006850F48030DFF899
:10588000F41608600FE0DFF8EC06006830F48030B2
:10589000DFF8E0160860DFF8DC06006830F48020EE
:1058A000DFF8D0160860606800280ED0FEF715FDFE
:1058B0000500DFF8C0060068800315D4FEF70DFD73
:1058C000401B6528F5D30320D8E1FEF706FD05004F
:1058D000DFF8A0060068800306D5FEF7FEFC401B3B
:1058E0006528F5D30320C9E12078800729D5DFF8A2
:1058F0001807006810F00C0004280DD0DFF8080726
:10590000006810F00C000C2838D1DFF800070068A0
:1059100010F00300022831D1DFF858060068400576
:1059200004D5E068002801D10120A7E1DFF8E806EE
:10593000006830F0F850216950EA0160DFF8D816AD
:105940000860207800076DD56069002853D0DFF823
:10595000C406006850F00100DFF8B8160860FEF7D2
:10596000BCFC0500DFF8AC06006880075AD4FEF7DF
:10597000B4FC401B0328F5D303207FE1E068002836
:1059800022D0DFF8F005006850F48070DFF8E415ED
:105990000860FEF7A2FC0500DFF8D80500684005A6
:1059A00006D4FEF79AFC401B0328F5D3032065E1DB
:1059B000DFF86406006830F0F850216950EA0160B1
:1059C000DFF854160860BCE7DFF8A805006830F47B
:1059D0008070DFF8A0150860FEF77FFC0500DFF897
:1059E000940500684005ACD5FEF777FC401B032802
:1059F000F5D3032042E1DFF81C06006840084000B0
:105A0000DFF810160860FEF768FC0500DFF80406F2
:105A10000068800706D5FEF760FC401B0328F5D31D
:105A200003202BE12078400740F193800026DFF827
:105A3000F0050068C0000FD4DFF8E405006850F0FE
:105A40008050DFF8DC150860DFF8D405006810F03E
:105A50008050009000980126DFF8C8050068C00556
:105A600016D4DFF8C005006850F48070DFF8B41574
:105A70000860FEF732FC0500DFF8A8050068C005E5
:105A800006D4FEF72AFC401B0328F5D30320F5E0DB
:105A9000A068012808D1DFF89005006850F00100E7
:105AA000DFF88415086024E0A068052810D1DFF82D
:105AB0007805006850F00400DFF86C150860DFF826
:105AC0006805006850F00100DFF85C15086010E020
:105AD000DFF85405006840084000DFF84C15086006
