:020000040800F2
:10000000480B00201DC10008F7A40008F9A400084F
:10001000FBA40008FDA40008FFA4000800000000E5
:1000200000000000000000000000000001A5000822
:1000300003A500080000000005A5000807A50008AA
:1000400085C1000889C100088DC1000891C1000860
:1000500095C1000899C100089DC10008A1C1000810
:10006000A5C10008A9C10008ADC10008B1C10008C0
:10007000B5C10008B9C10008BDC10008C1C1000870
:10008000C5C10008C9C10008CDC10008D1C1000820
:10009000D5C10008D9C10008DDC10008E1C10008D0
:1000A000E5C10008E9C10008EDC10008F1C1000880
:1000B000F5C10008F9C10008FDC1000801C200082F
:1000C00005C2000809C200080DC2000811C20008DC
:1000D00015C2000819C200080FA500081DC20008BB
:1000E00021C2000825C2000829C200082DC200084C
:1000F00031C2000835C2000839C200083DC20008FC
:1001000041C2000845C2000849C200084DC20008AB
:1001100051C2000855C2000859C2000821A50008B4
:100120005DC2000861C2000865C2000869C200081B
:100130006DC2000871C2000875C2000879C20008CB
:100140007DC2000881C2000885C200080DB6000803
:1001500089C200088DC2000891C2000895C200083B
:1001600099C200089DC20008A1C20008A5C20008EB
:10017000A9C20008ADC20008B1C20008000000001A
:10018000B5C20008B9C20008DFF8480A0068C0F329
:1001900002207047012110F01F029140DFF8382A39
:1001A00040B2430942F82310704710B440B200280F
:1001B00009D50A01DFF8243A40B210F00F042344B5
:1001C00003F8042C04E00A01DFF8143A40B21A5490
:1001D00010BC704770B4030013F00704D4F1070695
:1001E000052E01D3042001E0D4F10700261D072EBF
:1001F00001D2002500E0E51E012616FA00F0401E9F
:100200000840A8400121A940491E1140084370BC84
:1002100070478168DFF8CC29114051F001018160FD
:1002200070478268DFF8C0391A4011F080431A43E2
:1002300052F00042826070478068C00F704781684A
:10024000DFF8A029114051F0040181607047016876
:1002500051F001010160704701687FF00202114016
:1002600001607047C16851F00101C160704781B001
:10027000DFF8781909680143DFF870291160DFF8A9
:100280006C19096801400091009901B070470000A5
:1002900038B504000D00DFF858090068B0F5802F6C
:1002A00022D2DFF8500902F062FA002001002A0091
:1002B000C9B2D2B2914213D2C0B234F81010DFF8F2
:1002C00030291268520002F1C84220321180DFF852
:1002D00020190968491CDFF818291160401CE5E75E
:1002E000DFF8100902F02CFA31BD70B504000D00E2
:1002F0001600DFF8000902F03AFA002001002A0097
:10030000C9B2D2B291420CD2C0B2710011EB40011D
:1003100001F1C84120310988C0B224F81010401CF6
:10032000ECE7DFF8D00802F00BFA70BD38B5040036
:100330000D00DFF8C00802F01AFAEDB2680010F103
:10034000C8400480DFF8AC0802F0FAF931BD38B5D6
:1003500004000025DFF89C0802F009FAE4B260000E
:1003600010F1C84000880500DFF8880802F0E8F9BD
:10037000280080B232BD10B50400DFF8780802F022
:10038000F6F9DFF86C080068400000F1C840203042
:100390000480DFF85C080068401CDFF8541808602F
:1003A000DFF84C080068DFF850180860DFF84408F0
:1003B00002F0C6F910BD70B504000D00DFF83C086E
:1003C000DFF83C18098820F81140DFF8340800886D
:1003D000401CDFF82C180880DFF8240800881E284D
:1003E00003DB0020DFF818180880DFF81808007811
:1003F0001E280DDADFF80C080078401CDFF804181E
:100400000870DFF804080078401CDFF8FC1708705B
:10041000DFF8F00700781E28C0F2FD81DFF8E8075A
:1004200000781E2806DADFF8E0070078401CDFF8C5
:10043000D81708700020DFF8D417088040F6FF7046
:10044000DFF8CC1708800020C0B21D2825DADFF8BD
:10045000BC170988DFF8A427C0B232F810209142F7
:1004600007D2DFF89817C0B231F81010DFF89C27D8
:100470001180DFF88817C0B231F81010DFF890272C
:100480001288914207D2DFF87417C0B231F8101009
:10049000DFF87C271180401CD6E7ADB2DFF86C078F
:1004A0000088DFF86C170988401A85422ADADFF8DD
:1004B000580700781E2811DB0120DFF85817087054
:1004C000DFF854070078012803D00120DFF84C172B
:1004D00008700120DFF8401708701FE00120DFF8E6
:1004E000341708700120DFF8301708700020DFF89B
:1004F0002C170870DFF810070078401EDFF8081787
:1005000008700BE00020DFF8181708700020DFF8F3
:10051000041708700020DFF800170870DFF8F406F1
:100520000078012840F01E810022DFF8F816DFF87D
:10053000F80602F040FA0022DFF8F016DFF8E806CD
:1005400002F0F8FADFF8DC068078DFF8E41688704D
:10055000DFF8D0064078DFF8D8164870DFF8C40618
:100560000078DFF8CC160870DFF8C0068078DFF876
:10057000C4168870DFF8B4064078DFF8B816487003
:10058000DFF8A806C078DFF8AC16C8700120DFF8E5
:10059000A8164871DFF884060078012840F097809B
:1005A0000120DFF87C160870DFF890060078401C08
:1005B000DFF8881608700020DFF8841608804AF6F5
:1005C0005520DFF87C164880DFF870060078DFF8E9
:1005D00070168880DFF86C060078DFF86416C88033
:1005E000DFF864060078DFF858160881DFF858064F
:1005F0004088DFF84C164881DFF84C060079DFF8B8
:1006000040168881DFF84006C088DFF83416C881BC
:10061000DFF834060089DFF828160882DFF828069C
:10062000807ADFF81C164882DFF808068078DFF849
:1006300010168882DFF8FC054078DFF80416C882BF
:10064000DFF8F005C078DFF8F8150883DFF8E0057B
:100650000078DFF8EC154883DFF8D4054078DFF840
:10066000E0158883DFF8C8058078DFF8D415C883E3
:10067000DFF8D405C08980B2000AC0B2DFF8C01527
:1006800008841121DFF8B805FFF702FE0026F6B254
:100690001D2E18DADFF8B4050088411CDFF8AC2500
:1006A0001180DFF8581580B231F81000FFF763FEB3
:1006B000DFF8980500881E2803DB0020DFF88C1582
:1006C0000880761CE3E70020DFF850150870DFF89B
:1006D0004C050078002836D1DFF82C0500781E285C
:1006E00031DA0120DFF838150870DFF81C050078D2
:1006F000002820D000263000DFF80C150978C0B2A1
:10070000884218D2DFF844050088411CDFF83C25F8
:100710001180DFF8E81480B231F81000FFF72BFEEB
:10072000DFF8280500881E2803DB0020DFF81C15F1
:100730000880761CDFE7200080B2FFF71CFE002057
:10074000DFF8C4140870DFF8D404007800285CD106
:10075000DFF8B40400781E2857D1200080B2FFF7DC
:100760000AFE52E0DFF8E8040078012836D10026BE
:10077000F6B21D2E1CDADFF8D4040088411CDFF825
:10078000CC241180DFF8741480B231F81000FFF728
:10079000F2FDDFF8B80400881E2803DB0020DFF834
:1007A000AC1408800020DFF860140870761CDFE7C6
:1007B0000621DFF83C040068000C80B2FFF7B6FDAC
:1007C0000721DFF82C04006880B2FFF7AFFD082195
:1007D000DFF86804007880B2FFF7A8FDDFF8740442
:1007E0000088401CDFF86C140880DFF86C04007887
:1007F000DFF86014098880B2884206D2DFF84C0422
:100800000088401CDFF844140880DFF80C040078EE
:10081000DFF83C14087070BD00B585B02020FFF7EC
:1008200026FD684602F00FFA632002900020039034
:10083000002001904720ADF800006946DFF81C0455
:1008400002F00DFADFF81404FFF706FDFFF79CFC39
:1008500000220021FFF7BEFC01003720FFF7A5FCB6
:10086000DFF8F803FFF7FEFC3720FFF793FCDFF813
:10087000EC03FFF7ECFC05B000BD0FB438B5179DD5
:10088000189C4FF47A700090E4B223009BB2DFF81A
:10089000D023EDB2290089B204A802F0C7FA0028DB
:1008A00003D004A802F08CFBEBE731BC5DF814FB2D
:1008B0000FB438B5179D189C4FF47A700090E4B2CD
:1008C00023009BB2DFF89C23EDB2290089B204A873
:1008D00002F0ACFA002803D004A802F071FBEBE7A9
:1008E00031BC5DF814FB0000F0B59BB01020DFF8C0
:1008F00074130870CA20DFF86C1348700024C825F0
:10090000E4B2012C5FD0DFF85C034078801EDFF892
:1009100054134870002640F6FF77022010905820AC
:100920000F90DFF8441384B068464C2202F036FC86
:100930000FBCFFF7BDFF002080B242F21071884269
:1009400002DA00BF401CF7E70020C0B20A2833DA01
:10095000C64909780129FBD10021C44A1170C44954
:10096000098811AAC0B222F81010310011AAC0B231
:1009700032F8102089B2914204D211A9C0B231F8E4
:1009800010100E0011A9C0B231F810103A0092B246
:10099000914204D211A9C0B231F810100F00C0B2B8
:1009A000002807D0ADB2B6B2BFB2F11B8D4201DA5A
:1009B00001210C00401CC8E7AA48407833289FDA80
:1009C000012004009CE7A7484078801CA549487096
:1009D000A4484078A74908701BB0F0BD10B50400CA
:1009E000A54884423DD10122A449A34802F07EFCDF
:1009F000A2480078A249A34A12788854A1480078F6
:100A0000401CA04908709F480078C82802DB0020DD
:100A10009C49087099480078242803D09A480078A7
:100A200001281ED101209849087094480078974900
:100A3000974A1278885496480078401C9449087068
:100A4000924893490978084410F8010C2A2808D1E3
:100A500000208D49087000208D49087001208D49C3
:100A6000087010BD80B58C4800787F2803D18A4873
:100A70004078AA2804D089480078012840F0A8804E
:100A800086480078012831D18548006820308449A3
:100A900008608348006883490988884202D300209F
:100AA0007E4908707E48026820217F48FFF71DFCC0
:100AB0000020C0B2202814DA7B49C0B231F81010EF
:100AC00089B2090A794AC0B202F810107649C0B258
:100AD00031F81010754AC0B202EB40025170401C50
:100AE000E7E74021714803F099F971E06A48C0785E
:100AF00001283DD10720FFF72AFC6A490880002021
:100B000067490860002220216748FFF7EEFB0020BC
:100B1000664908700020654948706248008880B2C4
:100B2000000A624988705F4800886049C8700020E8
:100B3000C0B21E2815DA5C49C0B231F8101089B273
:100B4000090A5A4AC0B202EB400211715649C0B2BA
:100B500031F81010554AC0B202EB40025171401CEE
:100B6000E6E74021514803F059F901204B4908704C
:100B70004948C07802280CD147480079464949794C
:100B800051EA00202C4908800A212B480088FFF7F1
:100B9000CDFB4148C078032802D1012044490870A8
:100BA0003D48C078042810D10120424908703A48D5
:100BB0000079002802D100202249087236480079C5
:100BC000012802D101201F49087200203249087013
:100BD00001BD00000CED00E000E100E018ED00E0D8
:100BE00000E400E0C0FFFF7FC0FFFF3F581002405D
:100BF000D42A00205C280020D82A00203C25002090
:100C0000022B0020412B00203F2B0020FE2A002039
:100C10003E070020402B0020432B00201A2B0020F1
:100C20004D2B00204C2A0020DC290020C82A00205F
:100C3000602A0020CC2A0020A02A0020422B00207D
:100C4000B4290020AC2A0020382A0020002B0020E4
:100C5000442B0020042B00204407002000140040F7
:100C6000C02A0020882A002010280020512B0020B4
:100C70000A2B00201F2B0020CC260020942A0020C5
:100C8000042600204C2B0020472B0020AC270020FE
:100C9000462B0020482B0020F42800201C2B00208D
:100CA000B82A0020062B0020480B00203429002001
:100CB0003A2B00203D2B002010B592B003F0CAF86B
:100CC00001F05AF901F01CFC01F07CFB01F014FB6F
:100CD00001F066FA01F0CCF901F0ACFA03F0F4F897
:100CE0000620FFF734FBDFF8881908600720FFF7BC
:100CF0002EFBDFF87C190968090411FA80F0DFF88F
:100D000070190860DFF868090068B0F5802F03D912
:100D10000020DFF85C190860DFF854090068DFF88C
:100D2000541908600820FFF712FBDFF84C1908700F
:100D30000A20FFF70CFBDFF844190880DFF83C09B4
:100D40000088B0F57A7F03DB0120DFF830190880D6
:100D5000FFF762FD00224FF40071DFF8240903F071
:100D6000CCF901220121DFF8180903F0C6F903F0DC
:100D7000ABFA04F077F947F23050DFF80819088031
:100D80000320DFF8F818C8710020DFF8F018887029
:100D90000020DFF8E81848710020DFF8E0184872FA
:100DA0000020DFF8D81808720020DFF8D01888710A
:100DB0000120DFF8C818C8700020DFF8C0180871DB
:100DC0000020DFF8C41808700120DFF8BC18487054
:100DD0000A20DFF8B41888700020DFF8AC18C8705B
:100DE0000020DFF8A41848710020DFF89C18087173
:100DF0000020DFF8941808720020DFF88C18C87102
:100E00000020DFF884188871DFF88008FFF717FAF0
:100E10000024641CB4F57A7F03D300200400FFF79C
:100E200021FEDFF86C080088002812D10022DFF8CC
:100E30006418DFF86C0E01F0BEFD0022DFF8641EBE
:100E4000DFF85C0E01F076FE42F21070DFF8401819
:100E50000880DFF8540E0078012840F0C682DFF8E1
:100E60004C0E80792C2840F01782DFF8400EC079B4
:100E70002C2800F01182DFF8340E807C412840F0ED
:100E80000B820020DFF8281E0870DFF8200E0078A3
:100E9000DFF8201E0870DFF8140E4078DFF8141E0B
:100EA0004870DFF8080E8078DFF8081E8870DFF8D9
:100EB000FC0DC078DFF8FC1DC870DFF8F00D00797C
:100EC000DFF8F01D0871DFF8E40D4079DFF8E41D6C
:100ED0004871DFF8D80D8079DFF8D81D8871DFF808
:100EE000CC0DC079DFF8CC1DC871DFF8C00D007AD9
:100EF000DFF8C01D0872DFF8B40D407ADFF8B41DCA
:100F00004872DFF8A80D807ADFF8A81D8872DFF834
:100F10009C0DC07ADFF89C1DC872DFF8900D007B35
:100F2000DFF8901D0873DFF8840D407BDFF8841D27
:100F30004873DFF8780D807BDFF8781D8873DFF861
:100F40006C0DC07BDFF86C1DC873DFF8600D007C92
:100F5000DFF8601D0874DFF8540D407CDFF8541D85
:100F60004874DFF8480D807CDFF8481D8874DFF88E
:100F70003C0DC07CDFF83C1DC874DFF8300D007DEF
:100F8000DFF8301D0875DFF8240D407DDFF8241DE3
:100F90004875DFF8180D807DDFF8181D8875002072
:100FA000C0B23C2816DADFF8041DC0B2095C2C2957
:100FB0000ED1DFF8041D0978491CDFF8FC2C1170F4
:100FC000DFF8F41C0978092902D1DFF8F01C087059
:100FD000401CE5E70020DFF8E01C0870DFF8CC0CCF
:100FE000007D0A21DFF8C42C527D01FB002010385F
:100FF000DFF8CC1C0870DFF8B40C807D642110FB96
:1010000001F0DFF8A81CC97D0A2211FB0200DFF8FD
:101010009C1C497E401841F2D041401ADFF8A01CC8
:101020004880DFF8880C807FDFF8941C0871DFF8B7
:101030007C0C90F82000642110FB01F0DFF86C1CA0
:1010400091F821100A2211FB0200DFF8601C91F8D0
:101050002210401841F2D041401ADFF8641CC880C9
:10106000DFF8480C90F82300642110FB01F0DFF852
:101070003C1C91F824100A2211FB0200DFF82C1C02
:1010800091F82610401841F2D041401ADFF8301C88
:101090000881DFF8180C90F82B00DFF8241C887208
:1010A000DFF8080CC0790A21DFF8002C127A01FB66
:1010B00000201038DFF8081CC872DFF8F00B407A07
:1010C0000A21DFF8E82B927A01FB00201038DFF8C4
:1010D000F01B0873DFF8D40BC07A0A21DFF8CC2BA1
:1010E000127B01FB00201038DFF8D41B4873DFF8B7
:1010F000BC0B807B642110FB01F0DFF8B01BC97BC7
:101100000A2211FB0200DFF8A41B097C401841F2FF
:10111000D041401ADFF8A81BC881DFF8900B90F887
:1011200037002C282DD1DFF8840B90F838000A21E5
:10113000DFF8782B92F8392001FB00201038DFF817
:10114000801B0874DFF8640B90F83A000A21DFF87E
:101150005C2B92F83B2001FB00201038DFF8601B6D
:101160004874DFF8480B90F83C000A21DFF83C2B6C
:1011700092F83D2001FB00201038DFF8441B8874F2
:101180003EE0DFF8280BDFF8341B0978084440788C
:101190000A21DFF8182BDFF8243B1B781A449278D9
:1011A00001FB00201038DFF8181B0874DFF8FC0A78
:1011B000DFF8081B09780844C0780A21DFF8EC2A18
:1011C000DFF8F83A1B781A44127901FB0020103836
:1011D000DFF8EC1A4874DFF8D40ADFF8E01A09786F
:1011E000084440790A21DFF8C42ADFF8D03A1B7896
:1011F0001A44927901FB00201038DFF8C41A887471
:10120000DFF8BC0A007CDFF8601D8870DFF8B00AE8
:10121000407CDFF8541D4870DFF8A40A807CDFF8BA
:10122000481DC8700022DFF8401DDFF8740A01F085
:10123000F4FBDFF88C0AC07ADFF8301D0870DFF8A5
:10124000800A007BDFF8241D4870DFF8740A407BB9
:10125000DFF8181D88700022DFF8101DDFF8400A43
:1012600001F00FFB0120DFF814144872DFF8000DC5
:101270000078401CDFF8F81C0870DFF8F40C0078E8
:101280000428C0F2AE800020DFF8E41C08700120C2
:10129000DFF8E01C0870A4E0DFF8100A80792C2841
:1012A00040F09B80DFF8040AC0792C2800F095807C
:1012B000DFF8F809807C562840F08F800120DFF8A5
:1012C000F0190870DFF8E4090078DFF8E819087011
:1012D000DFF8D8094078DFF8DC194870DFF8CC096E
:1012E0008078DFF8D0198870DFF8C009C078DFF89F
:1012F000C419C870DFF8B4090079DFF8B8190871AB
:10130000DFF8A8094079DFF8AC194871DFF89C09CB
:101310008079DFF8A0198871DFF89009C079DFF8CB
:101320009419C871DFF88409007ADFF88819087207
:10133000DFF87809407ADFF87C194872DFF86C0929
:10134000807ADFF870198872DFF86009C07ADFF8F8
:101350006419C872DFF85409007BDFF85819087364
:10136000DFF84809407BDFF84C194873DFF83C0987
:10137000807BDFF840198873DFF83009C07BDFF825
:101380003419C873DFF82409007CDFF828190874C1
:10139000DFF81809407CDFF81C194874DFF80C09E5
:1013A000807CDFF810198874DFF80009C07CDFF852
:1013B0000419C874DFF8F408007DDFF8F818087520
:1013C000DFF8E808407DDFF8EC184875DFF8DC0846
:1013D000807DDFF8E018887503E00220DFF8D01880
:1013E00008700020DFF8C0180870DFF8640C00787F
:1013F00000285AD1A4484079012856D1DFF8980D29
:101400000078022851D0DFF84C0C0078002820D159
:1014100001224FF400719A4802F06FFEDFF8380C99
:101420000078002808D144F62060DFF8301C0880DE
:101430000120DFF8241C0870DFF8200C0088002849
:1014400007D10120DFF80C1C08700020DFF8081C11
:101450000870DFF8000C0078012826D100224FF434
:101460000071874802F049FE0120DFF8E41B087094
:10147000C82002F015FD0422DFF8E41BDFF8E40BBE
:1014800001F0F8FE4CF25030DFF8101D0860012228
:10149000DFF8D41BDFF8CC0B01F028FF03207749DD
:1014A00048720320DFF8C41B0870DFF8A40B007833
:1014B00001283DD174484079002839D1DFF8D80C93
:1014C0000078022834D0DFF88C0B0078012820D176
:1014D00001224FF400716A4802F00FFEDFF8780B2A
:1014E0000078002808D14FF4FA50DFF8701B08800C
:1014F0000120DFF8641B0870DFF8600B008800280B
:1015000007D10020DFF84C1B08700020DFF8481BD3
:101510000870DFF8400B0078002809D100224FF452
:101520000071574802F0E9FD0020DFF8241B087025
:10153000DFF8680C0068002875D15348407901280D
:1015400071D1DFF80C0B007801286CD1DFF8480C62
:101550000078022867D0DFF8CC0C0068002862D140
:10156000DFF8080B007803280ED1DFF8000B0078B5
:10157000401EDFF8F81A08700B22DFF8AC1CDFF809
:10158000E40A01F077FE49E0DFF8E00A007802287B
:101590000ED1DFF8D80A0078401EDFF8D01A0870A4
:1015A0000A22DFF8881CDFF8BC0A01F063FE35E090
:1015B000DFF8B80A007801280ED1DFF8B00A007809
:1015C000401EDFF8A81A08700D22DFF8641CDFF84F
:1015D000940A01F04FFE21E0DFF8900A007800281D
:1015E0001CD1DFF890090078002806D11722DFF817
:1015F000EC1CDFF8700A01F03DFEDFF87809007896
:1016000001280BD10D22DFF8D81CDFF8580A01F0B1
:1016100031FEDFF8D00CDFF80C1C0860DFF8C80CD6
:10162000DFF8781B0860DFF8C40C007801283BD194
:10163000DFF8BC0C0078012836D10020DFF8AC1CA4
:1016400008700020DFF8A81C08700C4800790028FA
:1016500022D1DFF8540D0078012801D1FFF744F9B9
:101660000120DFF8901C08700120044908711BE07C
:10167000D42A0020D82A0020422B0020A02A0020B3
:101680000004004842070020AC2A0020000004505B
:101690003C0700204C2A00200020DFF8581C08706E
:1016A0000020DFF8081D0871DFF8400C00780128E1
:1016B00023D1DFF8FC0C007800281ED10020DFF8D1
:1016C0002C1C0870DFF8D00A0078032803D1002012
:1016D000DFF8C41A0870DFF8C00A0078012803D1C7
:1016E0000320DFF8B41A0870DFF8AC0A007802288B
:1016F00003D10120DFF8A01A0870DFF8F40B00789E
:1017000001281AD1DFF8AC0C0078002815D1002090
:10171000DFF8DC1B0870DFF8800A0078012803D1AD
:101720000220DFF8741A0870DFF86C0A00780328CA
:1017300003D10120DFF8601A0870DFF87C0C007814
:10174000012810D1DFF8740C007801280BD100209B
:10175000DFF8581C48710020DFF85C1C087000207E
:10176000DFF8581C0870DFF8540C0078012840F0AE
:1017700057810020DFF8341C48710020DFF83C1C42
:101780000870DFF83C0C0078401CDFF8341C08704F
:10179000DFF82C0C0078022803DB0020DFF8201C87
:1017A0000870DFF81C0C0078002808D1DFF8E80981
:1017B0000078002803D10320DFF8DC190870DFF877
:1017C000000C0078012808D1DFF8CC090078032844
:1017D00003D10020DFF8C0190870DFF8BC090078D9
:1017E00001280FD1DFF8080D0078401CDFF8001D3C
:1017F0000870DFF8FC0C0078092803DB0020DFF814
:10180000F01C0870DFF890090078022840F0088189
:10181000DFF8DC0C007800280FD1DFF8D80C007856
:10182000401CDFF8D01C0870DFF8C80C00780328D3
:1018300003DB0020DFF8BC1C0870DFF8B40C007874
:10184000012813D1DFF8AC0C4078401CDFF8A41C51
:101850004870DFF8A00C40780B2803DB0020DFF88D
:10186000941C48700120DFF8901C0870DFF8800C91
:10187000007802280FD1DFF87C0C8078401CDFF85C
:10188000741C8870DFF86C0C80780B2803DB002058
:10189000DFF8601C8870DFF8580C007803280FD13F
:1018A000DFF8500CC078401CDFF8481CC870DFF827
:1018B000440CC078032803DB0020DFF8381CC87014
:1018C000DFF82C0C007804282AD1DFF8280C0079E6
:1018D000401CDFF8201C0871DFF8180C0079022882
:1018E00003DB0020DFF80C1C0871DFF8080C00791E
:1018F000002803D10020DFF8B41A0872DFF8F40BD7
:10190000007901280CD1DFF8F40B0078002803D10E
:101910000120DFF8981A08720120DFF8E01B087038
:10192000DFF8CC0B0078052829D1DFF8C80B407907
:10193000401CDFF8C01B4871DFF8B80B4079022863
:1019400003DB0020DFF8AC1B4871DFF8A80B4079FF
:10195000002807D10020DFF8541A48720120DFF870
:101960000C1D0870DFF88C0B4079012807D101208D
:10197000DFF8381A48720120DFF8F41C0870DFF82D
:10198000700B007806280FD1DFF8680B8079401CB7
:10199000DFF8601B8871DFF85C0B8079022803DBBD
:1019A0000020DFF8501B8871DFF8440B007807280F
:1019B0001DD1DFF8400BC079401CDFF8381BC8711F
:1019C000DFF8300BC079022803DB0020DFF8241B8E
:1019D000C871DFF8200BC079012804D10120DFF89D
:1019E000941C087003E00020DFF8881C0870DFF802
:1019F000000B0078082813D1DFF8F80A007A401CA1
:101A0000DFF8F01A0872DFF8EC0A007A022803DB2C
:101A10000020DFF8E01A08720120DFF85C1C087073
:101A2000DFF894090078012840F069810020DFF890
:101A30007C1948710020DFF880190870DFF88009F0
:101A40000078401CDFF878190870DFF87409007816
:101A5000022803DB0020DFF868190870DFF860094E
:101A60000078002808D1DFF830070078002803D17B
:101A70000320DFF824170870DFF8440900780128F4
:101A800008D1DFF814070078032803D10020DFF81D
:101A900008170870DFF80007007801280FD1DFF879
:101AA000500A0078002803D10920DFF8441A087092
:101AB000DFF83C0A0078401EDFF8341A0870DFF8BF
:101AC000D8060078022840F01A81DFF8240A00784E
:101AD00000280FD1DFF81C0A0078002803D103206A
:101AE000DFF8101A0870DFF80C0A0078401EDFF8E3
:101AF000041A0870DFF8F8090078012813D1DFF81C
:101B0000F4094078002803D10B20DFF8E819487069
:101B1000DFF8E0094078401EDFF8D819487001204E
:101B2000DFF8D4190870DFF8C809007802280FD14F
:101B3000DFF8C0098078002803D10B20DFF8B41942
:101B40008870DFF8B0098078401EDFF8A819887027
:101B5000DFF89C09007803280FD1DFF89809C078D6
:101B6000002803D10320DFF88C19C870DFF884093E
:101B7000C078401EDFF87C19C870DFF8740900785F
:101B800004282AD1DFF86C090079002803D102204B
:101B9000DFF860190871DFF85C090079401EDFF892
:101BA00054190871DFF84C090079002803D100208E
:101BB000DFF8F8170872DFF83C09007901280CD12A
:101BC000DFF838090078002803D10120DFF8DC179E
:101BD00008720120DFF824190870DFF81409007872
:101BE000052829D1DFF80C094079002803D102200B
:101BF000DFF800194871DFF8FC084079401EDFF873
:101C0000F4184871DFF8EC084079002807D100206B
:101C1000DFF8981748720120DFF8501A0870DFF8D3
:101C2000D4084079012807D10120DFF880174872D5
:101C30000120DFF83C1A0870DFF8B40800780628A5
:101C40000FD1DFF8B0088079002803D10220DFF837
:101C5000A4188871DFF89C088079401EDFF894187A
:101C60008871DFF88C08007807282FD1DFF8840806
:101C7000C079002803D10220DFF87818C871DFF896
:101C80007408C079401EDFF86C18C871DFF864086A
:101C9000C079012816D10120DFF8D819087015E0A5
:101CA000DC290020C82A0020482B0020AC27002077
:101CB000242B0020202A0020222B0020232B002070
:101CC000382A00200020DFF8AC190870DFF820085F
:101CD0000078082813D1DFF81C08007A002803D107
:101CE0000220DFF810180872DFF80808007A401E9A
:101CF000DFF8001808720120DFF87C190870DFF89F
:101D00007409007801284AD1DFF88C040078022891
:101D100045D00020DFF8641908600020DFF8601962
:101D200008600621DFF854090068000C80B2FEF755
:101D3000FDFA0721DFF84409006880B2FEF7F6FAE1
:101D40000020DFF8301908700020DFF8381908701B
:101D50000821DFF83009007880B2FEF7E7FA0020AA
:101D6000DFF89017C8710020DFF840164871002096
:101D7000DFF8141988700020DFF80C194870002073
:101D8000DFF8041908700020DFF8001988700020BF
:101D9000DFF8F81848700020DFF8F018C870DFF896
:101DA000D808007801282CD1DFF8EC03007802284D
:101DB00027D01020DFF8D8180870DFF83807007A2D
:101DC000002803D15A20DFF8C8184870DFF824072C
:101DD000007A012803D13320DFF8B41848700220BC
:101DE00010905E200F90DFF8AC1884B068464C224B
:101DF00001F0D4F90FBCFEF740FD0020DFF87818A1
:101E00000870DFF8F406007801287FF402A8E248A1
:101E1000007802283EF4FDAFDFF8D80640780028AD
:101E200007D1FA20DFF8701848700020DFF8781525
:101E30000870DFF8C0064078012807D1E120DFF8FC
:101E4000581848700020DFF860150870DFF8A40605
:101E50004078022807D1C820DFF83C1848700020DD
:101E6000DFF844150870DFF88C064078032807D1A6
:101E7000AF20DFF8241848700020DFF82C15087018
:101E8000DFF870064078042807D19620DFF808189C
:101E900048700020DFF810150870DFF85806407809
:101EA000052807D17D20DFF8F01748700020DFF803
:101EB000F8140870DFF83C064078062807D1642043
:101EC000DFF8D41748700020DFF8DC140870DFF862
:101ED00024064078072807D14B20DFF8BC1748704C
:101EE0000020DFF8C4140870DFF8080640780828DE
:101EF00007D13220DFF8A01748700020DFF8A814BF
:101F00000870DFF8F0054078092807D11920DFF8BC
:101F1000881748700020DFF890140870DFF8D405A7
:101F200040780A2803D10120DFF87C140870DFF81C
:101F300078040078002811D11020DFF85C170870B1
:101F40000220109058200F90DFF8481784B06846A0
:101F50004C2201F023F90FBCFEF7AAFC0020DFF8A9
:101F600098150870FEF755BFD02A0020742A00206B
:101F70001E2B00201D2B002000B5B9B005A8442160
:101F800003F04AF96846142103F046F916A888219F
:101F900003F042F9052005905FF4A020069005208B
:101FA000079002200F90032010900120119018201C
:101FB000129007201390062014900420159005A875
:101FC00003F02EF9002801D000F08AFB0F200090CA
:101FD0000320019000200290002003900020049034
:101FE0000421684603F037FC002801D000F078FB9C
:101FF000DFF8A80616900020259000202A905FF0B8
:10200000805034904FF4807037905FF08060319052
:1020100003201790012018900820199007201A908B
:1020200002201B9002201C905FF088701D9016A863
:1020300003F00CFE002801D000F052FB4FF40070BA
:1020400004F0C0F9002801D000F04AFB39B000BD0F
:10205000492B00204A2B00204B2B0020F42A002083
:1020600068C10008CC260020942A002045070020E3
:1020700000B589B006A80021002200230EC00C384C
:102080006846DFF81C1691EC060B80EC060BDFF8B7
:102090001406DFF8141608600020DFF80C164860FC
:1020A0000020DFF8041688600020DFF8FC15C86007
:1020B0000120DFF8F41508610420DFF8EC15486111
:1020C0000020DFF8E41588610020DFF8DC15C86126
:1020D0000220DFF8D41508620020DFF8CC15486232
:1020E0000120DFF8C415C8620020DFF8BC150863C2
:1020F0000020DFF8B41548630020DFF8AC158863D2
:102100000020DFF8A415C863DFF89C0504F0BCF9D3
:10211000002801D000F0E4FA0020069006A9DFF8BC
:10212000880504F0BFFD002801D000F0D9FA012095
:1021300000900120019005200290002003900020D3
:102140000490002005906946DFF85C0504F01CFB54
:10215000002801D000F0C4FA022000900220019073
:102160006946DFF8440504F00FFB002801D000F0B9
:10217000B7FA7F21DFF82C05FEF753F8DFF82405C6
:10218000FEF75AF8002801D000BFF7E7DFF8140582
:10219000FEF73FF809B000BD46070020C42A002022
:1021A00080B5DFF80805DFF8EC140860DFF80005FB
:1021B000DFF8E01448600020DFF8D81488600120C0
:1021C000DFF8D014C8600020DFF8C81408610020D0
:1021D000DFF8C01448610020DFF8B81488610020DF
:1021E000DFF8B014C8610020DFF8A8140862DFF837
:1021F000A40400F0B5FD002801D000F071FA002120
:10220000DFF8900404F0ECFD002801D000F068FA3B
:102210000021DFF8800404F015FE002801D000F052
:102220005FFA01BDBC2A00202CC1000838C100089B
:102230009CC0000800B58BB06846282102F0ECFF76
:10224000DFF87004DFF8701408600020DFF868140D
:1022500048607F20DFF860148860FF20DFF85814A2
:10226000C8600020DFF8501408610020DFF848142F
:1022700048610020DFF8401488610020DFF838143E
:10228000C861DFF8340400F08DFA002801D000F0B6
:1022900027FA0120009000200290002003900020E7
:1022A0000490002005900020069000200790002058
:1022B0000890802009906946DFF8FC0304F0F6FDE1
:1022C000002801D000F00CFADFF8EC0304F066FE01
:1022D000002801D000F004FA0BB000BD48BE000891
:1022E000ACC00008001BB700A08601002F2B002007
:1022F000332B0020212B002080B5DFF8C0030068BD
:1023000050F40030DFF8B4130860DFF8B003006861
:1023100010F4003000900098DFF8A403DFF8A41355
:1023200008604FF41650DFF89C1348600020DFF877
:10233000941388600020DFF88C13C8600020DFF859
:10234000841308610C20DFF87C1348610020DFF85B
:10235000741388614FF40040DFF86813C8614FF4CC
:102360000060DFF8601308620820DFF85813486245
:102370004FF40040D3494863D24800F03BFF0028A7
:1023800001D000F0ADF900220021262004F0B0FEBB
:10239000262004F0C0FECB480068006850F0010021
:1023A000C8490968086001BD452B0020A02A00200B
:1023B000352B0020312B0020302B0020342B002027
:1023C000532B002000B587B05FF02040BE49086065
:1023D000BE48BD4948600020BB4988600020BA491A
:1023E000C8600020B84908610020B7494861002052
:1023F000B54988610020B449C8610020B24908622B
:102400004FF48050B04948620020AF4988620020F4
:10241000AD49C8620020AC4908630020AA4948635E
:102420000020A94988630020A74908640F20009074
:102430000F200190FF2002900F20039010200490A5
:102440001120059000200690002269469E4800F069
:1024500049F9002801D000F043F95FF020409C4981
:1024600008609A489A49486002209949886000208B
:102470009749C86000209649086110209449486136
:1024800000209349886100209149C861002090494B
:1024900008624FF480508E49486200208C4988625F
:1024A00000208B49C86200208949086300208849C0
:1024B00048630020864988630020854908640F200E
:1024C00000900F200190C82002900F200390102050
:1024D00004901120059000200690002269467C4857
:1024E00000F000F9002801D000F0FAF807B000BDB4
:1024F000202B0020AC2A00203E2B00203C2B00206B
:1025000000B587B001A8142102F086FE714800686A
:1025100050F004006F4908606E48006810F0040035
:10252000009000986B48006850F0200069490860EE
:102530006848006810F02000009000986548006826
:1025400050F08000634908606248006810F0800025
:10255000009000985F48006850F001005D490860F5
:102560005C48006810F0010000900098594800682D
:1025700050F00200574908605648006810F0020009
:10258000009000985348006850F04000514908609E
:102590005048006810F04000009000984D480068D6
:1025A00050F010004B4908604A48006810F01000D5
:1025B000009000984748006850F0080045490860BE
:1025C0004448006810F008000090009803F048FFAD
:1025D00000221C21404801F090FD002230215FF0D4
:1025E000904001F08AFD002242F203213B4801F0B5
:1025F00084FD1C2001900120029000200390002007
:10260000049001A9344801F07FFC302001900120A2
:102610000290002003900020049001A95FF09040F8
:1026200001F072FC20200190002002900020039015
:1026300001A9294801F068FC42F203200190012021
:102640000290002003900020049001A9234801F08B
:102650005BFC4FF4E05001900020029001200390B9
:1026600001A91E4801F050FC07B000BD1B2B002043
:102670003B2B00203A2B00203D2B0020D42A0020A9
:10268000D82A0020422B0020602A0020CC2A0020DB
:10269000C02A002010280020882A00204260020062
:1026A00060BE000800000450442700200054004091
:1026B000D38D801000280040DC29002058100240F3
:1026C00000440040CC2600205C280020040100A02B
:1026D000A82800204C1002400008004800040048D0
:1026E0007047000070B504000D001600002C01D1E9
:1026F000012024E094F84500002805D1002084F84A
:102700004400200004F073FE14F10801206804F076
:1027100093FEA2682900206804F0F0FEE36AA26834
:102720003100606804F042FF2068A16850F8210081
:1027300050F001002168A26841F82200002070BD1D
:1027400010B5040094F84400012801D102200DE0E6
:10275000012084F84400A168206804F05AFF012099
:1027600084F84500002084F84400002010BD10B516
:10277000040094F84400012801D1022010E0012057
:1027800084F84400022084F84500A168206804F021
:1027900049FF042084F84500002084F8440000200C
:1027A00010BD000010B50400002C01D1012067E02D
:1027B00094F82100002805D1002084F82000200092
:1027C00004F049FD022084F82100CA2021684862F3
:1027D000532021684862200000F0F5F9002807D056
:1027E000FF2021684862042084F82100012047E08E
:1027F00020688068DFF88C130840216888602068B2
:102800008068616822691143A26911430843216805
:102810008860E0682168086120680069A16850EA62
:102820000140216808612068C0687FF0800108408D
:102830002168C8602068806880060CD4200000F001
:10284000A7F9002807D0FF2021684862042084F8F7
:102850002100012014E02068C06C800880002168FD
:10286000C8642068C06CE16962691143084321684B
:10287000C864FF2021684862012084F821000020FC
:1028800010BD2DE9F84304000D001600002794F850
:102890002000012801D102208BE0012084F82000D3
:1028A000022084F82100002E1FD120688068400695
:1028B00001D40020E870287800F0A1F980466878FB
:1028C00000F09DF98146A87800F099F95FFA88F840
:1028D0005FFA89F95FEA092151EA0841C0B2084369
:1028E000E97850EA0140070015E02068806840065A
:1028F00004D5287800F08EF9070001E00020E87088
:1029000028786978090251EA0040A9780843E978F3
:1029100050EA01400700CA2021684862532021681C
:102920004862200000F04FF900280AD0FF202168FB
:102930004862042084F82100002084F8200001204F
:1029400037E0DFF84402384021680860206880687A
:1029500030F480202168886020688068E9682A69EE
:1029600011430843216888602068C0687FF08001B7
:1029700008402168C8602068806880060FD4200065
:1029800000F006F900280AD0FF20216848620420E0
:1029900084F82100002084F82000012009E0FF20B5
:1029A00021684862012084F82100002084F820007A
:1029B0000020BDE8F283F8B504000D0016000027E2
:1029C0002068806A6860206800694004400CA86044
:1029D00020680068DFF8B01108400700380C10F0DC
:1029E0003F002870380A10F07F00687017F07F00F1
:1029F000A870380C10F04000E870002E0BD1287839
:102A000000F008F92870687800F004F96870A87878
:102A100000F000F9A8700020F2BD2DE9F843040091
:102A20000D001600002794F82000012801D1022093
:102A30007EE0012084F82000022084F82100002E8E
:102A400007D16878C00604D5687810F0EF000A3026
:102A50006870002E19D1E87800F0D1F880466878C7
:102A600000F0CDF88146A87800F0C9F85FFA88F840
:102A70005FFA89F95FEA092151EA0841C0B20843C7
:102A8000297850EA4130070012E0687800F0C2F877
:102A90000700A87800F0BEF80700E8786978090216
:102AA00051EA0040A9780843297850EA41300700EC
:102AB000CA2021684862532021684862200000F043
:102AC00082F800280AD0FF2021684862042084F898
:102AD0002100002084F82000012029E0DFF8AC006C
:102AE0003840216848602068C0687FF08001084055
:102AF0002168C8602068806880060FD4200000F03C
:102B000047F800280AD0FF2021684862042084F892
:102B10002100002084F82000012009E0FF20216826
:102B20004862012084F82100002084F82000002061
:102B3000BDE8F283F8B504000D00160000272068F8
:102B40004068DFF8481008400700380CE870380A81
:102B500010F01F00687017F03F00A870780B10F09D
:102B600007002870002E0BD1E87800F053F8E870C9
:102B7000687800F04FF86870A87800F04BF8A870FB
:102B80000020F2BDBFFF8FFF7F7F7F003FFFFF0070
:102B900038B5040000252068C0687FF0A001084017
:102BA0002168C86001F079F905002068C0688006D6
:102BB00007D401F072F9401BB0F57A7FF5D90320F4
:102BC00000E0002032BD38B5040000252068C06850
:102BD000400612D45FF0FF302168C86001F05DF953
:102BE00005002068C068400607D401F056F9401B74
:102BF000B0F57A7FF5D9032000E0002032BD002136
:102C0000C0B20A2802DB491C0A38F9E750EA011071
:102C1000C0B2704700220100C9B20909C9B20A2333
:102C200059430A00C0B210F00F008018C0B27047BC
:102C300081627047C162704701637047416951F01A
:102C400001014161704700210180002141605FF076
:102C5000FF3181600021C16000210174704770B5AF
:102C600004000D00002620680600DFF8D40084422E
:102C700012D0B4F1804F0FD0DFF8C80084420BD0DF
:102C8000DFF8C400844207D0DFF8C000844203D0DC
:102C9000DFF8BC00844205D17FF0700030406968E5
:102CA00051EA0006DFF8980084421ED0B4F1804F4C
:102CB0001BD0DFF89000844217D0DFF88C008442EC
:102CC00013D0DFF8880084420FD0DFF884008442FC
:102CD0000BD0DFF88000844207D0DFF87C0084420C
:102CE00003D0DFF87800844204D136F44070E968FC
:102CF00051EA00062660A9682000FFF79BFF29889B
:102D00002000FFF795FFDFF8380084420FD0DFF88E
:102D1000400084420BD0DFF83C00844207D0DFF84B
:102D20003800844203D0DFF83400844203D1297C88
:102D30002000FFF781FF2000FFF780FF012070BD1A
:102D4000002C01400004004000080040000C00403E
:102D5000003401400040014000440140004801406F
:102D600010B50400002C01D101205EE094F8410070
:102D7000002805D1002084F84000200004F038FA33
:102D8000242084F841002068006840084000216841
:102D90000860606830F070602168086120688068B1
:102DA00030F4004021688860E068012805D1A068FF
:102DB00050F400402168886004E0A06850F40440AA
:102DC00021688860E068022803D14FF40060216820
:102DD00048602068406840F0007050F4004021686E
:102DE00048602068C06830F400402168C8602069ED
:102DF00061690843A16950EA01202168C860E0695F
:102E0000216A0843216808602068006850F00100CA
:102E10002168086000206064202084F841000020C0
:102E20002063002084F84200002010BD2DE9F84303
:102E300004000D0016001F00DDF820805FF000097F
:102E400094F84100202840F0B68094F84000012812
:102E500001D10220B0E0012084F8400001F01DF80B
:102E60008146CDF80090192301224FF40041200043
:102E700000F0BBF8002801D003209DE0212084F859
:102E80004100102084F8420000206064666267857B
:102E900000206063608DFF280ED9FF2020854FF44D
:102EA000005000905FF08073228DD2B2290089B269
:102EB000200000F05AF90DE0608D20854FF400509D
:102EC00000905FF00073228DD2B2290089B22000F9
:102ED00000F04BF9608D00284AD04A464146200058
:102EE00000F0AFF8002806D0606C042801D1012062
:102EF00062E0032060E0606A411C61620078216842
:102F00008862608D401E6085208D401E2085208D4A
:102F10000028DFD1608D0028DCD0CDF8009043463A
:102F200000228021200000F060F8002801D003205A
:102F300042E0608DFF280DD9FF2020850020009001
:102F40005FF08073228DD2B2290089B2200000F098
:102F50000CF9BFE7608D2085002000905FF00073C2
:102F6000228DD2B2290089B2200000F0FEF8B1E72C
:102F70004A464146200000F090F8002806D0606CD8
:102F8000042801D1012017E0032015E0202021684A
:102F9000C86120684068DFF8241008402168486054
:102FA000202084F84100002084F84200002084F8AA
:102FB0004000002000E00220BDE8F28300E800FEAF
:102FC000406C7047000001688969890702D50021BB
:102FD0000268916201688969C90705D40168896935
:102FE00051F001010268916170472DE9F041040040
:102FF0000D0016001F00DDF8188020688069284049
:10300000A84201D1012000E00020F6B2B04215D163
:1030100017F1010FF1D0002F05D000F03EFFB0EB0B
:1030200008008742E9D2202084F84100002084F87B
:103030004200002084F84000032000E00020BDE8AA
:10304000F08170B504000D001600206880698007CB
:1030500021D432002900200000F048F8002801D0D7
:10306000012019E015F1010FEFD0002D04D000F080
:1030700014FF801B8542E8D2606C50F02000606431
:10308000202084F84100002084F84200002084F8C9
:103090004000032000E0002070BD70B504000D006A
:1030A00016002068806980061ED4320029002000A6
:1030B00000F01CF8002801D0012016E0002D04D0FB
:1030C00000F0EBFE801B8542EBD2606C50F02000DC
:1030D0006064202084F84100002084F84200002031
:1030E00084F84000032000E0002070BD70B50400AB
:1030F0000D00160020688069C00634D520688069FC
:10310000800614D415F1010FF8D0002D04D000F082
:10311000C4FE801B8542F1D2202084F841000020AB
:1031200084F84200002084F8400003201CE01020B6
:103130002168C86120202168C8612000FFF743FF93
:103140002068406813490840216848600420606492
:10315000202084F84100002084F84200002084F8F8
:103160004000012000E0002070BD70B4039C0025E9
:10317000066876683500084E354089B28E05B60D72
:10318000D2B256EA02461E432643354306687560AE
:1031900070BC704700E800FE009800FC103A07D3AE
:1031A00030B4B1E83810103AA0E83810F9D230BC89
:1031B000530724BFB1E80810A0E8081044BF51F835
:1031C000043B40F8043BD20724BF31F8022B20F81F
:1031D000022B44BF0B7803707047083A07D3B1E85D
:1031E0000810083A40F8043B40F804CBF7D25307E4
:1031F000E4E7000010B50400002C01D1012038E004
:10320000A0690028FFD194F87100002805D10020A2
:1032100084F87000200004F04CF8242084F8710039
:10322000206800684008400021680860200000F025
:103230009AF9012801D101201BE0606A002802D020
:10324000200000F0E5FB2068406830F490402168E1
:103250004860206880687FF02A0108402168886003
:103260002068006850F0010021680860200000F02C
:103270003CFC10BD10B4030093F87100202832D13B
:10328000002902D092B2002A01D101202CE093F84B
:103290007000012801D1022026E0012083F870008F
:1032A000D964A3F85020A3F85220002058660020CB
:1032B0005867212083F871009868B0F5805F05D1C8
:1032C0001869002802D14048586601E03F48586616
:1032D000002083F870001868006850F080001C68B7
:1032E0002060002000E0022010BC704710B40300F2
:1032F00093F87200202864D1002902D092B2002AEB
:1033000001D101205EE093F87000012801D1022074
:1033100058E0012083F870005965A3F85820A3F8FD
:103320005A20002018669868B0F5805F0BD11869A4
:10333000002804D140F2FF10A3F85C001FE0FF203A
:10334000A3F85C001BE0986800280AD118690028DF
:1033500003D1FF20A3F85C0011E07F20A3F85C00FC
:103360000DE09868B0F1805F09D11869002803D199
:103370007F20A3F85C0002E03F20A3F85C0000205F
:103380005867222083F872001868806850F00100A6
:103390001C68A0609868B0F5805F05D118690028A6
:1033A00002D10B48186601E00A481866002083F82D
:1033B00070001868006850F490701C68206000204D
:1033C00000E0022010BC70474D3C0008093C00089A
:1033D000273D0008BD3C00082DE9F04104002068AD
:1033E000C569206806682068876815F00F00804668
:1033F000B8F1000F0AD1A80608D5B00606D5206E90
:10340000002802D02000216E8847A8E0B8F1000F04
:1034100000F08080F80702D416F4907F7AD015F07F
:103420000100C0B2002808D0F00506D501202168AF
:103430000862606F50F001006067A8070BD517F0B5
:103440000100C0B2002806D0022021680862606F27
:1034500050F00400606768070BD517F00100C0B298
:10346000002806D0042021680862606F50F0020036
:10347000606728070DD5B00604D417F00100C0B26C
:10348000002806D0082021680862606F50F008000C
:103490006067606F00283CD0A80607D5B00605D548
:1034A000206E002802D02000216E8847606F000740
:1034B00003D420688068400626D5200000F084FBF5
:1034C0002068806840061BD5206880687FF0400136
:1034D000084021688860E06E00280DD00FF20D7062
:1034E000E16E8863E06E04F0ABF8002811D0E06E66
:1034F000E16E896B88470CE0200000F033F808E0AB
:10350000200000F02FF804E0200000F02BF800204D
:10351000606724E0E8020FD578020DD55FF48010D3
:1035200021680862202084F87100202084F872004D
:10353000200004F0B2F812E0280608D5300606D5BF
:10354000606E002802D02000616E884707E06806A0
:1035500005D5700603D5200000F09EFBFFE7BDE80F
:10356000F081704770472DE9F04704005FF00008D4
:103570001025002600275FF000095FF0000A206890
:10358000DFF864148842FFD0A068216908436169AC
:103590000843E1690843804620680068DFF84C145E
:1035A000084058EA0000216808602068406830F44C
:1035B0004050E168084321684860A069804620685F
:1035C000DFF82414884202D0206A50EA08082068F4
:1035D000806830F4306058EA000021688860206814
:1035E000DFF80C1488421BD1DFF80804006810F0E3
:1035F0000300002805D0022806D008D3032809D0EC
:103600000BE001200500B6E002200500B3E0042035
:103610000500B0E008200500ADE010200500AAE09C
:103620002068DFF8D41388421CD1DFF8C803006893
:1036300010F00C00002806D004280AD0082805D075
:103640000C2809D00BE00020050094E002200500C2
:1036500091E0042005008EE0082005008BE010209A
:10366000050088E02068DFF8941388421CD1DFF859
:103670008403006810F03000002806D010280AD01B
:10368000202805D0302809D00BE00020050072E08A
:10369000022005006FE0042005006CE00820050012
:1036A00069E01020050066E02068DFF854138842C6
:1036B0001CD1DFF84003006810F0C000002806D0DD
:1036C00040280AD0802805D0C02809D00BE000206F
:1036D000050050E0022005004DE0042005004AE00E
:1036E0000820050047E01020050044E02068C54997
:1036F00088421ED1BF48006810F44070002809D0ED
:10370000B0F5807F0CD0B0F5007F06D0B0F5407FDB
:1037100009D00BE0002005002DE0022005002AE082
:103720000420050027E00820050024E01020050003
:1037300021E02068AC4988421DD1AE48006810F4F1
:103740004060002809D0B0F5806F0CD0B0F5006F54
:1037500006D0B0F5406F09D00BE0002005000AE06C
:103760000220050007E00420050004E00820050011
:1037700001E01020050020689B4988427CD1EDB211
:103780002800002806D0022808D0042809D00828DC
:103790000BD00EE002F0D3F982460CE09A48824644
:1037A00009E002F045F9824605E04FF40040824608
:1037B00001E001208146BAF1000F00F00D81606840
:1037C00003214843824505D360684FF48051484344
:1037D000504502D201208146FEE0EDB228000028CB
:1037E00006D0022814D004281FD008282DD035E098
:1037F00002F0A5F902004FF48073606840080021D0
:10380000E3FB02016268002303F048FF070027E0A2
:103810006068420800237D48002110185941626801
:10382000002303F03BFF07001AE002F001F9020059
:103830004FF48073606840080021E3FB0201626876
:10384000002303F02BFF07000AE06068400810F532
:1038500000006168B0FBF1F0070001E00120814643
:10386000B7F5407F05D3B7F5801F02D22068C76047
:10387000B2E001208146AFE0E069B0F5004F5BD1D6
:10388000EDB22800002808D0012812D002281CD050
:10389000042826D0082830D039E002F050F96168B9
:1038A000490811EB40006168B0FBF1F080B20700FD
:1038B0002FE002F04FF96168490811EB40006168A0
:1038C000B0FBF1F080B2070023E06068400800F12F
:1038D000F47010F590406168B0FBF1F080B2070021
:1038E00017E002F0A5F86168490811EB4000616833
:1038F000B0FBF1F080B207000BE06068400810F503
:1039000080306168B0FBF1F080B2070001E0012077
:103910008146102F0DD3B7F5803F0AD24FF6F070D5
:1039200038400600C7F342000643B6B22068C660BE
:1039300052E0012081464FE0EDB22800002808D077
:10394000012811D002281AD0042824D008282DD00C
:1039500036E002F0F4F8616810EB51006168B0FBEA
:10396000F1F080B207002DE002F0F4F8616810EB8E
:1039700051006168B0FBF1F080B2070022E060689E
:10398000400800F5740010F510506168B0FBF1F0CC
:1039900080B2070016E002F04BF8616810EB5100AE
:1039A0006168B0FBF1F080B207000BE0606840088E
:1039B00010F500406168B0FBF1F080B2070001E053
:1039C00001208146102F05D3B7F5803F02D2206831
:1039D000C76001E00120814600202066002060666B
:1039E0004846C0B2BDE8F08700800040F369FFEFB1
:1039F0000038014088100240004400400048004068
:103A0000004C0040005000400024F400000024F46A
:103A100090F82410C90707D50168496831F40031CE
:103A2000826A11430268516090F82410890707D513
:103A30000168496831F48031C26A114302685160FB
:103A400090F82410490707D50168496831F48021AE
:103A5000026B11430268516090F82410090707D5E2
:103A60000168496831F40041426B114302685160BA
:103A700090F82410C90607D50168896831F480518F
:103A8000826B11430268916090F82410890607D573
:103A90000168896831F40051C26B1143026891607A
:103AA00090F82410490613D50168496831F4801153
:103AB000026C114302685160016CB1F5801F07D19F
:103AC0000168496831F4C001426C114302685160D9
:103AD00090F82410090607D50168496831F40021DF
:103AE000826C114302685160704738B504000025AC
:103AF0000020606700F0D1F9050020680068000729
:103B00000DD57FF07E4000902B0000225FF4001165
:103B1000200000F021F8002801D003201BE02068DD
:103B2000006840070DD57FF07E4000902B000022FA
:103B30005FF48001200000F00FF8002801D003207E
:103B400009E0202084F87100202084F87200002011
:103B500084F87000002032BD2DE9F04104000D0012
:103B600016001F00DDF818802068C0692840A842B0
:103B700001D1012000E00020F6B2B04221D118F1BD
:103B8000010FF1D0B8F1000F04D000F086F9C01B8E
:103B90008045E9D22068006830F4D0702168086060
:103BA000206880684008400021688860202084F8F0
:103BB0007100202084F87200002084F87000032037
:103BC00000E00020BDE8F0810168096831F49071DF
:103BD00002681160016889684908490002689160BB
:103BE000202180F8721000210166704738B504006A
:103BF000A56A0020A5F85A000020A5F85200280068
:103C0000FFF7B0FC31BD000090F8711021291CD1E4
:103C1000B0F8521000290DD1016809687FF08002C8
:103C20001140026811600168096851F040010268A2
:103C300011600AE0C16C4A1CC264097802681185EF
:103C4000B0F85210491EA0F85210704790F8712039
:103C5000212A20D1B0F85220002A0DD10268126822
:103C60007FF080031A4003681A600268126852F0FD
:103C7000400203681A600EE0C26C11000A88D20587
:103C8000D20D03681A85C26C921CC264B0F852202F
:103C9000521EA0F85220704710B50400206800683A
:103CA0007FF04001084021680860202084F87100FE
:103CB000002060662000FFF754FC10BD70B50400C2
:103CC000B4F85C5094F87200222825D12068808CCA
:103CD0000600606D411C616515EA06010170B4F8CB
:103CE0005A00401EA4F85A0080B200281AD1206859
:103CF000006830F49070216808602068806840088F
:103D0000400021688860202084F87200002020662E
:103D10002000FCF763FE05E02068008B50F00800EF
:103D20002168088370BDF8B50400B4F85C6094F8AD
:103D30007200222827D12068808C0700606D050062
:103D400016EA07002880606D801C6065B4F85A0090
:103D5000401EA4F85A0080B200281AD120680068DA
:103D600030F4907021680860206880684008400046
:103D700021688860202084F87200002020662000DE
:103D8000FCF72CFE05E02068008B50F0080021684D
:103D90000883F1BD80B52B482B49086000222B49D0
:103DA0002948006803F02AFE29492748006803F0E3
:103DB00031FE002002BD002070470300DBB2180076
:103DC000002810D001280FD002280ED003280DD0D3
:103DD00004280CD020280BD021280AD0222809D072
:103DE000232808D008E007E006E005E004E003E04F
:103DF00002E001E000E0FFE70020704738B5040072
:103E00000D000221200000F009F821000D4803F008
:103E100001FE0C4803F023FE002032BD70B5040003
:103E20000D0000262A0092B221000748006803F026
:103E3000E5FD0548006803F0F4FD06003000C0B25F
:103E400070BD0000141F0020F02A0020342900203B
:103E5000F428002080B5032003F044F9002000F08E
:103E600004F803F075F9002002BD10B504001448F1
:103E700000684FF47A71B0FBF1F003F053F90022BF
:103E800021005FF0FF3003F033F9002010BD0D4832
:103E90000068401C0B49086070470A48006870477A
:103EA00070B50400FFF7F9FF0500260016F1010FB9
:103EB00000D0761CFFF7F1FF401BB042FAD370BD73
:103EC000E4050020DC2A002080B500220A490B48C6
:103ED00003F0E4FD0A49094803F0FCFD09490748DD
:103EE00003F082FD054804F068FA002802D0034878
:103EF00003F0FDFD01BD000008070020141F002095
:103F0000F4050020F806002078B4002200230024E5
:103F10000D68D540002D00F0EE800D68012696401A
:103F200035402B00002B00F0E4804D68022D02D0BC
:103F30004D68122D16D1D50800EB85052D6A2C0091
:103F40000F2512F00706F6B2B600B540AC430D6976
:103F500012F00706F6B2B600B5402C43D50800EBC8
:103F600085052C6205682C0003251600F6B2760044
:103F7000B540AC430D7915F003051600F6B2760096
:103F8000B5402C4304604D68012D08D04D68022DCA
:103F900005D04D68112D02D04D68122D19D18568BC
:103FA0002C0003251600F6B27600B540AC43CD6870
:103FB0001600F6B27600B5402C43846045682C00AC
:103FC00001259540AC434D68C5F3001595402C4341
:103FD00044600D7915F00305032D0AD1C56A2C0044
:103FE00001259540AC434D68C5F3C00595402C4371
:103FF000C462C5682C0003251600F6B27600B540F1
:10400000AC438D681600F6B27600B5402C43C46010
:104010004D68ED006DD5404D2D6855F001053E4EC3
:1040200035603D4D2D6815F001050095009D3B4D17
:10403000960855F826502C000F2512F00306F6B20C
:10404000B600B540AC43B0F1904F01D100251EE061
:10405000334DA84201D1012519E0324DA84201D1CA
:10406000022514E0304DA84201D103250FE02F4D69
:10407000A84201D104250AE02D4DA84201D1052511
:1040800005E02C4DA84201D1062500E0072512F0DD
:104090000306F6B2B600B5402C43204D960845F80D
:1040A0002640254D2D682C009C434D68ED0300D51E
:1040B0001C43214D2C60214D2D682C009C434D68E4
:1040C000AD0300D51C431D4D2C601D4D2D682C00EB
:1040D0009C434D68ED0200D51C43194D2C60194DD1
:1040E0002D682C009C434D68AD0200D51C43154D36
:1040F0002C60521C0CE771BC7047D2B2002A02D06F
:1041000089B2816101E089B281627047426989B2F6
:104110004A404261704700006010024008000140C0
:104120000004004800080048000C00480010004847
:104130000014004800180048000401400404014035
:10414000080401400C040140C0B2102190FBF1F2C0
:1041500001FB12015FF0C0421170C0B2102190FB50
:10416000F1F110315FF0C04211707047F8B50400F2
:104170000D0016000027DFF8D409E4B2052101FB89
:1041800004F10844A038070056F0B0005FF0C041C9
:10419000087004205FF0C041087010205FF0C0413B
:1041A00008702800C0B2FFF7CFFF0020C0B205287A
:1041B00006DA3978DFF89C2D11707F1C401CF5E77A
:1041C000F1BDF8B504000D0016000027E4B27A2C0A
:1041D00001D15A200400DFF87809E4B2052101FB7F
:1041E00004F10844A038070056F0B0005FF0C04169
:1041F000087004205FF0C041087010205FF0C041DB
:1042000008702800C0B2FFF79FFFFF20DFF8441DB1
:1042100008700020C0B2052807DA3978C943DFF8F2
:10422000342D11707F1C401CF4E7F1BDF8B504007B
:104230000D00260004273078002809D02A00D2B2C9
:104240003900C9B23078FFF7BCFF761CBF1DF2E71A
:10425000F1BD2DE9F84304000D009146260000272A
:104260005FF004083078002819D038004946C0B201
:10427000C9B2884207D22A00D2B24146C9B23078C8
:10428000FFF79FFF06E02A00D2B24146C9B230785C
:10429000FFF76CFF761C7F1C18F10608E2E7BDE80B
:1042A000F183F8B504000D002600042730780028BB
:1042B00009D02A00D2B23900C9B23078FFF756FFD0
:1042C000761CBF1DF2E7F1BDAE205FF0C041087063
:1042D00020205FF0C041087002205FF0C0410870EC
:1042E000B0205FF0C0410870C8205FF0C041087086
:1042F00040205FF0C0410870FF205FF0C0410870AF
:1043000030205FF0C0410870A1205FF0C04108700C
:10431000A6205FF0C0410870A8205FF0C04108707F
:104320001F205FF0C0410870A4205FF0C0410870FA
:10433000D3205FF0C041087000205FF0C0410870DA
:10434000D5205FF0C041087010205FF0C0410870B8
:10435000D9205FF0C041087022205FF0C041087092
:10436000DA205FF0C041087012205FF0C041087091
:10437000DB205FF0C041087020205FF0C041087072
:104380008D205FF0C041087014205FF0C0410870BC
:10439000AF205FF0C041087070470021C9B21029FA
:1043A00080F20683DFF89C2CD279002A14D1DFF842
:1043B000A82BC9B20A44127CDFF88C3CC9B20B446A
:1043C00083F87020DFF8902BC9B2525CDFF8783C9C
:1043D000C9B20B4483F8F020DFF8682CD279012AA7
:1043E00014D1DFF8782BC9B20A44127CDFF8583CAC
:1043F000C9B20B4483F87020DFF8602BC9B2525C5D
:10440000DFF8443CC9B20B4483F8F020DFF8342CC9
:10441000D279022A14D1DFF8342CC9B20A44127CB2
:10442000DFF8243CC9B20B4483F87020DFF81C2C61
:10443000C9B2525CDFF8103CC9B20B4483F8F020DB
:10444000DFF8002CD279032A14D1DFF8042CC9B28A
:104450000A44127CDFF8F03BC9B20B4483F87020A9
:10446000DFF8EC2BC9B2525CDFF8DC3BC9B20B447D
:1044700083F8F020DFF8DC2BD278012A12D1DFF8A4
:10448000D82BC9B20A44127CDFF8BC3BC9B25A54DB
:10449000DFF8C42BC9B2525CDFF8AC3BC9B20B44A5
:1044A00083F88020DFF8AC2BD278022A12D1DFF813
:1044B000AC2BC9B20A44127CDFF88C3BC9B25A5407
:1044C000DFF8982BC9B2525CDFF87C3BC9B20B44D1
:1044D00083F88020DFF87C2BD278002A12D1DFF815
:1044E000802BC9B20A44127CDFF85C3BC9B25A5433
:1044F000DFF86C2BC9B2525CDFF84C3BC9B20B44FD
:1045000083F88020DFF83C2B5279002A14D1DFF8A1
:10451000502BC9B20A44127CDFF82C3BC9B20B44C1
:1045200083F83020DFF8382BC9B2525CDFF8183B33
:10453000C9B20B4483F8B020DFF8082B5279012A66
:1045400014D1DFF8202CC9B20A44127CDFF8F83A03
:10455000C9B20B4483F83020DFF8082CC9B2525C92
:10456000DFF8E43AC9B20B4483F8B020DFF8D42A6C
:10457000527A002A14D1DFF8E82AC9B20A44127C20
:10458000DFF8C43AC9B20B4483F85020DFF8D02AD0
:10459000C9B2525CDFF8B03AC9B20B4483F8D020FC
:1045A000DFF8A02A527A022A14D1DFF8BC2BC9B254
:1045B0000A44127CDFF8903AC9B20B4483F85020C9
:1045C000DFF8A42BC9B2525CDFF87C3AC9B20B44C5
:1045D00083F8D020DFF86C2A527A012A14D1DFF850
:1045E0008C2BC9B20A44127CDFF85C3AC9B20B4486
:1045F00083F85020DFF8742BC9B2525CDFF8483AD8
:10460000C9B20B4483F8D020DFF8382A527A032A43
:104610002FD1C0B2002814D1DFF8442AC9B20A440D
:10462000127CDFF8243AC9B20B4483F85020DFF83B
:10463000302AC9B2525CDFF8103AC9B20B4483F891
:10464000D020C0B2002814D0DFF8202BC9B20A4411
:10465000127CDFF8F439C9B20B4483F85020DFF83C
:104660000C2BC9B2525CDFF8E039C9B20B4483F8B5
:10467000D020DFF8D029127A002A14D1DFF8E029FF
:10468000C9B20A44127CDFF8C039C9B20B4483F8BE
:104690006020DFF8CC29C9B2525CDFF8AC39C9B26E
:1046A0000B4483F8E020DFF89C29127A012A14D108
:1046B000DFF8BC2AC9B20A44127CDFF88C39C9B2CF
:1046C0000B4483F86020DFF8A82AC9B2525CDFF8F7
:1046D0007839C9B20B4483F8E020DFF86829127AF0
:1046E000022A14D1DFF88C2AC9B20A44127CDFF8FE
:1046F0005839C9B20B4483F86020DFF8782AC9B270
:10470000525CDFF84439C9B20B4483F8E020DFF88B
:104710003429127A032A14D1DFF85C2AC9B20A4478
:10472000127CDFF82439C9B20B4483F86020DFF82B
:10473000482AC9B2525CDFF81039C9B20B4483F879
:10474000E020DFF80029127A042A14D1DFF82C2A9D
:10475000C9B20A44127CDFF8F038C9B20B4483F8BE
:104760006020DFF8182AC9B2525CDFF8DC38C9B221
:104770000B4483F8E020DFF8CC28127A052A14D104
:10478000DFF8FC29C9B20A44127CDFF8BC38C9B290
:104790000B4483F86020DFF8E829C9B2525CDFF8E7
:1047A000A838C9B20B4483F8E020DFF89828927942
:1047B000002A14D1DFF8CC29C9B20A44127CDFF8F0
:1047C0008838C9B20B4483F84020DFF8B829C9B251
:1047D000525CDFF87438C9B20B4483F8C020DFF8AC
:1047E00064289279012A14D1DFF89829C9B20A44C1
:1047F000127CDFF85438C9B20B4483F84020DFF84C
:104800008429C9B2525CDFF84038C9B20B4483F83E
:10481000C020DFF830289279022A14D1DFF8682905
:10482000C9B20A44127CDFF82038C9B20B4483F8BD
:104830004020DFF85429C9B2525CDFF80C38C9B205
:104840000B4483F8C020DFF8FC279279032A14D1A7
:10485000DFF83429C9B20A44127CDFF8EC37C9B258
:104860000B4483F84020DFF82029C9B2525CDFF8FE
:10487000D837C9B20B4483F8C020DFF8C827927933
:10488000042A14D1DFF80429C9B20A44127CDFF8E3
:10489000B837C9B20B4483F84020DFF8F028C9B21A
:1048A000525CDFF8A437C9B20B4483F8C020DFF8AC
:1048B0009427D278002A13D1DFF8D428C9B20A4449
:1048C000127CDFF88437C9B20B441A74DFF8C028B1
:1048D000C9B2525CDFF87037C9B20B4483F890203C
:1048E000DFF86027D278012A13D1DFF8A828C9B2EF
:1048F0000A44127CDFF85037C9B20B441A74DFF84F
:104900009428C9B2525CDFF84037C9B20B4483F82F
:104910009020DFF83027D278022A13D1DFF87828E8
:10492000C9B20A44127CDFF82037C9B20B441A74AA
:10493000DFF86428C9B2525CDFF80C37C9B20B4407
:1049400083F89020DFF8FC261279002A14D1DFF8D2
:104950004C28C9B20A44127CDFF8EC36C9B20B44C9
:1049600083F82020DFF83428C9B2525CDFF8D8364B
:10497000C9B20B4483F8A020DFF8C8261279012AB7
:1049800014D1DFF81C28C9B20A44127CDFF8B8360B
:10499000C9B20B4483F82020DFF80428C9B2525C66
:1049A000DFF8A436C9B20B4483F8A020491CF5E413
:1049B000B3215FF0C042117004215FF0C04211705A
:1049C00010215FF0C04211700021C9B2802908DABD
:1049D000DFF87426C9B2525CDFF878351A70491CCA
:1049E000F3E7B2215FF0C042117004215FF0C042D2
:1049F000117010215FF0C04211700021C9B28029EE
:104A00000ADADFF84426C9B20A4492F88020DFF8B7
:104A100044351A70491CF1E7704770B50400002056
:104A200000F07AFADFF87C57DFF87C67E4B2012CFB
:104A300040F08180DFF80C060079012876D1012151
:104A40003000FFF72EFC022000F066FA032000F091
:104A500063FA0020C0B210282FDADFF8E815497990
:104A6000012911D1DFF8FC16C0B20144097CDFF83E
:104A70003C27C0B21154DFF8EC16C0B2095CDFF875
:104A80002C27C0B202441174DFF8B8154979002907
:104A900011D1DFF8CC15C0B20144097CDFF80C2736
:104AA000C0B21154DFF8B815C0B2095CDFF8FC26BB
:104AB000C0B202441174401CCCE7B3205FF0C04187
:104AC000087004205FF0C041087010205FF0C04102
:104AD00008701420FFF738FB0020C0B2102808DA55
:104AE000DFF8C816C0B2095CDFF868241170401CFA
:104AF000F3E7B2205FF0C041087004205FF0C041CE
:104B0000087010205FF0C04108701420FFF71CFBF4
:104B10000020C0B2102817DADFF89016C0B20144A6
:104B2000097CDFF830241170401CF2E701212800D5
:104B3000FFF7B7FB08E0012000F0EEF9022000F0DB
:104B4000EBF9032000F0E8F970BD00000000002040
:104B5000A404002010B504000020C0B2152880F283
:104B60004D81DFF8F0140978002907D1DFF84016ED
:104B7000C0B2095CDFF83C26C0B21154DFF8D4148F
:104B80000978012907D1DFF83016C0B2095CDFF8D7
:104B90002426C0B21154DFF8BC140978022907D1C9
:104BA000DFF81816C0B2095CDFF80826C0B211544D
:104BB000C0B2112809DADFF80816C0B2095CDFF8C4
:104BC000F425C0B20244517625E0DFF88814497814
:104BD0000A290BD1DFF8EC15C0B2014411F8111C01
:104BE000DFF8D025C0B20244517614E0C0B21128DB
:104BF0000BD1DFF8D415DFF85C245278895CDFF83C
:104C0000B425C0B20244517605E02021DFF8A42586
:104C1000C0B202445176C0B211280ADADFF8AC15EE
:104C2000C0B2095CDFF88C25C0B2024482F83210B1
:104C300028E0DFF8201489780A290CD1DFF88415E0
:104C4000C0B2014411F8111CDFF86825C0B202445B
:104C500082F8321016E0C0B211280CD1DFF86815C6
:104C6000DFF8F0239278895CDFF84825C0B202446F
:104C700082F8321006E02021DFF83825C0B2024465
:104C800082F83210DFF8CC13C978002909D1DFF897
:104C90004015C0B2095CDFF81C25C0B2024482F89E
:104CA0004B10DFF8B013C978012909D1DFF82415BA
:104CB000C0B2095CDFF8FC24C0B2024482F84B1099
:104CC000DFF89013C978022909D1DFF80C15C0B2BA
:104CD000095CDFF8E024C0B2024482F84B10DFF830
:104CE00074130979002909D1DFF8F014C0B2095C06
:104CF000DFF8C024C0B2024482F86410D5490979B3
:104D0000012909D1DFF8D814C0B2095CDFF8A42466
:104D1000C0B2024482F86410CE494979002909D111
:104D2000DFF8C014C0B2095CDFF88824C0B20244C6
:104D300082F87D10C7494979012909D1DFF8A81403
:104D4000C0B2095CDFF86C24C0B2024482F87D1066
:104D5000C0498979002909D1DFF89014C0B2095CF3
:104D6000DFF85024C0B2024482F89610B94989791C
:104D7000012909D1DFF87814C0B2095CDFF83424C6
:104D8000C0B2024482F89610B249C979002909D10B
:104D9000DFF86014C0B2095CDFF81824C0B2024426
:104DA00082F8AF10AB49C979012909D1DFF848145D
:104DB000C0B2095CDFF8FC23C0B2024482F8AF1035
:104DC000A449097A002909D1DFF83014C0B2095C7E
:104DD000DFF8E023C0B2024482F8C8109D49097A86
:104DE000012909D1DFF81814C0B2095CDFF8C42327
:104DF000C0B2024482F8C810401CAEE6E4B2022CF5
:104E00000AD10021DFF8AC03DFF8F8231278192368
:104E10005A431044FFF70AFAE4B2012C0AD10021E8
:104E2000DFF89003DFF8DC23127819235A4310448B
:104E3000FFF737FAE4B2002C02D1002000F06CF842
:104E4000DFF8C0030078062821DA0121DFF86403C7
:104E5000DFF8B023127819235A4310441930FFF7B2
:104E600020FA0221D348DFF89C23127819235A43F1
:104E700010443230FFF715FA0321CE48DFF88423BF
:104E8000127819235A4310444B30FFF70AFADFF81F
:104E900074030078062817D10121C648D94A127830
:104EA00019235A4310441930FFF7FBF90221C14876
:104EB000D44A127819235A4310443230FFF7F1F9DB
:104EC0000321BC48FFF7EDF9CE480078072811D13F
:104ED0000121B848CB4A127819235A43104419309B
:104EE000FFF7DFF90221B348FFF7DBF90321C648DA
:104EF000FFF7D7F9C348007808280BD10121AD4846
:104F0000FFF7CFF90221C048FFF7CBF90321BF48D3
:104F1000FFF7C7F910BD000050F0B0015FF0C042CC
:104F2000117004215FF0C042117010215FF0C04287
:104F30001170002189B280290BDA0022054B1A700A
:104F40000022B2F5FA7F02D200BF521CF9E7491CD9
:104F5000F0E770470100006084020020A4020020F6
:104F6000B0205FF0C041087004205FF0C0410870BD
:104F700010205FF0C0410870002080B280280BDA5A
:104F80000021A34A11700021B1F5FA7F02D200BFBF
:104F9000491CF9E7401CF0E7B1205FF0C041087000
:104FA00004205FF0C041087010205FF0C04108701D
:104FB000002080B280280BDA0021954A1170002170
:104FC000B1F5FA7F02D200BF491CF9E7401CF0E7B7
:104FD000B2205FF0C041087004205FF0C04108704B
:104FE00010205FF0C0410870002080B280280BDAEA
:104FF0000021874A11700021B1F5FA7F02D200BF6B
:10500000491CF9E7401CF0E7B3205FF0C04108708D
:1050100004205FF0C041087010205FF0C0410870AC
:10502000002080B280280BDA0021794A117000211B
:10503000B1F5FA7F02D200BF491CF9E7401CF0E746
:1050400070470000A02A002058220020C40200203F
:10505000E4020020AC2A0020440200206402002068
:10506000002A0020B0205FF0C041087004205FF0EB
:10507000C041087010205FF0C0410870002080B26D
:1050800080280DDA634980B2095C614A1170002101
:10509000B1F5FA7F02D200BF491CF9E7401CEEE7E8
:1050A000B1205FF0C041087004205FF0C04108707B
:1050B00010205FF0C0410870002080B280280FDA15
:1050C000544980B2014491F88010514A1170002176
:1050D000B1F5FA7F02D200BF491CF9E7401CECE7AA
:1050E000B2205FF0C041087004205FF0C04108703A
:1050F00010205FF0C0410870002080B280280FDAD5
:10510000444980B2014491F80011414A11700021D4
:10511000B1F5FA7F02D200BF491CF9E7401CECE769
:10512000B3205FF0C041087004205FF0C0410870F8
:1051300010205FF0C0410870002080B280280FDA94
:10514000344980B2014491F88011314A1170002134
:10515000B1F5FA7F02D200BF491CF9E7401CECE729
:1051600070470000E4030020C4030020A4030020D3
:1051700084030020040300202403002044030020B3
:105180006403002044040020640400208404002000
:10519000E401002004020020240200200404002076
:1051A00024040020BCC00008CCC000085823002004
:1051B00078BE00085824002090BE0008A8BE000851
:1051C000C0BE000880C1000844C10008D8BE000865
:1051D00020BF0008F0BE000808BF000850BF00084C
:1051E00038BF000880BF000868BF0008B0BF0008D3
:1051F00098BF0008E0BF0008C8BF0008F8BF00085B
:1052000010C00008202B0020712400208A240020D8
:105210000100006064B90008002203F0D9B8000062
:1052200070B582B0040000252078C00640F1D1801E
:10523000DFF83C09006810F00C0F7AD1DFF82C0978
:105240000068800704D5A069002801D1012001E38E
:10525000DFF818090068000705D5DFF810090068B5
:1052600010F0F00005E0DFF8B4090068000910F064
:10527000F000216A884225D2206A00F07BFC0028D9
:1052800001D00120E6E2DFF8E408006850F00800F1
:10529000DFF8D8180860DFF8D40800687FF0F00164
:1052A0000840216A0843DFF8C4180860DFF8700975
:1052B000006830F47F40E16950EA0120DFF86019AE
:1052C000086024E0DFF8A408006850F00800DFF868
:1052D0009C180860DFF8940800687FF0F00108402F
:1052E000216A0843DFF884180860DFF83409006891
:1052F00030F47F40E16950EA0120DFF824190860AA
:10530000206A00F037FC002801D00120A2E200F062
:105310008FFBDFF81019DFF858281268C2F3031268
:10532000895CC840DFF8F01808600020FEF79DFD9A
:105330004FE0A069002835D0DFF83008006850F051
:105340000100DFF828180860FEF7A7FD0500DFF868
:105350001C080068800706D4FEF79FFD401B032849
:10536000F5D3032076E2DFF80408006850F0080067
:10537000DFF8F8170860DFF8F40700687FF0F00145
:105380000840216A0843DFF8E4170860DFF8900856
:10539000006830F47F40E16950EA0120DFF88018AE
:1053A000086016E0DFF8C407006840084000DFF836
:1053B000BC170860FEF771FD0500DFF8B007006854
:1053C000800706D5FEF769FD401B0328F5D30320AF
:1053D00040E22078C00771D5DFF89407006810F02C
:1053E0000C0008280DD0DFF88807006810F00C00CA
:1053F0000C2810D1DFF81C08006810F00300032807
:1054000009D1DFF868070068800357D56068002875
:1054100054D101201EE26068B0F5803F08D1DFF86A
:105420004C07006850F48030DFF84017086024E033
:105430006068B0F5A02F10D1DFF83007006850F495
:105440008020DFF828170860DFF82007006850F494
:105450008030DFF8181708600FE0DFF810070068E9
:1054600030F48030DFF804170860DFF800070068C8
:1054700030F48020DFF8F4160860606800280ED051
:10548000FEF70BFD0500DFF8E4060068800315D485
:10549000FEF703FD401B6528F5D30320DAE1FEF794
:1054A000FCFC0500DFF8C4060068800306D5FEF7A3
:1054B000F4FC401B6528F5D30320CBE1207880075E
:1054C00067D5DFF8AC06006810F00C0004280DD09A
:1054D000DFF89C06006810F00C000C281CD1DFF8E7
:1054E0003407006810F00300022815D1DFF87C06AD
:1054F0000068400504D5E068002801D10120A9E139
:10550000DFF81C07006830F0F850216950EA0160AC
:10551000DFF80C1708603CE0E068002822D0DFF8D4
:105520004C06006850F48070DFF840160860FEF703
:10553000B4FC0500DFF834060068400506D4FEF729
:10554000ACFC401B0328F5D3032083E1DFF8D00631
:10555000006830F0F850216950EA0160DFF8C016A9
:10556000086016E0DFF80406006830F48070DFF8A9
:10557000FC150860FEF791FC0500DFF8F0050068F7
:10558000400506D5FEF789FC401B0328F5D3032010
:1055900060E12078000730D56069002816D0DFF878
:1055A0007C06006850F00100DFF870160860FEF716
:1055B00074FC0500DFF86406006880071DD4FEF760
:1055C0006CFC401B0328F5D3032043E1DFF84C06B5
:1055D000006840084000DFF844160860FEF75DFCF4
:1055E0000500DFF838060068800706D5FEF755FC91
:1055F000401B0328F5D303202CE12078400740F11D
:1056000094800026DFF820060068C00010D4DFF880
:105610001806006850F08050DFF80C160860DFF8BC
:105620000806006810F080500090009801200600E5
:10563000DFF8F8050068C00516D4DFF8F00500684B
:1056400050F48070DFF8E4150860FEF726FC0500D2
:10565000DFF8D8050068C00506D4FEF71EFC401B25
:105660000328F5D30320F5E0A068012808D1DFF86E
:10567000C005006850F00100DFF8B415086024E0B0
:10568000A068052810D1DFF8A805006850F00400D4
:10569000DFF89C150860DFF89805006850F00100FD
:1056A000DFF88C15086010E0DFF88405006840081A
:1056B0004000DFF87C150860DFF8740500687FF0B3
:1056C00004010840DFF868150860A068002810D0C1
:1056D000FEF7E3FB0500DFF858050068800719D4E2
:1056E000FEF7DBFB401B41F289318842F3D30320F4
:1056F000B0E0FEF7D2FB0500DFF834050068800754
:1057000008D5FEF7CAFB401B41F289318842F3D32A
:1057100003209FE0F6B2012E07D1DFF80C050068E8
:1057200030F08050DFF800150860A06A002800F013
:105730009080DFF83C04006810F00C000C2800F0AA
:105740008680A06A022850D1DFF82004006830F07B
:105750008070DFF818140860FEF79FFB0500DFF883
:105760000C040068800106D5FEF797FB401B032858
:10577000F5D303206EE0206B401E616B090251EAF5
:105780000010A16B090950EA4140E16A0843E16B4E
:10579000891E0905490D49050843216C891E090622
:1057A00011F07E410843DFF86C140860DFF8BC0399
:1057B000006850F08070DFF8B4130860DFF854041C
:1057C000006850F08070DFF84C140860FEF765FB4D
:1057D0000500DFF89803006880013AD4FEF75DFB0E
:1057E000401B0328F5D3032034E0DFF88003006872
:1057F00030F08070DFF874130860DFF87003006821
:1058000000010CD4DFF864030068800007D4DFF8DF
:105810000404006880088000DFF8F8130860DFF8EF
:10582000F4030068DFF80C140840DFF8E8130860A0
:10583000FEF733FB0500DFF834030068800108D56C
:10584000FEF72BFB401B0328F5D3032002E00120C9
:1058500000E0002076BD70B504000D000026DFF8E2
:10586000D803006810F00700A84211D2DFF8C8037F
:105870000068C008C0002843DFF8BC130860DFF8E8
:10588000B803006810F00700A84201D00120CEE064
:105890002078C00779D56068032806D1DFF8CC02EC
:1058A000006880011CD40120C1E06068022806D194
:1058B000DFF8B8020068800312D40120B7E0606806
:1058C000002806D1DFF8A4020068800708D4012070
:1058D000ADE0DFF898020068400501D40120A6E0A1
:1058E000DFF88C0200688008800061680843DFF8F8
:1058F00080120860FEF7D1FA0600606803280FD115
:10590000DFF86C02006810F00C000C283DD0FEF7A8
:10591000C4FA801B41F289318842F1D3032086E02A
:10592000606802280FD1DFF84802006810F00C0010
:1059300008282AD0FEF7B1FA801B41F2893188424B
:10594000F1D3032073E0606800280ED1DFF8200255
:10595000006810F00C0F18D0FEF79FFA801B41F280
:1059600089318842F2D3032061E0DFF80402006845
:1059700010F00C00042808D0FEF78FFA801B41F2CB
:1059800089318842F1D3032051E0207880070AD57D
:10599000DFF8DC0100687FF0F0010840A1680843EF
:1059A000DFF8CC110860DFF89002006810F0070003
:1059B000854211D2DFF880020068C008C000284389
:1059C000DFF874120860DFF87002006810F007005A
:1059D000A84201D001202AE02078400709D5DFF84D
:1059E0009001006830F4E060E1680843DFF880115E
:1059F00008602078000709D5DFF87401006830F4EA
:105A00006050216950EAC1005949086000F010F85F
:105A1000DFF81012564A1268C2F30312895CC840BC
:105A2000DFF8F41108600020FEF71FFA002070BDB7
:105A3000F0B40021002200230224022500204C4E55
:105A4000366816F00C0F0CD0494E366816F00C066E
:105A50000C2E21D1DFF8BC61366816F00306012E4A
:105A60001AD1424E3668360706D4DFF8B061366880
:105A7000C6F30326310004E03C4E3668C6F3031635
:105A80003100DFF8B86156F82110394E366816F04B
:105A90000C0F12D1080010E0354E366816F00C06D7
:105AA000042E02D1664E300007E0314E366816F003
:105AB0000C06082E01D1634E30002D4E366816F0CC
:105AC0000C060C2E36D1534E366816F00306330002
:105AD000504E3668C6F30216761C35001E00022EA4
