:020000040800F2
:10000000500B0020C1C100089FA50008A1A5000851
:10001000A3A50008A5A50008A7A5000800000000EA
:10002000000000000000000000000000A9A500087A
:10003000ABA5000800000000ADA50008AFA50008B2
:100040001DC2000821C2000825C2000829C20008FC
:100050002DC2000831C2000835C2000839C20008AC
:100060003DC2000841C2000845C2000849C200085C
:100070004DC2000851C2000855C2000859C200080C
:100080005DC2000861C2000865C2000869C20008BC
:100090006DC2000871C2000875C2000879C200086C
:1000A0007DC2000881C2000885C2000889C200081C
:1000B0008DC2000891C2000895C2000899C20008CC
:1000C0009DC20008A1C20008A5C20008A9C200087C
:1000D000ADC20008B1C20008B7A50008B5C200084B
:1000E000B9C20008BDC20008C1C20008C5C20008EC
:1000F000C9C20008CDC20008D1C20008D5C200089C
:10010000D9C20008DDC20008E1C20008E5C200084B
:10011000E9C20008EDC20008F1C20008C9A5000844
:10012000F5C20008F9C20008FDC2000801C30008BA
:1001300005C3000809C300080DC3000811C3000867
:1001400015C3000819C300081DC300089DB60008A8
:1001500021C3000825C3000829C300082DC30008D7
:1001600031C3000835C3000839C300083DC3000887
:1001700041C3000845C3000849C30008000000004F
:100180004DC3000851C30008DFF84C0D0068C0F3F0
:1001900002207047012110F01F029140DFF83C2D32
:1001A00040B2400942F82010704740B2002809D5FB
:1001B0000901DFF8302940B210F00F00104400F8B8
:1001C000041C04E00901DFF8182D40B211547047F7
:1001D00010B410F00700D0F10703052B01D304235E
:1001E00001E0D0F10703041D072C01D2002000E03C
:1001F000C01E012414FA03F35B1E19408140012341
:1002000013FA00F0401E1040084310BC704781688C
:10021000DFF8D02C114051F00101816070478268F5
:10022000DFF8D03C1A4011F08041114351F00041F9
:10023000816070478068C00F70478168DFF8A42C28
:10024000114051F0040181607047016851F00101D3
:100250000160704701687FF0020211400160704741
:10026000C16851F00101C160704781B0DFF8881C9E
:1002700009680143DFF8802C1160DFF87C1C0968F5
:1002800008400090009801B07047000038B50400A5
:100290000D00DFF854080068B0F5802F22D2DFF897
:1002A000680C02F0B8FD002012E0C0B234F8101063
:1002B000DFF834281268520002F1C842203211805F
:1002C000DFF824180968491CDFF81C281160401C5D
:1002D00001002A00C9B2D2B29142E6D3DFF8280C5D
:1002E00002F082FD31BD70B504000D001600DFF88C
:1002F000180C02F090FD00200BE0C0B2710011EB71
:10030000400101F1C84120310988C0B224F8101021
:10031000401C01002A00C9B2D2B29142EDD3DFF8ED
:10032000E80B02F061FD70BD38B504000D00DFF888
:10033000D80B02F070FDEDB2680010F1C8400480E7
:10034000DFF8C40B02F050FD31BD38B504000025C4
:10035000DFF8B40B02F05FFDE4B2600010F1C840BA
:100360000588DFF8A40B02F03FFD280080B232BD03
:1003700010B50400DFF8900B02F04DFDDFF86807C0
:100380000068400000F1C84020300480DFF85807C2
:100390000068401CDFF850170860DFF84C07006861
:1003A000DFF8441B0860DFF8600B02F01DFD10BD94
:1003B00038B50400DFF8440BDFF8302B128820F842
:1003C0001240DFF8280B0088401CDFF8202B10803B
:1003D000DFF8180B00881E2803DB0020DFF80C2B49
:1003E0001080DFF80C0B00781E280DDADFF8000B08
:1003F0000078401CDFF8F82A1070DFF8100B007846
:10040000401CDFF8082B1070DFF8E40A00781E2883
:10041000C0F23A82DFF8F40A00781E2806DADFF824
:10042000EC0A0078401CDFF8E42A10700020DFF8A6
:10043000D02A108040F6FF70DFF8C82A1080002014
:1004400024E0DFF8BC2A1288DFF8B03AC0B233F8F3
:1004500010309A4207D2DFF8A42AC0B232F8102036
:10046000DFF89C3A1A80DFF8942AC0B232F81020E4
:10047000DFF8903A1B889A4207D2DFF8802AC0B290
:1004800032F81020DFF87C3A1A80401CC0B21D28D8
:10049000D7DB89B2DFF8680A0088DFF8682A12889B
:1004A000801A81422ADADFF8640A00781E2811DBFC
:1004B0000120DFF85C1A0870DFF8580A007801287C
:1004C00003D00120DFF8501A08700120DFF8441A29
:1004D00008701FE00120DFF8381A08700120DFF8EB
:1004E000341A08700020DFF8301A0870DFF81C0A90
:1004F0000078401EDFF8141A08700BE00020DFF8C7
:100500001C1A08700020DFF8081A08700020DFF8B5
:10051000041A0870DFF8F8090078012840F02F81EC
:100520000022DFF8FC19DFF8FC0902F090FD002240
:10053000DFF8F419DFF8EC0902F03DFEDFF8E0091E
:100540008078DFF8E8198870DFF8D4094078DFF8A0
:10055000DC194870DFF8C8090078DFF8D019087096
:10056000DFF8C4098078DFF8C8198870DFF8B809A7
:100570004078DFF8BC194870DFF8AC09C078DFF8C4
:10058000B019C8700120DFF8AC194871DFF888098C
:100590000078012840F0A68041F28930DFF89819F0
:1005A00008600020DFF894190870DFF83C05006847
:1005B000DFF88C1908600120DFF860190870DFF897
:1005C00084090078401CDFF87C1908700020DFF8EF
:1005D000781908804AF65520DFF86C194880DFF852
:1005E00064090078DFF860198880DFF86009007816
:1005F000DFF85419C880DFF858090078DFF8481987
:100600000881DFF84C094088DFF83C194881DFF8A1
:1006100040090079DFF830198881DFF83409C08893
:10062000DFF82419C881DFF828090089DFF81819D4
:100630000882DFF81C09807ADFF80C194882DFF89D
:10064000F0088078DFF800198882DFF8E408407845
:10065000DFF8F418C882DFF8D808C078DFF8E818A7
:100660000883DFF8C8080078DFF8DC184883DFF873
:10067000BC084078DFF8D0188883DFF8B0088078AD
:10068000DFF8C418C883DFF8C808C08980B2000A40
:10069000C0B2DFF8B41808841121DFF8AC08FFF706
:1006A000F5FD002517E0DFF8AC080088411CDFF8F5
:1006B000A4281180DFF8441880B231F81000FFF749
:1006C00057FEDFF8900800881E2803DB0020DFF8C3
:1006D000841808806D1CEDB21D2DE4DB0020DFF8CE
:1006E00038180870DFF830080078002836D1DFF8B5
:1006F0001C0800781E2831DA0120DFF82018087065
:10070000DFF808080078002820D0002517E0DFF87F
:1007100044080088411CDFF83C281180DFF8DC1712
:1007200080B231F81000FFF723FEDFF828080088B8
:100730001E2803DB0020DFF81C1808806D1C280031
:10074000DFF8C8170978C0B28842E0D3200080B231
:10075000FFF70EFE0020DFF8B4170870DFF8B807C7
:100760000078002840F08A80DFF8A00700781E2873
:1007700040F08480200080B2FFF7FAFD7EE0DFF8D1
:10078000D8070078012862D100241BE0DFF8C407F5
:100790000088411CDFF8BC271180DFF8601780B2A9
:1007A00031F81000FFF7E4FDDFF8A80700881E28E5
:1007B00003DB0020DFF89C1708800020DFF84C17CF
:1007C0000870641CE4B21D2CE0DB0621C6480068FA
:1007D000000C80B2FFF7A8FD0721C348006880B273
:1007E000FFF7A2FD0821DFF85C07007880B2FFF771
:1007F0009BFDDFF848070078002828D1DFF838078C
:100800000068002823D0DFF83C070078401EDFF89E
:10081000341708700020DFF8201708600821DFF87F
:100820002407007880B2FFF77FFDDFF81407006827
:10083000AD4908600621AC480068000C80B2FFF7A3
:1008400073FD0721A848006880B2FFF76DFDDFF84F
:100850000C070088401CDFF804170880DFF8000749
:100860000078DFF8F816098880B2884206D2DFF8EF
:10087000E4060088401CDFF8DC160880DFF89406E8
:100880000078DFF8D416087031BD00B585B020209F
:10089000FFF7EBFC684602F014FD63200290002095
:1008A0000390002001902F20ADF800006946DFF88A
:1008B000B40602F012FDDFF8AC06FFF7CBFCFFF741
:1008C00063FC00220021FFF783FC01003720FFF7C3
:1008D0006CFCDFF89006FFF7C3FC3720FFF75AFCEB
:1008E000DFF88006FFF7B1FC05B000BD0FB480B59E
:1008F0004FF47A700090169B9BB2DFF86C26159926
:1009000089B202A802F0CEFD01BC5DF814FB0FB461
:1009100080B54FF47A7000909DF858309BB2DFF8A4
:100920004C26159989B202A802F0BCFD01BC5DF805
:1009300014FB0000F0B59BB01020DFF830160870F3
:10094000CA20DFF8281648700024C8253BE0DFF8ED
:10095000201609780129FAD10021DFF81426117038
:10096000DFF81016098811AAC0B222F81010310061
:1009700011AAC0B232F8102089B2914203D211A953
:10098000C0B231F8106011A9C0B231F810103A00AD
:1009900092B2914203D211A9C0B231F81070C0B224
:1009A000002806D0ADB2B6B2BFB2F11B8D4200DA5C
:1009B0000124401CC0B20A28C9DBDFF8B00540782A
:1009C000332800DA0124E4B2012C22D0DFF89C05A0
:1009D0004078801EDFF894154870002640F6FF77B7
:1009E0000220109058200F90DFF88C1584B06846D4
:1009F0004C2202F00BFF0FBCFFF789FF002001E043
:100A000000BF401C80B242F210718842F8DB002027
:100A1000D0E7DFF858054078801CDFF850154870A3
:100A2000DFF848054078DFF8541508701BB0F0BDBA
:100A300080B5DFF84C15884253D10122DFF8441508
:100A4000DFF83C0502F087FFDFF838050078DFF8B3
:100A50003815DFF8382512788854DFF8300500782B
:100A6000401CDFF828150870DFF820050078C8283A
:100A700003DB0020DFF814150870DFF808050078A4
:100A8000242804D0DFF808050078012829D10120A6
:100A9000DFF8FC140870DFF8EC040078DFF8F414D9
:100AA000DFF8F42412788854DFF8EC040078401C56
:100AB000DFF8E4140870DFF8DC04DFF8DC140978F0
:100AC000084410F8010C2A280BD10020DFF8C014CC
:100AD00008700020DFF8C01408700120DFF8BC1493
:100AE000087001BD18ED00E0442B002000B591B066
:100AF000DFF8AC0400787F2804D1DFF8A404407844
:100B0000AA2805D0DFF89C040078012840F0E28193
:100B1000DFF89004007801283DD1DFF88C040068EC
:100B20002030DFF884140860DFF87C040068DFF808
:100B30007C140988884203D30020DFF86814087009
:100B4000DFF8640402682021DFF86404FFF7CBFBC0
:100B5000002017E0DFF85814C0B231F8101089B245
:100B6000090ADFF85024C0B202F81010DFF8401470
:100B7000C0B231F81010DFF83C24C0B202EB4002E2
:100B80005170401CC0B22028E4DB4021DFF824046F
:100B900003F021FC9EE1DFF80804C07801284CD165
:100BA0000720FFF7D2FBDFF8041408800020DFF8ED
:100BB000F813086000222021DFF8F403FFF793FB0D
:100BC0000020DFF8F01308700020DFF8E813487009
:100BD000DFF8D803008880B2000ADFF8D8138870E5
:100BE000DFF8C8030088DFF8CC13C870002018E0D5
:100BF000DFF8BC13C0B231F8101089B2090ADFF86F
:100C0000B423C0B202EB40021171DFF8A413C0B2EA
:100C100031F81010DFF89C23C0B202EB4002517192
:100C2000401CC0B21E28E3DB4021DFF8880303F03C
:100C3000D2FB0120DFF86C130870DFF86403C07882
:100C4000022810D1DFF858030079DFF854134979EE
:100C500051EA0020DFF8DC1208800A21DFF8D40214
:100C60000088FFF761FBDFF83803C078032803D161
:100C70000120DFF844130870DFF82403C07804284B
:100C800015D10120DFF834130870DFF81403007960
:100C9000002803D10020DFF8B4120872DFF8000347
:100CA0000079012803D10120DFF8A0120872DFF8D3
:100CB000F002C078062853D11020DFF8AC1208707B
:100CC000DFF8DC020079DFF8A012487002201090F3
:100CD0005E200F90DFF8A01284B068464C2202F02C
:100CE00095FD0FBCFFF702FE0120DFF8D41208705B
:100CF000DFF8CC0200780128FAD00020DFF8B41227
:100D000008700020DFF8AC124870AA20DFF8A412A7
:100D100088705E20DFF89C12C870002018E0DFF8B1
:100D2000A412C0B231F8101089B2090ADFF8842287
:100D3000C0B202EB40021171DFF88812C0B231F884
:100D40001010DFF87022C0B202EB40025171401C5B
:100D5000C0B21428E3DB4021DFF8580203F03BFB6C
:100D6000DFF83C02C07807281FD1DFF83402007991
:100D7000002805D1DFF828024079DFF84C1208700E
:100D800087480079012804D185484079DFF83C1272
:100D900008700921DFF830020078DFF8302212787D
:100DA00052EA002080B2FFF7BFFA7D48C0780828D9
:100DB00040F08D807A480079002837D10620FFF76F
:100DC000C4FA0720FFF7C1FA784908800020764965
:100DD000086000207E4908600020764908700020E5
:100DE000744948707148008880B2000A714988705F
:100DF0006E4800886F49C870F0206E490871FE2067
:100E00006C49487100206B49887100206949C8719C
:100E10006648008880B2000A664908726348008804
:100E2000644948724021634803F0D5FA5C48007970
:100E300001284CD166480068143065490860644850
:100E4000026814216348FFF74EFA61480068000EFB
:100E5000584908705E480068000C564948705C4864
:100E60000068000A53498870594800685149C870A1
:100E7000F12050490871FE204E49487154480068DD
:100E80001430534908605248026814215148FFF752
:100E90002AFA002014E04F49C0B231F8101089B28C
:100EA000090A444AC0B202EB400291714949C0B2FA
:100EB00031F810103F4AC0B202EB4002D171401C21
:100EC000C0B21428E7DB40213A4803F084FA00203E
:100ED0003349087011B000BD0CED00E000E100E006
:100EE00000E400E0C0FFFF7F482B0020742B0020AF
:100EF000B92B0020C0FFFF3F5810024044250020BE
:100F0000702B00203E07002064280020B72B002013
:100F1000B82B0020BB2B00208C2B0020C52B0020E1
:100F2000B02A0020402A0020382B0020C42A0020AC
:100F30003C2B0020042B0020302B00209B2B00207A
:100F4000202B0020BA2B0020F0290020102B00209D
:100F50009C2A0020722B0020BC2B0020762B002026
:100F60004407002000140040282B0020EC2A002019
:100F7000C92B00207C2B002018280020952B002056
:100F8000D4260020F82A00200C260020C42B0020A4
:100F9000BF2B0020B4270020BE2B0020C02B002038
:100FA000FC2800208E2B00201C2B0020782B0020FA
:100FB000500B00203C290020B12B0020B42B002036
:100FC0008F2B0020BC290020450700204607002069
:100FD000342B0020182A002010B592B003F014FA28
:100FE00001F014FB01F0A8FD01F0CEFC01F072FC51
:100FF00001F05CFB01F031FC01F0EDFB03F03EFA87
:101000000620FFF7A2F9DFF83C1E08600720FFF773
:101010009CF9DFF8301E0968090411FA80F0DFF846
:10102000241E0860DFF81C0E0068B0F5802F03D97D
:101030000020DFF8101E0860DFF8080E0068DFF8F7
:10104000081E08600820FFF780F9DFF8001E08700E
:101050000A20FFF77AF9DFF8F81D08800920FFF76A
:1010600074F980B2000ADFF8EC1D08700920FFF760
:101070006CF9DFF8E41D08700B20FFF766F9DFF864
:10108000DC1D08700B20FFF760F980B2000ADFF862
:10109000D01D0870DFF8B80D0088B0F57A7F03DB4B
:1010A0000120DFF8AC1D0880FFF7EFFB00224FF4B2
:1010B0000071DFF8B00D03F0F5FA01220121DFF82D
:1010C000A40D03F0EFFA00220421DFF89C0D03F0D9
:1010D000E9FA03F0C3FB04F091FA47F23050DFF86D
:1010E000441E08800320DFF8681DC8710020DFF867
:1010F000601D88700020DFF8581D48710020DFF85F
:10110000501D08720020DFF8481D88710120DFF8AB
:10111000401DC8700020DFF8381D08710020DFF87E
:10112000081E08700120DFF8001E48700A20DFF852
:10113000F81D88700020DFF8F01DC8700020DFF86F
:10114000E81D08710020DFF8E01D08720020DFF8BC
:10115000D81DC8710020DFF8D01D8871DFF8CC0DD4
:10116000FFF76BF81020DFF8C81D0870DFF8EC0CF3
:101170000078002804D0DFF8E40C0078FF2806D1BE
:10118000DFF8D00C0078DFF8A81D487005E0DFF824
:10119000C80C0078DFF8981D4870022010905E207F
:1011A0000F90DFF8901D84B068464C2202F02EFBB1
:1011B0000FBCFFF79BFB0C20FFF7C7F8DFF8681D9B
:1011C00048700C20FFF7C1F880B2000ADFF8581D04
:1011D0008870DFF8540D8078FF2803D10020DFF8F5
:1011E000481D8870DFF8400D40780A2871D0DFF87C
:1011F000380D40780B286CDA1020DFF83C1D0870A1
:10120000DFF8240D4078002803D11120DFF8281DD5
:101210004870DFF8140D4078012803D10D20DFF865
:10122000181D4870DFF8000D4078022803D10A200D
:10123000DFF8041D4870DFF8F00C4078032803D174
:101240000920DFF8F41C4870DFF8DC0C4078042833
:1012500003D10820DFF8E01C4870DFF8CC0C4078A0
:10126000052803D10720DFF8D01C4870DFF8B80C40
:101270004078062803D10620DFF8BC1C4870DFF850
:10128000A80C4078072803D10520DFF8AC1C487073
:10129000DFF8940C4078082803D10420DFF8981C6C
:1012A0004870DFF8840C4078092803D10320DFF868
:1012B000881C48700220109058200F90DFF8741C92
:1012C00084B068464C2202F0A1FA0FBCFFF71FFB66
:1012D00003E00020DFF8501C4870DFF8840B007832
:1012E000002803D10020DFF8401C4871DFF8700BA4
:1012F0000078012807D10120DFF82C1C487101205B
:10130000DFF8381C08700024B7E10020DFF8301C3B
:101310000870DFF8300C0078082813D1DFF8080CCB
:10132000007A002803D10220DFF8FC1B0872DFF8E6
:10133000F80B007A401EDFF8F01B08720120DFF87E
:10134000081C0870DFF8F80B007801284AD1DFF894
:10135000FC0B0078022845D00020DFF8E81A08606E
:101360000020DFF8E41A08600621DFF8D80A0068D8
:10137000000C80B2FEF7D8FF0721DFF8C80A00682A
:1013800080B2FEF7D1FF0020DFF8B41B0870002008
:10139000DFF8B81A08700821DFF8B00A007880B2C8
:1013A000FEF7C2FF0020DFF8801BC8710020DFF8C5
:1013B000A01A48710020DFF8981B88700020DFF821
:1013C000901B48700020DFF8881B08700020DFF8B1
:1013D000841B88700020DFF87C1B48700020DFF839
:1013E000741BC870DFF8600B0078012846D1DFF865
:1013F0005C0B0078022841D01020DFF8341B087005
:10140000DFF8240B007A002810D1DFF8480A0078B2
:10141000DFF81C1B48700020DFF8401A08700B2111
:10142000DFF8380A007880B2FEF77EFFDFF8F80AAE
:10143000007A012810D1DFF8200A0078DFF8F01ACE
:1014400048700120DFF8141A08700B21DFF80C0A2D
:10145000007880B2FEF768FF022010905E200F90A7
:10146000DFF8D01A84B068464C2202F0CFF90FBCE6
:10147000FFF73CFA0020DFF8D01A0870DFF8D80A2E
:101480000078012840F0F980DFF8C00A00780228CF
:1014900000F0F380DFF8900A407800280ED1112088
:1014A000DFF8941A48700020DFF8B01A08700C2199
:1014B000DFF8740A407880B2FEF736FFDFF8680A7A
:1014C000407801280ED10D20DFF86C1A48700020FA
:1014D000DFF8881A08700C21DFF84C0A407880B2D7
:1014E000FEF722FFDFF8400A407802280ED10A20DA
:1014F000DFF8441A48700020DFF8601A08700C21E9
:10150000DFF8240A407880B2FEF70EFFDFF8180AF1
:10151000407803280ED10920DFF81C1A48700020FB
:10152000DFF8381A08700C21DFF8FC09407880B227
:10153000FEF7FAFEDFF8F009407804280ED1082003
:10154000DFF8F41948700020DFF8101A08700C2139
:10155000DFF8D409407880B2FEF7E6FEDFF8C8096C
:10156000407805280ED10720DFF8CC1948700020FC
:10157000DFF8E81908700C21DFF8AC09407880B278
:10158000FEF7D2FEDFF8A009407806280ED106202B
:10159000DFF8A41948700020DFF8C01908700C218A
:1015A000DFF88409407880B2FEF7BEFEDFF87809E4
:1015B000407807280ED10520DFF87C1948700020FC
:1015C000DFF8981908700C21DFF85C09407880B2C8
:1015D000FEF7AAFEDFF85009407808280ED1042053
:1015E000DFF8541948700020DFF8701908700C21DA
:1015F000DFF83409407880B2FEF796FEDFF828095C
:10160000407809280ED10320DFF82C1948700020FB
:10161000DFF8481908700C21DFF80C09407880B217
:10162000FEF782FEDFF8000940780A280AD101207F
:10163000DFF8281908700C21DFF8EC08407880B238
:10164000FEF772FEDFF814090078002811D110208F
:10165000DFF8E41808700220109058200F90DFF88F
:10166000D41884B068464C2202F0D0F80FBCFFF7C3
:101670004EF90020DFF8E0180870641CB4F57A7F9A
:1016800002D30024FFF732FADFF8D40800780128EB
:1016900008D1DFF8B8080078032803D10020DFF86C
:1016A000AC180870DFF8BC080088002812D10022AE
:1016B000DFF8B418DFF8B40801F0C9FC0022DFF845
:1016C000B018DFF8A80801F076FD42F21070DFF8DC
:1016D00094180880DFF89C080078012840F0B68252
:1016E000DFF8940880792C2840F01682DFF888080B
:1016F000C0792C2800F01082DFF87C08807C41281B
:1017000040F00A820020DFF874180870DFF86808DB
:101710000078DFF86C180870DFF85C084078DFF8B4
:1017200060184870DFF850088078DFF85418887027
:10173000DFF84408C078DFF84818C870DFF83808C8
:101740000079DFF83C180871DFF82C084079DFF8E1
:1017500030184871DFF820088079DFF82418887184
:10176000DFF81408C079DFF81818C871DFF8080826
:10177000007ADFF80C180872DFF8FC07407ADFF80F
:1017800000184872DFF8F007807ADFF8F4178872E3
:10179000DFF8E407C07ADFF8E817C872DFF8D80787
:1017A000007BDFF8DC170873DFF8CC07407BDFF83D
:1017B000D0174873DFF8C007807BDFF8C417887341
:1017C000DFF8B407C07BDFF8B817C873DFF8A807E5
:1017D000007CDFF8AC170874DFF89C07407CDFF86A
:1017E000A0174874DFF89007807CDFF8941788749E
:1017F000DFF88407C07CDFF88817C874DFF8780743
:10180000007DDFF87C170875DFF86C07407DDFF896
:1018100070174875DFF86007807DDFF864178875FA
:10182000002015E0DFF85017C0B2095C2C290ED15A
:10183000DFF8BC1D0978491CDFF8B42D1170DFF802
:10184000B01D0978092902D1DFF8A81D0870401CD5
:10185000C0B23C28E6DB0020DFF8941D0870DFF8FA
:101860001807007D0A21DFF81027527D01FB0020B8
:101870001038DFF8841D0870DFF8FC06807D6421D5
:1018800010FB01F0DFF8F016C97D0A2211FB0200FF
:10189000DFF8E416497E401841F2D041401ADFF8E3
:1018A000581D4880DFF8D006807FDFF84C1D087196
:1018B000DFF8C40690F82000642110FB01F0DFF887
:1018C000B81691F821100A2211FB0200DFF8A816C1
:1018D00091F82210401841F2D041401ADFF8181D4B
:1018E000C880DFF8940690F82300642110FB01F013
:1018F000DFF8841691F824100A2211FB0200DFF8A9
:10190000781691F82610401841F2D041401ADFF8BD
:10191000E81C0881DFF8600690F82B00DFF8D81C7F
:101920008872DFF85406C0790A21DFF84C26127A53
:1019300001FB00201038DFF8C01CC872DFF8380641
:10194000407A0A21DFF83026927A01FB0020103815
:10195000DFF8A41C0873DFF82006C07A0A21DFF83C
:101960001826127B01FB00201038DFF88C1C48730E
:10197000DFF80406807B642110FB01F0DFF8F81526
:10198000C97B0A2211FB0200DFF8EC15097C401824
:1019900041F2D041401ADFF8601CC881DFF8D80559
:1019A00090F837002C282DD1DFF8CC0590F83800BE
:1019B0000A21DFF8C42592F8392001FB00201038F5
:1019C000DFF8341C0874DFF8B00590F83A000A21FB
:1019D000DFF8A42592F83B2001FB00201038DFF847
:1019E000181C4874DFF8900590F83C000A21DFF8D5
:1019F000882592F83D2001FB00201038DFF8F81B05
:101A000088743EE0DFF87005DFF8E81B09780844C9
:101A100040780A21DFF86025DFF8D83B1B781A44AC
:101A2000927801FB00201038DFF8CC1B0874DFF837
:101A30004805DFF8C01B09780844C0780A21DFF8A0
:101A40003825DFF8B03B1B781A44127901FB0020DF
:101A50001038DFF8A41B4874DFF81C05DFF8941B6E
:101A60000978084440790A21DFF80C25DFF8843B27
:101A70001B781A44927901FB00201038DFF8781B9C
:101A80008874DFF8740B007CDFF8701B8870DFF857
:101A9000680B407CDFF8641B4870DFF85C0B807CCF
:101AA000DFF8581BC8700022DFF8501BDFF8BC04B9
:101AB00001F0FCFADFF8400BC07ADFF8441B087035
:101AC000DFF8340B007BDFF8381B4870DFF8280B99
:101AD000407BDFF82C1B88700022DFF8241BDFF826
:101AE0008C0401F022FA0120D9494872DFF8140B66
:101AF0000078401CDFF80C1B0870DFF8080B00783A
:101B00000328C0F2A0800020DFF8F81A0870012036
:101B1000DFF8F41A087096E0DFF85C0480792C286E
:101B200040F08E80DFF85004C0792C2800F08880C7
:101B3000DFF84404807C562840F082800120DFF8E2
:101B40003C140870DFF830040078DFF834140870B3
:101B5000DFF824044078DFF828144870DFF8180410
:101B60008078DFF81C148870DFF80C04C078DFF888
:101B70001014C870DFF800040079DFF8041408714D
:101B8000DFF8F4034079DFF8F8134871DFF8E80371
:101B90008079DFF8EC138871DFF8DC03C079DFF8B7
:101BA000E013C871DFF8D003007ADFF8D4130872AD
:101BB000DFF8C403407ADFF8C8134872DFF8B803CF
:101BC000807ADFF8BC138872DFF8AC03C07ADFF8E4
:101BD000B013C872DFF8A003007BDFF8A41308730A
:101BE000DFF89403407BDFF898134873DFF888032D
:101BF000807BDFF88C138873DFF87C03C07BDFF811
:101C00008013C873DC48007CDFF874130874DA486A
:101C1000407CDB494874D848807CD9498874D648D0
:101C2000C07CD749C874D448007DD5490875D248CE
:101C3000407DD3494875D048807DD149887502E000
:101C40000220CE4908700020CA490870DFF8740CE1
:101C50000078002859D1B4484079012855D1BB48B3
:101C60000078022851D0DFF8600C0078002820D1DD
:101C700001224FF400717B4802F014FDDFF84C0C98
:101C80000078002808D144F62060DFF8441C088062
:101C90000120DFF8381C0870DFF8340C00880028B9
:101CA00007D10120DFF8201C08700020DFF81C1C81
:101CB0000870DFF8140C0078012826D100224FF4B8
:101CC0000071684802F0EEFC0120DFF8F81B087094
:101CD000C82002F0BFFB0422DFF8941CDFF81C0EC2
:101CE00001F000FE47F23050DFF8881C0860012246
:101CF000DFF8841CDFF8040E01F02DFE03205449A8
:101D000048720320DFF8741C0870DFF8B80B007805
:101D1000012840D18448407900283CD18B48007884
:101D2000022838D0DFF8A00B0078012820D101224A
:101D30004FF400714B4802F0B5FCDFF8900B0078CF
:101D4000002808D14FF4FA50DFF8841B08800120E6
:101D5000DFF8781B0870DFF8780B0088002807D1BF
:101D60000020DFF8641B08700020DFF8601B08709B
:101D7000DFF8540B007800280DD100224FF40071D9
:101D8000384802F08FFC0020DFF8381B0870002074
:101D9000DFF8EC1B0860DFF8DC0B0068002840F07F
:101DA000908061484079012840F08B80DFF8140B67
:101DB0000078012840F0858064480078022800F00F
:101DC0008080DFF8BC0B006800287AD1DFF8AC0B0C
:101DD000007803280ED1DFF8A40B0078401EDFF84E
:101DE0009C1B08700B22DFF89C1BDFF8100D01F024
:101DF00079FD61E0DFF8840B007802280ED1DFF86E
:101E00007C0B0078401EDFF8741B08700C22DFF892
:101E1000F01CDFF8E80C01F065FD4DE0DFF85C0B2D
:101E20000078012822D1DFF8540B0078401EDFF83B
:101E30004C1B08700D22DFF8CC1CDFF8C00C01F041
:101E400051FD39E0442B0020482B0020BA2B002004
:101E5000042B00204507002046070020912B00207E
:101E6000B62B00200004004800080048DFF80C0BE7
:101E70000078002820D1DFF890070078002806D1EC
:101E80001722DFF8841CDFF8740C01F02BFDDFF85B
:101E90007807007801280FD10D22DFF8701CDFF8D9
:101EA0005C0C01F01FFDDFF8680CDFF8D41A086045
:101EB0000020DFF85417087043F69820DFF8B41AB2
:101EC0000860DFF8500C0078012867D1DFF8480C73
:101ED0000078012862D10020DFF8381C087000204B
:101EE000DFF8341C0870DFF8340C0079002849D181
:101EF0001A480078012801D1FEF71CFD0120DFF807
:101F0000201C087047F23150DFF8181C08800120AF
:101F1000DFF8081C0871DFF8100CDFF8101C0860EF
:101F20003CE000BF42070020102B002000000450BE
:101F3000282B002018280020EC2A0020B22B00209B
:101F4000B12B0020962B0020B42B00204807002046
:101F5000C42A00203C2B0020B52B0020BD2B0020E4
:101F6000CB2B00203C070020B02A0020402A002074
:101F7000382B0020C02B0020B42700209A2B0020F3
:101F8000842A00200020DFF8A81B08700020DFF85A
:101F9000901B08700020DFF8841B0871DFF8740BB9
:101FA0000078012823D1DFF88C0B007800281ED19F
:101FB0000020DFF8601B0870DFF8500D0078032860
:101FC00003D10020DFF8441D0870DFF8400D0078D1
:101FD000012803D10320DFF8341D0870DFF82C0D31
:101FE0000078022803D10120DFF8201D0870DFF8F7
:101FF000280B007801281AD1DFF8140D007800288A
:1020000015D10020DFF8101B0870DFF8000D0078F4
:10201000012803D10220DFF8F41C0870DFF8EC0C73
:102020000078032803D10120DFF8E01C0870DFF8F6
:10203000E40C0078012810D1DFF8DC0C00780128CE
:102040000BD10020DFF8D41A48710020DFF8C41C3F
:1020500008700020DFF8C01C0870DFF8BC0C0078A6
:10206000012840F06C810020DFF8B01A4871002090
:10207000DFF8A41C0870DFF8A40C0078401CDFF81F
:102080009C1C0870DFF8940C0078022803DB002009
:10209000DFF8881C0870DFF8840C0078002808D16D
:1020A000DFF8680C0078002803D10320DFF85C1CFF
:1020B0000870DFF8680C0078012808D1DFF84C0CB4
:1020C0000078032803D10020DFF8401C0870DFF8F7
:1020D0003C0C007801280FD1DFF8440C0078401C3C
:1020E000DFF83C1C0870DFF8380C0078092803DBA7
:1020F0000020DFF82C1C0870DFF8100C0078022894
:1021000040F01D81DFF8180C007800280FD1DFF8AF
:10211000140C0078401CDFF80C1C0870DFF8040C6D
:102120000078032803DB0020DFF8F81B0870DFF8D5
:10213000F00B0078012813D1DFF8E80B4078401C41
:10214000DFF8E01B4870DFF8DC0B40780B2803DB7E
:102150000020DFF8D01B48700120DFF8CC1B08708E
:10216000DFF8BC0B007802280FD1DFF8B80B8078BD
:10217000401CDFF8B01B8870DFF8A80B80780B28B4
:1021800003DB0020DFF89C1B8870DFF8940B0078DD
:1021900003280FD1DFF88C0BC078401CDFF8841BBC
:1021A000C870DFF8800BC078032803DB0020DFF85D
:1021B000741BC870DFF8680B007804282AD1DFF898
:1021C000640B0079401CDFF85C1B0871DFF8540BCE
:1021D0000079022803DB0020DFF8481B0871DFF8D4
:1021E000440B0079002803D10020DFF83019087271
:1021F000DFF8300B007901280CD1DFF8300B0078C4
:10220000002803D10120DFF8141908720120DFF83B
:102210001C1B0870DFF8080B007805283ED1DFF89A
:10222000040B4079401CDFF8FC1A4871DFF8F40A0F
:102230004079022803DB0020DFF8E81A487100200B
:10224000DFF8E00A4079002810D10020DFF8CC1830
:1022500048720120DFF8D81A08700B20FEF775F8D5
:1022600000F0FF000B2180B2FEF75EF8DFF8B40A41
:102270004079012812D10120DFF8A018487201200E
:10228000DFF8B01A08700B20FEF75FF800F0FF00CF
:1022900050F480700B2180B2FEF746F8DFF8800A18
:1022A000007806280FD1DFF87C0A8079401CDFF81F
:1022B000741A8871DFF86C0A8079022803DB002029
:1022C000DFF8601A8871DFF8580A007807281DD1F6
:1022D000DFF8500AC079401CDFF8481AC871DFF8EF
:1022E000440AC079022803DB0020DFF8381AC871DD
:1022F000DFF8300AC079012804D10120DFF8381A4C
:10230000087003E00020DFF8301A0870DFF8100AC8
:102310000078082813D1DFF80C0A007A401CDFF897
:10232000041A0872DFF8FC09007A022803DB002097
:10233000DFF8F01908720120DFF8001A0870DFF8E2
:10234000D409007801287EF4FDAF0020DFF8CC1717
:1023500048710020DFF8BC190870DFF8C009007868
:10236000401CDFF8B8190870DFF8B00900780228BF
:1023700003DB0020DFF8A4190870DFF8A00900785B
:10238000002808D1DFF884090078002803D1032051
:10239000DFF878190870DFF884090078012808D17F
:1023A000DFF868090078032803D10020DFF85C1902
:1023B0000870DFF85809007801280FD1DFF86009AC
:1023C0000078002803D10920DFF854190870DFF8DD
:1023D00050090078401EDFF848190870DFF82C0912
:1023E000007802287EF4AEAFDFF8340900780028C8
:1023F0000FD1DFF830090078002803D10320DFF87F
:1024000024190870DFF81C090078401EDFF8141941
:102410000870DFF80C090078012813D1DFF80409EF
:102420004078002803D10B20DFF8F8184870DFF857
:10243000F4084078401EDFF8EC1848700120DFF8FF
:10244000E8180870DFF8D808007802280FD1DFF804
:10245000D4088078002803D10B20DFF8C8188870D2
:10246000DFF8C0088078401EDFF8B8188870DFF801
:10247000B008007803280FD1DFF8A808C07800283A
:1024800003D10320DFF89C18C870DFF89808C078E3
:10249000401EDFF89018C870DFF884080078042820
:1024A0002AD1DFF880080079002803D10220DFF864
:1024B00074180871DFF86C080079401EDFF86418A2
:1024C0000871DFF860080079002803D10020DFF8E8
:1024D0004C160872DFF84C08007901280CD1DFF89F
:1024E0004C080078002803D10120DFF8301608726C
:1024F0000120DFF838180870DFF824080078052874
:102500003ED1DFF820084079002803D10220DFF80F
:1025100014184871DFF80C084079401EDFF80418E1
:1025200048710020DFF8FC074079002810D1002016
:10253000DFF8E81548720120DFF8F41708700B2067
:10254000FDF703FF00F0FF000B2180B2FDF7ECFE6A
:10255000DFF8D0074079012812D10120DFF8BC153F
:1025600048720B20FDF7F1FE00F0FF0050F4807080
:102570000B2180B2FDF7D8FE0120DFF8B8170870F4
:10258000DFF89C07007806280FD1DFF898078079DC
:10259000002803D10220DFF88C178871DFF8840748
:1025A0008079401EDFF87C178871DFF874070078A7
:1025B00007287EF4AEAEDFF86C07C079002803D19F
:1025C0000220DFF86017C871DFF85807C079401E95
:1025D000DFF85017C871DFF84C07C07901287EF486
:1025E00094AE0120DFF850170870FEF792BE00008D
:1025F000982B0020992B00209C2A0020402B0020A3
:10260000D82A0020942B0020932B002000B5B9B0CD
:1026100027A8442103F0CCF86846142103F0C8F839
:1026200005A8882103F0C4F81020279001202D90E0
:10263000B0202F90002031900020329027A803F086
:10264000BBF8002801D000F09FFB0F200090002075
:1026500001900020029000200390002004900221AD
:10266000684603F0C6FB002801D000F08DFB46F25F
:1026700042000590042014904FF4805019905FF0B0
:10268000405023905FF04060209005A803F094FD37
:10269000002801D000F078FB4FF4007004F04CF9F2
:1026A000002801D000F070FB39B000BD00B589B042
:1026B00006A80021002200230EC00C386846DFF86F
:1026C000801691EC060B80EC060BDFF87806DFF83D
:1026D000781608605FF40020DFF86C164860002070
:1026E000DFF8641688600020DFF85C16C8600120FF
:1026F000DFF8541608610420DFF84C16486100200A
:10270000DFF8441688610020DFF83C16C86102201B
:10271000DFF8341608620020DFF82C16486201202A
:10272000DFF82416C8620020DFF81C1608630020BA
:10273000DFF8141648630020DFF80C1688630020C9
:10274000DFF80416C863DFF8000604F055F9002826
:1027500001D000F019FB0020069006A9DFF8E8057B
:1027600004F032FD002801D000F00EFB01200090A3
:102770000120019005200290002003900020049089
:10278000002005906946DFF8C00504F0AFFA002884
:1027900001D000F0F9FA0220009002200190694671
:1027A000DFF8A40504F0A2FA002801D000F0ECFA4A
:1027B0007F21DFF89005FDF732FD00E000BFDFF874
:1027C0008405FDF737FD0028F8D1DFF87805FDF71F
:1027D0001EFD09B000BD80B5DFF87005DFF870158B
:1027E0000860DFF87005DFF8681548600020DFF842
:1027F000601588600120DFF85815C8600020DFF8F8
:10280000501508610020DFF8481548610020DFF806
:10281000401588610020DFF83815C8610020DFF816
:1028200030150862DFF8280500F0D6FD002801D039
:1028300000F0AAFA0021DFF8180504F05FFD002877
:1028400001D000F0A1FA0021DFF8040504F087FDB3
:10285000002801D000F098FA01BD00B58BB06846A1
:10286000282102F0A5FFDFF8F004DFF8F01408607B
:102870000020DFF8E81448607F20DFF8E01488606B
:10288000FF20DFF8D814C8600020DFF8D0140861FA
:102890000020DFF8C81448610020DFF8C014886108
:1028A0000020DFF8B814C861DFF8B00400F0CEFAF9
:1028B000002801D000F068FADFF8A00404F07EFDE3
:1028C0000BB000BDC12B0020C22B0020C32B002069
:1028D000642B002080B5DFF88804006850F40030D5
:1028E000DFF87C140860DFF87804006810F400302A
:1028F00000900098DFF86C04804908604FF416508F
:102900007E49486000207D49886000207B49C8607E
:1029100000207A4908610C207849486100207749F5
:1029200088614FF400407549C8614FF400607349F5
:1029300008620820714948624FF400406F494863BB
:102940006E4800F08FFF002801D000F01DFA002231
:102950000021262004F0BEFD262004F0CCFD6748AF
:102960000068006850F0010064490968086001BD12
:1029700000C200082C2B0020F82A00204707002066
:10298000242B0020D0C1000800B587B05FF02040A4
:10299000DFF8D4130860DFF8D403DFF8CC13486005
:1029A0000020DFF8C41388600020DFF8BC13C86083
:1029B0000020DFF8B41308610020DFF8AC13486191
:1029C0000020DFF8A41388610020DFF89C13C861A1
:1029D0000020DFF8941308624FF48050DFF888136A
:1029E00048620020DFF8801388620020DFF8781347
:1029F000C8620020DFF8701308630020DFF8681356
:102A000048630020DFF8601388630020DFF8581364
:102A100008640F2000900F200190FF2002900F20EB
:102A200003901020049011200590002006900022B1
:102A30006946DFF8340300F0A9F9002801D000F05E
:102A4000A3F95FF02040DFF828130860DFF81C03CB
:102A5000DFF81C1348600220DFF8141388600020A0
:102A6000DFF80C13C8600020DFF8041308611020A1
:102A7000DFF8FC1248610020DFF8F41288610020C2
:102A8000DFF8EC12C8610020DFF8E41208624FF4AE
:102A90008050DFF8DC1248620020DFF8D412886230
:102AA0000020DFF8CC12C8620020DFF8C4120863EF
:102AB0000020DFF8BC1248630020DFF8B4128863FE
:102AC0000020DFF8AC1208640F2000900F20019066
:102AD000C82002900F200390102004901120059030
:102AE0000020069000226946DFF8840200F04EF9CB
:102AF000002801D000F048F907B000BDD42600201E
:102B000030C1000840C10008DCBE000850C1000808
:102B1000804F1200A62B0020AA2B0020042B00209F
:102B2000972B0020662B0020109802005C2B0020C1
:102B3000922B0020AC2B002000B587B001A81421F7
:102B400002F036FE8B48006850F0040089490860A6
:102B50008848006810F004000090009885480068DC
:102B600050F02000834908608248006810F020007F
:102B7000009000987F48006850F080007D49086010
:102B80007C48006810F08000009000987948006848
:102B900050F00100774908607648006810F00100A5
:102BA000009000987348006850F002007149086076
:102BB0007048006810F00200009000986D480068AE
:102BC00050F040006B4908606A48006810F040000F
:102BD000009000986748006850F010006549086050
:102BE0006448006810F01000009000986148006888
:102BF00050F008005F4908605E48006810F0080067
:102C00000090009803F0E5FE00221C215A4801F0D4
:102C100049FD002230215FF0904001F043FD002289
:102C200042F20321554801F03DFD1C200190012096
:102C30000290002003900020049001A94E4801F06A
:102C40003DFC4FF4FE5001900020029002200390C2
:102C50000020049001A9484801F030FC4FF47C604A
:102C6000019000200290022003900020049001A90E
:102C7000434801F023FC4FF6C05001900020029021
:102C8000022003900020049001A93E4801F016FCA8
:102C90003020019001200290002003900020049039
:102CA00001A95FF0904001F009FC20200190002074
:102CB00002900020039001A92F4801F0FFFB42F28F
:102CC0000120019001200290002003900020049038
:102CD00001A92A4801F0F2FB022001900020029095
:102CE000002003900020049001A9244801F0E6FB95
:102CF0004FF4E0500190002002900120039001A9C0
:102D00001E4801F0DBFB07B000BD000048070020B3
:102D1000A82B0020A72B0020AB2B0020CB2B0020C2
:102D2000962B0020102B0020B52B0020B32B002069
:102D30008D2B0020B22B0020B12B0020B42B0020C3
:102D4000F4BE0008000004504C270020005400404E
:102D500018280020D38D801000280040402A002031
:102D6000581002400044004064280020040100A0E4
:102D7000B02800204C100240000800480004004821
:102D800000140048001800487047000070B50400A7
:102D90000D001600002C01D1012024E094F845001C
:102DA000002805D1002084F84400200004F00EFD26
:102DB00014F10801206804F02BFDA26829002068A6
:102DC00004F087FDE36AA2683100606804F0D6FD74
:102DD0002068A16850F8210050F001002168A26825
:102DE00041F82200002070BD10B5040094F84400A2
:102DF000012801D102200DE0012084F84400A168DF
:102E0000206804F0E8FD012084F84500002084F8E3
:102E10004400002010BD10B5040094F844000128BF
:102E200001D1022010E0012084F84400022084F83F
:102E30004500A168206804F0D6FD042084F8450010
:102E4000002084F84400002010BD000010B50400EC
:102E5000002C01D1012067E094F82100002805D161
:102E6000002084F82000200004F0E0FB022084F819
:102E70002100CA202168486253202168486220004E
:102E800000F0DFF9002807D0FF2021684862042005
:102E900084F82100012047E020688068DFF8601393
:102EA0000840216888602068806861682269114351
:102EB000A2691143084321688860E06821680861BD
:102EC00020680069A16850EA014021680861206813
:102ED000C0687FF0800108402168C8602068806871
:102EE00080060CD4200000F091F9002807D0FF20C4
:102EF00021684862042084F82100012014E0206841
:102F0000C06C800880002168C8642068C06CE169DA
:102F10006269114308432168C864FF202168486240
:102F2000012084F82100002010BDF8B504000D0038
:102F3000002694F82000012801D1022086E001201B
:102F400084F82000022084F82100002A1BD1206888
:102F50008068400601D40020E870287800F08DF9E0
:102F60000600687800F089F90700A87800F085F974
:102F7000F6B2FFB2390251EA0641C0B20843E9781D
:102F800050EA014614E020688068400604D528789D
:102F900000F07EF9060001E00020E87028786978EA
:102FA000090251EA0040A9780843E97850EA01464D
:102FB000CA2021684862532021684862200000F03E
:102FC00040F900280AD0FF2021684862042084F8D4
:102FD0002100002084F82000012037E0DFF82402DF
:102FE0003040216808602068806830F480202168C3
:102FF000886020688068E9682A691143084321686D
:1030000088602068C0687FF0800108402168C8603F
:103010002068806880060FD4200000F0F7F80028B0
:103020000AD0FF2021684862042084F82100002093
:1030300084F82000012009E0FF2021684862012077
:1030400084F82100002084F820000020F2BD10B593
:103050000C0000210168896A6160016809694904FE
:10306000490CA16000680068DFF898110140080C65
:1030700010F03F002070080A10F07F00607011F01F
:103080007F00A070080C10F04000E070002A0BD107
:10309000207800F0FDF82070607800F0F9F860709A
:1030A000A07800F0F5F8A070002010BDF8B504007D
:1030B0000D00002694F82000012801D1022079E0BB
:1030C000012084F82000022084F82100002A07D182
:1030D0006878C00604D5687810F0EF000A30687090
:1030E000002A15D1E87800F0C8F80600687800F0EA
:1030F000C4F80700A87800F0C0F8F6B2FFB23902B1
:1031000051EA0641C0B20843297850EA413611E03D
:10311000687800F0BDF80600A87800F0B9F806005D
:10312000E8786978090251EA0040A97808432978CB
:1031300050EA4136CA20216848625320216848621B
:10314000200000F07EF800280AD0FF2021684862A5
:10315000042084F82100002084F82000012029E0C8
:10316000DFF8A4003040216848602068C0687FF024
:10317000800108402168C8602068806880060FD4FC
:10318000200000F043F800280AD0FF2021684862A0
:10319000042084F82100002084F82000012009E0A8
:1031A000FF2021684862012084F82100002084F873
:1031B00020000020F2BD10B50C000021006840681E
:1031C000DFF844100140080CE070080A10F01F00FE
:1031D000607011F03F00A070480B10F007002070E5
:1031E000002A0BD1E07800F053F8E070607800F02E
:1031F0004FF86070A07800F04BF8A070002010BD70
:10320000BFFF8FFF7F7F7F003FFFFF0038B50400C7
:1032100000252068C0687FF0A00108402168C860D0
:1032200001F015F905002068C068800607D401F098
:103230000EF9401BB0F57A7FF5D9032000E000209D
:1032400032BD38B5040000252068C068400612D49D
:103250005FF0FF302168C86001F0F9F805002068D0
:10326000C068400607D401F0F2F8401BB0F57A7F41
:10327000F5D9032000E0002032BD002101E0491C07
:103280000A38C0B20A28FADA50EA0110C0B2704710
:1032900000210100C9B20909C9B20A225143C0B2D2
:1032A00010F00F004018C0B27047000081627047F4
:1032B000C162704701637047416951F0010141618A
:1032C000704700210180002141605FF0FF31816083
:1032D0000021C16000210174704738B504000D0061
:1032E00000202068DFF8D0108C4212D0B4F1804F5B
:1032F0000FD0DFF8C8108C420BD0DFF8C4108C421E
:1033000007D0DFF8C0108C4203D0DFF8BC108C422D
:1033100004D17FF07001084069680843DFF8981015
:103320008C421ED0B4F1804F1BD0DFF890108C423D
:1033300017D0DFF88C108C4213D0DFF888108C4245
:103340000FD0DFF884108C420BD0DFF880108C4255
:1033500007D0DFF87C108C4203D0DFF878108C4265
:1033600003D130F44070E96808432060A968200068
:10337000FFF79EFF29882000FFF798FFDFF838004D
:1033800084420FD0DFF8400084420BD0DFF83C00CD
:10339000844207D0DFF83800844203D0DFF83400DD
:1033A000844203D1297C2000FFF784FF2000FFF72F
:1033B00083FF012032BD0000002C014000040040CA
:1033C00000080040000C0040003401400040014073
:1033D000004401400048014010B50400002C01D118
:1033E00001205EE094F84100002805D1002084F817
:1033F0004000200004F0E7F8242084F84100206811
:1034000000684008400021680860606830F0706023
:10341000216808612068806830F400402168886075
:10342000E068012805D1A06850F400402168886058
:1034300004E0A06850F4044021688860E068022835
:1034400003D14FF40060216848602068406840F074
:10345000007050F40040216848602068C06830F473
:1034600000402168C860206961690843A16950EA89
:1034700001202168C860E069216A0843216808606A
:103480002068006850F00100216808600020606436
:10349000202084F8410000202063002084F84200AE
:1034A000002010BD2DE9F04182B004000D0016008F
:1034B0001F005FF0000894F84100202840F0B7801A
:1034C00094F84000012801D10220B1E0012084F8E5
:1034D000400000F0BCFF8046CDF800801923012297
:1034E0004FF40041200000F0B9F8002801D003207B
:1034F0009EE0212084F84100102084F84200002042
:1035000060646662678500206063608DFF280FD964
:10351000FF2020854FF4005000905FF08073228DD3
:10352000D2B2290089B2200000F058F9089E1BE0B1
:10353000608D20854FF4005000905FF00073228D65
:10354000D2B2290089B2200000F048F9EEE7FF204E
:103550002085002000905FF08073228DD2B2290078
:1035600089B2200000F03AF9608D00283CD0424634
:103570003100200000F09EF8002806D0606C04287E
:1035800001D1012054E0032052E0606A411C6162D5
:10359000007821688862608D401E6085208D401E05
:1035A0002085208D0028DFD1608D0028DCD0CDF86B
:1035B0000080330000228021200000F04FF8002816
:1035C00001D0032034E0608DFF28C0D8608D2085B5
:1035D000002000905FF00073228DD2B2290089B2E2
:1035E000200000F0FBF8BFE742463100200000F069
:1035F0008DF8002806D0606C042801D1012017E066
:10360000032015E020202168C86120684068DFF8A9
:103610002410084021684860202084F841000020E0
:1036200084F84200002084F84000002000E00220DE
:10363000BDE8F68100E800FE01688969890702D5C6
:1036400000210268916201688969C90705D401688F
:10365000896951F001010068816170472DE9F041ED
:1036600004000D0016001F00DDF818802068806936
:103670002840A84201D1012000E00020F6B2B0426B
:1036800015D117F1010FF1D0002F05D000F0DFFEAA
:10369000B0EB08008742E9D2202084F841000020E6
:1036A00084F84200002084F84000032000E000205D
:1036B000BDE8F08170B504000D0016002068806937
:1036C000800721D432002900200000F048F80028AB
:1036D00001D0012019E015F1010FEFD0002D04D029
:1036E00000F0B5FE801B8542E8D2606C50F02000EF
:1036F0006064202084F84100002084F8420000200B
:1037000084F84000032000E0002070BD70B5040084
:103710000D0016002068806980061ED43200290042
:10372000200000F01CF8002801D0012016E0002D38
:1037300004D000F08CFE801B8542EBD2606C50F010
:1037400020006064202084F84100002084F84200BA
:10375000002084F84000032000E0002070BD70B518
:1037600004000D00160020688069C00634D520686A
:103770008069800614D415F1010FF8D0002D04D013
:1037800000F065FE801B8542F1D2202084F84100C4
:10379000002084F84200002084F8400003201CE050
:1037A00010202168C86120202168C8612000FFF72F
:1037B00043FF20684068134908402168486004209E
:1037C0006064202084F84100002084F8420000203A
:1037D00084F84000012000E0002070BD30B40024D7
:1037E00004686468084D2C4089B28905890DD2B2FD
:1037F00051EA02411943029A11430C4300684460A4
:1038000030BC704700E800FE009800FC103A07D377
:1038100030B4B1E83810103AA0E83810F9D230BC12
:10382000530724BFB1E80810A0E8081044BF51F8BE
:10383000043B40F8043BD20724BF31F8022B20F8A8
:10384000022B44BF0B7803707047083A07D3B1E8E6
:103850000810083A40F8043B40F804CBF7D253076D
:10386000E4E7000010B50400002C01D1012038E08D
:10387000A0690028FFD194F87100002805D100202C
:1038800084F87000200003F003FF242084F8710006
:10389000206800684008400021680860200000F0AF
:1038A0008DF9012801D101201BE0606A002802D0B7
:1038B000200000F09BFB2068406830F490402168B5
:1038C0004860206880687FF02A010840216888608D
:1038D0002068006850F0010021680860200000F0B6
:1038E000F2FB10BD90F87130202B32D1002902D0AC
:1038F00092B2002A01D101202CE090F87030012B07
:1039000001D1022026E0012380F87030C164A0F8C4
:103910005020A0F85220002141660021416721215A
:1039200080F871108168B1F5805F05D101690029C7
:1039300002D13F49416601E03E494166002180F8DD
:1039400070100168096851F0800100680160002072
:1039500000E00220704790F87230202B66D10029D9
:1039600002D092B2002A01D1012060E090F87030BC
:10397000012B01D102205AE0012380F8703041650B
:10398000A0F85820A0F85A20002101668168B1F5FE
:10399000805F0BD10169002904D140F2FF11A0F82A
:1039A0005C101FE0FF21A0F85C101BE0816800297B
:1039B0000AD10169002903D1FF21A0F85C1011E0B0
:1039C0007F21A0F85C100DE08168B1F1805F09D122
:1039D0000169002903D17F21A0F85C1002E03F219A
:1039E000A0F85C1000214167222180F87210016864
:1039F000896851F00101026891608168B1F5805FCA
:103A000006D10169002903D1DFF8AC15016602E097
:103A1000DFF8A8150166002180F8701001680968B8
:103A200051F4907100680160002000E002207047AE
:103A300025420008E141000838B504002068C0694B
:103A4000216809682268926810F00F03002B0AD1E0
:103A5000850608D58D0606D5206E002802D02000E8
:103A6000216E8847A7E0002B00F08080D30702D4A6
:103A700011F4907F7AD010F00103DBB2002B08D054
:103A8000CB0506D5012325682B62636F53F0010334
:103A9000636783070BD512F00103DBB2002B06D05E
:103AA000022325682B62636F53F0040363674307A7
:103AB0000BD512F00103DBB2002B06D004232568DE
:103AC0002B62636F53F00203636703070DD58B0608
:103AD00004D412F00102D2B2002A06D008222368D0
:103AE0001A62626F52F008026267626F002A3CD06D
:103AF000800607D5880605D5206E002802D0200054
:103B0000216E8847606F000703D4206880684006F4
:103B100026D5200000F046FB2068806840061BD5B3
:103B2000206880687FF04001084021688860E06E6E
:103B300000280DD00FF29160E16E8863E06E03F013
:103B40005FFF002811D0E06EE16E896B88470CE0C2
:103B5000200000F032F808E0200000F02EF804E029
:103B6000200000F02AF80020606724E0C3020FD58F
:103B700052020DD55FF4801021680862202084F87D
:103B80007100202084F87200200003F063FF12E02F
:103B9000020608D50A0606D5606E002802D020006D
:103BA000616E884707E0400605D5480603D520002A
:103BB00000F05DFBFFE731BD70477047F8B50400CA
:103BC0000021102700200026002500202168DFF8B2
:103BD000F0239142FFD0A168226911436269114329
:103BE000E269114322681268DFF8D8331A401143A2
:103BF000226811602168496831F44051E26811433C
:103C000022685160A1692268DFF8B4339A4201D07A
:103C1000226A11432268926832F4306211432268AA
:103C200091602168DFF8A023914216D1DFF89C1340
:103C3000096811F00301002905D0022905D006D337
:103C4000032906D007E0012797E0022795E0042723
:103C500093E0082791E010278FE02168DFF87023B8
:103C6000914217D1DFF86413096811F00C010029A3
:103C700006D0042908D0082904D00C2906D007E072
:103C800000277AE0022778E0042776E0082774E02E
:103C9000102772E02168DFF83C23914217D1DFF84A
:103CA0002C13096811F03001002906D0102908D022
:103CB000202904D0302906D007E000275DE0022744
:103CC0005BE0042759E0082757E0102755E02168FA
:103CD000C14A914216D1BD49096811F0C0010029BD
:103CE00006D0402908D0802904D0C02906D007E09A
:103CF000002742E0022740E004273EE008273CE09E
:103D000010273AE02168B54A914219D1AF490968B4
:103D100011F44071002909D0B1F5807F0AD0B1F5C6
:103D2000007F05D0B1F5407F06D007E0002724E0F2
:103D3000022722E0042720E008271EE010271CE0CD
:103D400021689F4A914218D1A049096811F4406145
:103D5000002909D0B1F5806F0AD0B1F5006F05D008
:103D6000B1F5406F06D007E0002706E0022704E027
:103D7000042702E0082700E010272168904A9142BA
:103D800071D1FFB23900002906D0022907D00429D9
:103D900007D0082908D00AE002F090F908E090481E
:103DA00006E002F015F903E04FF4004000E00125C1
:103DB000002800F0F980616803225143884205D34E
:103DC00061684FF480525143814201D20125EBE0FA
:103DD000FFB2002F06D0022F15D0042F20D0082FBD
:103DE0002ED035E002F06AF94FF480716268520813
:103DF0000023E1FB0023100019006268002303F098
:103E00002BFE060025E0606840080021754A00236B
:103E1000801859416268002303F01EFE060018E076
:103E200002F0D6F802004FF4807360684008002169
:103E3000E3FB02016268002303F00EFE060008E0C7
:103E40006068400810F500006168B0FBF1F600E022
:103E50000125B6F540706449884202D22068C660E8
:103E6000A2E00125A0E0E069B0F5004F53D1FFB218
:103E7000002F08D0012F11D0022F1AD0042F23D0E9
:103E8000082F2CD034E002F019F96168490811EBD1
:103E900040006168B0FBF1F6B6B22AE002F019F911
:103EA0006168490811EB40006168B0FBF1F6B6B2F9
:103EB0001FE06068400800F1F47010F59040616800
:103EC000B0FBF1F6B6B214E002F082F8616849087E
:103ED00011EB40006168B0FBF1F6B6B209E0606832
:103EE000400810F580306168B0FBF1F6B6B200E032
:103EF0000125B6F110004FF6F071884209D24FF655
:103F0000F0703040C6F34201084380B22168C860B7
:103F10004AE0012548E0FFB2002F08D0012F10D061
:103F2000022F18D0042F21D0082F29D031E002F021
:103F3000C5F8616810EB51006168B0FBF1F6B6B2EC
:103F400028E002F0C6F8616810EB51006168B0FB30
:103F5000F1F6B6B21EE06068400800F5740010F596
:103F600010506168B0FBF1F6B6B213E002F030F821
:103F7000616810EB51006168B0FBF1F6B6B209E080
:103F80006068400810F500406168B0FBF1F6B6B219
:103F900000E00125B6F110004FF6F071884202D220
:103FA0002068C66000E001250020206600206066D1
:103FB0002800C0B2F2BD0000F14200088F420008A4
:103FC00000800040F369FFEF003801408810024094
:103FD0000044004000480040004C004000500040B9
:103FE0000024F400000024F400FD0F0090F82410D9
:103FF000C90707D50168496831F40031826A114365
:104000000268516090F82410890707D50168496853
:1040100031F48031C26A11430268516090F8241073
:10402000490707D50168496831F48021026B1143C3
:104030000268516090F82410090707D501684968A3
:1040400031F40041426B11430268516090F8241032
:10405000C90607D50168896831F48051826B114324
:104060000268916090F82410890607D50168896874
:1040700031F40051C26B11430268916090F8241032
:10408000490613D50168496831F48011026C114367
:1040900002685160016CB1F5801F07D10168496861
:1040A00031F4C001426C11430268516090F8241051
:1040B000090607D50168496831F40021826C114373
:1040C00000684160704738B5040000250020606733
:1040D00000F0BDF905002068006800070DD57FF0ED
:1040E0007E4000902B0000225FF40011200000F0C1
:1040F00021F8002801D003201BE020680068400759
:104100000DD57FF07E4000902B0000225FF48001EF
:10411000200000F00FF8002801D0032009E0202043
:1041200084F87100202084F87200002084F8700068
:10413000002032BD2DE9F04104000D0016001F00E3
:10414000DDF818802068C0692840A84201D101200C
:1041500000E00020F6B2B04221D118F1010FF1D0F9
:10416000B8F1000F04D000F072F9C01B8045E9D20D
:104170002068006830F4D07021680860206880688A
:104180004008400021688860202084F871002020C9
:1041900084F87200002084F87000032000E0002002
:1041A000BDE8F0810168096831F49071026811601E
:1041B000016889684908490002689160202180F8F7
:1041C000721000210166704780B5806A0021A0F856
:1041D0005A100021A0F85210FFF7EFFC01BD0000BB
:1041E00090F8711021291CD1B0F8521000290DD17E
:1041F000016809687FF0800211400268116001685F
:10420000096851F04001006801600AE0C16C4A1C75
:10421000C264097802681185B0F85210491EA0F8EE
:104220005210704790F8711021291FD1B0F8521028
:1042300000290DD1016809687FF0800211400268F1
:1042400011600168096851F04001006801600DE0EB
:10425000C16C0988C905C90D02681185C16C891C2A
:10426000C164B0F85210491EA0F85210704780B5D2
:10427000016809687FF04002114002681160202146
:1042800080F8711000214166FFF796FC01BD10B562
:10429000B0F85C1090F87220222A22D10268928C29
:1042A000436D5C1C446511401970B0F85A10491EEA
:1042B000A0F85A1089B2002919D10168096831F4AF
:1042C00090710268116001688968490849000268B4
:1042D0009160202180F8721000210166FCF7A8FB94
:1042E00005E00168098B51F008010068018310BDE9
:1042F00080B5B0F85C2090F87210222923D10168B3
:104300008B8C416D1A400A80416D891C4165B0F863
:104310005A10491EA0F85A1089B2002919D1016813
:10432000096831F490710268116001688968490870
:10433000490002689160202180F872100021016616
:10434000FCF776FB05E00168098B51F00801006875
:10435000018301BD80B5284828490860002228490A
:104360002648006803F017FD26492448006803F03A
:104370001BFD002002BD00207047C0B2002810D0F5
:1043800001280FD002280ED003280DD004280CD00D
:1043900020280BD021280AD0222809D0232808D091
:1043A00008E007E006E005E004E003E002E001E0E9
:1043B00000E0FFE70020704710B504000221200054
:1043C00000F009F821000C4803F0EEFC0A4803F065
:1043D0000DFD002010BD80B5030000200A0092B240
:1043E00019000648006803F0D6FC0448006803F092
:1043F000E1FCC0B202BD00001C1F0020602B0020A9
:104400003C290020FC28002080B5032003F05EF842
:10441000002000F004F803F087F8002002BD10B57A
:104420000400144800684FF47A71B0FBF1F003F017
:1044300067F8002221005FF0FF3003F04BF8002006
:1044400010BD0D480068401C0B49086070470A48C1
:104450000068704738B50400FFF7F9FF050014F154
:10446000010F00D0641CFFF7F2FF401BA042FAD3FB
:1044700031BD0000E40500204C2B002080B5002257
:104480000A490B4803F0CEFC0A49094803F0E2FC54
:104490000949074803F076FC054804F0AEF8002807
:1044A00002D0034803F0E1FC01BD00000807002032
:1044B0001C1F0020F4050020F806002078B400221C
:1044C0000023002436E0072512F00306F6B2B600FA
:1044D000B5402C43DFF8E851960845F82640DFF850
:1044E000E44124689C434D68ED0300D51C43DFF88C
:1044F000D4512C60DFF8D04124689C434D68AD0353
:1045000000D51C43DFF8C0512C60DFF8C04124689F
:104510009C434D68ED0200D51C43DFF8B0512C6080
:104520006B4C24689C434D68AD0200D51C43684B1E
:104530001C60521C0B68D340002B00F0B1800B684C
:10454000012494402340002BF3D04C68022C02D06D
:104550004C68122C15D1D40800EB8404246A0F2572
:1045600012F00706F6B2B600B540AC430D6912F082
:104570000706F6B2B600B5402C43D50800EB85051A
:104580002C62046803251600F6B27600B540AC43F1
:104590000D7915F003051600F6B27600B5402C43F0
:1045A00004604C68012C08D04C68022C05D04C6883
:1045B000112C02D04C68122C17D1846803251600E8
:1045C000F6B27600B540AC43CD681600F6B2760080
:1045D000B5402C438460446801259540AC434D6848
:1045E000C5F3001595402C4344600C7914F0030486
:1045F000032C09D1C46A01259540AC434D68C5F32D
:10460000C00595402C43C462C46803251600F6B269
:104610007600B540AC438D681600F6B27600B54022
:104620002C43C4604C68E40083D52A4C246854F0C1
:104630000104284D2C60274C246814F001040094D8
:10464000009C1F4C950854F825400F2512F00306D6
:10465000F6B2B600B540AC43B0F1904F01D10025A1
:1046600032E71D4DA84201D101252DE71B4DA8427F
:1046700001D1022528E71A4DA84201D1032523E7DD
:10468000184DA84201D104251EE7174DA84201D1BB
:10469000052519E7154DA8427FF415AF062513E748
:1046A00071BC7047D2B2002A02D089B2816101E0A8
:1046B00089B281627047426989B251404161704755
:1046C00008000140000401400404014008040140C6
:1046D0000C0401406010024000040048000800483B
:1046E000000C004800100048001400480018004862
:1046F000C0B2102190FBF1F201FB12015FF0C04249
:104700001170C0B2102190FBF1F010305FF0C04189
:104710000870704710B5030008000024DFF8C019C6
:10472000DBB2052463431944B1F1A00452F0B00197
:104730005FF0C042117004215FF0C042117010217F
:104740005FF0C0421170C0B2FFF7D2FF002005E059
:104750002178DFF8982D1170641C401CC0B2052828
:10476000F6DB10BD10B5030008000024DBB27A2B85
:1047700000D15A23DFF86C19DBB2052463431944D6
:10478000B1F1A00452F0B0015FF0C04211700421F9
:104790005FF0C042117010215FF0C0421170C0B2D2
:1047A000FFF7A6FFFF20DFF8441D0870002006E099
:1047B0002178C943DFF8342D1170641C401CC0B24D
:1047C0000528F5DB10BD70B504000D00042608E0D7
:1047D0002A00D2B23100C9B22078FFF7C3FF641CAF
:1047E000B61D20780028F3D170BD2DE9F0410400FA
:1047F0000D00160000275FF004080AE02A00D2B27C
:104800004146C9B22078FFF785FF641C7F1C18F170
:104810000608207800280DD038003100C0B2C9B297
:104820008842EBD22A00D2B24146C9B22078FFF7C3
:1048300099FFEAE7BDE8F08170B504000D00042699
:1048400008E02A00D2B23100C9B22078FFF762FF37
:10485000641CB61D20780028F3D170BDAE205FF037
:10486000C041087020205FF0C041087002205FF056
:10487000C0410870B0205FF0C0410870C8205FF0F0
:10488000C041087040205FF0C0410870FF205FF019
:10489000C041087030205FF0C0410870A1205FF077
:1048A000C0410870A6205FF0C0410870A8205FF0EA
:1048B000C04108701F205FF0C0410870A4205FF065
:1048C000C0410870D3205FF0C041087000205FF045
:1048D000C0410870D5205FF0C041087010205FF023
:1048E000C0410870D9205FF0C041087022205FF0FD
:1048F000C0410870DA205FF0C041087012205FF0FC
:10490000C0410870DB205FF0C041087020205FF0DC
:10491000C04108708D205FF0C041087014205FF026
:10492000C0410870AF205FF0C0410870704700219F
:1049300004E3DFF8A82CD279002A14D1DFF8B02BD9
:10494000C9B20A44127CDFF8983CC9B20B4483F820
:104950007020DFF89C2BC9B2525CDFF8843CC9B2EE
:104960000B4483F8F020DFF8742CD279012A14D19B
:10497000DFF8802BC9B20A44127CDFF8643CC9B26C
:104980000B4483F87020DFF86C2BC9B2525CDFF85F
:10499000503CC9B20B4483F8F020DFF8402CD279A8
:1049A000022A14D1DFF83C2CC9B20A44127CDFF889
:1049B000303CC9B20B4483F87020DFF8282CC9B210
:1049C000525CDFF81C3CC9B20B4483F8F020DFF8DE
:1049D0000C2CD279032A14D1DFF80C2CC9B20A446A
:1049E000127CDFF8FC3BC9B20B4483F87020DFF87F
:1049F000F82BC9B2525CDFF8E83BC9B20B4483F82C
:104A0000F020DFF8E82BD278012A12D1DFF8E02B72
:104A1000C9B20A44127CDFF8C83BC9B25A54DFF865
:104A2000D02BC9B2525CDFF8B83BC9B20B4483F853
:104A30008020DFF8B82BD278022A12D1DFF8B42B0D
:104A4000C9B20A44127CDFF8983BC9B25A54DFF865
:104A5000A42BC9B2525CDFF8883BC9B20B4483F87F
:104A60008020DFF8882BD278002A12D1DFF8882B3B
:104A7000C9B20A44127CDFF8683BC9B25A54DFF865
:104A8000782BC9B2525CDFF8583BC9B20B4483F8AB
:104A90008020DFF8482B5279002A14D1DFF8582BF8
:104AA000C9B20A44127CDFF8383BC9B20B4483F820
:104AB0003020DFF8442BC9B2525CDFF8243BC9B286
:104AC0000B4483F8B020DFF8142B5279012A14D15B
:104AD000DFF8282CC9B20A44127CDFF8043BC9B2C3
:104AE0000B4483F83020DFF8142CC9B2525CDFF895
:104AF000F03AC9B20B4483F8B020DFF8E02A527ACA
:104B0000002A14D1DFF8F02AC9B20A44127CDFF877
:104B1000D03AC9B20B4483F85020DFF8DC2AC9B27E
:104B2000525CDFF8BC3AC9B20B4483F8D020DFF8FE
:104B3000AC2A527A022A14D1DFF8C42BC9B20A4433
:104B4000127CDFF89C3AC9B20B4483F85020DFF89E
:104B5000B02BC9B2525CDFF8883AC9B20B4483F873
:104B6000D020DFF8782A527A012A14D1DFF8942B6A
:104B7000C9B20A44127CDFF8683AC9B20B4483F820
:104B80005020DFF8802BC9B2525CDFF8543AC9B22A
:104B90000B4483F8D020DFF8442A527A032A2FD11D
:104BA000C0B2002814D1DFF8502AC9B20A44127CDE
:104BB000DFF82C3AC9B20B4483F85020DFF8382ACA
:104BC000C9B2525CDFF8183AC9B20B4483F8D0205E
:104BD000C0B2012814D1DFF82C2BC9B20A44127CD0
:104BE000DFF8FC39C9B20B4483F85020DFF8142BEE
:104BF000C9B2525CDFF8E839C9B20B4483F8D0205F
:104C0000DFF8D829127A002A14D1DFF8EC29C9B2CA
:104C10000A44127CDFF8C839C9B20B4483F860201B
:104C2000DFF8D429C9B2525CDFF8B439C9B20B44F9
:104C300083F8E020DFF8A429127A012A14D1DFF8E2
:104C4000C82AC9B20A44127CDFF89439C9B20B44AD
:104C500083F86020DFF8B02AC9B2525CDFF88039EF
:104C6000C9B20B4483F8E020DFF87029127A022AD7
:104C700014D1DFF8982AC9B20A44127CDFF86039EF
:104C8000C9B20B4483F86020DFF8802AC9B2525CB5
:104C9000DFF84C39C9B20B4483F8E020DFF83C2937
:104CA000127A032A14D1DFF8682AC9B20A44127CA6
:104CB000DFF82C39C9B20B4483F86020DFF8502AA2
:104CC000C9B2525CDFF81839C9B20B4483F8E0204E
:104CD000DFF80829127A042A14D1DFF8382AC9B279
:104CE0000A44127CDFF8F838C9B20B4483F860201C
:104CF000DFF8202AC9B2525CDFF8E438C9B20B44AD
:104D000083F8E020DFF8D428127A052A14D1DFF8DE
:104D1000082AC9B20A44127CDFF8C438C9B20B446D
:104D200083F86020DFF8F029C9B2525CDFF8B038B0
:104D3000C9B20B4483F8E020DFF8A0289279002A5A
:104D400014D1DFF8D829C9B20A44127CDFF89038B0
:104D5000C9B20B4483F84020DFF8C029C9B2525CC5
:104D6000DFF87C38C9B20B4483F8C020DFF86C2828
:104D70009279012A14D1DFF8A429C9B20A44127C1D
:104D8000DFF85C38C9B20B4483F84020DFF88C2987
:104D9000C9B2525CDFF84838C9B20B4483F8C0206E
:104DA000DFF838289279022A14D1DFF87429C9B2C1
:104DB0000A44127CDFF82838C9B20B4483F840203B
:104DC000DFF85C29C9B2525CDFF81438C9B20B4471
:104DD00083F8C020DFF804289279032A14D1DFF881
:104DE0004029C9B20A44127CDFF8F437C9B20B4437
:104DF00083F84020DFF82829C9B2525CDFF8E03799
:104E0000C9B20B4483F8C020DFF8D0279279042A76
:104E100014D1DFF81029C9B20A44127CDFF8C03778
:104E2000C9B20B4483F84020DFF8F828C9B2525CBD
:104E3000DFF8AC37C9B20B4483F8C020DFF89C27F9
:104E4000D278002A13D1DFF8E028C9B20A44127CD4
:104E5000DFF88C37C9B20B441A74DFF8CC28C9B21A
:104E6000525CDFF87C37C9B20B4483F89020DFF83E
:104E70006C27D278012A13D1DFF8B028C9B20A44CE
:104E8000127CDFF85C37C9B20B441A74DFF89C2837
:104E9000C9B2525CDFF84837C9B20B4483F890209E
:104EA000DFF83827D278022A13D1DFF88428C9B274
:104EB0000A44127CDFF82837C9B20B441A74DFF8B1
:104EC0007028C9B2525CDFF81837C9B20B4483F8B6
:104ED0009020DFF808271279002A14D1DFF854282F
:104EE000C9B20A44127CDFF8F836C9B20B4483F821
:104EF0002020DFF84028C9B2525CDFF8E436C9B29E
:104F00000B4483F8A020DFF8D4261279012A14D1AB
:104F1000DFF82428C9B20A44127CDFF8C436C9B2CB
:104F20000B4483F82020DFF81028C9B2525CDFF868
:104F3000B036C9B20B4483F8A020491CC9B210296D
:104F4000FFF6F7ACB3205FF0C041087004205FF0BB
:104F5000C041087010205FF0C0410870002007E0D9
:104F6000DFF87C16C0B2095CDFF880251170401CA8
:104F7000C0B28028F4DBB2205FF0C041087004208A
:104F80005FF0C041087010205FF0C0410870002041
:104F900009E0DFF84C16C0B2014491F88010DFF848
:104FA0004C251170401CC0B28028F2DB704710B550
:104FB0000400002000F07CFADFF88027DFF880078B
:104FC000E4B2012C40F08080DFF810160979012945
:104FD00075D10121FFF730FC022000F069FA0320AF
:104FE00000F066FA00202EE0DFF8F015497901297B
:104FF00011D1DFF80817C0B20144097CDFF844275B
:10500000C0B21154DFF8F416C0B2095CDFF83427DF
:10501000C0B202441174DFF8C4154979002911D1D6
:10502000DFF8D415C0B20144097CDFF81827C0B2FC
:105030001154DFF8C415C0B2095CDFF80827C0B20C
:1050400002441174401CC0B21028CDDBB3205FF0C5
:10505000C041087004205FF0C041087010205FF06C
:10506000C04108701420FFF743FB002007E0DFF881
:10507000D416C0B2095CDFF874241170401CC0B2B1
:105080001028F4DBB2205FF0C041087004205FF00C
:10509000C041087010205FF0C04108701420FFF775
:1050A00027FB0020C0B2102817DADFF89816C0B22C
:1050B0000144097CDFF834241170401CF2E701211F
:1050C0001000FFF7B9FB08E0012000F0F1F9022021
:1050D00000F0EEF9032000F0EBF910BD0000000035
:1050E00000000020A404002010B504000020CAE045
:1050F0002021DFF85426C0B2024482F83210DFF8D3
:10510000EC14C978002909D1DFF84016C0B2095C57
:10511000DFF83426C0B2024482F84B10DFF8CC141A
:10512000C978012909D1DFF82816C0B2095CDFF877
:105130001826C0B2024482F84B10DFF8B014C978C8
:10514000022909D1DFF80C16C0B2095CDFF8F82596
:10515000C0B2024482F84B10DFF89014097900299C
:1051600009D1DFF8F415C0B2095CDFF8DC25C0B264
:10517000024482F86410DFF874140979012909D116
:10518000DFF8D815C0B2095CDFF8BC25C0B2024414
:1051900082F86410DFF854144979002909D1DFF846
:1051A000C015C0B2095CDFF8A025C0B2024482F885
:1051B0007D10DFF838144979012909D1DFF8A415E9
:1051C000C0B2095CDFF88025C0B2024482F87D10CD
:1051D000DFF818148979002909D1DFF88C15C0B2DD
:1051E000095CDFF86425C0B2024482F89610DFF84B
:1051F000FC138979012909D1DFF87015C0B2095C67
:10520000DFF84425C0B2024482F89610DFF8DC13C0
:10521000C979002909D1DFF85815C0B2095CDFF857
:105220002825C0B2024482F8AF10DFF8C013C97954
:10523000012909D1DFF83C15C0B2095CDFF8082567
:10524000C0B2024482F8AF10DFF8A013097A002937
:1052500009D1DFF82415C0B2095CDFF8EC24C0B234
:10526000024482F8C810DFF88413097A012909D1B1
:10527000DFF80815C0B2095CDFF8CC24C0B20244E4
:1052800082F8C810401CC0B2152880F28480D7492B
:105290000978002907D1DFF8E814C0B2095CDFF80B
:1052A000A824C0B21154D1490978012907D1DFF8E7
:1052B000D414C0B2095CDFF89024C0B21154CB49B9
:1052C0000978022907D1DFF8C014C0B2095CDFF801
:1052D0007824C0B21154C0B2112809DADFF8AC1436
:1052E000C0B2095CDFF86024C0B20244517623E00A
:1052F000BE4949780A290BD1DFF89414C0B20144A1
:1053000011F8111CDFF84024C0B20244517613E0BA
:10531000C0B211280AD1DFF87C14B44A5278895CF3
:10532000DFF82424C0B20244517605E02021DFF8E2
:105330001824C0B202445176C0B211280ADADFF84C
:105340005814C0B2095CDFF80024C0B2024482F8ED
:105350003210D4E6A54989780A290CD1DFF8301437
:10536000C0B2014411F8111CDFF8DC23C0B20244C2
:1053700082F83210C3E6C0B211287FF4B9AEDFF86C
:1053800014149A4A9278895CDFF8BC23C0B20244B4
:1053900082F83210B3E6E4B2022C0AD10021DFF821
:1053A000A803DFF8F823127819235A431044FFF7B3
:1053B0000AFAE4B2012C0AD10021DFF88C03DFF8ED
:1053C000DC23127819235A431044FFF735FAE4B26C
:1053D000002C02D1002000F06BF8DFF8C003007849
:1053E000062820DA0121D848DFF8B02312781923E3
:1053F0005A4310441930FFF71FFA0221D248DFF850
:105400009C23127819235A4310443230FFF714FAC0
:105410000321CD48DFF88423127819235A4310441E
:105420004B30FFF709FADFF874030078062817D12C
:105430000121C548D94A127819235A43104419301A
:10544000FFF7FAF90221C048D44A127819235A43C7
:1054500010443230FFF7F0F90321BB48FFF7ECF9B5
:10546000CE480078072811D10121B748CB4A1278DD
:1054700019235A4310441930FFF7DEF90221B248CC
:10548000FFF7DAF90321C648FFF7D6F9C3480078D9
:1054900008280BD10121AC48FFF7CEF90221C04802
:1054A000FFF7CAF90321BF48FFF7C6F910BD000096
:1054B00050F0B0005FF0C041087004205FF0C041C0
:1054C000087010205FF0C0410870002005E000BFA8
:1054D000491CB1F5FA7FFAD3401C80B2802804DA67
:1054E0000021024A11700021F3E7704701000060BB
:1054F00084020020A4020020B0205FF0C0410870A8
:1055000004205FF0C041087010205FF0C0410870B7
:10551000002005E000BF491CB1F5FA7FFAD3401C1A
:1055200080B2802804DA00219F4A11700021F3E73D
:10553000B1205FF0C041087004205FF0C0410870E6
:1055400010205FF0C0410870002005E000BF491C3A
:10555000B1F5FA7FFAD3401C80B2802804DA00212A
:10556000914A11700021F3E7B2205FF0C04108704A
:1055700004205FF0C041087010205FF0C041087047
:10558000002005E000BF491CB1F5FA7FFAD3401CAA
:1055900080B2802804DA0021834A11700021F3E7E9
:1055A000B3205FF0C041087004205FF0C041087074
:1055B00010205FF0C0410870002005E000BF491CCA
:1055C000B1F5FA7FFAD3401C80B2802804DA0021BA
:1055D000754A11700021F3E770470000042B00208A
:1055E00060220020C4020020E4020020102B0020D2
:1055F0004402002064020020642A0020B0205FF0F2
:10560000C041087004205FF0C041087010205FF0B6
:10561000C0410870002005E000BF491CB1F5FA7FC9
:10562000FAD3401C80B2802806DA604980B2095C57
:105630005D4A11700021F1E7B1205FF0C0410870B0
:1056400004205FF0C041087010205FF0C041087076
:10565000002005E000BF491CB1F5FA7FFAD3401CD9
:1056600080B2802808DA514980B2014491F8801054
:105670004D4A11700021EFE7B2205FF0C041087081
:1056800004205FF0C041087010205FF0C041087036
:10569000002005E000BF491CB1F5FA7FFAD3401C99
:1056A00080B2802808DA414980B2014491F80011A3
:1056B0003D4A11700021EFE7B3205FF0C041087050
:1056C00004205FF0C041087010205FF0C0410870F6
:1056D000002005E000BF491CB1F5FA7FFAD3401C59
:1056E00080B2802808DA314980B2014491F88011F3
:1056F0002D4A11700021EFE770470000E4030020FD
:10570000C4030020A403002084030020040300201D
:1057100024030020440300206403002044040020EC
:105720006404002084040020E4010020040200201E
:1057300024020020040400202404002060C100088A
:1057400070C100086023002060240020B4BF00085E
:1057500084BF00089CBF0008E4BF0008CCBF00085D
:1057600014C00008FCBF000844C000082CC000089A
:1057700074C000085CC000088CC00008A4C0000809
:105780000CBF000824BF00083CBF000854BF00083D
:1057900018C20008DCC100086CBF0008962B00206E
:1057A00079240020922400200100006010BA000833
:1057B000002202F02BBF000070B582B0040000256B
:1057C0002078C0065AD5DFF8B409006810F00C0F35
:1057D00040F0A080DFF810090068800704D5A069B8
:1057E000002801D1012003E3DFF8FC08006800076E
:1057F00005D5DFF8F408006810F0F00005E0DFF8E8
:1058000088090068000910F0F000216A88425CD223
:10581000206A00F06BFC002801D00120E8E2DFF8EC
:10582000C808006850F00800DFF8BC180860DFF80E
:10583000B80800687FF0F0010840216A0843DFF8EB
:10584000A8180860DFF84409006830F47F40E16977
:1058500050EA0120DFF83419086000F0B9FBDFF8E6
:105860003019DFF818291268C2F30312895CC840A6
:10587000DFF8101908600020FEF7D1FD2078C0077E
:1058800040F1EC80DFF8F408006810F00C00082804
:105890000FD0DFF8E808006810F00C000C2840F08A
:1058A0008A80DFF8DC08006810F00300032840F06D
:1058B0008280DFF834080068800340F1CF806068A0
:1058C000002840F0CB80012092E2DFF81C0800683D
:1058D00050F00800DFF810180860DFF80C080068C6
:1058E0007FF0F0010840216A0843DFF8FC170860E8
:1058F000DFF89808006830F47F40E16950EA012041
:10590000DFF888180860206A00F0F0FB0028A4D0B7
:1059100001206DE2A069002835D0DFF8CC070068CF
:1059200050F00100DFF8C0170860FEF790FD050099
:10593000DFF8B4070068800706D4FEF788FD401B37
:105940000328F5D3032053E2DFF89C07006850F0EA
:105950000800DFF894170860DFF88C0700687FF014
:10596000F0010840216A0843DFF87C170860DFF87F
:105970001C08006830F47F40E16950EA0120DFF83C
:105980000C1808607AE7DFF86007006840084000FC
:10599000DFF854170860FEF75AFD0500DFF84807E6
:1059A000006880077FF56AAFFEF751FD401B0328B2
:1059B000F4D303201CE26068B0F5803F08D1DFF823
:1059C0002807006850F48030DFF81C17086024E0D6
:1059D0006068B0F5A02F10D1DFF80C07006850F414
:1059E0008020DFF804170860DFF8FC06006850F438
:1059F0008030DFF8F41608600FE0DFF8EC0600688E
:105A000030F48030DFF8E0160860DFF8DC0600686C
:105A100030F48020DFF8D0160860606800280ED0CF
:105A2000FEF715FD0500DFF8C0060068800315D4F9
:105A3000FEF70DFD401B6528F5D30320D8E1FEF7E6
:105A400006FD0500DFF8A0060068800306D5FEF716
:105A5000FEFC401B6528F5D30320C9E120788007B0
:105A600029D5DFF81807006810F00C0004280DD0C5
:105A7000DFF80807006810F00C000C2838D1DFF8B8
:105A80000007006810F00300022831D1DFF8580643
:105A90000068400504D5E068002801D10120A7E195
:105AA000DFF8E806006830F0F850216950EA01603C
:105AB000DFF8D8160860207800076DD560690028E7
:105AC00053D0DFF8C406006850F00100DFF8B816C4
:105AD0000860FEF7BCFC0500DFF8AC060068800734
