:020000040800F2
:10000000500B002049C2000827A6000829A60008B6
:100010002BA600082DA600082FA60008000000004F
:1000200000000000000000000000000031A60008F1
:1000300033A600080000000035A6000837A6000817
:10004000A5C20008A9C20008ADC20008B1C20008DC
:10005000B5C20008B9C20008BDC20008C1C200088C
:10006000C5C20008C9C20008CDC20008D1C200083C
:10007000D5C20008D9C20008DDC20008E1C20008EC
:10008000E5C20008E9C20008EDC20008F1C200089C
:10009000F5C20008F9C20008FDC2000801C300084B
:1000A00005C3000809C300080DC3000811C30008F8
:1000B00015C3000819C300081DC3000821C30008A8
:1000C00025C3000829C300082DC3000831C3000858
:1000D00035C3000839C300083FA600083DC3000827
:1000E00041C3000845C3000849C300084DC30008C8
:1000F00051C3000855C3000859C300085DC3000878
:1001000061C3000865C3000869C300086DC3000827
:1001100071C3000875C3000879C3000851A6000820
:100120007DC3000881C3000885C3000889C3000897
:100130008DC3000891C3000895C3000899C3000847
:100140009DC30008A1C30008A5C3000825B7000887
:10015000A9C30008ADC30008B1C30008B5C30008B7
:10016000B9C30008BDC30008C1C30008C5C3000867
:10017000C9C30008CDC30008D1C3000800000000B7
:10018000D5C30008D9C30008DFF8900C0068C0F39D
:1001900002207047012110F01F029140DFF8802CEF
:1001A00040B2400942F82010704740B2002809D5FB
:1001B0000901DFF8642940B210F00F00104400F884
:1001C000041C04E00901DFF85C2C40B211547047B4
:1001D00010B410F00700D0F10703052B01D304235E
:1001E00001E0D0F10703041D072C01D2002000E03C
:1001F000C01E012414FA03F35B1E19408140012341
:1002000013FA00F0401E1040084310BC704781688C
:10021000DFF8142C114051F00101816070478268B1
:10022000DFF8083C1A4011F08041114351F00041C1
:10023000816070478068C00F70478168DFF8E82BE5
:10024000114051F0040181607047016851F00101D3
:100250000160704701687FF0020211400160704741
:10026000C16851F00101C160704781B0DFF8C01B67
:1002700009680143DFF8B82B1160DFF8B41B096887
:1002800008400090009801B07047000038B50400A5
:100290000D00DFF8A00B0068B0F5802F22D2DFF848
:1002A000980B02F06EFD002012E0C0B234F810107E
:1002B000DFF8802B1268520002F1C8422032118010
:1002C000DFF8701B0968491CDFF8682B1160401CBF
:1002D00001002A00C9B2D2B29142E6D3DFF8580B2E
:1002E00002F038FD31BD70B504000D001600DFF8D6
:1002F000480B02F046FD00200BE0C0B2710011EB8C
:10030000400101F1C84120310988C0B224F8101021
:10031000401C01002A00C9B2D2B29142EDD3DFF8ED
:10032000180B02F017FD70BD38B504000D00DFF8A2
:10033000080B02F026FDEDB2680010F1C840048001
:10034000DFF8F40A02F006FD31BD38B504000025DF
:10035000DFF8E40A02F015FDE4B2600010F1C840D5
:100360000588DFF8D40A02F0F5FC280080B232BD1F
:1003700010B50400DFF8C00A02F003FDDFF8B40A8C
:100380000068400000F1C84020300480DFF8A40A73
:100390000068401CDFF89C1A0860DFF8980A0068C3
:1003A000DFF8981A0860DFF8900A02F0D3FC10BD5D
:1003B00038B50400DFF8880ADFF8882A128820F8A8
:1003C0001240DFF8800A0088401CDFF8782A10808D
:1003D000DFF8700A00881E2803DB0020DFF8642A9B
:1003E0001080DFF8640A00781E280DDADFF8580A5A
:1003F0000078401CDFF8502A1070DFF8500A0078AF
:10040000401CDFF8482A1070DFF83C0A00781E28EC
:10041000C0F23F82DFF8340A00781E2806DADFF8DF
:100420002C0A0078401CDFF8242A10700020DFF826
:10043000202A108040F6FF70DFF8182A1080002074
:1004400024E0DFF80C2A1288DFF8F439C0B233F860
:1004500010309A4207D2DFF8E829C0B232F81020F3
:10046000DFF8EC391A80DFF8D829C0B232F8102052
:10047000DFF8E0391B889A4207D2DFF8C429C0B2FE
:1004800032F81020DFF8CC391A80401CC0B21D2889
:10049000D7DB89B2DFF8B8090088DFF8B8291288FD
:1004A000801A81422ADADFF8A40900781E2811DBBD
:1004B0000120DFF8A4190870DFF8A00900780128EE
:1004C00003D00120DFF8981908700120DFF88C199B
:1004D00008701FE00120DFF8801908700120DFF8A4
:1004E0007C1908700020DFF878190870DFF85C09C3
:1004F0000078401EDFF8541908700BE00020DFF888
:10050000641908700020DFF8501908700020DFF827
:100510004C190870DFF840090078012840F02F815D
:100520000022DFF84419DFF8440902F046FD0022FA
:10053000DFF83C19DFF8340902F0F3FDDFF8280991
:100540008078DFF830198870DFF81C094078DFF810
:1005500024194870DFF810090078DFF818190870BE
:10056000DFF80C098078DFF810198870DFF80009CF
:100570004078DFF804194870DFF8F408C078DFF835
:10058000F818C8700120DFF8F4184871DFF8D008B7
:100590000078012840F0A68041F28930DFF8E018A9
:1005A00008600020DFF8DC180870DFF888080068B1
:1005B000DFF8D41808600120DFF8A8180870DFF809
:1005C000CC080078401CDFF8C41808700020DFF861
:1005D000C01808804AF65520DFF8B4184880DFF8C4
:1005E000AC080078DFF8A8188880DFF8A808007841
:1005F000DFF89C18C880DFF8A0080078DFF89018B2
:100600000881DFF894084088DFF884184881DFF813
:1006100088080079DFF878188881DFF87C08C088BE
:10062000DFF86C18C881DFF870080089DFF86018FF
:100630000882DFF86408807ADFF854184882DFF80F
:1006400038088078DFF848188882DFF82C0840786E
:10065000DFF83C18C882DFF82008C078DFF83018CF
:100660000883DFF810080078DFF824184883DFF8E3
:1006700004084078DFF818188883DFF8F8078078D6
:10068000DFF80C18C883DFF81008C08980B2000AB0
:10069000C0B2DFF8FC1708841121DFF8F407FFF778
:1006A000F5FD002517E0DFF8F4070088411CDFF8AE
:1006B000EC271180DFF8881780B231F81000FFF7BF
:1006C00057FEDFF8D80700881E2803DB0020DFF87C
:1006D000CC1708806D1CEDB21D2DE4DB0020DFF887
:1006E00080170870DFF878070078002836D1DFF827
:1006F0005C0700781E2831DA0120DFF868170870DF
:10070000DFF848070078002820D0002517E0DFF840
:100710008C070088411CDFF884271180DFF8201740
:1007200080B231F81000FFF723FEDFF87007008871
:100730001E2803DB0020DFF8641708806D1C2800EA
:10074000DFF808170978C0B28842E0D3200080B2F1
:10075000FFF70EFE0020DFF8F4160870DFF8000740
:100760000078002840F08F80DFF8E00600781E282F
:1007700040F08980200080B2FFF7FAFD83E0DFF8C7
:1007800020070078012867D100241BE0DFF80C0760
:100790000088411CDFF804271180DFF8A41680B21E
:1007A00031F81000FFF7E4FDDFF8F00600881E289E
:1007B00003DB0020DFF8E41608800020DFF88C1649
:1007C0000870641CE4B21D2CE0DB0621DFF864062F
:1007D0000068000C80B2FFF7A7FD0721DFF8540680
:1007E000006880B2FFF7A0FD0821DFF8A0060078BE
:1007F00080B2FFF799FDDFF88C06007800282BD136
:10080000DFF87C060068002826D0DFF88006007834
:10081000401EDFF8781608700020DFF864160860C4
:100820000821DFF86806007880B2FFF77DFDDFF869
:1008300058060068DFF8FC1508600621DFF8F405AB
:100840000068000C80B2FFF76FFD0721DFF8E405B8
:10085000006880B2FFF768FDDFF848060088401C9A
:10086000DFF840160880DFF840060078DFF834161D
:10087000098880B2884206D2DFF820060088401C32
:10088000DFF818160880DFF8D4050078DFF81016B6
:10089000087031BD00B585B02020FFF7E6FC684642
:1008A00002F0C5FC6320029000200390002001901C
:1008B0002F20ADF800006946DFF8F00502F0C3FC18
:1008C000DFF8E805FFF7C6FCFFF75EFC0022002119
:1008D000FFF77EFC01003720FFF767FCDFF8CC054F
:1008E000FFF7BEFC3720FFF755FCDFF8C005FFF728
:1008F000ACFC05B000BD0FB438B5179D189C4FF483
:100900007A700090E4B223009BB2DFF8A425EDB228
:10091000290089B204A802F07BFD002804D004A8B5
:1009200002F040FE0428EAD131BC5DF814FB0FB49C
:1009300038B5179D189C4FF47A700090E4B22300EC
:100940009BB2DFF87025EDB2290089B204A802F04D
:100950005FFD002804D004A802F024FE0428EAD198
:1009600031BC5DF814FB0000F0B59BB01020DFF83F
:1009700044150870CA20DFF83C1548700024C825CB
:100980003BE0DFF8341509780129FAD10021DFF8BE
:1009900028251170DFF82415098811AAC0B222F8A1
:1009A0001010310011AAC0B232F8102089B2914261
:1009B00003D211A9C0B231F8106011A9C0B231F848
:1009C00010103A0092B2914203D211A9C0B231F88C
:1009D0001070C0B2002806D0ADB2B6B2BFB2F11BE3
:1009E0008D4200DA0124401CC0B20A28C9DBDFF8BE
:1009F000C4044078332800DA0124E4B2012C22D068
:100A0000DFF8B0044078801EDFF8A8144870002694
:100A100040F6FF770220109058200F90DFF8A014C6
:100A200084B068464C2202F0A9FE0FBCFFF77FFF9E
:100A3000002001E000BF401C80B242F210718842E9
:100A4000F8DB0020D0E7DFF86C044078801CDFF88A
:100A500064144870DFF85C044078DFF868140870AC
:100A60001BB0F0BD80B5DFF86014884253D101227D
:100A7000DFF85814DFF8500402F025FFDFF84C04CB
:100A80000078DFF84C14DFF84C2412788854DFF833
:100A900044040078401CDFF83C140870DFF834048C
:100AA0000078C82803DB0020DFF828140870DFF87E
:100AB0001C040078242804D0DFF81C0400780128E6
:100AC00029D10120DFF810140870DFF80004007845
:100AD000DFF80814DFF8082412788854DFF80004DF
:100AE0000078401CDFF8F8130870DFF8F003DFF837
:100AF000F0130978084410F8010C2A280BD10020C3
:100B0000DFF8D41308700020DFF8D4130870012038
:100B1000DFF8D013087001BD18ED00E000B591B00A
:100B2000DFF8C40300787F2804D1DFF8BC034078E5
:100B3000AA2805D0DFF8B4030078012840F06B81C3
:100B4000DFF8A803007801283DD1DFF8A40300688E
:100B50002030DFF89C130860DFF894030068DFF8AA
:100B600094130988884203D30020DFF880130870AB
:100B7000DFF87C0302682021DFF87C03FFF7B3FB7A
:100B8000002017E0DFF87013C0B231F8101089B2FE
:100B9000090ADFF86823C0B202F81010DFF8581312
:100BA000C0B231F81010DFF85423C0B202EB40029B
:100BB0005170401CC0B22028E4DB4021DFF83C0328
:100BC00003F0C1FB27E1C848C07801283DD10720C8
:100BD000FFF7BBFBC74908800020C5490860002219
:100BE0002021C548FFF77FFB0020C4490870002082
:100BF000C2494870BF48008880B2000ABF49887067
:100C0000BC480088BD49C870002014E0BA49C0B291
:100C100031F8101089B2090AB84AC0B202EB40029A
:100C20001171B549C0B231F81010B44AC0B202EB2C
:100C300040025171401CC0B21E28E7DB4021AF4882
:100C400003F081FB0120A9490870A748C078022859
:100C50000CD1A5480079A449497951EA0020874977
:100C600008800A2185480088FFF75EFB9E48C0780F
:100C7000032802D10120A24908709B48C0780428AB
:100C800010D101209F49087097480079002802D1AF
:100C900000208049087294480079012802D101207F
:100CA0007C4908729048C078062844D110208049B9
:100CB00008708D4800797E494870022010905E20AF
:100CC0000F907F4984B068464C2202F057FD0FBC5C
:100CD000FFF711FE01208C4908708B48007801282D
:100CE000FBD0002085490870002084494870AA2064
:100CF000824988705E208149C870002014E08349D1
:100D0000C0B231F8101089B2090A7C4AC0B202EBB5
:100D1000400211717D49C0B231F81010774AC0B25B
:100D200002EB40025171401CC0B21428E7DB4021A5
:100D3000724803F008FB6C48C078072819D16A484C
:100D40000079002803D168484079714908706648E5
:100D50000079012803D1644840796E49087009215F
:100D60006B4800786B4A127852EA002080B2FFF795
:100D7000DBFA5D48C07808284AD15B480079002832
:100D800046D10720FFF7E1FA5A4908800020584968
:100D90000860002220215848FFF7A5FA0020574993
:100DA00008700020554948705248008880B2000AF7
:100DB000524988704F4800885049C870002006E0AA
:100DC00040F245616A46C0B222F81010401CC0B221
:100DD0001428F5DB002014E06946C0B231F8101089
:100DE00089B2090A454AC0B202EB40021171694654
:100DF000C0B231F81010414AC0B202EB400251714A
:100E0000401CC0B21428E7DB40213C4803F09BFAA9
:100E100000203549087011B000BD00000CED00E065
:100E200000E100E000E400E0C0FFFF7FC0FFFF3F03
:100E300058100240182B0020642800201C2B002092
:100E400044250020482B00208E2B00208C2B0020D6
:100E5000442B00203E0700208D2B0020902B0020EB
:100E6000602B00209A2B0020882A0020182A0020BE
:100E70000C2B00209C2A0020102B0020DC2A0020B4
:100E8000082B0020702B0020F82A00208F2B002038
:100E9000F0290020E82A0020742A0020462B002098
:100EA000912B00204A2B0020440700200014004012
:100EB000002B0020C42A00209E2B0020502B002055
:100EC000182800206A2B0020D4260020D02A0020D9
:100ED0000C260020992B0020942B0020B427002002
:100EE000932B0020952B0020FC280020632B002052
:100EF000F42A00204C2B0020500B00203C2900201D
:100F0000862B0020892B0020642B0020BC29002088
:100F1000450700204607002010B592B003F02CFAD8
:100F200001F00CFB01F0BEFD01F002FD01F0A4FC9C
:100F300001F0FBFB01F064FB01F039FC03F056FA11
:100F40000620FFF702FADFF83C1E08600720FFF7D3
:100F5000FCF9DFF8301E0968090411FA80F0DFF8A7
:100F6000241E0860DFF81C0E0068B0F5802F03D93E
:100F70000020DFF8101E0860DFF8080E0068DFF8B8
:100F8000081E08600820FFF7E0F9DFF8001E08706F
:100F90000A20FFF7DAF9DFF8F81D08800920FFF7CB
:100FA000D4F980B2000ADFF8EC1D08700920FFF7C1
:100FB000CCF9DFF8E41D08700B20FFF7C6F9DFF865
:100FC000DC1D08700B20FFF7C0F980B2000ADFF8C3
:100FD000D01D0870DFF8B80D0088B0F57A7F03DB0C
:100FE0000120DFF8AC1D0880FFF754FC00224FF40D
:100FF0000071DFF8B00D03F00DFB01220121DFF8D5
:10100000A40D03F007FB00220421DFF89C0D03F080
:1010100001FB03F0DBFB04F0A9FA47F23050DFF8E4
:10102000441E08800320DFF8681DC8710020DFF827
:10103000601D88700020DFF8581D48710020DFF81F
:10104000501D08720020DFF8481D88710120DFF86C
:10105000401DC8700020DFF8381D08710020DFF83F
:10106000081E08700120DFF8001E48700A20DFF813
:10107000F81D88700020DFF8F01DC8700020DFF830
:10108000E81D08710020DFF8E01D08720020DFF87D
:10109000D81DC8710020DFF8D01D8871DFF8CC0D95
:1010A000FFF7CBF81020DFF8C81D0870DFF8EC0C54
:1010B0000078002804D0DFF8E40C0078FF2806D17F
:1010C000DFF8D00C0078DFF8A81D487005E0DFF8E5
:1010D000C80C0078DFF8981D4870022010905E2040
:1010E0000F90DFF8901D84B068464C2202F046FB5A
:1010F0000FBCFFF700FC0C20FFF727F9DFF8681D95
:1011000048700C20FFF721F980B2000ADFF8581D63
:101110008870DFF8540D8078FF2803D10020DFF8B5
:10112000481D8870DFF8400D40780A2871D0DFF83C
:10113000380D40780B286CDA1020DFF83C1D087061
:10114000DFF8240D4078002803D11120DFF8281D96
:101150004870DFF8140D4078012803D10D20DFF826
:10116000181D4870DFF8000D4078022803D10A20CE
:10117000DFF8041D4870DFF8F00C4078032803D135
:101180000920DFF8F41C4870DFF8DC0C40780428F4
:1011900003D10820DFF8E01C4870DFF8CC0C407861
:1011A000052803D10720DFF8D01C4870DFF8B80C01
:1011B0004078062803D10620DFF8BC1C4870DFF811
:1011C000A80C4078072803D10520DFF8AC1C487034
:1011D000DFF8940C4078082803D10420DFF8981C2D
:1011E0004870DFF8840C4078092803D10320DFF829
:1011F000881C48700220109058200F90DFF8741C53
:1012000084B068464C2202F0B9FA0FBCFFF78FFB9E
:1012100003E00020DFF8501C4870DFF8840B0078F2
:10122000002803D10020DFF8401C4871DFF8700B64
:101230000078012807D10120DFF82C1C487101201B
:10124000DFF8381C08700024B7E10020DFF8301CFC
:101250000870DFF8300C0078082813D1DFF8080C8C
:10126000007A002803D10220DFF8FC1B0872DFF8A7
:10127000F80B007A401EDFF8F01B08720120DFF83F
:10128000081C0870DFF8F80B007801284AD1DFF855
:10129000FC0B0078022845D00020DFF8E81A08602F
:1012A0000020DFF8E41A08600621DFF8D80A006899
:1012B000000C80B2FFF738F80721DFF8C80A006891
:1012C00080B2FFF731F80020DFF8B41B087000206F
:1012D000DFF8B81A08700821DFF8B00A007880B289
:1012E000FFF722F80020DFF8801BC8710020DFF82C
:1012F000A01A48710020DFF8981B88700020DFF8E2
:10130000901B48700020DFF8881B08700020DFF871
:10131000841B88700020DFF87C1B48700020DFF8F9
:10132000741BC870DFF8600B0078012846D1DFF825
:101330005C0B0078022841D01020DFF8341B0870C5
:10134000DFF8240B007A002810D1DFF8480A007873
:10135000DFF81C1B48700020DFF8401A08700B21D2
:10136000DFF8380A007880B2FEF7DEFFDFF8F80A0F
:10137000007A012810D1DFF8200A0078DFF8F01A8F
:1013800048700120DFF8141A08700B21DFF80C0AEE
:10139000007880B2FEF7C8FF022010905E200F9008
:1013A000DFF8D01A84B068464C2202F0E7F90FBC8F
:1013B000FFF7A1FA0020DFF8D01A0870DFF8D80A8A
:1013C0000078012840F0F980DFF8C00A0078022890
:1013D00000F0F380DFF8900A407800280ED1112049
:1013E000DFF8941A48700020DFF8B01A08700C215A
:1013F000DFF8740A407880B2FEF796FFDFF8680ADB
:10140000407801280ED10D20DFF86C1A48700020BA
:10141000DFF8881A08700C21DFF84C0A407880B297
:10142000FEF782FFDFF8400A407802280ED10A203A
:10143000DFF8441A48700020DFF8601A08700C21A9
:10144000DFF8240A407880B2FEF76EFFDFF8180A52
:10145000407803280ED10920DFF81C1A48700020BC
:10146000DFF8381A08700C21DFF8FC09407880B2E8
:10147000FEF75AFFDFF8F009407804280ED1082063
:10148000DFF8F41948700020DFF8101A08700C21FA
:10149000DFF8D409407880B2FEF746FFDFF8C809CC
:1014A000407805280ED10720DFF8CC1948700020BD
:1014B000DFF8E81908700C21DFF8AC09407880B239
:1014C000FEF732FFDFF8A009407806280ED106208B
:1014D000DFF8A41948700020DFF8C01908700C214B
:1014E000DFF88409407880B2FEF71EFFDFF8780944
:1014F000407807280ED10520DFF87C1948700020BD
:10150000DFF8981908700C21DFF85C09407880B288
:10151000FEF70AFFDFF85009407808280ED10420B2
:10152000DFF8541948700020DFF8701908700C219A
:10153000DFF83409407880B2FEF7F6FEDFF82809BC
:10154000407809280ED10320DFF82C1948700020BC
:10155000DFF8481908700C21DFF80C09407880B2D8
:10156000FEF7E2FEDFF8000940780A280AD10120E0
:10157000DFF8281908700C21DFF8EC08407880B2F9
:10158000FEF7D2FEDFF814090078002811D11020F0
:10159000DFF8E41808700220109058200F90DFF850
:1015A000D41884B068464C2202F0E8F80FBCFFF76C
:1015B000BEF90020DFF8E0180870641CB4F57A7FEB
:1015C00002D30024FFF7AAFADFF8D4080078012834
:1015D00008D1DFF8B8080078032803D10020DFF82D
:1015E000AC180870DFF8BC080088002812D100226F
:1015F000DFF8B418DFF8B40801F0DFFC0022DFF8F0
:10160000B018DFF8A80801F08CFD42F21070DFF886
:1016100094180880DFF89C080078012840F0B68212
:10162000DFF8940880792C2840F01682DFF88808CB
:10163000C0792C2800F01082DFF87C08807C4128DB
:1016400040F00A820020DFF874180870DFF868089C
:101650000078DFF86C180870DFF85C084078DFF875
:1016600060184870DFF850088078DFF854188870E8
:10167000DFF84408C078DFF84818C870DFF8380889
:101680000079DFF83C180871DFF82C084079DFF8A2
:1016900030184871DFF820088079DFF82418887145
:1016A000DFF81408C079DFF81818C871DFF80808E7
:1016B000007ADFF80C180872DFF8FC07407ADFF8D0
:1016C00000184872DFF8F007807ADFF8F4178872A4
:1016D000DFF8E407C07ADFF8E817C872DFF8D80748
:1016E000007BDFF8DC170873DFF8CC07407BDFF8FE
:1016F000D0174873DFF8C007807BDFF8C417887302
:10170000DFF8B407C07BDFF8B817C873DFF8A807A5
:10171000007CDFF8AC170874DFF89C07407CDFF82A
:10172000A0174874DFF89007807CDFF8941788745E
:10173000DFF88407C07CDFF88817C874DFF8780703
:10174000007DDFF87C170875DFF86C07407DDFF857
:1017500070174875DFF86007807DDFF864178875BB
:10176000002015E0DFF85017C0B2095C2C290ED11B
:10177000DFF8BC1D0978491CDFF8B42D1170DFF8C3
:10178000B01D0978092902D1DFF8A81D0870401C96
:10179000C0B23C28E6DB0020DFF8941D0870DFF8BB
:1017A0001807007D0A21DFF81027527D01FB002079
:1017B0001038DFF8841D0870DFF8FC06807D642196
:1017C00010FB01F0DFF8F016C97D0A2211FB0200C0
:1017D000DFF8E416497E401841F2D041401ADFF8A4
:1017E000581D4880DFF8D006807FDFF84C1D087157
:1017F000DFF8C40690F82000642110FB01F0DFF848
:10180000B81691F821100A2211FB0200DFF8A81681
:1018100091F82210401841F2D041401ADFF8181D0B
:10182000C880DFF8940690F82300642110FB01F0D3
:10183000DFF8841691F824100A2211FB0200DFF869
:10184000781691F82610401841F2D041401ADFF87E
:10185000E81C0881DFF8600690F82B00DFF8D81C40
:101860008872DFF85406C0790A21DFF84C26127A14
:1018700001FB00201038DFF8C01CC872DFF8380602
:10188000407A0A21DFF83026927A01FB00201038D6
:10189000DFF8A41C0873DFF82006C07A0A21DFF8FD
:1018A0001826127B01FB00201038DFF88C1C4873CF
:1018B000DFF80406807B642110FB01F0DFF8F815E7
:1018C000C97B0A2211FB0200DFF8EC15097C4018E5
:1018D00041F2D041401ADFF8601CC881DFF8D8051A
:1018E00090F837002C282DD1DFF8CC0590F838007F
:1018F0000A21DFF8C42592F8392001FB00201038B6
:10190000DFF8341C0874DFF8B00590F83A000A21BB
:10191000DFF8A42592F83B2001FB00201038DFF807
:10192000181C4874DFF8900590F83C000A21DFF895
:10193000882592F83D2001FB00201038DFF8F81BC5
:1019400088743EE0DFF87005DFF8E81B097808448A
:1019500040780A21DFF86025DFF8D83B1B781A446D
:10196000927801FB00201038DFF8CC1B0874DFF8F8
:101970004805DFF8C01B09780844C0780A21DFF861
:101980003825DFF8B03B1B781A44127901FB0020A0
:101990001038DFF8A41B4874DFF81C05DFF8941B2F
:1019A0000978084440790A21DFF80C25DFF8843BE8
:1019B0001B781A44927901FB00201038DFF8781B5D
:1019C0008874DFF8740B007CDFF8241C8870DFF863
:1019D000680B407CDFF8181C4870DFF85C0B807CDB
:1019E000DFF80C1CC8700022DFF8041CDFF8BC0410
:1019F00001F012FBDFF8400BC07ADFF8F81B08702B
:101A0000DFF8340B007BDFF8EC1B4870DFF8280BA5
:101A1000407BDFF8E01B88700022DFF8D81BDFF87E
:101A20008C0401F038FA0120D9494872DFF8C80B5C
:101A30000078401CDFF8C01B0870DFF8BC0B007892
:101A40000328C0F2A0800020DFF8AC1B0870012042
:101A5000DFF8A81B087096E0DFF85C0480792C287A
:101A600040F08E80DFF85004C0792C2800F0888088
:101A7000DFF84404807C562840F082800120DFF8A3
:101A80003C140870DFF830040078DFF83414087074
:101A9000DFF824044078DFF828144870DFF81804D1
:101AA0008078DFF81C148870DFF80C04C078DFF849
:101AB0001014C870DFF800040079DFF8041408710E
:101AC000DFF8F4034079DFF8F8134871DFF8E80332
:101AD0008079DFF8EC138871DFF8DC03C079DFF878
:101AE000E013C871DFF8D003007ADFF8D41308726E
:101AF000DFF8C403407ADFF8C8134872DFF8B80390
:101B0000807ADFF8BC138872DFF8AC03C07ADFF8A4
:101B1000B013C872DFF8A003007BDFF8A4130873CA
:101B2000DFF89403407BDFF898134873DFF88803ED
:101B3000807BDFF88C138873DFF87C03C07BDFF8D1
:101B40008013C873DC48007CDFF874130874DA482B
:101B5000407CDB494874D848807CD9498874D64891
:101B6000C07CD749C874D448007DD5490875D2488F
:101B7000407DD3494875D048807DD149887502E0C1
:101B80000220CE4908700020CA490870DFF8D00C46
:101B90000078002859D1B4484079012855D1BB4874
:101BA0000078022851D0DFF8BC0C0078002820D142
:101BB00001224FF400717B4802F02CFDDFF8A80CE5
:101BC0000078002808D144F62060DFF8A01C0880C7
:101BD0000120DFF8941C0870DFF8900C00880028C2
:101BE00007D10120DFF87C1C08700020DFF8781C8A
:101BF0000870DFF8700C0078012826D100224FF41D
:101C00000071684802F006FD0120DFF8541C0870DE
:101C1000C82002F0D7FB0422DFF8541CDFF8F40CD4
:101C200001F018FE47F23050DFF8EC1C086001228A
:101C3000DFF8401CDFF8DC0C01F045FE03205449BE
:101C400048720320DFF8D41C0870DFF8140C007809
:101C5000012840D18448407900283CD18B48007845
:101C6000022838D0DFF8FC0B0078012820D10122AF
:101C70004FF400714B4802F0CDFCDFF8EC0B00781C
:101C8000002808D14FF4FA50DFF8E01B088001204B
:101C9000DFF8D41B0870DFF8D40B0088002807D1C8
:101CA0000020DFF8C01B08700020DFF8BC1B0870A4
:101CB000DFF8B00B007800280DD100224FF400713E
:101CC000384802F0A7FC0020DFF8941B08700020C1
:101CD000DFF84C1C0860DFF8400C0068002840F07A
:101CE000908061484079012840F08B80DFF8700BCC
:101CF0000078012840F0858064480078022800F0D0
:101D00008080DFF81C0C006800287AD1DFF80C0C0A
:101D1000007803280ED1DFF8040C0078401EDFF8AD
:101D2000FC1B08700B22DFF8FC1BDFF8E80B01F04E
:101D300091FD61E0DFF8E40B007802280ED1DFF8B6
:101D4000DC0B0078401EDFF8D41B08700C22DFF893
:101D5000D81BDFF8C00B01F07DFD4DE0DFF8BC0BB8
:101D60000078012822D1DFF8B40B0078401EDFF89C
:101D7000AC1B08700D22DFF8B41BDFF8980B01F0E4
:101D800069FD39E0182B00201C2B00208F2B002030
:101D9000DC2A00204507002046070020662B002093
:101DA0008B2B00200004004800080048DFF86C0B73
:101DB0000078002820D1DFF844080078002806D1F8
:101DC0001722DFF8A81CDFF84C0B01F043FDDFF809
:101DD0002C08007801280FD10D22DFF8941CDFF8C1
:101DE000340B01F037FDDFF88C0CDFF8341B086092
:101DF0000020DFF80818087043F69820DFF8181B59
:101E00000860DFF8740C0078012867D1DFF86C0CEB
:101E10000078012862D10020DFF85C1C08700020E7
:101E2000DFF8581C0870DFF8580C0079002849D1F9
:101E30001A480078012801D1FEF796FD0120DFF84D
:101E4000441C087047F23150DFF83C1C0880012028
:101E5000DFF82C1C0871DFF8340CDFF8341C086044
:101E60003CE000BF42070020E82A002000000450A8
:101E7000002B002018280020C42A0020872B0020D7
:101E8000862B00206B2B0020892B00204807002088
:101E90009C2A0020102B00208A2B0020922B00204F
:101EA000A02B00203C070020882A0020182A0020B0
:101EB0000C2B0020952B0020B42700206F2B002036
:101EC0005C2A00200020DFF8CC1B08700020DFF81F
:101ED000B41B08700020DFF8A81B0871DFF8980B0E
:101EE0000078012823D1DFF8B00B007800281ED13C
:101EF0000020DFF8841B0870DFF8A00B00780328AF
:101F000003D10020DFF8941B0870DFF8900B0078F5
:101F1000012803D10320DFF8841B0870DFF87C0B55
:101F20000078022803D10120DFF8701B0870DFF869
:101F30004C0B007801281AD1DFF8640B00780028D8
:101F400015D10020DFF8341B0870DFF8500B007843
:101F5000012803D10220DFF8441B0870DFF83C0B96
:101F60000078032803D10120DFF8301B0870DFF868
:101F7000080D0078012810D1DFF8000D0078012845
:101F80000BD10020DFF8F81A48710020DFF8E81CB8
:101F900008700020DFF8E41C0870DFF8E00C00781F
:101FA000012840F06C810020DFF8D41A487100202D
:101FB000DFF8C81C0870DFF8C80C0078401CDFF898
:101FC000C01C0870DFF8B80C0078022803DB002082
:101FD000DFF8AC1C0870DFF8A80C0078002808D1E6
:101FE000DFF8B80A0078002803D10320DFF8AC1A24
:101FF0000870DFF88C0C0078012808D1DFF89C0A03
:102000000078032803D10020DFF8901A0870DFF869
:102010008C0A007801280FD1DFF8680C0078401C8A
:10202000DFF8601C0870DFF85C0C0078092803DB1F
:102030000020DFF8501C0870DFF8600A00780228E2
:1020400040F01D81DFF83C0C007800280FD1DFF84C
:10205000380C0078401CDFF8301C0870DFF8280CC2
:102060000078032803DB0020DFF81C1C0870DFF871
:10207000140C0078012813D1DFF80C0C4078401CB8
:10208000DFF8041C4870DFF8000C40780B2803DBF5
:102090000020DFF8F41B48700120DFF8F01B087007
:1020A000DFF8E00B007802280FD1DFF8DC0B807836
:1020B000401CDFF8D41B8870DFF8CC0B80780B282D
:1020C00003DB0020DFF8C01B8870DFF8B80B007856
:1020D00003280FD1DFF8B00BC078401CDFF8A81B35
:1020E000C870DFF8A40BC078032803DB0020DFF8FA
:1020F000981BC870DFF88C0B007804282AD1DFF811
:10210000880B0079401CDFF8801B0871DFF8780B22
:102110000079022803DB0020DFF86C1B0871DFF870
:10212000680B0079002803D10020DFF854190872E9
:10213000DFF8540B007901280CD1DFF8540B00783C
:10214000002803D10120DFF8381908720120DFF8D8
:10215000401B0870DFF82C0B007805283ED1DFF813
:10216000280B4079401CDFF8201B4871DFF8180B62
:102170004079022803DB0020DFF80C1B48710020A7
:10218000DFF8040B4079002810D10020DFF8F018A8
:1021900048720120DFF8FC1A08700B20FEF7D5F812
:1021A00000F0FF000B2180B2FEF7BEF8DFF8D80A7E
:1021B0004079012812D10120DFF8C41848720120AB
:1021C000DFF8D41A08700B20FEF7BFF800F0FF000C
:1021D00050F480700B2180B2FEF7A6F8DFF8A40A55
:1021E000007806280FD1DFF8A00A8079401CDFF8BC
:1021F000981A8871DFF8900A8079022803DB0020A2
:10220000DFF8841A8871DFF87C0A007807281DD16E
:10221000DFF8740AC079401CDFF86C1AC871DFF867
:10222000680AC079022803DB0020DFF85C1AC87155
:10223000DFF8540AC079012804D10120DFF85C1AC4
:10224000087003E00020DFF8541A0870DFF8340A41
:102250000078082813D1DFF8300A007A401CDFF834
:10226000281A0872DFF8200A007A022803DB00200F
:10227000DFF8141A08720120DFF8241A0870DFF85A
:10228000F809007801287EF4FDAF0020DFF8F01790
:1022900048710020DFF8E0190870DFF8E4090078E1
:1022A000401CDFF8DC190870DFF8D4090078022838
:1022B00003DB0020DFF8C8190870DFF8C4090078D4
:1022C000002808D1DFF8D4070078002803D10320C4
:1022D000DFF8C8170870DFF8A8090078012808D1CE
:1022E000DFF8B8070078032803D10020DFF8AC1727
:1022F0000870DFF8A807007801280FD1DFF88409FB
:102300000078002803D10920DFF878190870DFF879
:1023100074090078401EDFF86C190870DFF87C073C
:10232000007802287EF4AEAFDFF858090078002864
:102330000FD1DFF854090078002803D10320DFF81B
:1023400048190870DFF840090078401EDFF8381996
:102350000870DFF830090078012813D1DFF8280968
:102360004078002803D10B20DFF81C194870DFF8F3
:1023700018094078401EDFF8101948700120DFF876
:102380000C190870DFF8FC08007802280FD1DFF87C
:10239000F8088078002803D10B20DFF8EC1888704B
:1023A000DFF8E4088078401EDFF8DC188870DFF87A
:1023B000D408007803280FD1DFF8CC08C0780028B3
:1023C00003D10320DFF8C018C870DFF8BC08C0785C
:1023D000401EDFF8B418C870DFF8A8080078042899
:1023E0002AD1DFF8A4080079002803D10220DFF801
:1023F00098180871DFF890080079401EDFF88818F7
:102400000871DFF884080079002803D10020DFF884
:1024100070160872DFF87008007901280CD1DFF817
:1024200070080078002803D10120DFF854160872E4
:102430000120DFF85C180870DFF8480800780528EC
:102440003ED1DFF844084079002803D10220DFF8AC
:1024500038184871DFF830084079401EDFF8281836
:1024600048710020DFF820084079002810D10020B2
:10247000DFF80C1648720120DFF8181808700B20DE
:10248000FDF763FF00F0FF000B2180B2FDF74CFF6A
:10249000DFF8F4074079012812D10120DFF8E015B8
:1024A00048720B20FDF751FF00F0FF0050F48070E0
:1024B0000B2180B2FDF738FF0120DFF8DC17087030
:1024C000DFF8C007007806280FD1DFF8BC07807955
:1024D000002803D10220DFF8B0178871DFF8A807C1
:1024E0008079401EDFF8A0178871DFF89807007820
:1024F00007287EF4AEAEDFF89007C079002803D13C
:102500000220DFF88417C871DFF87C07C079401E0D
:10251000DFF87417C871DFF87007C07901287EF4FE
:1025200094AE0120DFF874170870FEF792BE000029
:102530006D2B00206E2B0020742A002000B5B9B04E
:1025400005A8442103F0ECF86846142103F0E8F8EC
:1025500016A8882103F0E4F81420059005200790C0
:1025600001200B90B0200D9000200F9000201090C3
:1025700005A803F0D9F8002805D00120DFF82417BA
:10258000087000F0B7FB0F200090002001900020A1
:10259000029000200390002004900221684603F07E
:1025A000E0FB002801D000F0A5FBDFF8FC06169048
:1025B000042025904FF480502A905FF040503490D2
:1025C0004FF4807037905FF04060319016A803F0B0
:1025D000ABFD002801D000F08DFB4FF4007004F03B
:1025E00063F9002801D000F085FB39B000BD000080
:1025F000142B0020B02A0020692B0020682B00201B
:1026000000B589B006A80021002200230EC00C38B6
:102610006846DFF8981691EC060B80EC060BDFF8A5
:102620009006DFF8901608605FF40020DFF884164B
:1026300048600020DFF87C1688600020DFF8741600
:10264000C8600120DFF86C1608610420DFF864160A
:1026500048610020DFF85C1688610020DFF854161E
:10266000C8610220DFF84C1608620020DFF844162B
:1026700048620120DFF83C16C8620020DFF83416FB
:1026800008630020DFF82C1648630020DFF82416CA
:1026900088630020DFF81C16C863DFF8180604F012
:1026A00063F9002801D000F025FB0020069006A960
:1026B000DFF8000604F040FD002801D000F01AFB0E
:1026C000012000900120019005200290002003903D
:1026D00000200490002005906946DFF8D80504F03A
:1026E000BDFA002801D000F005FB02200090022076
:1026F00001906946DFF8BC0504F0B0FA002801D06B
:1027000000F0F8FA7F21DFF8A805FDF788FD00E06A
:1027100000BFDFF89C05FDF78DFD0028F8D1DFF83C
:102720009005FDF774FD09B000BD80B5DFF88805A0
:10273000DFF888150860DFF88805DFF88015486045
:102740000020DFF8781588600120DFF87015C86078
:102750000020DFF8681508610020DFF86015486187
:102760000020DFF8581588610020DFF85015C86197
:102770000020DFF848150862DFF8400500F0E2FDB0
:10278000002801D000F0B6FA0021DFF8300504F08F
:102790006DFD002801D000F0ADFA0021DFF81C0526
:1027A00004F095FD002801D000F0A4FA01BD00B5A9
:1027B0008BB06846282102F0B3FFDFF80805DFF888
:1027C000081508600020DFF8001548607F20DFF85A
:1027D000F8148860FF20DFF8F014C8600020DFF8EC
:1027E000E81408610020DFF8E01448610020DFF8F9
:1027F000D81488610020DFF8D014C861DFF8C8045D
:1028000000F0DAFA002801D000F074FA01200090FC
:1028100000200290002003900020049000200590EA
:10282000002006900020079000200890802009904A
:102830006946DFF8940404F079FD002801D000F027
:1028400059FADFF8840404F0E7FD002801D000F015
:1028500051FADFF8740404F01BFE0BB000BD000059
:10286000962B0020972B0020982B0020382B00203F
:1028700088C20008D02A002080B5DFF85004006824
:1028800050F40030DFF844140860DFF840040068BA
:1028900010F4003000900098DFF834041D490860FF
:1028A0004FF416501B49486000201A4988600020E8
:1028B0001849C8600020174908610C201549486173
:1028C0000020144988614FF400401249C8614FF458
:1028D00000601049086208200E4948624FF4004029
:1028E0000C4948630B4800F075FF002801D000F048
:1028F00001FA00220021262004F056FE262004F0D2
:1029000064FE04480068006850F00100014909684D
:10291000086001BDD4260020042B002047070020BA
:10292000FC2A002058C20008B8C10008C8C100082D
:1029300000B587B05FF02040DFF898130860DFF83B
:102940009803DFF8901348600020DFF88813886050
:102950000020DFF88013C8600020DFF878130861DA
:102960000020DFF8701348610020DA4988610020F8
:10297000D849C8610020D74908624FF48050D54932
:1029800048620020D34988620020D249C8620020F2
:10299000D04908630020CF4948630020CD498863AF
:1029A0000020CC4908640F2000900F200190FF20E8
:1029B00002900F2003901020049011200590002019
:1029C000069000226946C34800F096F9002801D01D
:1029D00000F090F95FF02040C0490860BE48BF4950
:1029E00048600220BD4988600020BC49C8600020C2
:1029F000BA4908611020B94948610020B749886187
:102A00000020B649C8610020B44908624FF48050E4
:102A1000B24948620020B14988620020AF49C862CB
:102A20000020AE4908630020AC4948630020AB4950
:102A300088630020A94908640F2000900F200190AE
:102A4000C82002900F2003901020049011200590C0
:102A50000020069000226946A04800F04DF90028A9
:102A600001D000F047F907B000BD000064BF0008C6
:102A7000D8C10008804F12007B2B00207F2B002044
:102A8000DC2A00206C2B00203A2B0020109802003A
:102A9000302B0020672B0020812B002048070020CE
:102AA0007D2B002000B587B001A8142102F038FE6C
:102AB0008B48006850F00400894908608848006825
:102AC00010F00400009000988548006850F0200045
:102AD000834908608248006810F020000090009848
:102AE0007F48006850F080007D4908607C4800689D
:102AF00010F08000009000987948006850F00100C4
:102B0000774908607648006810F00100009000984E
:102B10007348006850F0020071490860704800680E
:102B200010F00200009000986D48006850F04000DE
:102B30006B4908606A48006810F0400000900098F7
:102B40006748006850F010006549086064480068F4
:102B500010F01000009000986148006850F00800E4
:102B60005F4908605E48006810F008000090009817
:102B700003F0E7FE00221C215A4801F04BFD002221
:102B800030215FF0904001F045FD002242F2032128
:102B9000554801F03FFD1C200190012002900020CB
:102BA00003900020049001A94E4801F03FFC4FF42F
:102BB000FE5001900020029002200390002004901B
:102BC00001A9484801F032FC4FF47C6001900020DC
:102BD0000290022003900020049001A9434801F0D4
:102BE00025FC4FF6C0500190002002900220039077
:102BF0000020049001A93E4801F018FC302001900B
:102C000001200290002003900020049001A95FF0B1
:102C1000904001F00BFC2020019000200290002049
:102C2000039001A92F4801F001FC42F2012001901C
:102C300001200290002003900020049001A92A485E
:102C400001F0F4FB0220019000200290002003908C
:102C50000020049001A9244801F0E8FB4FF4E05063
:102C60000190002002900120039001A91E4801F06C
:102C7000DDFB07B000BD00007C2B0020802B002076
:102C8000A02B00206B2B0020E82A00208A2B00209C
:102C9000882B0020612B0020872B0020862B002012
:102CA000892B0020622B0020426002007CBF0008BC
:102CB000000004504C270020005400401828002039
:102CC000D38D801000280040182A002058100240A0
:102CD0000044004064280020040100A0B028002027
:102CE0004C1002400008004800040048001400484E
:102CF000001800487047000070B504000D00160071
:102D0000002C01D1012024E094F84500002805D1D1
:102D1000002084F84400200004F0A4FD14F1080110
:102D2000206804F0C3FDA2682900206804F01FFE9B
:102D3000E36AA2683100606804F06EFE2068A16852
:102D400050F8210050F001002168A26841F82200EB
:102D5000002070BD10B5040094F84400012801D192
:102D600002200DE0012084F84400A168206804F0EE
:102D700080FE012084F84500002084F844000020F3
:102D800010BD10B5040094F84400012801D10220C0
:102D900010E0012084F84400022084F84500A16876
:102DA000206804F06EFE042084F84500002084F8BA
:102DB0004400002010BD000010B50400002C01D11B
:102DC000012067E094F82100002805D1002084F854
:102DD0002000200004F08FFC022084F82100CA208B
:102DE00021684862532021684862200000F0DFF922
:102DF000002807D0FF2021684862042084F82100C1
:102E0000012047E020688068DFF8601308402168EF
:102E1000886020688068616822691143A269114353
:102E2000084321688860E0682168086120680069BB
:102E3000A16850EA0140216808612068C0687FF0FD
:102E4000800108402168C8602068806880060CD432
:102E5000200000F091F9002807D0FF202168486287
:102E6000042084F82100012014E02068C06C800850
:102E700080002168C8642068C06CE1696269114300
:102E800008432168C864FF2021684862012084F853
:102E90002100002010BDF8B504000D00002694F8B4
:102EA0002000012801D1022086E0012084F82000C2
:102EB000022084F82100002A1BD120688068400687
:102EC00001D40020E870287800F08DF906006878B9
:102ED00000F089F90700A87800F085F9F6B2FFB292
:102EE000390251EA0641C0B20843E97850EA014686
:102EF00014E020688068400604D5287800F07EF948
:102F0000060001E00020E87028786978090251EA9B
:102F10000040A9780843E97850EA0146CA202168B0
:102F20004862532021684862200000F040F90028E0
:102F30000AD0FF2021684862042084F82100002084
:102F400084F82000012037E0DFF8240230402168B7
:102F500008602068806830F48020216888602068DC
:102F60008068E9682A6911430843216888602068FD
:102F7000C0687FF0800108402168C86020688068D0
:102F800080060FD4200000F0F7F800280AD0FF20B8
:102F900021684862042084F82100002084F8200081
:102FA000012009E0FF2021684862012084F8210007
:102FB000002084F820000020F2BD10B50C00002194
:102FC0000168896A6160016809694904490CA16066
:102FD00000680068DFF898110140080C10F03F000D
:102FE0002070080A10F07F00607011F07F00A07060
:102FF000080C10F04000E070002A0BD1207800F09F
:10300000FDF82070607800F0F9F86070A07800F0AA
:10301000F5F8A070002010BDF8B504000D000026E2
:1030200094F82000012801D1022079E0012084F8E1
:103030002000022084F82100002A07D16878C00609
:1030400004D5687810F0EF000A306870002A15D1B6
:10305000E87800F0C8F80600687800F0C4F80700C7
:10306000A87800F0C0F8F6B2FFB2390251EA064182
:10307000C0B20843297850EA413611E0687800F080
:10308000BDF80600A87800F0B9F80600E87869787D
:10309000090251EA0040A9780843297850EA4136EC
:1030A000CA2021684862532021684862200000F04D
:1030B0007EF800280AD0FF2021684862042084F8A6
:1030C0002100002084F82000012029E0DFF8A4007E
:1030D0003040216848602068C0687FF08001084067
:1030E0002168C8602068806880060FD4200000F046
:1030F00043F800280AD0FF2021684862042084F8A1
:103100002100002084F82000012009E0FF20216830
:103110004862012084F82100002084F8200000206B
:10312000F2BD10B50C00002100684068DFF84410C3
:103130000140080CE070080A10F01F00607011F0E8
:103140003F00A070480B10F007002070002A0BD140
:10315000E07800F053F8E070607800F04FF86070AD
:10316000A07800F04BF8A070002010BDBFFF8FFFCB
:103170007F7F7F003FFFFF0038B5040000252068F7
:10318000C0687FF0A00108402168C86001F017F90D
:1031900005002068C068800607D401F010F9401BC4
:1031A000B0F57A7FF5D9032000E0002032BD38B5B4
:1031B000040000252068C068400612D45FF0FF308C
:1031C0002168C86001F0FBF805002068C06840066F
:1031D00007D401F0F4F8401BB0F57A7FF5D903204D
:1031E00000E0002032BD002101E0491C0A38C0B2D5
:1031F0000A28FADA50EA0110C0B270470021010033
:10320000C9B20909C9B20A225143C0B210F00F0075
:103210004018C0B27047000081627047C1627047B9
:1032200001637047416951F001014161704700211C
:103230000180002141605FF0FF3181600021C160A9
:1032400000210174704738B504000D00002020688B
:10325000DFF8D0108C4212D0B4F1804F0FD0DFF8DD
:10326000C8108C420BD0DFF8C4108C4207D0DFF8B6
:10327000C0108C4203D0DFF8BC108C4204D17FF028
:103280007001084069680843DFF898108C421ED02E
:10329000B4F1804F1BD0DFF890108C4217D0DFF8CC
:1032A0008C108C4213D0DFF888108C420FD0DFF8DE
:1032B00084108C420BD0DFF880108C4207D0DFF8EE
:1032C0007C108C4203D0DFF878108C4203D130F4AC
:1032D0004070E96808432060A9682000FFF79EFF5E
:1032E00029882000FFF798FFDFF8380084420FD0CC
:1032F000DFF8400084420BD0DFF83C00844207D066
:10330000DFF83800844203D0DFF83400844203D170
:10331000297C2000FFF784FF2000FFF783FF0120B6
:1033200032BD0000002C01400004004000080040B5
:10333000000C0040003401400040014000440140C6
:103340000048014010B50400002C01D101205EE0CE
:1033500094F84100002805D1002084F840002000A6
:1033600004F096F9242084F84100206800684008A1
:10337000400021680860606830F070602168086172
:103380002068806830F4004021688860E068012887
:1033900005D1A06850F400402168886004E0A0686E
:1033A00050F4044021688860E068022803D14FF49B
:1033B0000060216848602068406840F0007050F468
:1033C0000040216848602068C06830F400402168EF
:1033D000C860206961690843A16950EA0120216839
:1033E000C860E069216A08432168086020680068B5
:1033F00050F001002168086000206064202084F8FB
:10340000410000202063002084F84200002010BD0D
:103410002DE9F04182B004000D0016001F005FF09E
:10342000000894F84100202840F0B78094F840004C
:10343000012801D10220B1E0012084F8400000F011
:10344000BEFF8046CDF80080192301224FF40041D1
:10345000200000F0BBF8002801D003209EE02120CE
:1034600084F84100102084F8420000206064666205
:10347000678500206063608DFF280FD9FF202085BD
:103480004FF4005000905FF08073228DD2B229007B
:1034900089B2200000F05AF9089E1BE0608D20855B
:1034A0004FF4005000905FF00073228DD2B22900DB
:1034B00089B2200000F04AF9EEE7FF2020850020C5
:1034C00000905FF08073228DD2B2290089B2200073
:1034D00000F03CF9608D00283CD0424631002000CD
:1034E00000F0A0F8002806D0606C042801D101206B
:1034F00054E0032052E0606A411C61620078216858
:103500008862608D401E6085208D401E2085208D44
:103510000028DFD1608D0028DCD0CDF8008033009A
:1035200000228021200000F051F8002801D0032063
:1035300034E0608DFF28C0D8608D20850020009089
:103540005FF00073228DD2B2290089B2200000F012
:10355000FDF8BFE742463100200000F08FF8002858
:1035600006D0606C042801D1012017E0032015E08B
:1035700020202168C86120684068DFF824100840D6
:1035800021684860202084F84100002084F842002F
:10359000002084F84000002000E00220BDE8F68111
:1035A00000E800FE406C704701688969890702D510
:1035B00000210268916201688969C90705D4016820
:1035C000896951F001010068816170472DE9F0417E
:1035D00004000D0016001F00DDF8188020688069C7
:1035E0002840A84201D1012000E00020F6B2B042FC
:1035F00015D117F1010FF1D0002F05D000F0DFFE3B
:10360000B0EB08008742E9D2202084F84100002076
:1036100084F84200002084F84000032000E00020ED
:10362000BDE8F08170B504000D00160020688069C7
:10363000800721D432002900200000F048F800283B
:1036400001D0012019E015F1010FEFD0002D04D0B9
:1036500000F0B5FE801B8542E8D2606C50F020007F
:103660006064202084F84100002084F8420000209B
:1036700084F84000032000E0002070BD70B5040015
:103680000D0016002068806980061ED432002900D3
:10369000200000F01CF8002801D0012016E0002DC9
:1036A00004D000F08CFE801B8542EBD2606C50F0A1
:1036B00020006064202084F84100002084F842004B
:1036C000002084F84000032000E0002070BD70B5A9
:1036D00004000D00160020688069C00634D52068FB
:1036E0008069800614D415F1010FF8D0002D04D0A4
:1036F00000F065FE801B8542F1D2202084F8410055
:10370000002084F84200002084F8400003201CE0E0
:1037100010202168C86120202168C8612000FFF7BF
:1037200043FF20684068134908402168486004202E
:103730006064202084F84100002084F842000020CA
:1037400084F84000012000E0002070BD30B4002467
:1037500004686468084D2C4089B28905890DD2B28D
:1037600051EA02411943029A11430C430068446034
:1037700030BC704700E800FE009800FC103A07D308
:1037800030B4B1E83810103AA0E83810F9D230BCA3
:10379000530724BFB1E80810A0E8081044BF51F84F
:1037A000043B40F8043BD20724BF31F8022B20F839
:1037B000022B44BF0B7803707047083A07D3B1E877
:1037C0000810083A40F8043B40F804CBF7D25307FE
:1037D000E4E7000010B50400002C01D1012038E01E
:1037E000A0690028FFD194F87100002805D10020BD
:1037F00084F87000200003F097FF242084F8710003
:10380000206800684008400021680860200000F03F
:103810008DF9012801D101201BE0606A002802D047
:10382000200000F09BFB2068406830F49040216845
:103830004860206880687FF02A010840216888601D
:103840002068006850F0010021680860200000F046
:10385000F2FB10BD90F87130202B32D1002902D03C
:1038600092B2002A01D101202CE090F87030012B97
:1038700001D1022026E0012380F87030C164A0F855
:103880005020A0F8522000214166002141672121EB
:1038900080F871108168B1F5805F05D10169002958
:1038A00002D13F49416601E03E494166002180F86E
:1038B00070100168096851F0800100680160002003
:1038C00000E00220704790F87230202B66D100296A
:1038D00002D092B2002A01D1012060E090F870304D
:1038E000012B01D102205AE0012380F8703041659C
:1038F000A0F85820A0F85A20002101668168B1F58F
:10390000805F0BD10169002904D140F2FF11A0F8BA
:103910005C101FE0FF21A0F85C101BE0816800290B
:103920000AD10169002903D1FF21A0F85C1011E040
:103930007F21A0F85C100DE08168B1F1805F09D1B2
:103940000169002903D17F21A0F85C1002E03F212A
:10395000A0F85C1000214167222180F872100168F4
:10396000896851F00101026891608168B1F5805F5A
:1039700006D10169002903D1DFF8AC15016602E028
:10398000DFF8A8150166002180F870100168096849
:1039900051F4907100680160002000E0022070473F
:1039A000954100085141000838B504002068C069FD
:1039B000216809682268926810F00F03002B0AD171
:1039C000850608D58D0606D5206E002802D0200079
:1039D000216E8847A7E0002B00F08080D30702D437
:1039E00011F4907F7AD010F00103DBB2002B08D0E5
:1039F000CB0506D5012325682B62636F53F00103C5
:103A0000636783070BD512F00103DBB2002B06D0EE
:103A1000022325682B62636F53F004036367430737
:103A20000BD512F00103DBB2002B06D0042325686E
:103A30002B62636F53F00203636703070DD58B0698
:103A400004D412F00102D2B2002A06D00822236860
:103A50001A62626F52F008026267626F002A3CD0FD
:103A6000800607D5880605D5206E002802D02000E4
:103A7000216E8847606F000703D420688068400685
:103A800026D5200000F046FB2068806840061BD544
:103A9000206880687FF04001084021688860E06EFF
:103AA00000280DD00FF29160E16E8863E06E03F0A4
:103AB000F5FF002811D0E06EE16E896B88470CE0BD
:103AC000200000F032F808E0200000F02EF804E0BA
:103AD000200000F02AF80020606724E0C3020FD520
:103AE00052020DD55FF4801021680862202084F80E
:103AF0007100202084F87200200003F0F9FF12E02A
:103B0000020608D50A0606D5606E002802D02000FD
:103B1000616E884707E0400605D5480603D52000BA
:103B200000F05DFBFFE731BD70477047F8B504005A
:103B30000021102700200026002500202168DFF842
:103B4000F0239142FFD0A1682269114362691143B9
:103B5000E269114322681268DFF8D8331A40114332
:103B6000226811602168496831F44051E2681143CC
:103B700022685160A1692268DFF8B4339A4201D00B
:103B8000226A11432268926832F43062114322683B
:103B900091602168DFF8A023914216D1DFF89C13D1
:103BA000096811F00301002905D0022905D006D3C8
:103BB000032906D007E0012797E0022795E00427B4
:103BC00093E0082791E010278FE02168DFF8702349
:103BD000914217D1DFF86413096811F00C01002934
:103BE00006D0042908D0082904D00C2906D007E003
:103BF00000277AE0022778E0042776E0082774E0BF
:103C0000102772E02168DFF83C23914217D1DFF8DA
:103C10002C13096811F03001002906D0102908D0B2
:103C2000202904D0302906D007E000275DE00227D4
:103C30005BE0042759E0082757E0102755E021688A
:103C4000C14A914216D1BD49096811F0C00100294D
:103C500006D0402908D0802904D0C02906D007E02A
:103C6000002742E0022740E004273EE008273CE02E
:103C700010273AE02168B54A914219D1AF49096845
:103C800011F44071002909D0B1F5807F0AD0B1F557
:103C9000007F05D0B1F5407F06D007E0002724E083
:103CA000022722E0042720E008271EE010271CE05E
:103CB00021689F4A914218D1A049096811F44061D6
:103CC000002909D0B1F5806F0AD0B1F5006F05D099
:103CD000B1F5406F06D007E0002706E0022704E0B8
:103CE000042702E0082700E010272168904A91424B
:103CF00071D1FFB23900002906D0022907D004296A
:103D000007D0082908D00AE002F090F908E09048AE
:103D100006E002F015F903E04FF4004000E0012551
:103D2000002800F0F980616803225143884205D3DE
:103D300061684FF480525143814201D20125EBE08A
:103D4000FFB2002F06D0022F15D0042F20D0082F4D
:103D50002ED035E002F06AF94FF4807162685208A3
:103D60000023E1FB0023100019006268002303F028
:103D7000C1FE060025E0606840080021754A002366
:103D8000801859416268002303F0B4FE060018E071
:103D900002F0D6F802004FF48073606840080021FA
:103DA000E3FB02016268002303F0A4FE060008E0C2
:103DB0006068400810F500006168B0FBF1F600E0B3
:103DC0000125B6F540706449884202D22068C66079
:103DD000A2E00125A0E0E069B0F5004F53D1FFB2A9
:103DE000002F08D0012F11D0022F1AD0042F23D07A
:103DF000082F2CD034E002F019F96168490811EB62
:103E000040006168B0FBF1F6B6B22AE002F019F9A1
:103E10006168490811EB40006168B0FBF1F6B6B289
:103E20001FE06068400800F1F47010F59040616890
:103E3000B0FBF1F6B6B214E002F082F8616849080E
:103E400011EB40006168B0FBF1F6B6B209E06068C2
:103E5000400810F580306168B0FBF1F6B6B200E0C2
:103E60000125B6F110004FF6F071884209D24FF6E5
:103E7000F0703040C6F34201084380B22168C86048
:103E80004AE0012548E0FFB2002F08D0012F10D0F2
:103E9000022F18D0042F21D0082F29D031E002F0B2
:103EA000C5F8616810EB51006168B0FBF1F6B6B27D
:103EB00028E002F0C6F8616810EB51006168B0FBC1
:103EC000F1F6B6B21EE06068400800F5740010F527
:103ED00010506168B0FBF1F6B6B213E002F030F8B2
:103EE000616810EB51006168B0FBF1F6B6B209E011
:103EF0006068400810F500406168B0FBF1F6B6B2AA
:103F000000E00125B6F110004FF6F071884202D2B0
:103F10002068C66000E00125002020660020606661
:103F20002800C0B2F2BD000061420008FF41000855
:103F300000800040F369FFEF003801408810024024
:103F40000044004000480040004C00400050004049
:103F50000024F400000024F400FD0F0090F8241069
:103F6000C90707D50168496831F40031826A1143F5
:103F70000268516090F82410890707D501684968E4
:103F800031F48031C26A11430268516090F8241004
:103F9000490707D50168496831F48021026B114354
:103FA0000268516090F82410090707D50168496834
:103FB00031F40041426B11430268516090F82410C3
:103FC000C90607D50168896831F48051826B1143B5
:103FD0000268916090F82410890607D50168896805
:103FE00031F40051C26B11430268916090F82410C3
:103FF000490613D50168496831F48011026C1143F8
:1040000002685160016CB1F5801F07D101684968F1
:1040100031F4C001426C11430268516090F82410E1
:10402000090607D50168496831F40021826C114303
:1040300000684160704738B50400002500206067C3
:1040400000F0BDF905002068006800070DD57FF07D
:104050007E4000902B0000225FF40011200000F051
:1040600021F8002801D003201BE0206800684007E9
:104070000DD57FF07E4000902B0000225FF4800180
:10408000200000F00FF8002801D0032009E02020D4
:1040900084F87100202084F87200002084F87000F9
:1040A000002032BD2DE9F04104000D0016001F0074
:1040B000DDF818802068C0692840A84201D101209D
:1040C00000E00020F6B2B04221D118F1010FF1D08A
:1040D000B8F1000F04D000F072F9C01B8045E9D29E
:1040E0002068006830F4D07021680860206880681B
:1040F0004008400021688860202084F8710020205A
:1041000084F87200002084F87000032000E0002092
:10411000BDE8F0810168096831F4907102681160AE
:10412000016889684908490002689160202180F887
:10413000721000210166704780B5806A0021A0F8E6
:104140005A100021A0F85210FFF7EFFC01BD00004B
:1041500090F8711021291CD1B0F8521000290DD10E
:10416000016809687FF080021140026811600168EF
:10417000096851F04001006801600AE0C16C4A1C06
:10418000C264097802681185B0F85210491EA0F87F
:104190005210704790F8711021291FD1B0F85210B9
:1041A00000290DD1016809687FF080021140026882
:1041B00011600168096851F04001006801600DE07C
:1041C000C16C0988C905C90D02681185C16C891CBB
:1041D000C164B0F85210491EA0F85210704780B563
:1041E000016809687FF040021140026811602021D7
:1041F00080F8711000214166FFF796FC01BD10B5F3
:10420000B0F85C1090F87220222A22D10268928CB9
:10421000436D5C1C446511401970B0F85A10491E7A
:10422000A0F85A1089B2002919D10168096831F43F
:104230009071026811600168896849084900026844
:104240009160202180F8721000210166FCF70AFCC1
:1042500005E00168098B51F008010068018310BD79
:1042600080B5B0F85C2090F87210222923D1016843
:104270008B8C416D1A400A80416D891C4165B0F8F4
:104280005A10491EA0F85A1089B2002919D10168A4
:10429000096831F490710268116001688968490801
:1042A000490002689160202180F8721000210166A7
:1042B000FCF7D8FB05E00168098B51F008010068A4
:1042C000018301BD80B5284828490860002228499B
:1042D0002648006803F0ADFD26492448006803F035
:1042E000B1FD002002BD00207047C0B2002810D0F0
:1042F00001280FD002280ED003280DD004280CD09E
:1043000020280BD021280AD0222809D0232808D021
:1043100008E007E006E005E004E003E002E001E079
:1043200000E0FFE70020704710B5040002212000E4
:1043300000F009F821000C4803F084FD0A4803F05E
:10434000A3FD002010BD80B5030000200A0092B23A
:1043500019000648006803F06CFD0448006803F08B
:1043600077FDC0B202BD00001C1F0020342B0020CE
:104370003C290020FC28002080B5032003F010F920
:10438000002000F004F803F039F9002002BD10B558
:104390000400144800684FF47A71B0FBF1F003F0A8
:1043A00019F9002221005FF0FF3003F0FDF8002032
:1043B00010BD0D480068401C0B49086070470A4852
:1043C0000068704738B50400FFF7F9FF050014F1E5
:1043D000010F00D0641CFFF7F2FF401BA042FAD38C
:1043E00031BD0000E4050020202B002080B5002214
:1043F0000A490B4803F064FD0A49094803F078FDB7
:104400000949074803F00CFD054804F044F9002869
:1044100002D0034803F077FD01BD0000080700202B
:104420001C1F0020F4050020F806002078B40022AC
:104430000023002436E0072512F00306F6B2B6008A
:10444000B5402C43DFF8E851960845F82640DFF8E0
:10445000E44124689C434D68ED0300D51C43DFF81C
:10446000D4512C60DFF8D04124689C434D68AD03E3
:1044700000D51C43DFF8C0512C60DFF8C041246830
:104480009C434D68ED0200D51C43DFF8B0512C6011
:104490006B4C24689C434D68AD0200D51C43684BAF
:1044A0001C60521C0B68D340002B00F0B1800B68DD
:1044B000012494402340002BF3D04C68022C02D0FE
:1044C0004C68122C15D1D40800EB8404246A0F2503
:1044D00012F00706F6B2B600B540AC430D6912F013
:1044E0000706F6B2B600B5402C43D50800EB8505AB
:1044F0002C62046803251600F6B27600B540AC4382
:104500000D7915F003051600F6B27600B5402C4380
:1045100004604C68012C08D04C68022C05D04C6813
:10452000112C02D04C68122C17D184680325160078
:10453000F6B27600B540AC43CD681600F6B2760010
:10454000B5402C438460446801259540AC434D68D8
:10455000C5F3001595402C4344600C7914F0030416
:10456000032C09D1C46A01259540AC434D68C5F3BD
:10457000C00595402C43C462C46803251600F6B2FA
:104580007600B540AC438D681600F6B27600B540B3
:104590002C43C4604C68E40083D52A4C246854F052
:1045A0000104284D2C60274C246814F00104009469
:1045B000009C1F4C950854F825400F2512F0030667
:1045C000F6B2B600B540AC43B0F1904F01D1002532
:1045D00032E71D4DA84201D101252DE71B4DA84210
:1045E00001D1022528E71A4DA84201D1032523E76E
:1045F000184DA84201D104251EE7174DA84201D14C
:10460000052519E7154DA8427FF415AF062513E7D8
:1046100071BC7047D2B2002A02D089B2816101E038
:1046200089B281627047426989B2514041617047E5
:104630000800014000040140040401400804014056
:104640000C040140601002400004004800080048CB
:10465000000C0048001000480014004800180048F2
:10466000C0B2102190FBF1F201FB12015FF0C042D9
:104670001170C0B2102190FBF1F010305FF0C0411A
:104680000870704710B5030008000024DFF8C01957
:10469000DBB2052463431944B1F1A00452F0B00128
:1046A0005FF0C042117004215FF0C0421170102110
:1046B0005FF0C0421170C0B2FFF7D2FF002005E0EA
:1046C0002178DFF8982D1170641C401CC0B20528B9
:1046D000F6DB10BD10B5030008000024DBB27A2B16
:1046E00000D15A23DFF86C19DBB205246343194467
:1046F000B1F1A00452F0B0015FF0C042117004218A
:104700005FF0C042117010215FF0C0421170C0B262
:10471000FFF7A6FFFF20DFF8441D0870002006E029
:104720002178C943DFF8342D1170641C401CC0B2DD
:104730000528F5DB10BD70B504000D00042608E067
:104740002A00D2B23100C9B22078FFF7C3FF641C3F
:10475000B61D20780028F3D170BD2DE9F04104008A
:104760000D00160000275FF004080AE02A00D2B20C
:104770004146C9B22078FFF785FF641C7F1C18F101
:104780000608207800280DD038003100C0B2C9B228
:104790008842EBD22A00D2B24146C9B22078FFF754
:1047A00099FFEAE7BDE8F08170B504000D0004262A
:1047B00008E02A00D2B23100C9B22078FFF762FFC8
:1047C000641CB61D20780028F3D170BDAE205FF0C8
:1047D000C041087020205FF0C041087002205FF0E7
:1047E000C0410870B0205FF0C0410870C8205FF081
:1047F000C041087040205FF0C0410870FF205FF0AA
:10480000C041087030205FF0C0410870A1205FF007
:10481000C0410870A6205FF0C0410870A8205FF07A
:10482000C04108701F205FF0C0410870A4205FF0F5
:10483000C0410870D3205FF0C041087000205FF0D5
:10484000C0410870D5205FF0C041087010205FF0B3
:10485000C0410870D9205FF0C041087022205FF08D
:10486000C0410870DA205FF0C041087012205FF08C
:10487000C0410870DB205FF0C041087020205FF06D
:10488000C04108708D205FF0C041087014205FF0B7
:10489000C0410870AF205FF0C04108707047002130
:1048A00004E3DFF8A82CD279002A14D1DFF8B02B6A
:1048B000C9B20A44127CDFF8983CC9B20B4483F8B1
:1048C0007020DFF89C2BC9B2525CDFF8843CC9B27F
:1048D0000B4483F8F020DFF8742CD279012A14D12C
:1048E000DFF8802BC9B20A44127CDFF8643CC9B2FD
:1048F0000B4483F87020DFF86C2BC9B2525CDFF8F0
:10490000503CC9B20B4483F8F020DFF8402CD27938
:10491000022A14D1DFF83C2CC9B20A44127CDFF819
:10492000303CC9B20B4483F87020DFF8282CC9B2A0
:10493000525CDFF81C3CC9B20B4483F8F020DFF86E
:104940000C2CD279032A14D1DFF80C2CC9B20A44FA
:10495000127CDFF8FC3BC9B20B4483F87020DFF80F
:10496000F82BC9B2525CDFF8E83BC9B20B4483F8BC
:10497000F020DFF8E82BD278012A12D1DFF8E02B03
:10498000C9B20A44127CDFF8C83BC9B25A54DFF8F6
:10499000D02BC9B2525CDFF8B83BC9B20B4483F8E4
:1049A0008020DFF8B82BD278022A12D1DFF8B42B9E
:1049B000C9B20A44127CDFF8983BC9B25A54DFF8F6
:1049C000A42BC9B2525CDFF8883BC9B20B4483F810
:1049D0008020DFF8882BD278002A12D1DFF8882BCC
:1049E000C9B20A44127CDFF8683BC9B25A54DFF8F6
:1049F000782BC9B2525CDFF8583BC9B20B4483F83C
:104A00008020DFF8482B5279002A14D1DFF8582B88
:104A1000C9B20A44127CDFF8383BC9B20B4483F8B0
:104A20003020DFF8442BC9B2525CDFF8243BC9B216
:104A30000B4483F8B020DFF8142B5279012A14D1EB
:104A4000DFF8282CC9B20A44127CDFF8043BC9B253
:104A50000B4483F83020DFF8142CC9B2525CDFF825
:104A6000F03AC9B20B4483F8B020DFF8E02A527A5A
:104A7000002A14D1DFF8F02AC9B20A44127CDFF808
:104A8000D03AC9B20B4483F85020DFF8DC2AC9B20F
:104A9000525CDFF8BC3AC9B20B4483F8D020DFF88F
:104AA000AC2A527A022A14D1DFF8C42BC9B20A44C4
:104AB000127CDFF89C3AC9B20B4483F85020DFF82F
:104AC000B02BC9B2525CDFF8883AC9B20B4483F804
:104AD000D020DFF8782A527A012A14D1DFF8942BFB
:104AE000C9B20A44127CDFF8683AC9B20B4483F8B1
:104AF0005020DFF8802BC9B2525CDFF8543AC9B2BB
:104B00000B4483F8D020DFF8442A527A032A2FD1AD
:104B1000C0B2002814D1DFF8502AC9B20A44127C6E
:104B2000DFF82C3AC9B20B4483F85020DFF8382A5A
:104B3000C9B2525CDFF8183AC9B20B4483F8D020EE
:104B4000C0B2012814D1DFF82C2BC9B20A44127C60
:104B5000DFF8FC39C9B20B4483F85020DFF8142B7E
:104B6000C9B2525CDFF8E839C9B20B4483F8D020EF
:104B7000DFF8D829127A002A14D1DFF8EC29C9B25B
:104B80000A44127CDFF8C839C9B20B4483F86020AC
:104B9000DFF8D429C9B2525CDFF8B439C9B20B448A
:104BA00083F8E020DFF8A429127A012A14D1DFF873
:104BB000C82AC9B20A44127CDFF89439C9B20B443E
:104BC00083F86020DFF8B02AC9B2525CDFF8803980
:104BD000C9B20B4483F8E020DFF87029127A022A68
:104BE00014D1DFF8982AC9B20A44127CDFF8603980
:104BF000C9B20B4483F86020DFF8802AC9B2525C46
:104C0000DFF84C39C9B20B4483F8E020DFF83C29C7
:104C1000127A032A14D1DFF8682AC9B20A44127C36
:104C2000DFF82C39C9B20B4483F86020DFF8502A32
:104C3000C9B2525CDFF81839C9B20B4483F8E020DE
:104C4000DFF80829127A042A14D1DFF8382AC9B209
:104C50000A44127CDFF8F838C9B20B4483F86020AC
:104C6000DFF8202AC9B2525CDFF8E438C9B20B443D
:104C700083F8E020DFF8D428127A052A14D1DFF86F
:104C8000082AC9B20A44127CDFF8C438C9B20B44FE
:104C900083F86020DFF8F029C9B2525CDFF8B03841
:104CA000C9B20B4483F8E020DFF8A0289279002AEB
:104CB00014D1DFF8D829C9B20A44127CDFF8903841
:104CC000C9B20B4483F84020DFF8C029C9B2525C56
:104CD000DFF87C38C9B20B4483F8C020DFF86C28B9
:104CE0009279012A14D1DFF8A429C9B20A44127CAE
:104CF000DFF85C38C9B20B4483F84020DFF88C2918
:104D0000C9B2525CDFF84838C9B20B4483F8C020FE
:104D1000DFF838289279022A14D1DFF87429C9B251
:104D20000A44127CDFF82838C9B20B4483F84020CB
:104D3000DFF85C29C9B2525CDFF81438C9B20B4401
:104D400083F8C020DFF804289279032A14D1DFF811
:104D50004029C9B20A44127CDFF8F437C9B20B44C7
:104D600083F84020DFF82829C9B2525CDFF8E03729
:104D7000C9B20B4483F8C020DFF8D0279279042A07
:104D800014D1DFF81029C9B20A44127CDFF8C03709
:104D9000C9B20B4483F84020DFF8F828C9B2525C4E
:104DA000DFF8AC37C9B20B4483F8C020DFF89C278A
:104DB000D278002A13D1DFF8E028C9B20A44127C65
:104DC000DFF88C37C9B20B441A74DFF8CC28C9B2AB
:104DD000525CDFF87C37C9B20B4483F89020DFF8CF
:104DE0006C27D278012A13D1DFF8B028C9B20A445F
:104DF000127CDFF85C37C9B20B441A74DFF89C28C8
:104E0000C9B2525CDFF84837C9B20B4483F890202E
:104E1000DFF83827D278022A13D1DFF88428C9B204
:104E20000A44127CDFF82837C9B20B441A74DFF841
:104E30007028C9B2525CDFF81837C9B20B4483F846
:104E40009020DFF808271279002A14D1DFF85428BF
:104E5000C9B20A44127CDFF8F836C9B20B4483F8B1
:104E60002020DFF84028C9B2525CDFF8E436C9B22E
:104E70000B4483F8A020DFF8D4261279012A14D13C
:104E8000DFF82428C9B20A44127CDFF8C436C9B25C
:104E90000B4483F82020DFF81028C9B2525CDFF8F9
:104EA000B036C9B20B4483F8A020491CC9B21029FE
:104EB000FFF6F7ACB3205FF0C041087004205FF04C
:104EC000C041087010205FF0C0410870002007E06A
:104ED000DFF87C16C0B2095CDFF880251170401C39
:104EE000C0B28028F4DBB2205FF0C041087004201B
:104EF0005FF0C041087010205FF0C04108700020D2
:104F000009E0DFF84C16C0B2014491F88010DFF8D8
:104F10004C251170401CC0B28028F2DB704710B5E0
:104F20000400002000F07CFADFF88027DFF880071B
:104F3000E4B2012C40F08080DFF8101609790129D5
:104F400075D10121FFF730FC022000F069FA03203F
:104F500000F066FA00202EE0DFF8F015497901290B
:104F600011D1DFF80817C0B20144097CDFF84427EB
:104F7000C0B21154DFF8F416C0B2095CDFF8342770
:104F8000C0B202441174DFF8C4154979002911D167
:104F9000DFF8D415C0B20144097CDFF81827C0B28D
:104FA0001154DFF8C415C0B2095CDFF80827C0B29D
:104FB00002441174401CC0B21028CDDBB3205FF056
:104FC000C041087004205FF0C041087010205FF0FD
:104FD000C04108701420FFF743FB002007E0DFF812
:104FE000D416C0B2095CDFF874241170401CC0B242
:104FF0001028F4DBB2205FF0C041087004205FF09D
:10500000C041087010205FF0C04108701420FFF705
:1050100027FB0020C0B2102817DADFF89816C0B2BC
:105020000144097CDFF834241170401CF2E70121AF
:105030001000FFF7B9FB08E0012000F0F1F90220B1
:1050400000F0EEF9032000F0EBF910BD00000000C5
:1050500000000020A404002010B504000020CAE0D5
:105060002021DFF85426C0B2024482F83210DFF863
:10507000EC14C978002909D1DFF84016C0B2095CE8
:10508000DFF83426C0B2024482F84B10DFF8CC14AB
:10509000C978012909D1DFF82816C0B2095CDFF808
:1050A0001826C0B2024482F84B10DFF8B014C97859
:1050B000022909D1DFF80C16C0B2095CDFF8F82527
:1050C000C0B2024482F84B10DFF89014097900292D
:1050D00009D1DFF8F415C0B2095CDFF8DC25C0B2F5
:1050E000024482F86410DFF874140979012909D1A7
:1050F000DFF8D815C0B2095CDFF8BC25C0B20244A5
:1051000082F86410DFF854144979002909D1DFF8D6
:10511000C015C0B2095CDFF8A025C0B2024482F815
:105120007D10DFF838144979012909D1DFF8A41579
:10513000C0B2095CDFF88025C0B2024482F87D105D
:10514000DFF818148979002909D1DFF88C15C0B26D
:10515000095CDFF86425C0B2024482F89610DFF8DB
:10516000FC138979012909D1DFF87015C0B2095CF7
:10517000DFF84425C0B2024482F89610DFF8DC1351
:10518000C979002909D1DFF85815C0B2095CDFF8E8
:105190002825C0B2024482F8AF10DFF8C013C979E5
:1051A000012909D1DFF83C15C0B2095CDFF80825F8
:1051B000C0B2024482F8AF10DFF8A013097A0029C8
:1051C00009D1DFF82415C0B2095CDFF8EC24C0B2C5
:1051D000024482F8C810DFF88413097A012909D142
:1051E000DFF80815C0B2095CDFF8CC24C0B2024475
:1051F00082F8C810401CC0B2152880F28480D749BC
:105200000978002907D1DFF8E814C0B2095CDFF89B
:10521000A824C0B21154D1490978012907D1DFF877
:10522000D414C0B2095CDFF89024C0B21154CB4949
:105230000978022907D1DFF8C014C0B2095CDFF891
:105240007824C0B21154C0B2112809DADFF8AC14C6
:10525000C0B2095CDFF86024C0B20244517623E09A
:10526000BE4949780A290BD1DFF89414C0B2014431
:1052700011F8111CDFF84024C0B20244517613E04B
:10528000C0B211280AD1DFF87C14B44A5278895C84
:10529000DFF82424C0B20244517605E02021DFF873
:1052A0001824C0B202445176C0B211280ADADFF8DD
:1052B0005814C0B2095CDFF80024C0B2024482F87E
:1052C0003210D4E6A54989780A290CD1DFF83014C8
:1052D000C0B2014411F8111CDFF8DC23C0B2024453
:1052E00082F83210C3E6C0B211287FF4B9AEDFF8FD
:1052F00014149A4A9278895CDFF8BC23C0B2024445
:1053000082F83210B3E6E4B2022C0AD10021DFF8B1
:10531000A803DFF8F823127819235A431044FFF743
:105320000AFAE4B2012C0AD10021DFF88C03DFF87D
:10533000DC23127819235A431044FFF735FAE4B2FC
:10534000002C02D1002000F06BF8DFF8C0030078D9
:10535000062820DA0121D848DFF8B0231278192373
:105360005A4310441930FFF71FFA0221D248DFF8E0
:105370009C23127819235A4310443230FFF714FA51
:105380000321CD48DFF88423127819235A431044AF
:105390004B30FFF709FADFF874030078062817D1BD
:1053A0000121C548D94A127819235A4310441930AB
:1053B000FFF7FAF90221C048D44A127819235A4358
:1053C00010443230FFF7F0F90321BB48FFF7ECF946
:1053D000CE480078072811D10121B748CB4A12786E
:1053E00019235A4310441930FFF7DEF90221B2485D
:1053F000FFF7DAF90321C648FFF7D6F9C34800786A
:1054000008280BD10121AC48FFF7CEF90221C04892
:10541000FFF7CAF90321BF48FFF7C6F910BD000026
:1054200050F0B0005FF0C041087004205FF0C04150
:10543000087010205FF0C0410870002005E000BF38
:10544000491CB1F5FA7FFAD3401C80B2802804DAF7
:105450000021024A11700021F3E77047010000604B
:1054600084020020A4020020B0205FF0C041087038
:1054700004205FF0C041087010205FF0C041087048
:10548000002005E000BF491CB1F5FA7FFAD3401CAB
:1054900080B2802804DA00219F4A11700021F3E7CE
:1054A000B1205FF0C041087004205FF0C041087077
:1054B00010205FF0C0410870002005E000BF491CCB
:1054C000B1F5FA7FFAD3401C80B2802804DA0021BB
:1054D000914A11700021F3E7B2205FF0C0410870DB
:1054E00004205FF0C041087010205FF0C0410870D8
:1054F000002005E000BF491CB1F5FA7FFAD3401C3B
:1055000080B2802804DA0021834A11700021F3E779
:10551000B3205FF0C041087004205FF0C041087004
:1055200010205FF0C0410870002005E000BF491C5A
:10553000B1F5FA7FFAD3401C80B2802804DA00214A
:10554000754A11700021F3E770470000DC2A002043
:1055500060220020C4020020E4020020E82A00208B
:1055600044020020640200203C2A0020B0205FF0AA
:10557000C041087004205FF0C041087010205FF047
:10558000C0410870002005E000BF491CB1F5FA7F5A
:10559000FAD3401C80B2802806DA604980B2095CE8
:1055A0005D4A11700021F1E7B1205FF0C041087041
:1055B00004205FF0C041087010205FF0C041087007
:1055C000002005E000BF491CB1F5FA7FFAD3401C6A
:1055D00080B2802808DA514980B2014491F88010E5
:1055E0004D4A11700021EFE7B2205FF0C041087012
:1055F00004205FF0C041087010205FF0C0410870C7
:10560000002005E000BF491CB1F5FA7FFAD3401C29
:1056100080B2802808DA414980B2014491F8001133
:105620003D4A11700021EFE7B3205FF0C0410870E0
:1056300004205FF0C041087010205FF0C041087086
:10564000002005E000BF491CB1F5FA7FFAD3401CE9
:1056500080B2802808DA314980B2014491F8801183
:105660002D4A11700021EFE770470000E40300208D
:10567000C4030020A40300208403002004030020AE
:10568000240300204403002064030020440400207D
:105690006404002084040020E401002004020020AF
:1056A000240200200404002024040020E8C1000893
:1056B000F8C1000860230020602400203CC00008DE
:1056C0000CC0000824C000086CC0000854C00008CA
:1056D0009CC0000884C00008CCC00008B4C000080A
:1056E000FCC00008E4C0000814C100082CC1000878
:1056F00094BF0008ACBF0008C4BF0008DCBF0008AE
:10570000A0C2000864C20008F4BF00086B2B002090
:1057100079240020922400200100006098BA00083B
:10572000002202F0C1BF000070B582B00400002565
:105730002078C0065AD5DFF8B409006810F00C0FC5
:1057400040F0A080DFF810090068800704D5A06948
:10575000002801D1012003E3DFF8FC0800680007FE
:1057600005D5DFF8F408006810F0F00005E0DFF878
:1057700088090068000910F0F000216A88425CD2B4
:10578000206A00F06BFC002801D00120E8E2DFF87D
:10579000C808006850F00800DFF8BC180860DFF89F
:1057A000B80800687FF0F0010840216A0843DFF87C
:1057B000A8180860DFF84409006830F47F40E16908
:1057C00050EA0120DFF83419086000F0B9FBDFF877
:1057D0003019DFF818291268C2F30312895CC84037
:1057E000DFF8101908600020FEF7D1FD2078C0070F
:1057F00040F1EC80DFF8F408006810F00C00082895
:105800000FD0DFF8E808006810F00C000C2840F01A
:105810008A80DFF8DC08006810F00300032840F0FD
:105820008280DFF834080068800340F1CF80606830
:10583000002840F0CB80012092E2DFF81C080068CD
:1058400050F00800DFF810180860DFF80C08006856
:105850007FF0F0010840216A0843DFF8FC17086078
:10586000DFF89808006830F47F40E16950EA0120D1
:10587000DFF888180860206A00F0F0FB0028A4D048
:1058800001206DE2A069002835D0DFF8CC07006860
:1058900050F00100DFF8C0170860FEF790FD05002A
:1058A000DFF8B4070068800706D4FEF788FD401BC8
:1058B0000328F5D3032053E2DFF89C07006850F07B
:1058C0000800DFF894170860DFF88C0700687FF0A5
:1058D000F0010840216A0843DFF87C170860DFF810
:1058E0001C08006830F47F40E16950EA0120DFF8CD
:1058F0000C1808607AE7DFF860070068400840008D
:10590000DFF854170860FEF75AFD0500DFF8480776
:10591000006880077FF56AAFFEF751FD401B032842
:10592000F4D303201CE26068B0F5803F08D1DFF8B3
:105930002807006850F48030DFF81C17086024E066
:105940006068B0F5A02F10D1DFF80C07006850F4A4
:105950008020DFF804170860DFF8FC06006850F4C8
:105960008030DFF8F41608600FE0DFF8EC0600681E
:1059700030F48030DFF8E0160860DFF8DC060068FD
:1059800030F48020DFF8D0160860606800280ED060
:10599000FEF715FD0500DFF8C0060068800315D48A
:1059A000FEF70DFD401B6528F5D30320D8E1FEF777
:1059B00006FD0500DFF8A0060068800306D5FEF7A7
:1059C000FEFC401B6528F5D30320C9E12078800741
:1059D00029D5DFF81807006810F00C0004280DD056
:1059E000DFF80807006810F00C000C2838D1DFF849
:1059F0000007006810F00300022831D1DFF85806D4
:105A00000068400504D5E068002801D10120A7E125
:105A1000DFF8E806006830F0F850216950EA0160CC
:105A2000DFF8D8160860207800076DD56069002877
:105A300053D0DFF8C406006850F00100DFF8B81654
:105A40000860FEF7BCFC0500DFF8AC0600688007C4
:105A50005AD4FEF7B4FC401B0328F5D303207FE1A2
:105A6000E068002822D0DFF8F005006850F480706C
:105A7000DFF8E4150860FEF7A2FC0500DFF8D805A2
:105A80000068400506D4FEF79AFC401B0328F5D3B6
:105A9000032065E1DFF86406006830F0F850216902
:105AA00050EA0160DFF854160860BCE7DFF8A8058B
:105AB000006830F48070DFF8A0150860FEF77FFC06
:105AC0000500DFF8940500684005ACD5FEF777FCCB
:105AD000401B0328F5D3032042E1DFF81C060068D1
