:020000040800F2
:10000000500B0020E1C50008BBA90008BDA90008ED
:10001000BFA90008C1A90008C3A90008000000008A
:10002000000000000000000000000000C5A900085A
:10003000C7A9000800000000C9A90008CBA9000852
:100040003DC6000841C6000845C6000849C600086C
:100050004DC6000851C6000855C6000859C600081C
:100060005DC6000861C6000865C6000869C60008CC
:100070006DC6000871C6000875C6000879C600087C
:100080007DC6000881C6000885C6000889C600082C
:100090008DC6000891C6000895C6000899C60008DC
:1000A0009DC60008A1C60008A5C60008A9C600088C
:1000B000ADC60008B1C60008B5C60008B9C600083C
:1000C000BDC60008C1C60008C5C60008C9C60008EC
:1000D000CDC60008D1C60008D3A90008D5C60008BF
:1000E000D9C60008DDC60008E1C60008E5C600085C
:1000F000E9C60008EDC60008F1C60008F5C600080C
:10010000F9C60008FDC6000801C7000805C70008B9
:1001100009C700080DC7000811C70008E5A90008B5
:1001200015C7000819C700081DC7000821C7000827
:1001300025C7000829C700082DC7000831C70008D7
:1001400035C7000839C700083DC70008A9BA00082C
:1001500041C7000845C7000849C700084DC7000847
:1001600051C7000855C7000859C700085DC70008F7
:1001700061C7000865C7000869C7000800000000E3
:100180006DC7000871C70008DFF8540B0068C0F3A2
:1001900002207047012110F01F029140DFF8442B2C
:1001A00040B2430942F82310704710B440B200280F
:1001B00009D50A01DFF8303B40B210F00F042344A8
:1001C00003F8042C04E00A01DFF8203B40B21A5483
:1001D00010BC704770B4030013F00704D4F1070695
:1001E000052E01D3042001E0D4F10700261D072EBF
:1001F00001D2002500E0E51E012616FA00F0401E9F
:100200000840A8400121A940491E1140084370BC84
:1002100070478168DFF8D82A114051F001018160F0
:1002200070478268DFF8CC3A1A4011F080431A43D5
:1002300052F00042826070478068C00F704781684A
:10024000DFF8AC2A114051F0040181607047016869
:1002500051F001010160704701687FF00202114016
:1002600001607047C16851F00101C160704781B001
:10027000DFF8841A09680143DFF87C2A1160DFF88F
:10028000781A096801400091009901B07047000098
:1002900038B504000D00DFF8640A0068B0F5802F5F
:1002A00022D2DFF85C0A02F0B0FC002001002A0034
:1002B000C9B2D2B2914213D2C0B234F81010DFF8F2
:1002C0003C2A1268520002F1C84220321180DFF845
:1002D0002C1A0968491CDFF8242A1160401CE5E744
:1002E000DFF81C0A02F07AFC31BD70B504000D0085
:1002F0001600DFF80C0A02F088FC002001002A003A
:10030000C9B2D2B291420CD2C0B2710011EB40011D
:1003100001F1C84120310988C0B224F81010401CF6
:10032000ECE7DFF8DC0902F059FC70BD38B50400D9
:100330000D00DFF8CC0902F068FCEDB2680010F1A6
:10034000C8400480DFF8B80902F048FC31BD38B578
:1003500004000025DFF8A80902F057FCE4B26000B1
:1003600010F1C84000880500DFF8940902F036FC5F
:10037000280080B232BD10B50400DFF8840902F015
:1003800044FCDFF878090068400000F1C8402030E4
:100390000480DFF868090068401CDFF86019086015
:1003A000DFF858090068DFF85C190860DFF85009C9
:1003B00002F014FC10BD70B504000D00DFF8480910
:1003C000DFF84819098820F81140DFF84009008853
:1003D000401CDFF838190880DFF8300900881E2833
:1003E00003DB0020DFF824190880DFF824090078F7
:1003F0001E280DDADFF818090078401CDFF8101904
:100400000870DFF810090078401CDFF80819087040
:10041000DFF8FC0800781E28C0F2FD81DFF8F40840
:1004200000781E2806DADFF8EC080078401CDFF8B8
:10043000E41808700020DFF8E018088040F6FF702C
:10044000DFF8D81808800020C0B21D2825DADFF8B0
:10045000C8180988DFF8B028C0B232F810209142DD
:1004600007D2DFF8A418C0B231F81010DFF8A828BE
:100470001180DFF89418C0B231F81010DFF89C2812
:100480001288914207D2DFF88018C0B231F81010FC
:10049000DFF888281180401CD6E7ADB2DFF8780875
:1004A0000088DFF878180988401A85422ADADFF8D0
:1004B000640800781E2811DB0120DFF8641808703A
:1004C000DFF860080078012803D00120DFF8581811
:1004D00008700120DFF84C1808701FE00120DFF8D9
:1004E000401808700120DFF83C1808700020DFF881
:1004F00038180870DFF81C080078401EDFF8141860
:1005000008700BE00020DFF8241808700020DFF8E6
:10051000101808700020DFF80C180870DFF80008C9
:100520000078012840F01E810022DFF80418DFF86F
:10053000040802F08EFC0022DFF8FC17DFF8F40755
:1005400002F046FDDFF8E8078078DFF8F0178870E2
:10055000DFF8DC074078DFF8E4174870DFF8D007F1
:100560000078DFF8D8170870DFF8CC078078DFF85C
:10057000D0178870DFF8C0074078DFF8C4174870DC
:10058000DFF8B407C078DFF8B817C8700120DFF8CB
:10059000B4174871DFF890070078012840F0978081
:1005A0000120DFF888170870DFF89C070078401CEE
:1005B000DFF8941708700020DFF8901708804AF6DB
:1005C0005520DFF888174880DFF87C070078DFF8CF
:1005D0007C178880DFF878070078DFF87017C8800C
:1005E000DFF870070078DFF864170881DFF8640728
:1005F0004088DFF858174881DFF858070079DFF89E
:100600004C178881DFF84C07C088DFF84017C88195
:10061000DFF840070089DFF834170882DFF8340775
:10062000807ADFF828174882DFF814078078DFF82F
:100630001C178882DFF808074078DFF81017C88297
:10064000DFF8FC06C078DFF804170883DFF8EC0653
:100650000078DFF8F8164883DFF8E0064078DFF826
:10066000EC168883DFF8D4068078DFF8E016C883BC
:10067000DFF8E006C08980B2000AC0B2DFF8CC160D
:1006800008841121DFF8C406FFF702FE0026F6B247
:100690001D2E18DADFF8C0060088411CDFF8B826E6
:1006A0001180DFF8641680B231F81000FFF763FEA6
:1006B000DFF8A40600881E2803DB0020DFF8981668
:1006C0000880761CE3E70020DFF85C160870DFF88E
:1006D00058060078002836D1DFF8380600781E2842
:1006E00031DA0120DFF844160870DFF828060078B8
:1006F000002820D000263000DFF818160978C0B294
:10070000884218D2DFF850060088411CDFF84826DE
:100710001180DFF8F41580B231F81000FFF72BFEDE
:10072000DFF8340600881E2803DB0020DFF82816D7
:100730000880761CDFE7200080B2FFF71CFE002057
:10074000DFF8D0150870DFF8E005007800285CD1EC
:10075000DFF8C00500781E2857D1200080B2FFF7CF
:100760000AFE52E0DFF8F4050078012836D10026B1
:10077000F6B21D2E1CDADFF8E0050088411CDFF818
:10078000D8251180DFF8801580B231F81000FFF70E
:10079000F2FDDFF8C40500881E2803DB0020DFF827
:1007A000B81508800020DFF86C150870761CDFE7AC
:1007B0000621DFF848050068000C80B2FFF7B6FD9F
:1007C0000721DFF83805006880B2FFF7AFFD082188
:1007D000DFF87405007880B2FFF7A8FDDFF8800528
:1007E0000088401CDFF878150880DFF8780500786D
:1007F000DFF86C15098880B2884206D2DFF8580508
:100800000088401CDFF850150880DFF818050078D4
:10081000DFF84815087070BD00B585B02020FFF7DF
:1008200026FD684602F05DFC6320029000200390E4
:10083000002001904F20ADF800006946DFF8280540
:1008400002F05BFCDFF82005FFF706FDFFF79CFCDC
:1008500000220021FFF7BEFC01003720FFF7A5FCB6
:10086000DFF80405FFF7FEFC3720FFF793FCDFF805
:10087000F804FFF7ECFC05B000BD0FB438B5179DC8
:10088000189C4FF47A700090E4B223009BB2DFF81A
:10089000DC24EDB2290089B204A802F015FD00287D
:1008A00004D004A802F0DAFD0428EAD131BC5DF8D6
:1008B00014FB0FB438B59DF85C50189C4FF47A7057
:1008C0000090E4B223009BB2DFF8A424EDB229002B
:1008D00089B204A802F0F8FC002804D004A802F0B1
:1008E000BDFD0428EAD131BC5DF814FB0000000016
:1008F000F0B59BB01020DFF878140870CA20DFF83C
:10090000701448700024C825E4B2012C63D0DFF8CD
:1009100060044078801EDFF858144870002640F6C6
:10092000FF770220109058200F90DFF8481484B011
:1009300068464C2202F080FE0FBCFFF7BAFF002091
:1009400080B242F21071884202DA00BF401CF7E721
:100950000020C0B20A2836DADFF81C140978012911
:10096000FAD10021DFF810241170DFF81014098883
:1009700011AAC0B222F81010310011AAC0B232F888
:10098000102089B2914204D211A9C0B231F81010DE
:100990000E0011A9C0B231F810103A0092B2914283
:1009A00004D211A9C0B231F810100F00C0B2002853
:1009B00007D0ADB2B6B2BFB2F11B8D4201DA012150
:1009C0000C00401CC5E7DFF8A803407833289BDA09
:1009D0000120040098E7DFF898034078801CDFF8D6
:1009E00090134870DFF888034078DFF8941308709C
:1009F0001BB0F0BD10B50400DFF8880384424ED16F
:100A00000122DFF88413DFF87C0302F0BDFEDFF87B
:100A100078030078DFF87413DFF8742312788854B1
:100A2000DFF86C030078401CDFF864130870DFF80F
:100A300060030078C82803DB0020DFF85413087037
:100A4000DFF844030078242804D0DFF84803007856
:100A5000012824D10120DFF83C130870DFF82803B7
:100A60000078DFF83413DFF8342312788854DFF885
:100A70002C030078401CDFF824130870C648C749CF
:100A80000978084410F8010C2A2808D10020C1492F
:100A900008700020C14908700120C149087010BDCC
:100AA00000B591B0BF4800787F2803D1BD48407899
:100AB000AA2804D0BC480078012840F00F81BA4829
:100AC0000078012831D1B94800682030B749086062
:100AD000B6480068B6490988884202D30020B24966
:100AE0000870B24802682021B248FFF7FEFB0020E0
:100AF000C0B2202814DAAF49C0B231F8101089B260
:100B0000090AAD4AC0B202F81010AA49C0B231F8C1
:100B10001010A94AC0B202EB40025170401CE7E736
:100B20004021A54803F0C8FBD8E09E48C0780128C2
:100B30003DD10720FFF70BFC9D49088000209B4911
:100B40000860002220219B48FFF7CFFB00209A4934
:100B500008700020984948709548008880B2000AC3
:100B600095498870924800889349C8700020C0B2A7
:100B70001E2815DA8F49C0B231F8101089B2090A5F
:100B80008D4AC0B202EB400211718A49C0B231F8FD
:100B90001010894AC0B202EB40025171401CE6E7D6
:100BA0004021854803F088FB01207F4908707D487B
:100BB000C07802280CD17B4800797A49497951EAFA
:100BC0000020604908800A215E480088FFF7AEFBDC
:100BD0007448C078032802D1012078490870714810
:100BE000C078042810D10120754908706D4800793B
:100BF000002802D10020564908726A48007901286D
:100C000002D10120524908726648C078062844D1B2
:100C100010205649087063480079544948700220F2
:100C200010905E200F90534984B068464C2202F029
:100C300003FD0FBCFFF721FE0120624908706148E7
:100C400000780128FBD000205B49087000205A4939
:100C50004870AA20584988705E205749C870002003
:100C6000C0B2142815DA5849C0B231F8101089B250
:100C7000090A514AC0B202EB400211715249C0B296
:100C800031F810104C4AC0B202EB40025171401CC6
:100C9000E6E74021484803F00FFB4248C0780728A8
:100CA00019D140480079002803D13E48407947498E
:100CB00008703C480079012803D13A4840794449FA
:100CC0000870092141480078414A127852EA002010
:100CD00080B2FFF72BFB00203249087011B000BD35
:100CE0000CED00E000E100E018ED00E000E400E0C1
:100CF000C0FFFF7FC0FFFF3F58100240102B0020B5
:100D000064280020142B002044250020402B0020C4
:100D1000852B0020832B00203C2B00203E07002049
:100D2000842B0020872B0020582B0020912B0020A3
:100D3000882A0020182A0020042B00209C2A00204A
:100D4000082B0020DC2A0020862B0020F029002020
:100D5000E82A0020742A00203E2B0020882B002047
:100D6000422B00204407002000140040FC2A0020F1
:100D7000C42A002018280020952B0020482B002092
:100D8000622B0020D4260020D02A00200C26002030
:100D9000902B00208B2B0020B42700208A2B0020D2
:100DA0008C2B0020FC2800205B2B0020F42A002044
:100DB000442B0020500B00203C2900207D2B0020DC
:100DC000802B00205C2B0020BC2900204507002040
:100DD0004607002030B591B003F08AFA01F000FB1D
:100DE00001F0D6FD01F034FD01F0D4FC01F02AFC45
:100DF00001F08AFB01F072FC03F0B4FA0620FFF761
:100E0000A6FADFF8601B08600720FFF7A0FADFF8FA
:100E1000541B0968090411FA80F0DFF8481B0860C8
:100E2000DFF8400B0068B0F5802F03D90020DFF811
:100E3000341B0860DFF82C0B0068DFF82C1B0860FF
:100E40000820FFF784FADFF8241B08700A20FFF758
:100E50007EFADFF81C1B08800920FFF778FA80B2C1
:100E6000000ADFF8101B08700920FFF770FADFF89E
:100E7000081B08700B20FFF76AFADFF8001B0870E8
:100E80000B20FFF764FA80B2000ADFF8F41A08704A
:100E9000DFF8DC0A0088B0F57A7F03DB0120DFF899
:100EA000D01A0880FFF7B8FC00224FF40071DFF879
:100EB000D40A03F070FB01220121DFF8C80A03F015
:100EC0006AFB00220421DFF8C00A03F064FB03F090
:100ED00049FC04F015FB47F23050DFF8B01A0880E7
:100EE0000320DFF88C1AC8710020DFF8841A88709C
:100EF0000020DFF87C1A48710020DFF8741A0872AD
:100F00000020DFF86C1A88710120DFF8641AC870BD
:100F10000020DFF85C1A08710020DFF8741A0870EE
:100F20000120DFF86C1A48700A20DFF8641A887014
:100F30000020DFF85C1AC8700020DFF8541A08712E
:100F40000020DFF84C1A08720020DFF8441AC8713C
:100F50000020DFF83C1A8871DFF8380AFFF76FF9D4
:100F60001020DFF8341A0870DFF8100A0078002823
:100F700004D0DFF8080A0078FF2806D1DFF8F4096A
:100F80000078DFF8141A487005E0DFF8EC09007803
:100F9000DFF8041A4870022010905E200F90DFF8EE
:100FA000FC1984B068464C2202F046FB0FBCFFF7E8
:100FB00064FC0C20FFF7CBF9DFF8D41948700C2043
:100FC000FFF7C5F980B2000ADFF8C4198870DFF8AE
:100FD000C0098078FF2803D10020DFF8B419887099
:100FE000DFF8AC0940780A2871D0DFF8A40940780E
:100FF0000B286CDA1020DFF8A8190870DFF89009C8
:101000004078002803D11120DFF894194870DFF8E8
:1010100080094078012803D10D20DFF88419487039
:10102000DFF86C094078022803D10A20DFF8701934
:101030004870DFF85C094078032803D10920DFF805
:1010400060194870DFF848094078042803D1082067
:10105000DFF84C194870DFF838094078052803D1CB
:101060000720DFF83C194870DFF82409407806288B
:1010700003D10620DFF828194870DFF814094078FA
:10108000072803D10520DFF818194870DFF8000998
:101090004078082803D10420DFF804194870DFF8ED
:1010A000F0084078092803D10320DFF8F4184870CD
:1010B0000220109058200F90DFF8E01884B06846A6
:1010C0004C2202F0B9FA0FBCFFF7F3FB03E000205B
:1010D000DFF8BC184870DFF8A8080078002803D1B2
:1010E0000020DFF8AC184871DFF894080078012878
:1010F00007D10120DFF8981848710120DFF8A41803
:1011000008700024641CB4F57A7F03D30020040027
:10111000FFF7C6FCDFF8140E0078012808D1DFF8CD
:10112000100E0078032803D10020DFF8041E087099
:10113000DFF874080088002812D10022DFF86C184C
:10114000DFF86C0801F085FE0022DFF86818DFF890
:10115000600801F03DFF42F21070DFF84C18088083
:10116000DFF854080078012840F0AC82DFF84C0822
:1011700080792C2840F01782DFF84008C0792C28AD
:1011800000F01182DFF83408807C412840F00B82A7
:101190000020DFF82C180870DFF820080078DFF84E
:1011A00024180870DFF814084078DFF81818487021
:1011B000DFF808088078DFF80C188870DFF8FC0783
:1011C000C078DFF80018C870DFF8F0070079DFF8A2
:1011D000F4170871DFF8E4074079DFF8E817487181
:1011E000DFF8D8078079DFF8DC178871DFF8CC07E3
:1011F000C079DFF8D017C871DFF8C007007ADFF8D0
:10120000C4170872DFF8B407407ADFF8B8174872DD
:10121000DFF8A807807ADFF8AC178872DFF89C0740
:10122000C07ADFF8A017C872DFF89007007BDFF8FC
:1012300094170873DFF88407407BDFF8881748733A
:10124000DFF87807807BDFF87C178873DFF86C079E
:10125000C07BDFF87017C873DFF86007007CDFF829
:1012600064170874DFF85407407CDFF85817487497
:10127000DFF84807807CDFF84C178874DFF83C07FC
:10128000C07CDFF84017C874DFF83007007DDFF856
:1012900034170875DFF82407407DDFF828174875F4
:1012A000DFF81807807DDFF81C1788750020C0B2B2
:1012B0003C2816DADFF80417C0B2095C2C290ED1DD
:1012C000DFF86C1D0978491CDFF8642D1170DFF818
:1012D000601D0978092902D1DFF8581D0870401CEB
:1012E000E5E70020DFF8481D0870DFF8D006007D34
:1012F0000A21DFF8C826527D01FB00201038DFF8F4
:10130000381D0870DFF8B406807D642110FB01F001
:10131000DFF8A816C97D0A2211FB0200DFF89C162F
:10132000497E401841F2D041401ADFF80C1D488038
:10133000DFF88806807FDFF8001D0871DFF87C0683
:1013400090F82000642110FB01F0DFF8701691F88E
:1013500021100A2211FB0200DFF8601691F822101A
:10136000401841F2D041401ADFF8CC1CC880DFF8A9
:101370004C0690F82300642110FB01F0DFF83C16C6
:1013800091F824100A2211FB0200DFF8301691F8C0
:101390002610401841F2D041401ADFF89C1C088109
:1013A000DFF8180690F82B00DFF88C1C8872DFF845
:1013B0000C06C0790A21DFF80426127A01FB00200E
:1013C0001038DFF8741CC872DFF8F005407A0A2183
:1013D000DFF8E825927A01FB00201038DFF8581C6E
:1013E0000873DFF8D805C07A0A21DFF8D025127B10
:1013F00001FB00201038DFF8401C4873DFF8BC0503
:10140000807B642110FB01F0DFF8B015C97B0A2254
:1014100011FB0200DFF8A415097C401841F2D0410D
:10142000401ADFF8141CC881DFF8900590F83700E7
:101430002C282DD1DFF8840590F838000A21DFF838
:101440007C2592F8392001FB00201038DFF8E81BDA
:101450000874DFF8680590F83A000A21DFF85C2587
:1014600092F83B2001FB00201038DFF8CC1B4874B9
:10147000DFF8480590F83C000A21DFF8402592F893
:101480003D2001FB00201038DFF8AC1B88743EE0E3
:10149000DFF82805DFF89C1B0978084440780A210A
:1014A000DFF81825DFF88C3B1B781A44927801FB93
:1014B00000201038DFF8801B0874DFF80005DFF823
:1014C000741B09780844C0780A21DFF8F024DFF89B
:1014D000643B1B781A44127901FB00201038DFF8B6
:1014E000581B4874DFF8D404DFF8481B0978084417
:1014F00040790A21DFF8C424DFF8383B1B781A440E
:10150000927901FB00201038DFF82C1B8874DFF87B
:10151000280B007CDFF8241B8870DFF81C0B407C54
:10152000DFF8181B4870DFF8100B807CDFF80C1B0D
:10153000C8700022DFF8041BDFF8740401F0BBFC64
:10154000DFF8F40AC07ADFF8F81A0870DFF8E80A62
:10155000007BDFF8EC1A4870DFF8DC0A407BDFF82C
:10156000E01A88700022DFF8D81ADFF8440401F08E
:10157000D6FB0120DFF8F8134872DFF8C80A0078BC
:10158000401CDFF8C01A0870DFF8B80A007803289A
:10159000C0F295800020DFF8AC1A08700120DFF857
:1015A000141E08708BE0DFF8140480792C2840F0BA
:1015B0008380DFF80804C0792C287DD0DFF8FC0395
:1015C000807C562878D10120DFF8F4130870DFF80A
:1015D000EC030078DFF8EC130870DFF8E0034078E4
:1015E000DFF8E0134870DFF8D4038078DFF8D41315
:1015F0008870DFF8C803C078DFF8C813C870DFF858
:10160000BC030079DFF8BC130871DFF8B003407940
:10161000DFF8B0134871DFF8A4038079DFF8A41372
:101620008871DFF89803C079DFF89813C871DFF884
:101630008C03007ADFF88C130872DFF88003407A9D
:10164000DFF880134872DFF87403807ADFF87413D0
:101650008872DFF86803C07ADFF86813C872D74869
:10166000007BD8490873D548407BD6494873D34896
:10167000807BD4498873D148C07BD249C873CF4896
:10168000007CD0490874CD48407CCE494874CB4892
:10169000807CCC498874C948C07CCA49C874C74892
:1016A000007DC8490875C548407DC6494875C3488E
:1016B000807DC449887502E00220C149087000207D
:1016C000BD490870DFF8F00C007800285AD1B04806
:1016D0004079012856D1DFF858080078022851D007
:1016E000DFF8D80C0078002820D101224FF40071D7
:1016F000A44802F050FFDFF8C80C0078002808D199
:1017000044F62060DFF8BC1C08800120DFF8B01C24
:101710000870DFF8B00C0088002807D10120DFF83E
:101720009C1C08700020DFF8981C0870DFF88C0CF7
:101730000078012826D100224FF40071914802F070
:101740002AFF0120DFF8701C0870C82002F0F6FDA7
:101750000422DFF8741CDFF8740C01F0D9FF47F2A3
:101760003050DFF86C1C08600122DFF8681CDFF8DD
:101770005C0C02F009F803207D4948720320DFF871
:10178000581C0870DFF8300C0078012841D18048DF
:10179000407900283DD1DFF898070078022838D03A
:1017A000DFF8180C0078012820D101224FF40071D5
:1017B000744802F0F0FEDFF8080C0078002808D129
:1017C0004FF4FA50DFF8FC1B08800120DFF8F01B13
:1017D0000870DFF8F00B0088002807D10020DFF840
:1017E000DC1B08700020DFF8D81B0870DFF8CC0B7A
:1017F000007800280DD100224FF40071614802F0FA
:10180000CAFE0020DFF8B01B08700020DFF8CC1BF8
:101810000860DFF8BC0B0068002879D15C4840798B
:10182000012875D1DFF8900B0078012870D1DFF81E
:101830000007007802286BD0DFF8A00B00680028B2
:1018400066D1DFF8940B007803280ED1DFF8880BFF
:101850000078401EDFF8801B08700B22DFF8901C18
:10186000DFF8680B01F054FF4DE0DFF86C0B0078F7
:1018700002280ED1DFF8600B0078401EDFF8581BFD
:1018800008700C22DFF86C1CDFF8400B01F040FF01
:1018900039E0DFF8440B007801280ED1DFF8380B6F
:1018A0000078401EDFF8301B08700D22DFF8481C5E
:1018B000DFF8180B01F02CFF25E0DFF81C0B007897
:1018C000002820D1DFF8EC0A0078002806D1172282
:1018D000DFF8281CDFF8F40A01F01AFFDFF8D40A59
:1018E000007801280FD10D22DFF8141CDFF8DC0A84
:1018F00001F00EFFDFF80C0CDFF8E01A08600020A2
:10190000DFF8B01A087043F69820DFF8C41A0860B0
:10191000DFF8200D0078012862D1DFF81C0D007877
:1019200001285DD10020DFF80C1D08700020DFF8D1
:10193000081D08700E480079002845D1DFF8880D91
:101940000078012801D1FEF7D3FF0120DFF8EC1C5D
:10195000087047F23150DFF8E81C08800120044984
:1019600008713DE0102B0020142B0020862B002056
:10197000DC2A002045070020460700205E2B0020BF
:10198000822B002000040048000800484207002085
:10199000E82A002000000450FC2A0020182800201B
:1019A000C42A00207E2B00203C070020882A00202B
:1019B000182A0020042B00208C2B0020B4270020A4
:1019C000672B00205C2A00200020DFF8001D087033
:1019D0000020DFF8681C08700020DFF8F41C087194
:1019E000DFF8500C0078012823D1DFF8E80C0078EC
:1019F00000281ED10020DFF83C1C0870DFF83005FD
:101A00000078032803D10020DFF824150870DFF8E0
:101A100020050078012803D10320DFF81415087091
:101A2000DFF80C050078022803D10120DFF800154B
:101A30000870DFF8040C007801281AD1DFF8980C40
:101A40000078002815D10020DFF8EC1B0870DFF8C3
:101A5000E0040078012803D10220DFF8D4140870D4
:101A6000DFF8CC040078032803D10120DFF8C0148C
:101A70000870DFF8180D0078012810D1DFF8100D7C
:101A8000007801280BD10020DFF8441C48710020A9
:101A9000DFF8F81C08700020DFF8F41C0870DFF88D
:101AA000F00C0078012840F070810020DFF8201C45
:101AB00048710020DFF8D81C0870DFF87004007847
:101AC000401CDFF868140870DFF860040078022812
:101AD00003DB0020DFF854140870DFF850040078AE
:101AE000002808D1DFF848040078002803D103203B
:101AF000DFF83C140870DFF834040078012808D1BE
:101B0000DFF82C040078032803D10020DFF820142C
:101B10000870DFF81C04007801280FD1DFF8240DCD
:101B20000078401CDFF81C1D0870DFF8180D0078E5
:101B3000092803DB0020DFF80C1D0870DFF8F00334
:101B40000078022840F02181DFF8F80C00780028A6
:101B50000FD1DFF8F40C0078401CDFF8EC1C0870A3
:101B6000DFF8E40C0078032803DB0020DFF8D81C42
:101B70000870DFF8D00C0078012813D1DFF8C80C0A
:101B80004078401CDFF8C01C4870DFF8BC0C40787F
:101B90000B2803DB0020DFF8B01C48700120DFF8C1
:101BA000DC1D0870DFF89C0C007802280FD1DFF8EC
:101BB000980C8078401CDFF8901C8870DFF8880C47
:101BC00080780B2803DB0020DFF87C1C8870DFF8AE
:101BD000740C007803280FD1DFF86C0CC078401C1F
:101BE000DFF8641CC870DFF8600CC078032803DBE2
:101BF0000020DFF8541CC870DFF8480C0078042877
:101C00002AD1DFF8440C0079401CDFF83C1C087135
:101C1000DFF8340C0079022803DB0020DFF8281CF1
:101C20000871DFF8240C0079002803D10020DFF8C8
:101C3000A01A0872DFF8100C007901280CD1DFF827
:101C40000C0C0078002803D10120DFF8841A0872F8
:101C50000120DFF8F81B0870DFF8E80B0078052892
:101C600042D1DFF8E40B4079401CDFF8DC1B4871FF
:101C7000DFF8D40B4079022803DB0020DFF8C81B13
:101C800048710025DFF8C00B4079002812D10020F0
:101C9000DFF83C1A48720120DFF8E41C08700B20C2
:101CA000FEF755FB050005F0FF050B21280080B26B
:101CB000FEF73CFBDFF8900B4079012814D101209E
:101CC000DFF80C1A48720120DFF8B81C08700B20EE
:101CD000FEF73DFB00F0FF00050055F480750B2179
:101CE000280080B2FEF722FBDFF8580B00780628A8
:101CF0000FD1DFF8540B8079401CDFF84C1B887142
:101D0000DFF8440B8079022803DB0020DFF8381B62
:101D10008871DFF8300B007807281DD1DFF8280B19
:101D2000C079401CDFF8201BC871DFF81C0BC0799C
:101D3000022803DB0020DFF8101BC871DFF8080B56
:101D4000C079012804D10120DFF83C1C087003E0B1
:101D50000020DFF8341C0870DFF8E80A0078082853
:101D600013D1DFF8E40A007A401CDFF8DC1A0872AD
:101D7000DFF8D40A007A022803DB0020DFF8C81A53
:101D800008720120DFF8041C0870DFF8000A0078F0
:101D9000012840F076810020DFF8341948710020D6
:101DA000DFF8E819087061480078401C5F49087046
:101DB0005E480078022802DB00205C4908705B481E
:101DC0000078002806D15A480078002802D1032064
:101DD0005749087055480078012806D154480078C2
:101DE000032802D100205249087051480078012888
:101DF0000FD1DFF8500A0078002803D10920DFF85E
:101E0000441A0870DFF83C0A0078401EDFF8341AE4
:101E1000087047480078022840F03381DFF8240A30
:101E2000007800280FD1DFF8200A0078002803D1BD
:101E30000320DFF8141A0870DFF80C0A0078401E3F
:101E4000DFF8041A0870DFF8FC090078012813D1C4
:101E5000DFF8F4094078002803D10B20DFF8E819F7
:101E60004870DFF8E4094078401EDFF8DC1948705C
:101E70000120DFF8081B0870DFF8C8090078022885
:101E80000FD1DFF8C4098078002803D10B20DFF8D8
:101E9000B8198870DFF8B0098078401EDFF8A819FB
:101EA0008870DFF8A009007803280FD1DFF89809BF
:101EB000C078002803D10320DFF88C19C870DFF840
:101EC0008809C078401EDFF88019C870DFF87409EF
:101ED000007804282FD1DFF870090079002803D199
:101EE0000220DFF864190871DFF85C090079401EF0
:101EF000DFF854190871DFF850090079002803D180
:101F00000020DFF8CC170872DFF83C0900790128BF
:101F100011D1DFF838090078002803D10120DFF85B
:101F2000B01708720120DFF8241903E0972B002076
:101F3000480700200870DFF80C090078052842D116
:101F4000DFF804094079002803D10220DFF8F818EF
:101F50004871DFF8F4084079401EDFF8EC1848714A
:101F60000025DFF8E4084079002812D10020DFF8CE
:101F7000601748720120DFF8081A08700B20FEF77E
:101F8000E6F900F0FF0005000B21280080B2FEF703
:101F9000CDF9DFF8B4084079012814D10120DFF829
:101FA000301748720B20FEF7D2F900F0FF00050051
:101FB00055F480750B21280080B2FEF7B7F9012097
:101FC000DFF8C0190870DFF87C08007806280FD108
:101FD000DFF874088079002803D10220DFF8681840
:101FE0008871DFF864088079401EDFF85C1888711A
:101FF000DFF85008007807282AD1DFF84C08C079AC
:10200000002803D10220DFF84018C871DFF8380833
:10201000C079401EDFF83018C871DFF82C08C0798D
:10202000012811D10120DFF86019087010E000BF0D
:10203000652B0020662B0020742A00200C2B00202A
:10204000B02A0020612B00200020DFF83C19087026
:10205000DFF8F0070078082813D1DFF8EC07007AE2
:10206000002803D10220DFF8E0170872DFF8D80754
:10207000007A401EDFF8D01708720120DFF80C1933
:102080000870DFF80409007801284AD1DFF86C0AEB
:102090000078022845D00020DFF8641A086000208C
:1020A000DFF8601A08600621DFF8540A0068000CA7
:1020B00080B2FEF73BF90721DFF8440A006880B2DE
:1020C000FEF734F90020DFF8C01808700020DFF8B0
:1020D000381A08700821DFF8300A007880B2FEF75D
:1020E00025F90020DFF86017C8710020DFF8E0153F
:1020F00048710020DFF8141A88700020DFF80C1AED
:1021000048700020DFF8041A08700020DFF8001A79
:1021100088700020DFF8F81948700020DFF8F01907
:10212000C870DFF868080078012846D1DFF8CC09CC
:102130000078022841D01020DFF8D8190870DFF8A5
:102140000807007A002810D1DFF8CC090078DFF802
:10215000C41948700020DFF8C41908700B21DFF89B
:10216000BC09007880B2FEF7E1F8DFF8DC06007AFF
:10217000012810D1DFF8A8090078DFF89819487015
:102180000120DFF8981908700B21DFF8900900781A
:1021900080B2FEF7CBF8022010905E200F90DFF89F
:1021A000841984B068464C2201F046FA0FBCFEF751
:1021B00064FB0020DFF8D4170870DFF8C007007850
:1021C00001287EF49FAFDFF83409007802283EF43E
:1021D00099AFDFF87406407800280ED11120DFF89F
:1021E000481948700020DFF8E01408700C21DFF86F
:1021F0005806407880B2FEF799F8DFF84C06407830
:1022000001280ED10D20DFF8201948700020DFF8DA
:10221000B81408700C21DFF83006407880B2FEF761
:1022200085F8DFF82406407802280ED10A20DFF86E
:10223000F81848700020DFF8901408700C21DFF8BF
:102240000806407880B2FEF771F8DFF8FC054078A8
:1022500003280ED10920DFF8D01848700020DFF8DD
:10226000681408700C21DFF8E005407880B2FEF7B2
:102270005DF8DFF8D405407804280ED10820DFF897
:10228000A81848700020DFF8401408700C21DFF80F
:10229000B805407880B2FEF749F8DFF8AC05407821
:1022A00005280ED10720DFF8801848700020DFF8DD
:1022B000181408700C21DFF89005407880B2FEF702
:1022C00035F8DFF88405407806280ED10620DFF8BF
:1022D000581848700020DFF8F01308700C21DFF860
:1022E0006805407880B2FEF721F8DFF85C05407899
:1022F00007280ED10520DFF8301848700020DFF8DD
:10230000C81308700C21DFF84005407880B2FEF752
:102310000DF8DFF83405407808280DD10420DFF8E7
:10232000081848700020E84908700C21DFF81805EB
:10233000407880B2FDF7FAFFDFF80C0540780928F5
:102340000DD10320DFF8E01748700020DE49087047
:102350000C21DFF8F404407880B2FDF7E7FFDFF8E6
:10236000E80440780A2809D10120D74908700C21D7
:10237000DFF8D404407880B2FDF7D8FFD248007867
:10238000002811D11020DFF8A0170870022010904B
:1023900058200F90DFF88C1784B068464C2201F06B
:1023A0004BF90FBCFEF785FA0020DFF8D015087056
:1023B000FEF7A8BE602B00208D2B00208E2B002066
:1023C0008F2B0020302B002020C60008D4260020B0
:1023D000002B0020D02A002047070020F82A0020E8
:1023E00000B5B9B005A8442103F064F9684614218A
:1023F00003F060F916A8882103F05CF9DFF82C07D8
:102400000068C00611D503F059F9DFF82407006809
:1024100050F48030DFF818170860DFF81407006800
:1024200030F48030DFF8081708601420059005208C
:10243000079001200B90B0200D9002200F900120FA
:10244000109006201190282012900720139006204B
:1024500014900420159005A803F03AF9002805D03F
:102460000120DFF8D016087000F088FB0F200090E4
:10247000032001900020029000200390002004908F
:102480000421684603F03FFC002801D000F076FBF1
:10249000DFF8A40616900420259000202A905FF013
:1024A000405034904FF4807037905FF0406031902E
:1024B00001201790012018900C20199007201A90E5
:1024C00002201B9002201C905FF088701D9016A8BF
:1024D00003F014FE002801D000F050FB4FF4007010
:1024E00004F0C8F9002801D000F048FB39B000BD65
:1024F000F0C5000850C5000860C50008FCC200080F
:1025000070C50008804F120000B589B006A80021F0
:10251000002200230EC00C386846DFF8201691EC2C
:10252000060B80EC060BDFF81806DFF818160860BB
:102530005FF40020DFF80C1648600020DFF8041676
:1025400088600020DFF8FC15C8600120DFF8F41572
:1025500008610420DFF8EC1548610020DFF8E4157D
:1025600088610020DFF8DC15C8610220DFF8D4158F
:1025700008620020DFF8CC1548620120DFF8C4159E
:10258000C8620020DFF8BC1508630020DFF8B4152E
:1025900048630020DFF8AC1588630020DFF8A4153D
:1025A000C863DFF8A00504F0C7F9002801D000F0E7
:1025B000E5FA0020069006A9DFF8880504F0CAFDB8
:1025C000002801D000F0DAFA0120009001200190EB
:1025D0000520029000200390002004900020059028
:1025E0006946DFF8600504F027FB002801D000F001
:1025F000C5FA02200090022001906946DFF84405E8
:1026000004F01AFB002801D000F0B8FA7F21DFF8AF
:102610003005FDF706FEDFF82805FDF70DFE002862
:1026200001D000BFF7E7DFF81805FDF7F2FD09B0AC
:1026300000BD0000722B0020762B0020642B0020B0
:10264000322B002080B5DFF80005DFF8D8140860D1
:10265000DFF8F804DFF8CC1448600020DFF8C41479
:1026600088600120DFF8BC14C8600020DFF8B414D3
:1026700008610020DFF8AC1448610020DFF8A414E2
:1026800088610020DFF89C14C8610020DFF89414F2
:102690000862DFF8900400F0B1FD002801D000F0DE
:1026A0006DFA0021DFF87C0404F0F2FD002801D06F
:1026B00000F064FA0021DFF86C0404F01BFE00282F
:1026C00001D000F05BFA01BD892B00205F2B0020B8
:1026D000DC2A0020782B0020742B002000B58BB062
:1026E0006846282102F0E6FFDFF86404DFF864148E
:1026F00008600020DFF85C1448607F20DFF8541485
:102700008860FF20DFF84C14C8600020DFF8441414
:1027100008610020DFF83C1448610020DFF8341421
:1027200088610020DFF82C14C861DFF8280400F06D
:1027300087FA002801D000F021FA01200090002043
:1027400002900020039000200490002005900020BB
:10275000069000200790002008908020099069468C
:10276000DFF8F00304F0FAFD002801D000F006FACB
:10277000DFF8E00304F06AFE002801D000F0FEF963
:10278000DFF8D00304F09EFE0BB000BD732B0020D9
:10279000772B002080B5DFF8C003006850F40030CC
:1027A000DFF8B4130860DFF8B003006810F40030FD
:1027B00000900098DFF8A403DFF8A41308604FF43A
:1027C0001650DFF89C1348600020DFF894138860EF
:1027D0000020DFF88C13C8600020DFF88413086144
:1027E0000C20DFF87C1348610020DFF87413886147
:1027F0004FF40040DFF86813C8614FF40060DFF861
:10280000601308620820DFF8581348624FF4004054
:10281000D3494863D24800F03BFF002801D000F0C4
:10282000ADF900220021262004F0DEFE262004F06F
:10283000EEFECB480068006850F00100C849096806
:10284000086001BD632B0020E82A00207F2B0020B8
:1028500000B587B05FF02040C2490860C248C14956
:1028600048600020BF4988600020BE49C860002041
:10287000BC4908610020BB4948610020B949886112
:102880000020B849C8610020B64908624FF4805062
:10289000B44948620020B34988620020B149C86247
:1028A0000020B04908630020AE4948630020AD49CC
:1028B00088630020AB4908640F2000900F2001902E
:1028C000FF2002900F20039010200490112005900B
:1028D0000020069000226946A24800F051F9002825
:1028E00001D000F04BF95FF02040A04908609E48FD
:1028F0009E49486002209D49886000209B49C8602D
:1029000000209A49086110209849486100209749A1
:10291000886100209549C8610020944908624FF4FD
:1029200080509249486200209049886200208F4977
:10293000C86200208D49086300208C49486300204C
:102940008A4988630020894908640F2000900F207D
:102950000190C82002900F200390102004901120B5
:1029600005900020069000226946804800F008F992
:10297000002801D000F002F907B000BD812B002033
:10298000592B00207E2B00207D2B0020802B002047
:1029900000B587B001A8142102F08CFE74480068CD
:1029A00050F00400724908607148006810F004009B
:1029B000009000986E48006850F020006C49086054
:1029C0006B48006810F0200000900098684800688C
:1029D00050F08000664908606548006810F080008B
:1029E000009000986248006850F00100604908605B
:1029F0005F48006810F00100009000985C48006893
:102A000050F002005A4908605948006810F002006E
:102A1000009000985648006850F040005449086003
:102A20005348006810F0400000900098504800683B
:102A300050F010004E4908604D48006810F010003A
:102A4000009000984A48006850F008004849086023
:102A50004748006810F008000090009803F058FF05
:102A600000221C21434801F096FD002230215FF036
:102A7000904001F090FD002242F203213E4801F017
:102A80008AFD1C200190012002900020039000206C
:102A9000049001A9374801F085FC30200190012005
:102AA0000290002003900020049001A95FF0904064
:102AB00001F078FC2020019000200290002003907B
:102AC00001A92C4801F06EFC42F203200190012084
:102AD0000290002003900020049001A9264801F0F4
:102AE00061FC4FF4E050019000200290012003901F
:102AF00001A9214801F056FC07B000BD480700209D
:102B0000102B0020142B0020862B00209C2A002054
:102B1000082B0020FC2A0020450700205E2B002007
:102B20004607002018280020C42A00200C28004056
:102B3000901002405A2B00204260020014C300088B
:102B4000000004504C27002000540040D38D80101A
:102B500000280040182A002058100240004400407D
:102B6000D426002064280020040100A0B028002002
:102B70004C10024000080048000400487047000064
:102B800070B504000D001600002C01D1012024E0D6
:102B900094F84500002805D1002084F84400200066
:102BA00004F087FE14F10801206804F0A7FEA26873
:102BB0002900206804F004FFE36AA268310060681D
:102BC00004F056FF2068A16850F8210050F0010081
:102BD0002168A26841F82200002070BD10B50400F1
:102BE00094F84400012801D102200DE0012084F86E
:102BF0004400A168206804F06EFF012084F84500BD
:102C0000002084F84400002010BD10B5040094F8A2
:102C10004400012801D1022010E0012084F8440082
:102C2000022084F84500A168206804F05DFF0420BC
:102C300084F84500002084F84400002010BD000006
:102C400010B50400002C01D1012067E094F82100A8
:102C5000002805D1002084F82000200004F072FD37
:102C6000022084F82100CA2021684862532021688C
:102C70004862200000F0F5F9002807D0FF20216805
:102C80004862042084F82100012047E02068806821
:102C9000DFF88C13084021688860206880686168CC
:102CA00022691143A2691143084321688860E068E2
:102CB0002168086120680069A16850EA0140216824
:102CC00008612068C0687FF0800108402168C86002
:102CD0002068806880060CD4200000F0A7F9002846
:102CE00007D0FF2021684862042084F821000120D9
:102CF00014E02068C06C800880002168C8642068E7
:102D0000C06CE1696269114308432168C864FF200F
:102D100021684862012084F82100002010BD2DE9BF
:102D2000F84304000D001600002794F82000012845
:102D300001D102208BE0012084F82000022084F8D9
:102D40002100002E1FD120688068400601D4002099
:102D5000E870287800F0A1F98046687800F09DF9C5
:102D60008146A87800F099F95FFA88F85FFA89F946
:102D70005FEA092151EA0841C0B20843E97850EA04
:102D80000140070015E020688068400604D52878D7
:102D900000F08EF9070001E00020E87028786978DB
:102DA000090251EA0040A9780843E97850EA014055
:102DB0000700CA2021684862532021684862200029
:102DC00000F04FF900280AD0FF2021684862042053
:102DD00084F82100002084F82000012037E0DFF88B
:102DE00044023840216808602068806830F4802000
:102DF0002168886020688068E9682A69114308436F
:102E0000216888602068C0687FF0800108402168E0
:102E1000C8602068806880060FD4200000F006F9A2
:102E200000280AD0FF2021684862042084F821008D
:102E3000002084F82000012009E0FF20216848627A
:102E4000012084F82100002084F820000020BDE843
:102E5000F283F8B504000D00160000272068806A90
:102E60006860206800694004400CA8602068006821
:102E7000DFF8B01108400700380C10F03F00287050
:102E8000380A10F07F00687017F07F00A870380CC7
:102E900010F04000E870002E0BD1287800F008F9FF
:102EA0002870687800F004F96870A87800F000F9DC
:102EB000A8700020F2BD2DE9F84304000D001600B3
:102EC000002794F82000012801D102207EE0012093
:102ED00084F82000022084F82100002E07D16878B1
:102EE000C00604D5687810F0EF000A306870002E34
:102EF00019D1E87800F0D1F88046687800F0CDF874
:102F00008146A87800F0C9F85FFA88F85FFA89F975
:102F10005FEA092151EA0841C0B20843297850EA22
:102F20004130070012E0687800F0C2F80700A87886
:102F300000F0BEF80700E8786978090251EA00401D
:102F4000A9780843297850EA41300700CA2021684F
:102F50004862532021684862200000F082F800286F
:102F60000AD0FF2021684862042084F82100002054
:102F700084F82000012029E0DFF8AC003840216807
:102F800048602068C0687FF0800108402168C86000
:102F90002068806880060FD4200000F047F80028E1
:102FA0000AD0FF2021684862042084F82100002014
:102FB00084F82000012009E0FF20216848620120F8
:102FC00084F82100002084F820000020BDE8F2836E
:102FD000F8B504000D001600002720684068DFF8EF
:102FE000481008400700380CE870380A10F01F003D
:102FF000687017F03F00A870780B10F00700287079
:10300000002E0BD1E87800F053F8E870687800F0F3
:103010004FF86870A87800F04BF8A8700020F2BD57
:10302000BFFF8FFF7F7F7F003FFFFF0038B50400A9
:1030300000252068C0687FF0A00108402168C860B2
:1030400001F079F905002068C068800607D401F016
:1030500072F9401BB0F57A7FF5D9032000E000201B
:1030600032BD38B5040000252068C068400612D47F
:103070005FF0FF302168C86001F05DF9050020684D
:10308000C068400607D401F056F9401BB0F57A7FBE
:10309000F5D9032000E0002032BD0021C0B20A288B
:1030A00002DB491C0A38F9E750EA0110C0B2704748
:1030B00000220100C9B20909C9B20A2359430A0012
:1030C000C0B210F00F008018C0B270478162704724
:1030D000C162704701637047416951F0010141616C
:1030E000704700210180002141605FF0FF31816065
:1030F0000021C16000210174704770B504000D000B
:10310000002620680600DFF8D400844212D0B4F113
:10311000804F0FD0DFF8C80084420BD0DFF8C40026
:10312000844207D0DFF8C000844203D0DFF8BC003F
:10313000844205D17FF070003040696851EA000692
:10314000DFF8980084421ED0B4F1804F1BD0DFF826
:103150009000844217D0DFF88C00844213D0DFF84F
:10316000880084420FD0DFF8840084420BD0DFF85F
:103170008000844207D0DFF87C00844203D0DFF86F
:103180007800844204D136F44070E96851EA0006C0
:103190002660A9682000FFF79BFF29882000FFF721
:1031A00095FFDFF8380084420FD0DFF840008442FA
:1031B0000BD0DFF83C00844207D0DFF838008442AF
:1031C00003D0DFF83400844203D1297C2000FFF7CC
:1031D00081FF2000FFF780FF012070BD002C01401F
:1031E0000004004000080040000C00400034014092
:1031F00000400140004401400048014010B5040077
:10320000002C01D101205EE094F84100002805D196
:10321000002084F84000200004F061FA242084F8A3
:10322000410020680068400840002168086060682C
:1032300030F07060216808612068806830F40040D8
:1032400021688860E068012805D1A06850F400403A
:103250002168886004E0A06850F404402168886018
:10326000E068022803D14FF40060216848602068BC
:10327000406840F0007050F40040216848602068C9
:10328000C06830F400402168C86020696169084363
:10329000A16950EA01202168C860E069216A0843F9
:1032A000216808602068006850F00100216808600B
:1032B00000206064202084F841000020206300206A
:1032C00084F84200002010BD2DE9F84304000D00F1
:1032D00016001F00DDF820805FF0000994F841001F
:1032E000202840F0B68094F84000012801D1022047
:1032F000B0E0012084F8400001F01DF88146CDF8CF
:103300000090192301224FF40041200000F0BBF887
:10331000002801D003209DE0212084F841001020E6
:1033200084F8420000206064666267850020606364
:10333000608DFF280ED9FF2020854FF400500090AB
:103340005FF08073228DD2B2290089B2200000F094
:103350005AF90DE0608D20854FF4005000905FF029
:103360000073228DD2B2290089B2200000F04BF9FF
:10337000608D00284AD04A464146200000F0AFF850
:10338000002806D0606C042801D1012062E00320EF
:1033900060E0606A411C6162007821688862608D2B
:1033A000401E6085208D401E2085208D0028DFD1A5
:1033B000608D0028DCD0CDF80090434600228021AB
:1033C000200000F060F8002801D0032042E0608D6A
:1033D000FF280DD9FF202085002000905FF080732A
:1033E000228DD2B2290089B2200000F00CF9BFE78B
:1033F000608D2085002000905FF00073228DD2B296
:10340000290089B2200000F0FEF8B1E74A464146A3
:10341000200000F090F8002806D0606C042801D14C
:10342000012017E0032015E020202168C8612068F2
:103430004068DFF82410084021684860202084F8A4
:103440004100002084F84200002084F84000002061
:1034500000E00220BDE8F28300E800FE406C704707
:10346000000001688969890702D50021026891621C
:1034700001688969C90705D40168896951F00101AA
:103480000268916170472DE9F04104000D001600BB
:103490001F00DDF81880206880692840A84201D10B
:1034A000012000E00020F6B2B04215D117F1010F63
:1034B000F1D0002F05D000F03EFFB0EB08008742AE
:1034C000E9D2202084F84100002084F84200002046
:1034D00084F84000032000E00020BDE8F08170B5D2
:1034E00004000D00160020688069800721D4320096
:1034F0002900200000F048F8002801D0012019E040
:1035000015F1010FEFD0002D04D000F014FF801B47
:103510008542E8D2606C50F020006064202084F87E
:103520004100002084F84200002084F8400003207D
:1035300000E0002070BD70B504000D00160020688A
:10354000806980061ED432002900200000F01CF89B
:10355000002801D0012016E0002D04D000F0EBFE81
:10356000801B8542EBD2606C50F02000606420200C
:1035700084F84100002084F84200002084F84000D4
:10358000032000E0002070BD70B504000D0016009F
:1035900020688069C00634D520688069800614D40C
:1035A00015F1010FF8D0002D04D000F0C4FE801BEF
:1035B0008542F1D2202084F84100002084F84200A6
:1035C000002084F8400003201CE010202168C8611E
:1035D00020202168C8612000FFF743FF2068406871
:1035E000134908402168486004206064202084F862
:1035F0004100002084F84200002084F840000120AF
:1036000000E0002070BD70B4039C00250668766859
:103610003500084E354089B28E05B60DD2B256EA55
:1036200002461E43264335430668756070BC7047EA
:1036300000E800FE009800FC103A07D330B4B1E86F
:103640003810103AA0E83810F9D230BC530724BF24
:10365000B1E80810A0E8081044BF51F8043B40F856
:10366000043BD20724BF31F8022B20F8022B44BFC1
:103670000B7803707047083A07D3B1E80810083A8E
:1036800040F8043B40F804CBF7D25307E4E70000CE
:1036900010B50400002C01D1012038E0A0690028F9
:1036A000FFD194F87100002805D1002084F8700043
:1036B000200004F060F8242084F87100206800687D
:1036C0004008400021680860200000F09AF90128B5
:1036D00001D101201BE0606A002802D0200000F028
:1036E000E5FB2068406830F490402168486020681D
:1036F00080687FF02A01084021688860206800689F
:1037000050F0010021680860200000F03CFC10BD72
:1037100010B4030093F87100202832D1002902D0A0
:1037200092B2002A01D101202CE093F87000012808
:1037300001D1022026E0012083F87000D964A3F8AB
:103740005020A3F8522000205866002058672120FE
:1037500083F871009868B0F5805F05D1186900287A
:1037600002D14048586601E03F485866002083F87F
:1037700070001868006850F080001C68206000200D
:1037800000E0022010BC704710B4030093F87200F0
:10379000202864D1002902D092B2002A01D1012050
:1037A0005EE093F87000012801D1022058E001206A
:1037B00083F870005965A3F85820A3F85A20002018
:1037C00018669868B0F5805F0BD11869002804D19D
:1037D00040F2FF10A3F85C001FE0FF20A3F85C009C
:1037E0001BE0986800280AD11869002803D1FF203F
:1037F000A3F85C0011E07F20A3F85C000DE098685E
:10380000B0F1805F09D11869002803D17F20A3F8A7
:103810005C0002E03F20A3F85C00002058672220F3
:1038200083F872001868806850F001001C68A0607E
:103830009868B0F5805F05D11869002802D10B485F
:10384000186601E00A481866002083F870001868BE
:10385000006850F490701C682060002000E0022096
:1038600010BC7047E9400008A5400008C3410008AB
:10387000594100082DE9F04104002068C56920681D
:1038800006682068876815F00F008046B8F1000FC1
:103890000AD1A80608D5B00606D5206E002802D0A9
:1038A0002000216E8847A8E0B8F1000F00F080806A
:1038B000F80702D416F4907F7AD015F00100C0B258
:1038C000002808D0F00506D5012021680862606F45
:1038D00050F001006067A8070BD517F00100C0B2D7
:1038E000002806D0022021680862606F50F00400B2
:1038F000606768070BD517F00100C0B2002806D03A
:10390000042021680862606F50F002006067280799
:103910000DD5B00604D417F00100C0B2002806D0BF
:10392000082021680862606F50F008006067606FCF
:1039300000283CD0A80607D5B00605D5206E002883
:1039400002D02000216E8847606F000703D42068F2
:103950008068400626D5200000F084FB206880683F
:1039600040061BD5206880687FF040010840216830
:103970008860E06E00280DD00FF20D70E16E886354
:10398000E06E04F0BFF8002811D0E06EE16E896BA4
:1039900088470CE0200000F033F808E0200000F039
:1039A0002FF804E0200000F02BF80020606724E0EE
:1039B000E8020FD578020DD55FF480102168086207
:1039C000202084F87100202084F87200200004F088
:1039D000C6F812E0280608D5300606D5606E002825
:1039E00002D02000616E884707E0680605D57006A2
:1039F00003D5200000F09EFBFFE7BDE8F081704793
:103A000070472DE9F04704005FF0000810250026FC
:103A100000275FF000095FF0000A2068DFF86414F7
:103A20008842FFD0A0682169084361690843E169C1
:103A30000843804620680068DFF84C14084058EAC4
:103A40000000216808602068406830F44050E16858
:103A5000084321684860A06980462068DFF8241484
:103A6000884202D0206A50EA08082068806830F452
:103A7000306058EA0000216888602068DFF80C1484
:103A800088421BD1DFF80804006810F0030000280A
:103A900005D0022806D008D3032809D00BE0012066
:103AA0000500B6E002200500B3E004200500B0E008
:103AB00008200500ADE010200500AAE02068DFF82E
:103AC000D41388421CD1DFF8C803006810F00C0042
:103AD000002806D004280AD0082805D00C2809D0D0
:103AE0000BE00020050094E00220050091E0042096
:103AF00005008EE0082005008BE01020050088E01E
:103B00002068DFF8941388421CD1DFF88403006832
:103B100010F03000002806D010280AD0202805D048
:103B2000302809D00BE00020050072E002200500DB
:103B30006FE0042005006CE00820050069E010201B
:103B4000050066E02068DFF8541388421CD1DFF8D6
:103B50004003006810F0C000002806D040280AD0BA
:103B6000802805D0C02809D00BE00020050050E0D7
:103B7000022005004DE0042005004AE00820050071
:103B800047E01020050044E02068C54988421ED166
:103B9000BF48006810F44070002809D0B0F5807F5D
:103BA0000CD0B0F5007F06D0B0F5407F09D00BE017
:103BB000002005002DE0022005002AE00420050079
:103BC00027E00820050024E01020050021E02068FF
:103BD000AC4988421DD1AE48006810F4406000280E
:103BE00009D0B0F5806F0CD0B0F5006F06D0B0F5FD
:103BF000406F09D00BE0002005000AE0022005001C
:103C000007E00420050004E00820050001E0102082
:103C1000050020689B4988427CD1EDB2280000282D
:103C200006D0022808D0042809D008280BD00EE0BE
:103C300002F0DDF982460CE09A48824609E002F083
:103C40004FF9824605E04FF40040824601E0012032
:103C50008146BAF1000F00F00D81606803214843EE
:103C6000824505D360684FF480514843504502D2E5
:103C700001208146FEE0EDB22800002806D002288F
:103C800014D004281FD008282DD035E002F0AFF959
:103C900002004FF48073606840080021E3FB0201DA
:103CA0006268002303F05CFF070027E060684208B9
:103CB00000237D480021101859416268002303F059
:103CC0004FFF07001AE002F00BF902004FF4807377
:103CD000606840080021E3FB02016268002303F0F2
:103CE0003FFF07000AE06068400810F500006168C7
:103CF000B0FBF1F0070001E001208146B7F5407FFD
:103D000005D3B7F5801F02D22068C760B2E001205A
:103D10008146AFE0E069B0F5004F5BD1EDB228001D
:103D2000002808D0012812D002281CD0042826D050
:103D3000082830D039E002F05AF96168490811EBDF
:103D400040006168B0FBF1F080B207002FE002F0A4
:103D500059F96168490811EB40006168B0FBF1F066
:103D600080B2070023E06068400800F1F47010F5AD
:103D700090406168B0FBF1F080B2070017E002F0FC
:103D8000AFF86168490811EB40006168B0FBF1F0E1
:103D900080B207000BE06068400810F58030616871
:103DA000B0FBF1F080B2070001E001208146102F46
:103DB0000DD3B7F5803F0AD24FF6F07038400600B9
:103DC000C7F342000643B6B22068C66052E0012045
:103DD00081464FE0EDB22800002808D0012811D01C
:103DE00002281AD0042824D008282DD036E002F06A
:103DF000FEF8616810EB51006168B0FBF1F080B231
:103E000007002DE002F0FEF8616810EB51006168D8
:103E1000B0FBF1F080B2070022E06068400800F5D6
:103E2000740010F510506168B0FBF1F080B207002B
:103E300016E002F055F8616810EB51006168B0FBC4
:103E4000F1F080B207000BE06068400810F5004018
:103E50006168B0FBF1F080B2070001E0012081460B
:103E6000102F05D3B7F5803F02D22068C76001E06C
:103E70000120814600202066002060664846C0B2CE
:103E8000BDE8F08700800040F369FFEF0038014093
:103E9000881002400044004000480040004C0040B0
:103EA000005000400024F400000024F490F8241096
:103EB000C90707D50168496831F40031826A1143A6
:103EC0000268516090F82410890707D50168496895
:103ED00031F48031C26A11430268516090F82410B5
:103EE000490707D50168496831F48021026B114305
:103EF0000268516090F82410090707D501684968E5
:103F000031F40041426B11430268516090F8241073
:103F1000C90607D50168896831F48051826B114365
:103F20000268916090F82410890607D501688968B5
:103F300031F40051C26B11430268916090F8241073
:103F4000490613D50168496831F48011026C1143A8
:103F500002685160016CB1F5801F07D101684968A2
:103F600031F4C001426C11430268516090F8241092
:103F7000090607D50168496831F40021826C1143B4
:103F800002685160704738B5040000250020606762
:103F900000F0D1F905002068006800070DD57FF01A
:103FA0007E4000902B0000225FF40011200000F002
:103FB00021F8002801D003201BE02068006840079A
:103FC0000DD57FF07E4000902B0000225FF4800131
:103FD000200000F00FF8002801D0032009E0202085
:103FE00084F87100202084F87200002084F87000AA
:103FF000002032BD2DE9F04104000D0016001F0025
:10400000DDF818802068C0692840A84201D101204D
:1040100000E00020F6B2B04221D118F1010FF1D03A
:10402000B8F1000F04D000F086F9C01B8045E9D23A
:104030002068006830F4D0702168086020688068CB
:104040004008400021688860202084F8710020200A
:1040500084F87200002084F87000032000E0002043
:10406000BDE8F0810168096831F49071026811605F
:10407000016889684908490002689160202180F838
:10408000721000210166704738B50400A56A00204F
:10409000A5F85A000020A5F852002800FFF7B0FC50
:1040A00031BD000090F8711021291CD1B0F85210D8
:1040B00000290DD1016809687FF080021140026873
:1040C00011600168096851F04001026811600AE05E
:1040D000C16C4A1CC264097802681185B0F852109C
:1040E000491EA0F85210704790F87120212A20D163
:1040F000B0F85220002A0DD1026812687FF08003C8
:104100001A4003681A600268126852F0400203689D
:104110001A600EE0C26C11000A88D205D20D036845
:104120001A85C26C921CC264B0F85220521EA0F8CC
:104130005220704710B50400206800687FF04001ED
:10414000084021680860202084F871000020606623
:104150002000FFF754FC10BD70B50400B4F85C50AB
:1041600094F87200222825D12068808C0600606DAA
:10417000411C616515EA06010170B4F85A00401E41
:10418000A4F85A0080B200281AD12068006830F4E0
:1041900090702168086020688068400840002168AD
:1041A0008860202084F87200002020662000FCF740
:1041B00021FC05E02068008B50F00800216808838E
:1041C00070BDF8B50400B4F85C6094F87200222861
:1041D00027D12068808C0700606D050016EA070073
:1041E0002880606D801C6065B4F85A00401EA4F8F9
:1041F0005A0080B200281AD12068006830F490700C
:104200002168086020688068400840002168886054
:10421000202084F87200002020662000FCF7EAFBD2
:1042200005E02068008B50F0080021680883F1BD8C
:1042300080B52B482B49086000222B49294800688B
:1042400003F03EFE29492748006803F045FE0020A0
:1042500002BD002070470300DBB21800002810D018
:1042600001280FD002280ED003280DD004280CD02E
:1042700020280BD021280AD0222809D0232808D0B2
:1042800008E007E006E005E004E003E002E001E00A
:1042900000E0FFE70020704738B504000D00022160
:1042A000200000F009F821000D4803F015FE0C482D
:1042B00003F037FE002032BD70B504000D0000266B
:1042C0002A0092B221000748006803F0F9FD054872
:1042D000006803F008FE06003000C0B270BD0000A8
:1042E0001C1F00202C2B00203C290020FC28002033
:1042F00080B5032003F072F9002000F004F803F009
:10430000A3F9002002BD10B50400144800684FF462
:104310007A71B0FBF1F003F081F9002221005FF027
:10432000FF3003F061F9002010BD0D480068401C0B
:104330000B49086070470A480068704770B5040070
:10434000FFF7F9FF0500260016F1010F00D0761CDB
:10435000FFF7F1FF401BB042FAD370BDE405002027
:10436000182B002080B500220A490B4803F0F8FD05
:104370000A49094803F010FE0949074803F096FD71
:10438000054804F07CFA002802D0034803F011FE2F
:1043900001BD0000080700201C1F0020F4050020BC
:1043A000F806002078B40022002300240D68D540D0
:1043B000002D00F0EE800D680126964035402B0060
:1043C000002B00F0E4804D68022D02D04D68122DC4
:1043D00016D1D50800EB85052D6A2C000F2512F0AB
:1043E0000706F6B2B600B540AC430D6912F00706F9
:1043F000F6B2B600B5402C43D50800EB85052C621B
:1044000005682C0003251600F6B27600B540AC43D3
:104410000D7915F003051600F6B27600B5402C4371
:1044200004604D68012D08D04D68022D05D04D68FF
:10443000112D02D04D68122D19D185682C0003254D
:104440001600F6B27600B540AC43CD681600F6B261
:104450007600B5402C43846045682C0001259540CA
:10446000AC434D68C5F3001595402C4344600D796D
:1044700015F00305032D0AD1C56A2C0001259540CE
:10448000AC434D68C5F3C00595402C43C462C56874
:104490002C0003251600F6B27600B540AC438D68BB
:1044A0001600F6B27600B5402C43C4604D68ED00AE
:1044B0006DD5404D2D6855F001053E4E35603D4DA2
:1044C0002D6815F001050095009D3B4D960855F8A7
:1044D00026502C000F2512F00306F6B2B600B540A8
:1044E000AC43B0F1904F01D100251EE0334DA842FE
:1044F00001D1012519E0324DA84201D1022514E075
:10450000304DA84201D103250FE02F4DA84201D123
:1045100004250AE02D4DA84201D1052505E02C4DCA
:10452000A84201D1062500E0072512F00306F6B2E5
:10453000B600B5402C43204D960845F82640254D41
:104540002D682C009C434D68ED0300D51C43214D84
:104550002C60214D2D682C009C434D68AD0300D587
:104560001C431D4D2C601D4D2D682C009C434D6837
:10457000ED0200D51C43194D2C60194D2D682C00FF
:104580009C434D68AD0200D51C43154D2C60521C58
:104590000CE771BC7047D2B2002A02D089B28161A7
:1045A00001E089B281627047426989B24A40426142
:1045B00070470000601002400800014000040048FD
:1045C00000080048000C0048001000480014004893
:1045D00000180048000401400404014008040140A0
:1045E0000C040140C0B2102190FBF1F201FB12015A
:1045F0005FF0C0421170C0B2102190FBF1F1103198
:104600005FF0C04211707047F8B504000D0016004D
:104610000027DFF8D409E4B2052101FB04F10844C6
:10462000A038070056F0B0005FF0C04108700420C9
:104630005FF0C041087010205FF0C0410870280092
:10464000C0B2FFF7CFFF0020C0B2052806DA3978E4
:10465000DFF89C2D11707F1C401CF5E7F1BDF8B50B
:1046600004000D0016000027E4B27A2C01D15A2074
:104670000400DFF87809E4B2052101FB04F10844E5
:10468000A038070056F0B0005FF0C0410870042069
:104690005FF0C041087010205FF0C0410870280032
:1046A000C0B2FFF79FFFFF20DFF8441D0870002015
:1046B000C0B2052807DA3978C943DFF8342D117004
:1046C0007F1C401CF4E7F1BDF8B504000D00260086
:1046D00004273078002809D02A00D2B23900C9B2A4
:1046E0003078FFF7BCFF761CBF1DF2E7F1BD2DE966
:1046F000F84304000D009146260000275FF00408EF
:104700003078002819D038004946C0B2C9B2884272
:1047100007D22A00D2B24146C9B23078FFF79FFFD4
:1047200006E02A00D2B24146C9B23078FFF76CFFEA
:10473000761C7F1C18F10608E2E7BDE8F183F8B5A6
:1047400004000D00260004273078002809D02A0034
:10475000D2B23900C9B23078FFF756FF761CBF1DC0
:10476000F2E7F1BDAE205FF0C041087020205FF09D
:10477000C041087002205FF0C0410870B0205FF0B7
:10478000C0410870C8205FF0C041087040205FF051
:10479000C0410870FF205FF0C041087030205FF01A
:1047A000C0410870A1205FF0C0410870A6205FF0F2
:1047B000C0410870A8205FF0C04108701F205FF062
:1047C000C0410870A4205FF0C0410870D3205FF0A2
:1047D000C041087000205FF0C0410870D5205FF034
:1047E000C041087010205FF0C0410870D9205FF010
:1047F000C041087022205FF0C0410870DA205FF0ED
:10480000C041087012205FF0C0410870DB205FF0EB
:10481000C041087020205FF0C04108708D205FF01B
:10482000C041087014205FF0C0410870AF205FF0F5
:10483000C041087070470021C9B2102980F2068378
:10484000DFF89C2CD279002A14D1DFF8A82BC9B24A
:104850000A44127CDFF88C3CC9B20B4483F8702008
:10486000DFF8902BC9B2525CDFF8783CC9B20B4438
:1048700083F8F020DFF8682CD279012A14D1DFF810
:10488000782BC9B20A44127CDFF8583CC9B20B44F9
:1048900083F87020DFF8602BC9B2525CDFF8443C2B
:1048A000C9B20B4483F8F020DFF8342CD279022A05
:1048B00014D1DFF8342CC9B20A44127CDFF8243C4E
:1048C000C9B20B4483F87020DFF81C2CC9B2525CCB
:1048D000DFF8103CC9B20B4483F8F020DFF8002C5D
:1048E000D279032A14D1DFF8042CC9B20A44127C0D
:1048F000DFF8F03BC9B20B4483F87020DFF8EC2BF3
:10490000C9B2525CDFF8DC3BC9B20B4483F8F0203B
:10491000DFF8DC2BD278012A12D1DFF8D82BC9B20C
:104920000A44127CDFF8BC3BC9B25A54DFF8C42BEE
:10493000C9B2525CDFF8AC3BC9B20B4483F88020AB
:10494000DFF8AC2BD278022A12D1DFF8AC2BC9B237
:104950000A44127CDFF88C3BC9B25A54DFF8982B1A
:10496000C9B2525CDFF87C3BC9B20B4483F88020AB
:10497000DFF87C2BD278002A12D1DFF8802BC9B265
:104980000A44127CDFF85C3BC9B25A54DFF86C2B46
:10499000C9B2525CDFF84C3BC9B20B4483F88020AB
:1049A000DFF83C2B5279002A14D1DFF8502BC9B222
:1049B0000A44127CDFF82C3BC9B20B4483F8302048
:1049C000DFF8382BC9B2525CDFF8183BC9B20B4490
:1049D00083F8B020DFF8082B5279012A14D1DFF8D0
:1049E000202CC9B20A44127CDFF8F83AC9B20B4451
:1049F00083F83020DFF8082CC9B2525CDFF8E43AC3
:104A0000C9B20B4483F8B020DFF8D42A527A002AC6
:104A100014D1DFF8E82AC9B20A44127CDFF8C43A9C
:104A2000C9B20B4483F85020DFF8D02AC9B2525CD7
:104A3000DFF8B03AC9B20B4483F8D020DFF8A02ADF
:104A4000527A022A14D1DFF8BC2BC9B20A44127C74
:104A5000DFF8903AC9B20B4483F85020DFF8A42B5A
:104A6000C9B2525CDFF87C3AC9B20B4483F8D0205B
:104A7000DFF86C2A527A012A14D1DFF88C2BC9B2E4
:104A80000A44127CDFF85C3AC9B20B4483F8502028
:104A9000DFF8742BC9B2525CDFF8483AC9B20B4454
:104AA00083F8D020DFF8382A527A032A2FD1C0B2F7
:104AB000002814D1DFF8442AC9B20A44127CDFF876
:104AC000243AC9B20B4483F85020DFF8302AC9B227
:104AD000525CDFF8103AC9B20B4483F8D020C0B260
:104AE000002814D0DFF8202BC9B20A44127CDFF86A
:104AF000F439C9B20B4483F85020DFF80C2BC9B24B
:104B0000525CDFF8E039C9B20B4483F8D020DFF8FB
:104B1000D029127A002A14D1DFF8E029C9B20A4458
:104B2000127CDFF8C039C9B20B4483F86020DFF88B
:104B3000CC29C9B2525CDFF8AC39C9B20B4483F856
:104B4000E020DFF89C29127A012A14D1DFF8BC2A70
:104B5000C9B20A44127CDFF88C39C9B20B4483F81D
:104B60006020DFF8A82AC9B2525CDFF87839C9B2F0
:104B70000B4483F8E020DFF86829127A022A14D166
:104B8000DFF88C2AC9B20A44127CDFF85839C9B25E
:104B90000B4483F86020DFF8782AC9B2525CDFF852
:104BA0004439C9B20B4483F8E020DFF83429127A83
:104BB000032A14D1DFF85C2AC9B20A44127CDFF858
:104BC0002439C9B20B4483F86020DFF8482AC9B2FF
:104BD000525CDFF81039C9B20B4483F8E020DFF8EB
:104BE0000029127A042A14D1DFF82C2AC9B20A4407
:104BF000127CDFF8F038C9B20B4483F86020DFF88C
:104C0000182AC9B2525CDFF8DC38C9B20B4483F809
:104C1000E020DFF8CC28127A052A14D1DFF8FC292D
:104C2000C9B20A44127CDFF8BC38C9B20B4483F81D
:104C30006020DFF8E829C9B2525CDFF8A838C9B2B1
:104C40000B4483F8E020DFF898289279002A14D1E9
:104C5000DFF8CC29C9B20A44127CDFF88838C9B21F
:104C60000B4483F84020DFF8B829C9B2525CDFF862
:104C70007438C9B20B4483F8C020DFF864289279F5
:104C8000012A14D1DFF89829C9B20A44127CDFF84E
:104C90005438C9B20B4483F84020DFF88429C9B2E4
:104CA000525CDFF84038C9B20B4483F8C020DFF80B
:104CB00030289279022A14D1DFF86829C9B20A444F
:104CC000127CDFF82038C9B20B4483F84020DFF8AB
:104CD0005429C9B2525CDFF80C38C9B20B4483F8CE
:104CE000C020DFF8FC279279032A14D1DFF8342999
:104CF000C9B20A44127CDFF8EC37C9B20B4483F81E
:104D00004020DFF82029C9B2525CDFF8D837C9B299
:104D10000B4483F8C020DFF8C8279279042A14D105
:104D2000DFF80429C9B20A44127CDFF8B837C9B2E7
:104D30000B4483F84020DFF8F028C9B2525CDFF85A
:104D4000A437C9B20B4483F8C020DFF89427D27887
:104D5000002A13D1DFF8D428C9B20A44127CDFF844
:104D60008437C9B20B441A74DFF8C028C9B2525C48
:104D7000DFF87037C9B20B4483F89020DFF8602762
:104D8000D278012A13D1DFF8A828C9B20A44127CCC
:104D9000DFF85037C9B20B441A74DFF89428C9B24F
:104DA000525CDFF84037C9B20B4483F89020DFF83B
:104DB0003027D278022A13D1DFF87828C9B20A4402
:104DC000127CDFF82037C9B20B441A74DFF864286C
:104DD000C9B2525CDFF80C37C9B20B4483F890209B
:104DE000DFF8FC261279002A14D1DFF84C28C9B26A
:104DF0000A44127CDFF8EC36C9B20B4483F8202059
:104E0000DFF83428C9B2525CDFF8D836C9B20B4497
:104E100083F8A020DFF8C8261279012A14D1DFF820
:104E20001C28C9B20A44127CDFF8B836C9B20B4458
:104E300083F82020DFF80428C9B2525CDFF8A436DA
:104E4000C9B20B4483F8A020491CF5E4B3215FF0FC
:104E5000C042117004215FF0C042117010215FF058
:104E6000C04211700021C9B2802908DADFF8742627
:104E7000C9B2525CDFF878351A70491CF3E7B221E9
:104E80005FF0C042117004215FF0C0421170102128
:104E90005FF0C04211700021C9B280290ADADFF840
:104EA0004426C9B20A4492F88020DFF844351A70CB
:104EB000491CF1E7704770B50400002000F07AFA51
:104EC000DFF87C57DFF87C67E4B2012C40F081808A
:104ED000DFF80C060079012876D101213000FFF7B8
:104EE0002EFC022000F066FA032000F063FA002096
:104EF000C0B210282FDADFF8E8154979012911D15D
:104F0000DFF8FC16C0B20144097CDFF83C27C0B2D0
:104F10001154DFF8EC16C0B2095CDFF82C27C0B2E0
:104F200002441174DFF8B8154979002911D1DFF86E
:104F3000CC15C0B20144097CDFF80C27C0B2115473
:104F4000DFF8B815C0B2095CDFF8FC26C0B2024435
:104F50001174401CCCE7B3205FF0C04108700420FE
:104F60005FF0C041087010205FF0C041087014204D
:104F7000FFF738FB0020C0B2102808DADFF8C816A7
:104F8000C0B2095CDFF868241170401CF3E7B2205E
:104F90005FF0C041087004205FF0C041087010202D
:104FA0005FF0C04108701420FFF71CFB0020C0B266
:104FB000102817DADFF89016C0B20144097CDFF838
:104FC00030241170401CF2E701212800FFF7B7FBE5
:104FD00008E0012000F0EEF9022000F0EBF90320D8
:104FE00000F0E8F970BD000000000020A4040020DB
:104FF00010B504000020C0B2152880F24D81DFF802
:10500000F0140978002907D1DFF84016C0B2095C16
:10501000DFF83C26C0B21154DFF8D4140978012916
:1050200007D1DFF83016C0B2095CDFF82426C0B221
:105030001154DFF8BC140978022907D1DFF81816DB
:10504000C0B2095CDFF80826C0B21154C0B2112802
:1050500009DADFF80816C0B2095CDFF8F425C0B23F
:105060000244517625E0DFF8881449780A290BD1EB
:10507000DFF8EC15C0B2014411F8111CDFF8D0259F
:10508000C0B20244517614E0C0B211280BD1DFF84F
:10509000D415DFF85C245278895CDFF8B425C0B2FF
:1050A0000244517605E02021DFF8A425C0B2024475
:1050B0005176C0B211280ADADFF8AC15C0B2095C2B
:1050C000DFF88C25C0B2024482F8321028E0DFF805
:1050D000201489780A290CD1DFF88415C0B2014464
:1050E00011F8111CDFF86825C0B2024482F83210B2
:1050F00016E0C0B211280CD1DFF86815DFF8F023F4
:105100009278895CDFF84825C0B2024482F83210F8
:1051100006E02021DFF83825C0B2024482F83210C0
:10512000DFF8CC13C978002909D1DFF84015C0B2E7
:10513000095CDFF81C25C0B2024482F84B10DFF88E
:10514000B013C978012909D1DFF82415C0B2095C70
:10515000DFF8FC24C0B2024482F84B10DFF8901351
:10516000C978022909D1DFF80C15C0B2095CDFF853
:10517000E024C0B2024482F84B10DFF874130979BE
:10518000002909D1DFF8F014C0B2095CDFF8C024AF
:10519000C0B2024482F86410D5490979012909D1C5
:1051A000DFF8D814C0B2095CDFF8A424C0B202440E
:1051B00082F86410CE494979002909D1DFF8C0147A
:1051C000C0B2095CDFF88824C0B2024482F87D10C6
:1051D000C7494979012909D1DFF8A814C0B2095C8F
:1051E000DFF86C24C0B2024482F87D10C04989798E
:1051F000002909D1DFF89014C0B2095CDFF850240F
:10520000C0B2024482F89610B9498979012909D1BE
:10521000DFF87814C0B2095CDFF83424C0B202446D
:1052200082F89610B249C979002909D1DFF86014D3
:10523000C0B2095CDFF81824C0B2024482F8AF1093
:10524000AB49C979012909D1DFF84814C0B2095C1A
:10525000DFF8FC23C0B2024482F8AF10A449097AF7
:10526000002909D1DFF83014C0B2095CDFF8E0236F
:10527000C0B2024482F8C8109D49097A012909D1B7
:10528000DFF81814C0B2095CDFF8C423C0B20244CE
:1052900082F8C810401CAEE6E4B2022C0AD100210C
:1052A000DFF8AC03DFF8F823127819235A431044CF
:1052B000FFF70AFAE4B2012C0AD10021DFF89003CB
:1052C000DFF8DC23127819235A431044FFF737FA2A
:1052D000E4B2002C02D1002000F06CF8DFF8C0032B
:1052E0000078062821DA0121DFF86403DFF8B02313
:1052F000127819235A4310441930FFF720FA02217B
:10530000D348DFF89C23127819235A4310443230D3
:10531000FFF715FA0321CE48DFF88423127819230A
:105320005A4310444B30FFF70AFADFF87403007851
:10533000062817D10121C648D94A127819235A43A1
:1053400010441930FFF7FBF90221C148D44A127802
:1053500019235A4310443230FFF7F1F90321BC48B6
:10536000FFF7EDF9CE480078072811D10121B848A0
:10537000CB4A127819235A4310441930FFF7DFF94A
:105380000221B348FFF7DBF90321C648FFF7D7F93D
:10539000C348007808280BD10121AD48FFF7CFF9A9
:1053A0000221C048FFF7CBF90321BF48FFF7C7F937
:1053B00010BD000050F0B0015FF0C0421170042138
:1053C0005FF0C042117010215FF0C04211700021E7
:1053D00089B280290BDA0022054B1A700022B2F53F
:1053E000FA7F02D200BF521CF9E7491CF0E7704770
:1053F0000100006084020020A4020020B0205FF0C1
:10540000C041087004205FF0C041087010205FF0B8
:10541000C0410870002080B280280BDA0021A34A26
:1054200011700021B1F5FA7F02D200BF491CF9E7E3
:10543000401CF0E7B1205FF0C041087004205FF02D
:10544000C041087010205FF0C0410870002080B299
:1054500080280BDA0021954A11700021B1F5FA7FFE
:1054600002D200BF491CF9E7401CF0E7B2205FF010
:10547000C041087004205FF0C041087010205FF048
:10548000C0410870002080B280280BDA0021874AD2
:1054900011700021B1F5FA7F02D200BF491CF9E773
:1054A000401CF0E7B3205FF0C041087004205FF0BB
:1054B000C041087010205FF0C0410870002080B229
:1054C00080280BDA0021794A11700021B1F5FA7FAA
:1054D00002D200BF491CF9E7401CF0E7704700000A
:1054E000DC2A002060220020C4020020E402002008
:1054F000E82A002044020020640200203C2A002008
:10550000B0205FF0C041087004205FF0C041087017
:1055100010205FF0C0410870002080B280280DDAB2
:10552000634980B2095C614A11700021B1F5FA7FCC
:1055300002D200BF491CF9E7401CEEE7B1205FF042
:10554000C041087004205FF0C041087010205FF077
:10555000C0410870002080B280280FDA544980B220
:10556000014491F88010514A11700021B1F5FA7F81
:1055700002D200BF491CF9E7401CECE7B2205FF003
:10558000C041087004205FF0C041087010205FF037
:10559000C0410870002080B280280FDA444980B2F0
:1055A000014491F80011414A11700021B1F5FA7FD0
:1055B00002D200BF491CF9E7401CECE7B3205FF0C2
:1055C000C041087004205FF0C041087010205FF0F7
:1055D000C0410870002080B280280FDA344980B2C0
:1055E000014491F88011314A11700021B1F5FA7F20
:1055F00002D200BF491CF9E7401CECE770470000ED
:10560000E4030020C4030020A4030020840300203E
:10561000040300202403002044030020640300202E
:10562000440400206404002084040020E4010020DD
:10563000040200202402002004040020240400208E
:1056400080C5000890C50008602300202CC3000816
:105650006024002044C300085CC3000874C3000831
:1056600038C60008FCC500088CC30008D4C3000875
:10567000A4C30008BCC3000804C40008ECC30008AD
:1056800034C400081CC4000864C400084CC40008EA
:1056900094C400087CC40008ACC40008C4C400085A
:1056A000632B002079240020922400200100006058
:1056B00018BE0008002203F0EDB80000034800689F
:1056C00050F480700149086070470000007000408D
:1056D00070B582B0040000252078C00640F1D1806A
:1056E000DFF83C09006810F00C0F7AD1DFF82C09C4
:1056F0000068800704D5A069002801D1012001E3DA
:10570000DFF818090068000705D5DFF81009006800
:1057100010F0F00005E0DFF8B4090068000910F0AF
:10572000F000216A884225D2206A00F07BFC002824
:1057300001D00120E6E2DFF8E408006850F008003C
:10574000DFF8D8180860DFF8D40800687FF0F001AF
:105750000840216A0843DFF8C4180860DFF87009C0
:10576000006830F47F40E16950EA0120DFF86019F9
:10577000086024E0DFF8A408006850F00800DFF8B3
:105780009C180860DFF8940800687FF0F00108407A
:10579000216A0843DFF884180860DFF834090068DC
:1057A00030F47F40E16950EA0120DFF824190860F5
:1057B000206A00F037FC002801D00120A2E200F0AE
:1057C0008FFBDFF81019DFF858281268C2F30312B4
:1057D000895CC840DFF8F01808600020FEF793FDF0
:1057E0004FE0A069002835D0DFF83008006850F09D
:1057F0000100DFF828180860FEF79DFD0500DFF8BE
:105800001C080068800706D4FEF795FD401B03289E
:10581000F5D3032076E2DFF80408006850F00800B2
:10582000DFF8F8170860DFF8F40700687FF0F00190
:105830000840216A0843DFF8E4170860DFF89008A1
:10584000006830F47F40E16950EA0120DFF88018F9
:10585000086016E0DFF8C407006840084000DFF881
:10586000BC170860FEF767FD0500DFF8B0070068A9
:10587000800706D5FEF75FFD401B0328F5D3032004
:1058800040E22078C00771D5DFF89407006810F077
:105890000C0008280DD0DFF88807006810F00C0015
:1058A0000C2810D1DFF81C08006810F00300032852
:1058B00009D1DFF868070068800357D560680028C1
:1058C00054D101201EE26068B0F5803F08D1DFF8B6
:1058D0004C07006850F48030DFF84017086024E07F
:1058E0006068B0F5A02F10D1DFF83007006850F4E1
:1058F0008020DFF828170860DFF82007006850F4E0
:105900008030DFF8181708600FE0DFF81007006834
:1059100030F48030DFF804170860DFF80007006813
:1059200030F48020DFF8F4160860606800280ED09C
:10593000FEF701FD0500DFF8E4060068800315D4DA
:10594000FEF7F9FC401B6528F5D30320DAE1FEF7EA
:10595000F2FC0500DFF8C4060068800306D5FEF7F8
:10596000EAFC401B6528F5D30320CBE120788007B3
:1059700067D5DFF8AC06006810F00C0004280DD0E5
:10598000DFF89C06006810F00C000C281CD1DFF832
:105990003407006810F00300022815D1DFF87C06F8
:1059A0000068400504D5E068002801D10120A9E184
:1059B000DFF81C07006830F0F850216950EA0160F8
:1059C000DFF80C1708603CE0E068002822D0DFF820
:1059D0004C06006850F48070DFF840160860FEF74F
:1059E000AAFC0500DFF834060068400506D4FEF77F
:1059F000A2FC401B0328F5D3032083E1DFF8D00687
:105A0000006830F0F850216950EA0160DFF8C016F4
:105A1000086016E0DFF80406006830F48070DFF8F4
:105A2000FC150860FEF787FC0500DFF8F00500684C
:105A3000400506D5FEF77FFC401B0328F5D3032065
:105A400060E12078000730D56069002816D0DFF8C3
:105A50007C06006850F00100DFF870160860FEF761
:105A60006AFC0500DFF86406006880071DD4FEF7B5
:105A700062FC401B0328F5D3032043E1DFF84C060A
:105A8000006840084000DFF844160860FEF753FC49
:105A90000500DFF838060068800706D5FEF74BFCE6
:105AA000401B0328F5D303202CE12078400740F168
:105AB00094800026DFF820060068C00010D4DFF8CC
:105AC0001806006850F08050DFF80C160860DFF808
:105AD0000806006810F08050009000980120060031
