:020000040800F2
:10000000500B00208DC6000827AA000829AA000866
:100010002BAA00082DAA00082FAA00080000000043
:1000200000000000000000000000000031AA0008ED
:1000300033AA00080000000035AA000837AA00080B
:10004000E9C60008EDC60008F1C60008F5C60008BC
:10005000F9C60008FDC6000801C7000805C700086A
:1000600009C700080DC7000811C7000815C7000818
:1000700019C700081DC7000821C7000825C70008C8
:1000800029C700082DC7000831C7000835C7000878
:1000900039C700083DC7000841C7000845C7000828
:1000A00049C700084DC7000851C7000855C70008D8
:1000B00059C700085DC7000861C7000865C7000888
:1000C00069C700086DC7000871C7000875C7000838
:1000D00079C700087DC700083FAA000881C700084B
:1000E00085C7000889C700088DC7000891C70008A8
:1000F00095C7000899C700089DC70008A1C7000858
:10010000A5C70008A9C70008ADC70008B1C7000807
:10011000B5C70008B9C70008BDC7000851AA000844
:10012000C1C70008C5C70008C9C70008CDC7000877
:10013000D1C70008D5C70008D9C70008DDC7000827
:10014000E1C70008E5C70008E9C7000845BB00088B
:10015000EDC70008F1C70008F5C70008F9C7000897
:10016000FDC7000801C8000805C8000809C8000844
:100170000DC8000811C8000815C8000800000000DC
:1001800019C800081DC80008DFF8D80B0068C0F3C4
:1001900002207047012110F01F029140DFF8C82BA8
:1001A00040B2430942F82310704710B440B200280F
:1001B00009D50A01DFF8683940B210F00F04234472
:1001C00003F8042C04E00A01DFF8A03B40B21A5403
:1001D00010BC704770B4030013F00704D4F1070695
:1001E000052E01D3042001E0D4F10700261D072EBF
:1001F00001D2002500E0E51E012616FA00F0401E9F
:100200000840A8400121A940491E1140084370BC84
:1002100070478168DFF8582B114051F0010181606F
:1002200070478268DFF84C3B1A4011F080431A4354
:1002300052F00042826070478068C00F704781684A
:10024000DFF82C2B114051F00401816070470168E8
:1002500051F0010101607047016831F00201016055
:100260007047C16851F00101C160704781B0DFF88B
:10027000081B09680143DFF8002B1160DFF8F81A4A
:10028000096801400091009901B0704738B5040039
:100290000D00DFF8E80A0068B0F5802F22D2DFF801
:1002A000E00A02F00EFD002001002A00C9B2D2B21D
:1002B000914213D2C0B234F81010DFF8C02A12688D
:1002C000520002F1C84220321180DFF8B01A0968EA
:1002D000491CDFF8A82A1160401CE5E7DFF8A00AF6
:1002E00002F0D8FC31BD70B504000D001600DFF837
:1002F000900A02F0E6FC002001002A00C9B2D2B246
:1003000091420CD2C0B2710011EB400101F1C84121
:1003100020310988C0B224F81010401CECE7DFF847
:10032000600A02F0B7FC70BD38B504000D00DFF8BC
:10033000500A02F0C6FCEDB2680010F1C84004801B
:10034000DFF83C0A02F0A6FC31BD38B504000025F8
:10035000DFF82C0A02F0B5FCE4B2600010F1C840EE
:1003600000880500DFF8180A02F094FC280080B22B
:1003700032BD10B50400DFF8080A02F0A2FCDFF875
:10038000FC090068400000F1C84020300480DFF81C
:10039000EC090068401CDFF8E4190860DFF8DC09AC
:1003A0000068DFF8E0190860DFF8D40902F072FC99
:1003B00010BD70B504000D00DFF8CC09DFF8CC19D2
:1003C000098820F81140DFF8C4090088401CDFF8D4
:1003D000BC190880DFF8B40900881E2803DB002060
:1003E000DFF8A8190880DFF8A80900781E280DDAC0
:1003F000DFF89C090078401CDFF894190870DFF8DA
:1004000094090078401CDFF88C190870DFF8800927
:1004100000781E28C0F23F82DFF8780900781E2895
:1004200006DADFF870090078401CDFF868190870F8
:100430000020DFF86419088040F6FF70DFF85C19CF
:1004400008800020C0B21D2825DADFF84C19098881
:10045000DFF83429C0B232F81020914207D2DFF819
:100460002819C0B231F81010DFF82C291180DFF8FC
:100470001819C0B231F81010DFF820291288914203
:1004800007D2DFF80419C0B231F81010DFF80C29D8
:100490001180401CD6E7ADB2DFF8FC080088DFF819
:1004A000FC180988401A85422ADADFF8E808007843
:1004B0001E2811DB0120DFF8E8180870DFF8E408D7
:1004C0000078012803D00120DFF8DC180870012033
:1004D000DFF8D01808701FE00120DFF8C41808709A
:1004E0000120DFF8C01808700020DFF8BC18087081
:1004F000DFF8A0080078401EDFF8981808700BE0BD
:100500000020DFF8A81808700020DFF894180870A1
:100510000020DFF890180870DFF8840800780128C0
:1005200040F02F810022DFF88818DFF8880802F0F9
:10053000EAFC0022DFF88018DFF8780802F0A1FD5D
:10054000DFF86C088078DFF874188870DFF86008CE
:100550004078DFF868184870DFF854080078DFF852
:100560005C180870DFF850088078DFF8541888703D
:10057000DFF844084078DFF848184870DFF838089A
:10058000C078DFF83C18C8700120DFF838184871CF
:10059000DFF814080078012840F0A68041F2893085
:1005A000DFF8241808600020DFF820180870DFF852
:1005B000CC070068DFF8181808600120DFF8EC1796
:1005C0000870DFF810080078401CDFF80818087081
:1005D0000020DFF8041808804AF65520DFF8F817E5
:1005E0004880DFF8F0070078DFF8EC178880DFF844
:1005F000EC070078DFF8E017C880DFF8E407007840
:10060000DFF8D4170881DFF8D8074088DFF8C8176B
:100610004881DFF8CC070079DFF8BC178881DFF864
:10062000C007C088DFF8B017C881DFF8B4070089B9
:10063000DFF8A4170882DFF8A807807ADFF8981798
:100640004882DFF87C078078DFF88C178882DFF833
:1006500070074078DFF88017C882DFF86407C07839
:10066000DFF874170883DFF854070078DFF868179D
:100670004883DFF848074078DFF85C178883DFF8A5
:100680003C078078DFF85017C883DFF85407C0892B
:1006900080B2000AC0B2DFF8401708841121DFF8E9
:1006A0003807FFF7F3FD0026F6B21D2E18DADFF843
:1006B00034070088411CDFF82C271180DFF8C816AA
:1006C00080B231F81000FFF754FEDFF818070088F9
:1006D0001E2803DB0020DFF80C170880761CE3E7F8
:1006E0000020DFF8C4160870DFF8BC060078002888
:1006F00036D1DFF8A00600781E2831DA0120DFF8B5
:10070000AC160870DFF88C060078002820D0002690
:100710003000DFF880160978C0B2884218D2DFF8BE
:10072000C4060088411CDFF8BC261180DFF858168B
:1007300080B231F81000FFF71CFEDFF8A806008831
:100740001E2803DB0020DFF89C160880761CDFE7FC
:10075000200080B2FFF70DFE0020DFF83816087089
:10076000DFF844060078002840F08F80DFF8240688
:1007700000781E2840F08980200080B2FFF7F9FD44
:1007800083E0DFF864060078012867D10026F6B21E
:100790001D2E1CDADFF84C060088411CDFF84426C9
:1007A0001180DFF8E41580B231F81000FFF7E1FDA9
:1007B000DFF8300600881E2803DB0020DFF824164F
:1007C00008800020DFF8CC150870761CDFE70621D2
:1007D000DFF8A8050068000C80B2FFF7A5FD07212F
:1007E000DFF89805006880B2FFF79EFD0821DFF86A
:1007F000E405007880B2FFF797FDDFF8D0050078B8
:1008000000282BD1DFF8C0050068002826D0DFF8CB
:10081000C4050078401EDFF8BC1508700020DFF822
:10082000A81508600821DFF8AC05007880B2FFF752
:100830007BFDDFF89C050068DFF8401508600621A5
:10084000DFF838050068000C80B2FFF76DFD072166
:10085000DFF82805006880B2FFF766FDDFF88C0539
:100860000088401CDFF884150880DFF884050078D4
:10087000DFF87815098880B2884206D2DFF864056F
:100880000088401CDFF85C150880DFF81805007848
:10089000DFF85415087070BD00B585B02020FFF753
:1008A000E5FC684602F077FC63200290002003908C
:1008B000002001902F20ADF800006946DFF83405D4
:1008C00002F075FCDFF82C05FFF7C6FCFFF75CFCB7
:1008D00000220021FFF77EFC01003720FFF765FCB6
:1008E000DFF81005FFF7BDFC3720FFF753FCDFF8FA
:1008F0000405FFF7ACFC05B000BD0FB438B5179D7B
:10090000189C4FF47A700090E4B223009BB2DFF899
:10091000E824EDB2290089B204A802F02FFD0028D6
:1009200004D004A802F0F4FD0428EAD131BC5DF83B
:1009300014FB0FB438B5179D189C4FF47A700090D3
:10094000E4B223009BB2DFF8B424EDB2290089B2EF
:1009500004A802F013FD002804D004A802F0D8FD7A
:100960000428EAD131BC5DF814FB0000F0B59BB05F
:100970001020DFF888140870CA20DFF8801448704F
:100980000024C825E4B2012C63D0DFF8700440785D
:10099000801EDFF868144870002640F6FF770220BA
:1009A000109058200F90DFF8581484B068464C22FD
:1009B00002F09CFE0FBCFFF7BCFF002080B242F2A9
:1009C0001071884202DA00BF401CF7E70020C0B275
:1009D0000A2836DADFF82C1409780129FAD1002127
:1009E000DFF820241170DFF82014098811AAC0B2A2
:1009F00022F81010310011AAC0B232F8102089B2CA
:100A0000914204D211A9C0B231F810100E0011A900
:100A1000C0B231F810103A0092B2914204D211A93A
:100A2000C0B231F810100F00C0B2002807D0ADB22C
:100A3000B6B2BFB2F11B8D4201DA01210C00401C9D
:100A4000C5E7DFF8B803407833289BDA01200400BB
:100A500098E7DFF8A8034078801CDFF8A0134870FF
:100A6000DFF898034078DFF8A41308701BB0F0BDDE
:100A700010B50400DFF89803844250D10122DFF85A
:100A80009413DFF88C0302F0D8FEDFF888030078B7
:100A9000DFF88413DFF8842312788854DFF87C03AE
:100AA0000078401CDFF874130870DFF870030078DA
:100AB000C82803DB0020DFF864130870DFF8540354
:100AC0000078242804D0DFF858030078012826D1C4
:100AD0000120DFF84C130870DFF838030078DFF8E6
:100AE0004413DFF8442312788854DFF83C0300787D
:100AF000401CDFF834130870DFF82803DFF82813F0
:100B00000978084410F8010C2A2808D10020C449AB
:100B100008700020C44908700120C449087010BD45
:100B200018ED00E000B591B0C14800787F2803D1EE
:100B3000BF484078AA2804D0BE480078012840F079
:100B40000F81BC480078012831D1BB4800682030B3
:100B5000B9490860B8480068B8490988884202D392
:100B60000020B4490870B44802682021B448FFF757
:100B7000BAFB0020C0B2202814DAB149C0B231F863
:100B8000101089B2090AAF4AC0B202F81010AC497D
:100B9000C0B231F81010AB4AC0B202EB4002517043
:100BA000401CE7E74021A74803F0DCFBD8E0A04861
:100BB000C07801283DD10720FFF7C7FB9F49088077
:100BC00000209D490860002220219D48FFF78BFBF3
:100BD00000209C49087000209A4948709748008876
:100BE00080B2000A97498870944800889549C87077
:100BF0000020C0B21E2815DA9149C0B231F8101099
:100C000089B2090A8F4AC0B202EB400211718C49C5
:100C1000C0B231F810108B4AC0B202EB40025171E1
:100C2000401CE6E74021874803F09CFB01208149F6
:100C300008707F48C07802280CD17D4800797C4933
:100C4000497951EA00205F4908800A215D480088FF
:100C5000FFF76AFB7648C078032802D101207A4961
:100C600008707348C078042810D1012077490870B3
:100C70006F480079002802D10020584908726C485A
:100C80000079012802D10120544908726848C078CF
:100C9000062844D110205849087065480079564903
:100CA0004870022010905E200F90554984B068462D
:100CB0004C2202F01BFD0FBCFFF71FFE0120644910
:100CC0000870634800780128FBD000205D49087057
:100CD00000205C494870AA205A4988705E20594912
:100CE000C8700020C0B2142815DA5A49C0B231F8D1
:100CF000101089B2090A534AC0B202EB40021171C6
:100D00005449C0B231F810104E4AC0B202EB400252
:100D10005171401CE6E740214A4803F023FB444858
:100D2000C078072819D142480079002803D14048EB
:100D30004079494908703E480079012803D13C4870
:100D4000407946490870092143480078434A12789F
:100D500052EA002080B2FFF7E7FA00203449087019
:100D600011B000BD0CED00E000E100E000E400E0A7
:100D7000C0FFFF7FC0FFFF3F58100240182B00202C
:100D8000642800201C2B002044250020482B002034
:100D90008E2B00208C2B0020442B00203E070020AF
:100DA0008D2B0020902B0020602B00209A2B002000
:100DB000882A0020182A00200C2B00209C2A0020C2
:100DC000102B0020DC2A0020082B0020702B002094
:100DD000F82A00208F2B0020F0290020E82A00208C
:100DE000742A0020462B0020912B00204A2B002043
:100DF0004407002000140040002B0020C42A0020DB
:100E0000182800209E2B0020502B00206A2B002049
:100E1000D4260020D02A00200C260020992B002068
:100E2000942B0020B4270020932B0020952B00202A
:100E3000FC280020632B0020F42A00204C2B0020EB
:100E4000500B00203C290020862B0020892B0020FD
:100E5000642B0020BC290020450700204607002005
:100E600030B591B003F09AFA01F00CFB01F0C4FD2B
:100E700001F020FD01F0BCFC01F010FC01F06EFB64
:100E800001F054FC03F096FA0620FFF75EFADFF853
:100E9000741B08600720FFF758FADFF8681B096821
:100EA000090411FA80F0DFF85C1B0860DFF8540BCE
:100EB0000068B0F5802F03D90020DFF8481B0860D8
:100EC000DFF8400B0068DFF8401B08600820FFF7E0
:100ED0003CFADFF8381B08700A20FFF736FADFF813
:100EE000301B08800920FFF730FA80B2000ADFF8D3
:100EF000241B08700920FFF728FADFF81C1B087074
:100F00000B20FFF722FADFF8141B08700B20FFF705
:100F10001CFA80B2000ADFF8081B0870DFF8F00A3C
:100F20000088B0F57A7F03DB0120DFF8E41A08803F
:100F3000FFF7B2FC00224FF40071DFF8E80A03F07B
:100F400052FB01220121DFF8DC0A03F04CFB0022F6
:100F50000421DFF8D40A03F046FB03F02BFC04F075
:100F6000F7FA47F23050DFF8C41A08800320DFF8A0
:100F7000A01AC8710020DFF8981A88700020DFF8E6
:100F8000901A48710020DFF8881A08720020DFF8F4
:100F9000801A88710120DFF8781AC8700020DFF805
:100FA000701A08710020DFF8881A08700120DFF835
:100FB000801A48700A20DFF8781A88700020DFF85D
:100FC000701AC8700020DFF8681A08710020DFF876
:100FD000601A08720020DFF8581AC8710020DFF884
:100FE000501A8871DFF84C0AFFF729F91020DFF852
:100FF000481A0870DFF8240A0078002804D0DFF8C7
:101000001C0A0078FF2806D1DFF8080A0078DFF80C
:10101000281A487005E0DFF8000A0078DFF8181A8F
:101020004870022010905E200F90DFF8101A84B0F4
:1010300068464C2202F05AFB0FBCFFF75EFC0C2006
:10104000FFF783F9DFF8E81948700C20FFF77DF906
:1010500080B2000ADFF8D8198870DFF8D4098078E8
:10106000FF2803D10020DFF8C8198870DFF8C00915
:1010700040780A2871D0DFF8B80940780B286CDA7C
:101080001020DFF8BC190870DFF8A40940780028A8
:1010900003D11120DFF8A8194870DFF894094078CF
:1010A000012803D10D20DFF898194870DFF8800976
:1010B0004078022803D10A20DFF884194870DFF84D
:1010C00070094078032803D10920DFF874194870AB
:1010D000DFF85C094078042803D10820DFF86019A4
:1010E0004870DFF84C094078052803D10720DFF865
:1010F00050194870DFF838094078062803D10620D7
:10110000DFF83C194870DFF828094078072803D138
:101110000520DFF82C194870DFF8140940780828FA
:1011200003D10420DFF818194870DFF8040940786B
:10113000092803D10320DFF8081948700220109015
:1011400058200F90DFF8F41884B068464C2202F063
:10115000CDFA0FBCFFF7EDFB03E00020DFF8D0185D
:101160004870DFF8BC080078002803D10020DFF8C1
:10117000C0184871DFF8A8080078012807D10120BD
:10118000DFF8AC1848710120DFF8B81808700024A7
:10119000641CB4F57A7F03D300200400FFF7C2FC7F
:1011A000DFF8A4080078012808D1DFF8300E0078B5
:1011B000032803D10020DFF8241E0870DFF88C0814
:1011C0000088002812D10022DFF88418DFF8840894
:1011D00001F099FE0022DFF88018DFF8780801F0AE
:1011E00050FF42F21070DFF864180880DFF86C08D6
:1011F0000078012840F0B082DFF8640880792C285C
:1012000040F01782DFF85808C0792C2800F01182CE
:10121000DFF84C08807C412840F00B820020DFF88A
:1012200044180870DFF838080078DFF83C180870B8
:10123000DFF82C084078DFF830184870DFF8200815
:101240008078DFF824188870DFF81408C078DFF899
:101250001818C870DFF808080079DFF80C18087152
:10126000DFF8FC074079DFF800184871DFF8F00775
:101270008079DFF8F4178871DFF8E407C079DFF8C8
:10128000E817C871DFF8D807007ADFF8DC170872B2
:10129000DFF8CC07407ADFF8D0174872DFF8C007D4
:1012A000807ADFF8C4178872DFF8B407C07ADFF8F5
:1012B000B817C872DFF8A807007BDFF8AC1708730F
:1012C000DFF89C07407BDFF8A0174873DFF8900732
:1012D000807BDFF894178873DFF88407C07BDFF822
:1012E0008817C873DFF87807007CDFF87C1708746C
:1012F000DFF86C07407CDFF870174874DFF8600790
:10130000807CDFF864178874DFF85407C07CDFF84E
:101310005817C874DFF84807007DDFF84C170875C8
:10132000DFF83C07407DDFF840174875DFF83007ED
:10133000807DDFF8341788750020C0B23C2816DAAB
:10134000DFF81C17C0B2095C2C290ED1DFF88C1D08
:101350000978491CDFF8842D1170DFF8801D0978A9
:10136000092902D1DFF8781D0870401CE5E700204C
:10137000DFF8681D0870DFF8E806007D0A21DFF855
:10138000E026527D01FB00201038DFF8581D087060
:10139000DFF8CC06807D642110FB01F0DFF8C01679
:1013A000C97D0A2211FB0200DFF8B416497E4018FD
:1013B00041F2D041401ADFF82C1D4880DFF8A0062A
:1013C000807FDFF8201D0871DFF8940690F8200078
:1013D000642110FB01F0DFF8881691F821100A2231
:1013E00011FB0200DFF8781691F82210401841F244
:1013F000D041401ADFF8EC1CC880DFF8640690F892
:101400002300642110FB01F0DFF8541691F824103A
:101410000A2211FB0200DFF8481691F82610401846
:1014200041F2D041401ADFF8BC1C0881DFF83006D9
:1014300090F82B00DFF8AC1C8872DFF82406C07926
:101440000A21DFF81C26127A01FB00201038DFF891
:10145000941CC872DFF80806407A0A21DFF80026DB
:10146000927A01FB00201038DFF8781C0873DFF84F
:10147000F005C07A0A21DFF8E825127B01FB002085
:101480001038DFF8601C4873DFF8D405807B6421D6
:1014900010FB01F0DFF8C815C97B0A2211FB02001E
:1014A000DFF8BC15097C401841F2D041401ADFF842
:1014B000341CC881DFF8A80590F837002C282DD1FE
:1014C000DFF89C0590F838000A21DFF8942592F89F
:1014D000392001FB00201038DFF8081C0874DFF801
:1014E000800590F83A000A21DFF8742592F83B2035
:1014F00001FB00201038DFF8EC1B4874DFF86005B2
:1015000090F83C000A21DFF8582592F83D2001FBB5
:1015100000201038DFF8CC1B88743EE0DFF840056F
:10152000DFF8BC1B0978084440780A21DFF8302531
:10153000DFF8AC3B1B781A44927801FB002010388E
:10154000DFF8A01B0874DFF81805DFF8941B097892
:101550000844C0780A21DFF80825DFF8843B1B78AF
:101560001A44127901FB00201038DFF8781B487408
:10157000DFF8EC04DFF8681B0978084440790A2199
:10158000DFF8DC24DFF8583B1B781A44927901FB22
:1015900000201038DFF84C1B8874DFF8480B007C03
:1015A000DFF8441B8870DFF83C0B407CDFF8381B09
:1015B0004870DFF8300B807CDFF82C1BC8700022ED
:1015C000DFF8241BDFF88C0401F0CFFCDFF8140BEC
:1015D000C07ADFF8181B0870DFF8080B007BDFF813
:1015E0000C1B4870DFF8FC0A407BDFF8001B88709A
:1015F0000022DFF8F81ADFF85C0401F0EBFB0120B1
:10160000DFF80C144872DFF8E80A0078401CDFF8B5
:10161000E01A0870DFF8D80A00780328C0F2998031
:101620000020DFF8CC1A08700120DFF8C81A087013
:101630008FE0DFF82C0480792C2840F08780DFF8D9
:101640002004C0792C2800F08180DFF81404807C0D
:1016500056287BD10120DFF80C140870DFF8000455
:101660000078DFF804140870DFF8F4034078DFF83E
:10167000F8134870DFF8E8038078DFF8EC1388701F
:10168000DFF8DC03C078DFF8E013C870DFF8D003C0
:101690000079DFF8D4130871DFF8C4034079DFF86C
:1016A000C8134871DFF8B8038079DFF8BC1388717C
:1016B000DFF8AC03C079DFF8B013C871DFF8A0031E
:1016C000007ADFF8A4130872DFF89403407ADFF899
:1016D00098134872DFF88803807ADFF88C138872D9
:1016E000DFF87C03C07ADFF88013C872DFF870037C
:1016F000007BDFF874130873D948407BDFF8681368
:101700004873D748807BD8498873D548C07BD64971
:10171000C873D348007CD4490874D148407CD2496E
:101720004874CF48807CD0498874CD48C07CCE496D
:10173000C874CB48007DCC490875C948407DCA496A
:101740004875C748807DC849887502E00220C549B0
:1017500008700020C1490870DFF80C0D00780028DF
:101760005AD1B3484079012856D1DFF87008007883
:10177000022851D0DFF8F40C0078002820D1012293
:101780004FF40071A74802F02EFFDFF8E40C007858
:10179000002808D144F62060DFF8D81C088001201A
:1017A000DFF8CC1C0870DFF8CC0C0088002807D1CB
:1017B0000120DFF8B81C08700020DFF8B41C0870A6
:1017C000DFF8A80C0078012826D100224FF4007120
:1017D000944802F008FF0120DFF88C1C0870C82034
:1017E00003F090FF0422DFF8501DDFF88C0C01F0AD
:1017F000E8FF47F23050DFF8841C08600122DFF870
:101800003C1DDFF8740C02F018F803208049487280
:101810000320DFF86C1C0870DFF84C0C00780128FE
:1018200041D18348407900283DD1DFF8B0070078E6
:10183000022838D0DFF8340C0078012820D10122AA
:101840004FF40071774802F0CEFEDFF8240C0078E8
:10185000002808D14FF4FA50DFF8181C0880012046
:10186000DFF80C1C0870DFF80C0C0088002807D18A
:101870000020DFF8F81B08700020DFF8F41B087068
:10188000DFF8E80B007800280DD100224FF400713A
:10189000644802F0A8FE0020DFF8CC1B087000208E
:1018A000DFF89C1C0860DFF8D40B0068002879D1B1
:1018B0005F484079012875D1DFF8AC0B007801282A
:1018C00070D1DFF81807007802286BD0DFF8700CB1
:1018D0000068002866D1DFF8A80B007803280ED135
:1018E000DFF89C0B0078401EDFF8941B08700B2279
:1018F000DFF8501CDFF8800B01F063FF4DE0DFF8EC
:10190000800B007802280ED1DFF8740B0078401E9F
:10191000DFF86C1B08700C22DFF82C1CDFF8580B6A
:1019200001F04FFF39E0DFF8580B007801280ED1A5
:10193000DFF84C0B0078401EDFF8441B08700D22C6
:10194000DFF8081CDFF8300B01F03BFF25E0DFF883
:10195000300B0078002820D1DFF8980700780028A5
:1019600006D11722DFF8E81BDFF80C0B01F029FF86
:10197000DFF88007007801280FD10D22DFF8D41B93
:10198000DFF8F40A01F01DFFDFF8CC0BDFF8B01B25
:1019900008600020DFF85C17087043F69820DFF835
:1019A000DC1A0860DFF8E00C007801286AD1DFF863
:1019B000DC0C0078012865D10020DFF8CC1C087011
:1019C0000020DFF8C81C08701148007900284DD1AC
:1019D000DFF8080E0078012801D1FEF7C7FF0120CB
:1019E000DFF8AC1C087047F23150DFF8A81C088003
:1019F000012007490871DFF8A00CDFF8241D0860FA
:101A000040E000BF182B00201C2B00208F2B002053
:101A1000DC2A00204507002046070020662B002016
:101A20008B2B0020000400480008004842070020DB
:101A3000E82A002000000450002B00201828002075
:101A4000C42A0020872B0020A02B00203C07002068
:101A5000882A0020182A00200C2B0020952B00201B
:101A6000B42700206F2B00205C2A00200020DFF824
:101A7000B41C08700020DFF8181C08700020DFF884
:101A8000601D0871DFF8000C0078012823D1DFF811
:101A9000980C007800281ED10020DFF8EC1B08709D
:101AA000DFF838050078032803D10020DFF82C1573
:101AB0000870DFF828050078012803D10320DFF83B
:101AC0001C150870DFF814050078022803D10120E6
:101AD000DFF808150870DFF8B40B007801281AD178
:101AE000DFF8000D0078002815D10020DFF89C1BDE
:101AF0000870DFF8E8040078012803D10220DFF83D
:101B0000DC140870DFF8D4040078032803D1012026
:101B1000DFF8C8140870DFF8D00C0078012810D165
:101B2000DFF8C80C007801280BD10020DFF8B01CCA
:101B300048710020DFF8B01C08700020DFF8AC1CF2
:101B40000870DFF8A80C0078012840F070810020B0
:101B5000DFF88C1C48710020DFF8901C0870DFF85B
:101B6000480D0078401CDFF8401D0870DFF8380D84
:101B70000078022803DB0020DFF82C1D0870DFF856
:101B8000280D0078002808D1DFF8500400780028DC
:101B900003D10320DFF844140870DFF80C0D00783F
:101BA000012808D1DFF834040078032803D100208D
:101BB000DFF828140870DFF82404007801280FD11A
:101BC000DFF8E80C0078401CDFF8E01C0870DFF854
:101BD000DC0C0078092803DB0020DFF8D01C08703B
:101BE000DFF8F8030078022840F02181DFF8BC0C10
:101BF000007800280FD1DFF8B80C0078401CDFF81F
:101C0000B01C0870DFF8A80C0078032803DB002064
:101C1000DFF89C1C0870DFF8940C0078012813D1C1
:101C2000DFF88C0C4078401CDFF8841C4870DFF82B
:101C3000800C40780B2803DB0020DFF8741C487010
:101C40000120DFF89C1D0870DFF8600C0078022886
:101C50000FD1DFF85C0C8078401CDFF8541C8870D2
:101C6000DFF84C0C80780B2803DB0020DFF8401CE9
:101C70008870DFF8380C007803280FD1DFF8300CBB
:101C8000C078401CDFF8281CC870DFF8240CC0782E
:101C9000032803DB0020DFF8181CC870DFF80C0CE9
:101CA000007804282AD1DFF8080C0079401CDFF8FE
:101CB000001C0871DFF8F80B0079022803DB002014
:101CC000DFF8EC1B0871DFF8E80B0079002803D17E
:101CD0000020DFF80C1B0872DFF8D40B0079012814
:101CE0000CD1DFF8000D0078002803D10120DFF8C7
:101CF000F01A08720120DFF8EC1C0870DFF8AC0B5A
:101D00000078052842D1DFF8A80B4079401CDFF8A5
:101D1000A01B4871DFF8980B4079022803DB0020F4
:101D2000DFF88C1B48710025DFF8840B4079002810
:101D300012D10020DFF8A81A48720120DFF8A81C91
:101D400008700B20FEF701FB050005F0FF050B21D5
:101D5000280080B2FEF7E8FADFF8540B407901283A
:101D600014D10120DFF8781A48720120DFF87C1CBA
:101D700008700B20FEF7E9FA00F0FF00050055F4AB
:101D800080750B21280080B2FEF7CEFADFF81C0B1D
:101D9000007806280FD1DFF8180B8079401CDFF897
:101DA000101B8871DFF8080B8079022803DB002004
:101DB000DFF8FC1A8871DFF8F40A007807281DD1D3
:101DC000DFF8EC0AC079401CDFF8E41AC871DFF8CC
:101DD000E00AC079022803DB0020DFF8D41AC871BA
:101DE000DFF8CC0AC079012804D10120DFF8001CFB
:101DF000087003E00020DFF8F81B0870DFF8AC0A79
:101E00000078082813D1DFF8A80A007A401CDFF810
:101E1000A01A0872DFF8980A007A022803DB002073
:101E2000DFF88C1A08720120DFF8C81B0870DFF891
:101E3000B8090078012840F07C810020DFF8A01963
:101E400048710020DFF8A0190870DFF85C0A0078FC
:101E5000401CDFF8541A0870DFF84C0A007802289A
:101E600003DB0020DFF8401A0870DFF83C0A007836
:101E7000002806D159480078002802D1032057498C
:101E80000870DFF8240A0078012806D1534800784A
:101E9000032802D1002051490870504800780128D9
:101EA0000FD1DFF8080A0078002803D10920DFF8F5
:101EB000FC190870DFF8F4090078401EDFF8EC190F
:101EC000087046480078022840F03381DFF8DC09CA
:101ED000007800280FD1DFF8D8090078002803D156
:101EE0000320DFF8CC190870DFF8C4090078401E21
:101EF000DFF8BC190870DFF8B4090078012813D1A5
:101F0000DFF8AC094078002803D10B20DFF8A019D6
:101F10004870DFF89C094078401EDFF8941948703B
:101F20000120DFF8BC1A0870DFF880090078022869
:101F30000FD1DFF87C098078002803D10B20DFF86F
:101F400070198870DFF868098078401EDFF8601922
:101F50008870DFF85809007803280FD1DFF850099E
:101F6000C078002803D10320DFF84419C870DFF8D7
:101F70004009C078401EDFF83819C870DFF82C0916
:101F8000007804282DD1DFF828090079002803D132
:101F90000220DFF81C190871DFF814090079401ECF
:101FA000DFF80C190871DFF808090079002803D15F
:101FB0000020DFF82C180872DFF8F40800790128F7
:101FC0000FD1DFF8200A0078002803D10120DFF8C4
:101FD000101808720120DFF80C1A01E048070020F1
:101FE0000870DFF8C8080078052842D1DFF8C0087B
:101FF0004079002803D10220DFF8B4184871DFF8D7
:10200000B0084079401EDFF8A81848710025DFF8B5
:10201000A0084079002812D10020DFF8C4174872C8
:102020000120DFF8C41908700B20FEF78EF900F0CC
:10203000FF0005000B21280080B2FEF775F9DFF8DC
:1020400070084079012814D10120DFF894174872F4
:102050000B20FEF77AF900F0FF00050055F48075BB
:102060000B21280080B2FEF75FF90120DFF87C1910
:102070000870DFF83808007806280FD1DFF830083C
:102080008079002803D10220DFF824188871DFF856
:1020900020088079401EDFF818188871DFF80C08D6
:1020A000007807282CD1DFF80808C079002803D170
:1020B0000220DFF8FC17C871DFF8F407C079401E72
:1020C000DFF8EC17C871DFF8E807C079012813D1F1
:1020D0000120DFF81C19087012E000BF6D2B0020F2
:1020E0006E2B0020742A0020142B0020B02A002020
:1020F000692B0020682B00200020DFF8F4180870FE
:10210000DFF8A8070078082813D1DFF8A407007AC1
:10211000002803D10220DFF898170872DFF8900733
:10212000007A401EDFF8881708720120DFF8C41813
:102130000870DFF8BC08007801284AD1DFF8740A7B
:102140000078022845D00020DFF86C1A08600020D3
:10215000DFF8681A08600621DFF85C0A0068000CE6
:1021600080B2FEF7E1F80721DFF84C0A006880B280
:10217000FEF7DAF80020DFF8781808700020DFF8A2
:10218000401A08700821DFF8380A007880B2FEF79C
:10219000CBF80020DFF81817C8710020DFF84016D0
:1021A00048710020DFF81C1A88700020DFF8141A2C
:1021B00048700020DFF80C1A08700020DFF8081AB9
:1021C00088700020DFF8001A48700020DFF8F81946
:1021D000C870DFF820080078012846D1DFF8D4095C
:1021E0000078022841D01020DFF8E0190870DFF8ED
:1021F000C006007A002810D1DFF8D4090078DFF893
:10220000CC1948700020DFF8CC1908700B21DFF8DA
:10221000C409007880B2FEF787F8DFF89406007AE8
:10222000012810D1DFF8B0090078DFF8A019487054
:102230000120DFF8A01908700B21DFF89809007859
:1022400080B2FEF771F8022010905E200F90DFF848
:102250008C1984B068464C2201F048FA0FBCFEF796
:102260004CFB0020DFF88C170870DFF8740700784B
:1022700001287EF48DAFDFF83C09007802283EF497
:1022800087AFDFF82C06407800280ED11120DFF848
:10229000501948700020DFF8441508700C21DFF851
:1022A0001006407880B2FEF73FF8DFF80406407869
:1022B00001280ED10D20DFF8281948700020DFF822
:1022C0001C1508700C21DFF8E805407880B2FEF795
:1022D0002BF8DFF8DC05407802280ED10A20DFF861
:1022E000001948700020DFF8F41408700C21DFF8A2
:1022F000C005407880B2FEF717F8DFF8B4054078E3
:1023000003280ED10920DFF8D81848700020DFF824
:10231000CC1408700C21DFF89805407880B2FEF7E5
:1023200003F8DFF88C05407804280ED10820DFF888
:10233000B01848700020DFF8A41408700C21DFF8F2
:102340007005407880B2FDF7EFFFDFF86405407854
:1023500005280ED10720DFF8881848700020DFF824
:102360007C1408700C21DFF84805407880B2FDF736
:10237000DBFFDFF83C05407806280ED10620DFF8A9
:10238000601848700020DFF8541408700C21DFF842
:102390002005407880B2FDF7C7FFDFF814054078CC
:1023A00007280ED10520DFF8381848700020DFF824
:1023B0002C1408700C21DFF8F804407880B2FDF787
:1023C000B3FFDFF8EC04407808280ED10420DFF8D2
:1023D000101848700020DFF8041408700C21DFF892
:1023E000D004407880B2FDF79FFFDFF8C404407846
:1023F00009280ED10320DFF8E81748700020DFF825
:10240000DC1308700C21DFF8A804407880B2FDF7D7
:102410008BFFDFF89C0440780A2809D10120EF499E
:1024200008700C21DFF88804407880B2FDF77CFF4B
:10243000EA480078002811D11020DFF8A4170870AE
:102440000220109058200F90DFF8901784B0684653
:102450004C2201F04BF90FBCFEF76BFA0020DFF8BD
:1024600080150870FEF794BE962B0020972B002055
:10247000982B0020382B0020D4260020042B00208D
:102480004707002000B5B9B005A8442103F04AF978
:102490006846142103F046F916A8882103F042F992
:1024A000142005900520079001200B90B0200D907E
:1024B00000200F900020109005A803F037F90028A5
:1024C00005D00120DFF81C17087000F0B3FB0F20C7
:1024D0000090002001900020029000200390002036
:1024E00004900421684603F038FC002801D000F075
:1024F000A1FBDFF8F4061690042025904FF48050DD
:102500002A905FF0405034904FF4807037905FF025
:102510004060319016A803F01BFE002801D000F0A7
:1025200089FB4FF4007004F0C9F9002801D000F0D5
:1025300081FB39B000BD0000CCC60008D02A0020C5
:10254000FC2A00209CC60008FCC500080CC6000838
:10255000A8C300081CC60008804F120000B589B04F
:1025600006A80021002200230EC00C386846DFF8C0
:102570007C1691EC060B80EC060BDFF87406DFF896
:10258000741608605FF40020DFF8681648600020C9
:10259000DFF8601688600020DFF85816C860012058
:1025A000DFF8501608610420DFF848164861002063
:1025B000DFF8401688610020DFF83816C861022075
:1025C000DFF8301608620020DFF828164862012084
:1025D000DFF82016C8620020DFF818160863002014
:1025E000DFF8101648630020DFF808168863002023
:1025F000DFF80016C863DFF8FC0504F0C1F9002815
:1026000001D000F017FB0020069006A9DFF8E405D2
:1026100004F0C2FD002801D000F00CFB0120009066
:1026200001200190052002900020039000200490DA
:10263000002005906946DFF8BC0504F01FFB002868
:1026400001D000F0F7FA02200090022001906946C4
:10265000DFF8A00504F012FB002801D000F0EAFA30
:102660007F21DFF88C05FDF7DCFDDFF88405FDF741
:10267000E3FD002801D000BFF7E7DFF87405FDF7A0
:10268000C8FD09B000BD00007B2B00207F2B00207F
:102690006C2B00203A2B00201098020080B5DFF848
:1026A0005805DFF838150860DFF85005DFF82C15FD
:1026B00048600020DFF8241588600120DFF81C1531
:1026C000C8600020DFF8141508610020DFF80C1541
:1026D00048610020DFF8041588610020DFF8FC1451
:1026E000C8610020DFF8F4140862DFF8F00400F09D
:1026F000DFFD002801D000F09DFA0021DFF8DC04A6
:1027000004F0E8FD002801D000F094FA0021DFF881
:10271000CC0404F011FE002801D000F08BFA01BDBA
:10272000302B0020672B0020812B002000B58BB0C0
:102730006846282102F0F6FFDFF8C404DFF8C4146D
:1027400008600020DFF8BC1448607F20DFF8B41474
:102750008860FF20DFF8AC14C8600020DFF8A41404
:1027600008610020DFF89C1448610020DFF8941411
:1027700088610020DFF88C14C861DFF8880400F05D
:10278000BBFA002801D000F055FA0120009000208B
:10279000029000200390002004900020059000206B
:1027A000069000200790002008908020099069463C
:1027B000DFF8500404F0F4FD002801D000F03AFAEC
:1027C000DFF8400404F064FE002801D000F032FA83
:1027D000DFF8300404F097FE0BB000BD922B002010
:1027E000DC2A00207D2B00207C2B0020802B002069
:1027F00080B5DFF81404006850F40030DFF80814E6
:102800000860DFF80404006810F4003000900098BD
:10281000DFF8F803DFF8F81308604FF41650DFF81C
:10282000F01348600020DFF8E81388600020DFF82C
:10283000E013C8600020DFF8D81308610C20DFF82F
:10284000D01348610020DFF8C81388614FF40040BE
:10285000DFF8BC13C8614FF40060DFF8B4130862FE
:102860000820DFF8AC1348624FF40040DFF8A013F3
:102870004863DFF89C0300F065FF002801D000F0FA
:10288000D9F900220021262004F0D0FE262004F0F1
:10289000E0FEDFF87C030068006850F00100DFF81C
:1028A00070130968086001BDA02B00206B2B00206D
:1028B000E82A002000B587B05FF02040D5490860C5
:1028C000D548D44948600020D24988600020D149C9
:1028D000C8600020CF4908610020CE49486100202F
:1028E000CC4988610020CB49C8610020C9490862F1
:1028F0004FF48050C74948620020C64988620020D2
:10290000C449C8620020C34908630020C149486324
:102910000020C04988630020BE4908640F20009051
:102920000F200190FF2002900F20039010200490B0
:10293000112005900020069000226946B54800F05D
:102940007BF9002801D000F075F95FF02040B34911
:102950000860B148B14948600220B0498860002051
:10296000AE49C8600020AD4908611020AB494861FC
:102970000020AA4988610020A849C8610020A74911
:1029800008624FF48050A54948620020A34988623C
:102990000020A249C8620020A049086300209F4986
:1029A000486300209D49886300209C4908640F20EB
:1029B00000900F200190C82002900F20039010205B
:1029C000049011200590002006900022694693484B
:1029D00000F032F9002801D000F02CF907B000BD5A
:1029E0008A2B0020882B0020612B0020872B0020C1
:1029F000862B0020892B002000B587B001A8142168
:102A000002F090FE8648006850F004008449086097
:102A10008348006810F00400009000988048006827
:102A200050F020007E4908607D48006810F02000CA
:102A3000009000987A48006850F08000784908605B
:102A40007748006810F08000009000987448006893
:102A500050F00100724908607148006810F00100F0
:102A6000009000986E48006850F002006C490860C1
:102A70006B48006810F002000090009868480068F9
:102A800050F04000664908606548006810F040005A
:102A9000009000986248006850F01000604908609B
:102AA0005F48006810F01000009000985C480068D3
:102AB00050F008005A4908605948006810F00800B2
:102AC0000090009803F048FF00221C21554801F0B7
:102AD0008AFD002230215FF0904001F084FD002249
:102AE00042F20321504801F07EFD1C20019001209C
:102AF0000290002003900020049001A9494801F0B1
:102B000079FC4FF4FE5001900020029002200390C7
:102B10000020049001A9434801F06CFC4FF47C6054
:102B2000019000200290022003900020049001A94F
:102B30003E4801F05FFC4FF6C0500190002002902B
:102B4000022003900020049001A9394801F052FCB2
:102B5000302001900120029000200390002004907A
:102B600001A95FF0904001F045FC20200190002079
:102B700002900020039001A92A4801F03BFC42F298
:102B80000320019001200290002003900020049077
:102B900001A9254801F02EFC4FF4E05001900020DF
:102BA00002900120039001A91F4801F023FC07B007
:102BB00000BD000048070020182B00201C2B00201F
:102BC0008F2B00209C2A0020102B0020002B00209F
:102BD00045070020662B002046070020182800200B
:102BE000C42A0020622B002042600200C0C30008FB
:102BF000000004504C27002000540040D38D80106A
:102C000000280040182A00205810024000440040CC
:102C1000D426002064280020040100A0B028002051
:102C20004C1002400008004800040048001400480E
:102C3000001800487047000070B504000D00160031
:102C4000002C01D1012024E094F84500002805D192
:102C5000002084F84400200004F04DFE14F1080127
:102C6000206804F06DFEA2682900206804F0CAFE06
:102C7000E36AA2683100606804F01CFF2068A16864
:102C800050F8210050F001002168A26841F82200AC
:102C9000002070BD10B5040094F84400012801D153
:102CA00002200DE0012084F84400A168206804F0AF
:102CB00034FF012084F84500002084F844000020FF
:102CC00010BD10B5040094F84400012801D1022081
:102CD00010E0012084F84400022084F84500A16837
:102CE000206804F023FF042084F84500002084F8C5
:102CF0004400002010BD000010B50400002C01D1DC
:102D0000012066E094F82100002805D1002084F815
:102D10002000200004F038FD022084F82100CA20A1
:102D200021684862532021684862200000F0F2F9CF
:102D3000002807D0FF2021684862042084F8210081
:102D4000012046E020688068DFF888130840216889
:102D5000886020688068616822691143A269114314
:102D6000084321688860E06821680861206800697C
:102D7000A16850EA0140216808612068C06830F00D
:102D800080002168C8602068806880060CD420001C
:102D900000F0A6F9002807D0FF202168486204202F
:102DA00084F82100012014E02068C06C80088000B5
:102DB0002168C8642068C06CE169626911430843F6
:102DC0002168C864FF2021684862012084F821003E
:102DD000002010BD2DE9F84304000D001600002767
:102DE00094F82000012801D102208AE0012084F813
:102DF0002000022084F82100002E1FD12068806866
:102E0000400601D40020E870287800F09FF9804641
:102E1000687800F09BF98146A87800F097F95FFA8E
:102E200088F85FFA89F95FEA092151EA0841C0B2DE
:102E30000843E97850EA0140070015E020688068FF
:102E4000400604D5287800F08CF9070001E0002046
:102E5000E87028786978090251EA0040A9780843A7
:102E6000E97850EA01400700CA20216848625320EF
:102E700021684862200000F04DF900280AD0FF20A8
:102E800021684862042084F82100002084F8200092
:102E9000012036E0DFF840023840216808602068F1
:102EA000806830F480202168886020688068E96844
:102EB0002A6911430843216888602068C06830F09F
:102EC00080002168C8602068806880060FD42000D8
:102ED00000F006F900280AD0FF202168486204208B
:102EE00084F82100002084F82000012009E0FF2060
:102EF00021684862012084F82100002084F8200025
:102F00000020BDE8F283F8B504000D00160000278C
:102F10002068806A6860206800694004400CA860EE
:102F200020680068DFF8B01108400700380C10F086
:102F30003F002870380A10F07F00687017F07F009B
:102F4000A870380C10F04000E870002E0BD12878E3
:102F500000F007F92870687800F003F96870A87825
:102F600000F0FFF8A8700020F2BD2DE9F84304003E
:102F70000D001600002794F82000012801D102203E
:102F80007DE0012084F82000022084F82100002E3A
:102F900007D16878C00604D5687810F0EF000A30D1
:102FA0006870002E19D1E87800F0D0F88046687873
:102FB00000F0CCF88146A87800F0C8F85FFA88F8ED
:102FC0005FFA89F95FEA092151EA0841C0B2084372
:102FD000297850EA4130070012E0687800F0C1F823
:102FE0000700A87800F0BDF80700E87869780902C2
:102FF00051EA0040A9780843297850EA4130070097
:10300000CA2021684862532021684862200000F0ED
:1030100081F800280AD0FF2021684862042084F843
:103020002100002084F82000012028E0DFF8AC0017
:103030003840216848602068C06830F0800021680E
:10304000C8602068806880060FD4200000F048F82F
:1030500000280AD0FF2021684862042084F821005B
:10306000002084F82000012009E0FF202168486248
:10307000012084F82100002084F820000020BDE811
:10308000F283F8B504000D001600002720684068A0
:10309000DFF8481008400700380CE870380A10F0D4
:1030A0001F00687017F03F00A870780B10F0070041
:1030B0002870002E0BD1E87800F053F8E87068789B
:1030C00000F04FF86870A87800F04BF8A870002066
:1030D000F2BD0000BFFF8FFF7F7F7F003FFFFF003B
:1030E00038B5040000252068C06830F0A0002168D1
:1030F000C86004F029FD05002068C068800607D478
:1031000004F022FD401BB0F57A7FF5D9032000E0E2
:10311000002032BD38B5040000252068C068400694
:1031200012D45FF0FF302168C86004F00DFD050087
:103130002068C068400607D404F006FD401BB0F5C7
:103140007A7FF5D9032000E0002032BD0021C0B213
:103150000A2802DB491C0A38F9E750EA0110C0B21C
:10316000704700220100C9B20909C9B20A235943B4
:103170000A00C0B210F00F008018C0B27047000003
:1031800081627047C162704701637047416951F0C5
:1031900001014161704700210180002141605FF021
:1031A000FF3181600021C16000210174704770B55A
:1031B00004000D00002620680600DFF8D4008442D9
:1031C00012D0B4F1804F0FD0DFF8C80084420BD08A
:1031D000DFF8C400844207D0DFF8C000844203D087
:1031E000DFF8BC00844204D136F07000696851EA0F
:1031F0000006DFF89C0084421ED0B4F1804F1BD043
:10320000DFF89000844217D0DFF88C00844213D09E
:10321000DFF8880084420FD0DFF8840084420BD0AE
:10322000DFF88000844207D0DFF87C00844203D0BE
:10323000DFF87800844204D136F44070E96851EA3E
:1032400000062660A9682000FFF79CFF298820005F
:10325000FFF796FFDFF8380084420FD0DFF8400018
:1032600084420BD0DFF83C00844207D0DFF83800FE
:10327000844203D0DFF83400844203D1297C20004B
:10328000FFF782FF2000FFF781FF012070BD0000E3
:10329000002C01400004004000080040000C0040E9
:1032A000003401400040014000440140004801401A
:1032B00010B50400002C01D101205EE094F841001B
:1032C000002805D1002084F84000200004F029FAED
:1032D000242084F8410020680068400840002168EC
:1032E0000860606830F0706021680861206880685C
:1032F00030F4004021688860E068012805D1A068AA
:1033000050F400402168886004E0A06850F4044054
:1033100021688860E068022803D14FF400602168CA
:1033200048602068406840F0007050F40040216818
:1033300048602068C06830F400402168C860206997
:1033400061690843A16950EA01202168C860E06909
:10335000216A0843216808602068006850F0010075
:103360002168086000206064202084F8410000206B
:103370002063002084F84200002010BD2DE9F843AE
:1033800004000D0016001F00DDF820805FF000092A
:1033900094F84100202840F0B68094F840000128BD
:1033A00001D10220B0E0012084F8400004F0CCFB01
:1033B0008146CDF80090192301224FF400412000EE
:1033C00000F0BBF8002801D003209DE0212084F804
:1033D0004100102084F84200002060646662678526
:1033E00000206063608DFF280ED9FF2020854FF4F8
:1033F000005000905FF08073228DD2B2290089B214
:10340000200000F05AF90DE0608D20854FF4005047
:1034100000905FF00073228DD2B2290089B22000A3
:1034200000F04BF9608D00284AD04A464146200002
:1034300000F0AFF8002806D0606C042801D101200C
:1034400062E0032060E0606A411C616200782168EC
:103450008862608D401E6085208D401E2085208DF5
:103460000028DFD1608D0028DCD0CDF800904346E5
:1034700000228021200000F060F8002801D0032005
:1034800042E0608DFF280DD9FF20208500200090AC
:103490005FF08073228DD2B2290089B2200000F043
:1034A0000CF9BFE7608D2085002000905FF000736D
:1034B000228DD2B2290089B2200000F0FEF8B1E7D7
:1034C0004A464146200000F090F8002806D0606C83
:1034D000042801D1012017E0032015E020202168F5
:1034E000C86120684068DFF82410084021684860FF
:1034F000202084F84100002084F84200002084F855
:103500004000002000E00220BDE8F28300E800FE59
:10351000406C7047000001688969890702D5002165
:103520000268916201688969C90705D401688969DF
:1035300051F001010268916170472DE9F0410400EA
:103540000D0016001F00DDF81880206880692840F3
:10355000A84201D1012000E00020F6B2B04215D10E
:1035600017F1010FF1D0002F05D004F0EDFAB0EB08
:1035700008008742E9D2202084F84100002084F826
:103580004200002084F84000032000E00020BDE855
:10359000F08170B504000D00160020688069800776
:1035A00021D432002900200000F048F8002801D082
:1035B000012019E015F1010FEFD0002D04D004F027
:1035C000C3FA801B8542E8D2606C50F02000606432
:1035D000202084F84100002084F84200002084F874
:1035E0004000032000E0002070BD70B504000D0015
:1035F00016002068806980061ED432002900200051
:1036000000F01CF8002801D0012016E0002D04D0A5
:1036100004F09AFA801B8542EBD2606C50F02000D7
:103620006064202084F84100002084F842000020DB
:1036300084F84000032000E0002070BD70B5040055
:103640000D00160020688069C00634D520688069A6
:10365000800614D415F1010FF8D0002D04D004F029
:1036600073FA801B8542F1D2202084F841000020AB
:1036700084F84200002084F8400003201CE0102061
:103680002168C86120202168C8612000FFF743FF3E
:10369000206840681349084021684860042060643D
:1036A000202084F84100002084F84200002084F8A3
:1036B0004000012000E0002070BD70B4039C002594
:1036C000066876683500084E354089B28E05B60D1D
:1036D000D2B256EA02461E43264335430668756059
:1036E00070BC704700E800FE009800FC103A07D359
:1036F00030B4B1E83810103AA0E83810F9D230BC34
:10370000530724BFB1E80810A0E8081044BF51F8DF
:10371000043B40F8043BD20724BF31F8022B20F8C9
:10372000022B44BF0B7803707047083A07D3B1E807
:103730000810083A40F8043B40F804CBF7D253078E
:10374000E4E7000010B50400002C01D1012037E0AF
:10375000A0690028FFD194F87100002805D100204D
:1037600084F87000200004F028F8242084F8710008
:10377000206800684008400021680860200000F0D0
:1037800097F9012801D101201AE0606A002802D0CF
:10379000200000F0E3FB2068406830F4904021688E
:1037A00048602068806830F02A00216888602068BE
:1037B000006850F0010021680860200000F03BFC28
:1037C00010BD10B4030093F87100202832D10029F5
:1037D00002D092B2002A01D101202CE093F87000AF
:1037E000012801D1022026E0012083F87000D9646D
:1037F000A3F85020A3F852200020586600205867F4
:10380000212083F871009868B0F5805F05D11869B0
:10381000002802D14048586601E040485866002020
:1038200083F870001868006850F080001C68206001
:10383000002000E0022010BC704710B4030093F891
:103840007200202864D1002902D092B2002A01D14E
:1038500001205EE093F87000012801D1022058E0B9
:10386000012083F870005965A3F85820A3F85A2066
:10387000002018669868B0F5805F0BD118690028A1
:1038800004D140F2FF10A3F85C001FE0FF20A3F872
:103890005C001BE0986800280AD11869002803D151
:1038A000FF20A3F85C0011E07F20A3F85C000DE08E
:1038B0009868B0F1805F09D11869002803D17F2092
:1038C000A3F85C0002E03F20A3F85C0000205867EA
:1038D000222083F872001868806850F001001C688C
:1038E000A0609868B0F5805F05D11869002802D102
:1038F0000B48186601E00B481866002083F870003A
:103900001868006850F490701C682060002000E087
:10391000022010BC70470000974100085541000884
:103920006D420008034200082DE9F04104002068C0
:10393000C569206806682068876815F00F00804612
:10394000B8F1000F0AD1A80608D5B00606D5206E3A
:10395000002802D02000216E8847A7E0B8F1000FB0
:1039600000F07F80F80702D416F4907F79D015F02C
:103970000100C0B2002808D0F00506D5012021685A
:103980000862606F50F001006067A8070BD517F060
:103990000100C0B2002806D0022021680862606FD2
:1039A00050F00400606768070BD517F00100C0B243
:1039B000002806D0042021680862606F50F00200E1
:1039C000606728070DD5B00604D417F00100C0B217
:1039D000002806D0082021680862606F50F00800B7
:1039E0006067606F00283BD0A80607D5B00605D5F4
:1039F000206E002802D02000216E8847606F0007EB
:103A000003D420688068400625D5200000F082FBA2
:103A10002068806840061AD52068806830F0400031
:103A200021688860E06E00280DD00FF20D70E16E05
:103A30008863E06E04F08EF8002811D0E06EE16E2D
:103A4000896B88470CE0200004F0B0F808E0200003
:103A500004F0ACF804E0200004F0A8F8002060674F
:103A600024E0E8020FD578020DD55FF480102168BC
:103A70000862202084F87100202084F87200200061
:103A800004F095F812E0280608D5300606D5606ED9
:103A9000002802D02000616E884707E0680605D53F
:103AA000700603D5200000F09BFBFFE7BDE8F08126
:103AB0002DE9F04704005FF00008102500260027DC
:103AC0005FF000095FF0000A2068DFF868148842A0
:103AD000FFD0A0682169084361690843E169084390
:103AE000804620680068DFF85014084058EA00005B
:103AF000216808602068406830F44050E16808435D
:103B000021684860A06980462068DFF82814884250
:103B100002D0206A50EA08082068806830F43060DB
:103B200058EA0000216888602068DFF81014884295
:103B30001BD1DFF80C04006810F00300002805D04A
:103B4000022806D008D3032809D00BE00120050085
:103B5000B6E002200500B3E004200500B0E0082034
:103B60000500ADE010200500AAE02068DFF8D413BE
:103B700088421CD1DFF8C803006810F00C00002850
:103B800006D004280AD0082805D00C2809D00BE05C
:103B90000020050094E00220050091E004200500CB
:103BA0008EE0082005008BE01020050088E02068EA
:103BB000DFF8941388421CD1DFF88403006810F00A
:103BC0003000002806D010280AD0202805D0302840
:103BD00009D00BE00020050072E0022005006FE034
:103BE000042005006CE00820050069E010200500B5
:103BF00066E02068DFF8541388421CD1DFF84003E8
:103C0000006810F0C000002806D040280AD08028A4
:103C100005D0C02809D00BE00020050050E00220AC
:103C200005004DE0042005004AE00820050047E0BB
:103C30001020050044E02068C54988421ED1C048D4
:103C4000006810F44070002809D0B0F5807F0CD0D7
:103C5000B0F5007F06D0B0F5407F09D00BE0002022
:103C600005002DE0022005002AE00420050027E0E1
:103C70000820050024E01020050021E02068AD495F
:103C800088421DD1AE48006810F44060002809D079
:103C9000B0F5806F0CD0B0F5006F06D0B0F5406F76
:103CA00009D00BE0002005000AE00220050007E033
:103CB0000420050004E00820050001E010200500B4
:103CC00020689C4988427CD1EDB22800002806D0AB
:103CD000022808D0042809D008280BD00EE002F0F2
:103CE000B3F982460CE09B48824609E002F023F9D2
:103CF000824605E04FF40040824601E00120814603
:103D0000BAF1000F00F00D8160680321484382453D
:103D100005D360684FF480514843504502D20120DA
:103D20008146FEE0EDB22800002806D0022814D01B
:103D300004281FD008282DD035E002F085F90200B4
:103D40004FF48073606840080021E3FB0201626861
:103D5000002303F02DFF070027E0606842080023DE
:103D60007D480021101859416268002303F020FFAC
:103D700007001AE002F0DFF802004FF48073606879
:103D800040080021E3FB02016268002303F010FFFA
:103D900007000AE06068400810F500006168B0FBA9
:103DA000F1F0070001E001208146B7F5407F05D31F
:103DB000B7F5801F02D22068C760B2E001208146BB
:103DC000AFE0E069B0F5004F5BD1EDB2280000280C
:103DD00008D0012812D002281CD0042826D0082898
:103DE00030D039E002F030F96168490811EB400049
:103DF0006168B0FBF1F080B207002FE002F02FF90C
:103E00006168490811EB40006168B0FBF1F080B2D5
:103E1000070023E06068400800F1F47010F590405E
:103E20006168B0FBF1F080B2070017E002F083F8A0
:103E30006168490811EB40006168B0FBF1F080B2A5
:103E400007000BE06068400810F580306168B0FB47
:103E5000F1F080B2070001E001208146102F0DD360
:103E6000B7F5803F0AD24FF6F07038400600C7F32E
:103E700042000643B6B22068C66052E00120814687
:103E80004FE0EDB22800002808D0012811D0022808
:103E90001AD0042824D008282DD036E002F0D4F817
:103EA000616810EB51006168B0FBF1F080B207006F
:103EB0002DE002F0D4F8616810EB51006168B0FBAE
:103EC000F1F080B2070022E06068400800F574005D
:103ED00010F510506168B0FBF1F080B2070016E0F9
:103EE00002F029F8616810EB51006168B0FBF1F055
:103EF00080B207000BE06068400810F50040616880
:103F0000B0FBF1F080B2070001E001208146102FE4
:103F100005D3B7F5803F02D22068C76001E00120D9
:103F2000814600202066002060664846C0B2BDE899
:103F3000F087000000800040F369FFEF0038014087
:103F4000881002400044004000480040004C0040FF
:103F5000005000400024F400000024F490F82410E5
:103F6000C90707D50168496831F40031826A1143F5
:103F70000268516090F82410890707D501684968E4
:103F800031F48031C26A11430268516090F8241004
:103F9000490707D50168496831F48021026B114354
:103FA0000268516090F82410090707D50168496834
:103FB00031F40041426B11430268516090F82410C3
:103FC000C90607D50168896831F48051826B1143B5
:103FD0000268916090F82410890607D50168896805
:103FE00031F40051C26B11430268916090F82410C3
:103FF000490613D50168496831F48011026C1143F8
:1040000002685160016CB1F5801F07D101684968F1
:1040100031F4C001426C11430268516090F82410E1
:10402000090607D50168496831F40021826C114303
:1040300002685160704738B50400002500206067B1
:1040400003F082FD05002068006800070DD57FF0B1
:104050007E4000902B0000225FF40011200000F051
:1040600021F8002801D003201BE0206800684007E9
:104070000DD57FF07E4000902B0000225FF4800180
:10408000200000F00FF8002801D0032009E02020D4
:1040900084F87100202084F87200002084F87000F9
:1040A000002032BD2DE9F04104000D0016001F0074
:1040B000DDF818802068C0692840A84201D101209D
:1040C00000E00020F6B2B04221D118F1010FF1D08A
:1040D000B8F1000F04D003F037FDC01B8045E9D2D2
:1040E0002068006830F4D07021680860206880681B
:1040F0004008400021688860202084F8710020205A
:1041000084F87200002084F87000032000E0002092
:10411000BDE8F0810168096831F4907102681160AE
:10412000016889684908490002689160202180F887
:10413000721000210166704738B50400A56A00209E
:10414000A5F85A000020A5F85200280003F02EFD23
:1041500031BD000090F8711021291BD1B0F8521028
:1041600000290CD10168096831F0800102681160F2
:104170000168096851F04001026811600AE0C16CF1
:104180004A1CC264097802681185B0F85210491EB1
:10419000A0F85210704790F87120212A1FD1B0F872
:1041A0005220002A0CD10268126832F080020368A3
:1041B0001A600268126852F0400203681A600EE04A
:1041C000C26C11000A88D205D20D03681A85C26C30
:1041D000921CC264B0F85220521EA0F852207047C0
:1041E00010B504002068006830F0400021680860C5
:1041F000202084F8710000206066200003F04FFD4D
:1042000010BD70B50400B4F85C5094F87200222818
:1042100025D12068808C0600606D411C616515EA1F
:1042200006010170B4F85A00401EA4F85A0080B28A
:1042300000281AD12068006830F490702168086066
:10424000206880684008400021688860202084F849
:104250007200002020662000FCF70AFC05E02068C0
:10426000008B50F008002168088370BDF8B5040089
:10427000B4F85C6094F87200222827D12068808C02
:104280000700606D050016EA07002880606D801C3D
:104290006065B4F85A00401EA4F85A0080B20028A5
:1042A0001AD12068006830F4907021680860206896
:1042B00080684008400021688860202084F87200EF
:1042C000002020662000FCF7D3FB05E02068008B6F
:1042D00050F0080021680883F1BD000080B52B482C
:1042E0002B49086000222B492948006803F010FE82
:1042F00029492748006803F017FE002002BD00206E
:1043000070470300DBB21800002810D001280FD03E
:1043100002280ED003280DD004280CD020280BD062
:1043200021280AD0222809D0232808D008E007E055
:1043300006E005E004E003E002E001E000E0FFE762
:104340000020704738B504000D000221200000F065
:1043500009F821000D4803F0E7FD0C4803F009FEC1
:10436000002032BD70B504000D0000262A0092B274
:1043700021000748006803F0CBFD0548006803F002
:10438000DAFD06003000C0B270BD00001C1F002026
:10439000342B00203C290020FC28002080B503207D
:1043A00003F03EF9002003F003FE03F06FF9002054
:1043B00002BD000080B500220A490B4803F00CFE44
:1043C0000A49094803F024FE0949074803F096FD0D
:1043D000054804F08EFA002802D0034803F025FEB9
:1043E00001BD0000080700201C1F0020F40500206C
:1043F000F806002078B40022002300240D68D54080
:10440000002D00F0EE800D680126964035402B000F
:10441000002B00F0E4804D68022D02D04D68122D73
:1044200016D1D50800EB85052D6A2C000F2512F05A
:104430000706F6B2B600B540AC430D6912F00706A8
:10444000F6B2B600B5402C43D50800EB85052C62CA
:1044500005682C0003251600F6B27600B540AC4383
:104460000D7915F003051600F6B27600B5402C4321
:1044700004604D68012D08D04D68022D05D04D68AF
:10448000112D02D04D68122D19D185682C000325FD
:104490001600F6B27600B540AC43CD681600F6B211
:1044A0007600B5402C43846045682C00012595407A
:1044B000AC434D68C5F3001595402C4344600D791D
:1044C00015F00305032D0AD1C56A2C00012595407E
:1044D000AC434D68C5F3C00595402C43C462C56824
:1044E0002C0003251600F6B27600B540AC438D686B
:1044F0001600F6B27600B5402C43C4604D68ED005E
:104500006DD5404D2D6855F001053E4E35603D4D51
:104510002D6815F001050095009D3B4D960855F856
:1045200026502C000F2512F00306F6B2B600B54057
:10453000AC43B0F1904F01D100251EE0334DA842AD
:1045400001D1012519E0324DA84201D1022514E024
:10455000304DA84201D103250FE02F4DA84201D1D3
:1045600004250AE02D4DA84201D1052505E02C4D7A
:10457000A84201D1062500E0072512F00306F6B295
:10458000B600B5402C43204D960845F82640254DF1
:104590002D682C009C434D68ED0300D51C43214D34
:1045A0002C60214D2D682C009C434D68AD0300D537
:1045B0001C431D4D2C601D4D2D682C009C434D68E7
:1045C000ED0200D51C43194D2C60194D2D682C00AF
:1045D0009C434D68AD0200D51C43154D2C60521C08
:1045E0000CE771BC7047D2B2002A02D089B2816157
:1045F00001E089B281627047426989B24A404261F2
:1046000070470000601002400800014000040048AC
:1046100000080048000C0048001000480014004842
:10462000001800480004014004040140080401404F
:104630000C040140C0B2102190FBF1F201FB120109
:104640005FF0C0421170C0B2102190FBF1F1103147
:104650005FF0C04211707047F8B504000D001600FD
:104660000027DFF8D409E4B2052101FB04F1084476
:10467000A038070056F0B0005FF0C0410870042079
:104680005FF0C041087010205FF0C0410870280042
:10469000C0B2FFF7CFFF0020C0B2052806DA397894
:1046A000DFF89C2D11707F1C401CF5E7F1BDF8B5BB
:1046B00004000D0016000027E4B27A2C01D15A2024
:1046C0000400DFF87809E4B2052101FB04F1084495
:1046D000A038070056F0B0005FF0C0410870042019
:1046E0005FF0C041087010205FF0C04108702800E2
:1046F000C0B2FFF79FFFFF20DFF8441D08700020C5
:10470000C0B2052807DA3978C943DFF8342D1170B3
:104710007F1C401CF4E7F1BDF8B504000D00260035
:1047200004273078002809D02A00D2B23900C9B253
:104730003078FFF7BCFF761CBF1DF2E7F1BD2DE915
:10474000F84304000D009146260000275FF004089E
:104750003078002819D038004946C0B2C9B2884222
:1047600007D22A00D2B24146C9B23078FFF79FFF84
:1047700006E02A00D2B24146C9B23078FFF76CFF9A
:10478000761C7F1C18F10608E2E7BDE8F183F8B556
:1047900004000D00260004273078002809D02A00E4
:1047A000D2B23900C9B23078FFF756FF761CBF1D70
:1047B000F2E7F1BDAE205FF0C041087020205FF04D
:1047C000C041087002205FF0C0410870B0205FF067
:1047D000C0410870C8205FF0C041087040205FF001
:1047E000C0410870FF205FF0C041087030205FF0CA
:1047F000C0410870A1205FF0C0410870A6205FF0A2
:10480000C0410870A8205FF0C04108701F205FF011
:10481000C0410870A4205FF0C0410870D3205FF051
:10482000C041087000205FF0C0410870D5205FF0E3
:10483000C041087010205FF0C0410870D9205FF0BF
:10484000C041087022205FF0C0410870DA205FF09C
:10485000C041087012205FF0C0410870DB205FF09B
:10486000C041087020205FF0C04108708D205FF0CB
:10487000C041087014205FF0C0410870AF205FF0A5
:10488000C041087070470021C9B2102980F2068328
:10489000DFF89C2CD279002A14D1DFF8A82BC9B2FA
:1048A0000A44127CDFF88C3CC9B20B4483F87020B8
:1048B000DFF8902BC9B2525CDFF8783CC9B20B44E8
:1048C00083F8F020DFF8682CD279012A14D1DFF8C0
:1048D000782BC9B20A44127CDFF8583CC9B20B44A9
:1048E00083F87020DFF8602BC9B2525CDFF8443CDB
:1048F000C9B20B4483F8F020DFF8342CD279022AB5
:1049000014D1DFF8342CC9B20A44127CDFF8243CFD
:10491000C9B20B4483F87020DFF81C2CC9B2525C7A
:10492000DFF8103CC9B20B4483F8F020DFF8002C0C
:10493000D279032A14D1DFF8042CC9B20A44127CBC
:10494000DFF8F03BC9B20B4483F87020DFF8EC2BA2
:10495000C9B2525CDFF8DC3BC9B20B4483F8F020EB
:10496000DFF8DC2BD278012A12D1DFF8D82BC9B2BC
:104970000A44127CDFF8BC3BC9B25A54DFF8C42B9E
:10498000C9B2525CDFF8AC3BC9B20B4483F880205B
:10499000DFF8AC2BD278022A12D1DFF8AC2BC9B2E7
:1049A0000A44127CDFF88C3BC9B25A54DFF8982BCA
:1049B000C9B2525CDFF87C3BC9B20B4483F880205B
:1049C000DFF87C2BD278002A12D1DFF8802BC9B215
:1049D0000A44127CDFF85C3BC9B25A54DFF86C2BF6
:1049E000C9B2525CDFF84C3BC9B20B4483F880205B
:1049F000DFF83C2B5279002A14D1DFF8502BC9B2D2
:104A00000A44127CDFF82C3BC9B20B4483F83020F7
:104A1000DFF8382BC9B2525CDFF8183BC9B20B443F
:104A200083F8B020DFF8082B5279012A14D1DFF87F
:104A3000202CC9B20A44127CDFF8F83AC9B20B4400
:104A400083F83020DFF8082CC9B2525CDFF8E43A72
:104A5000C9B20B4483F8B020DFF8D42A527A002A76
:104A600014D1DFF8E82AC9B20A44127CDFF8C43A4C
:104A7000C9B20B4483F85020DFF8D02AC9B2525C87
:104A8000DFF8B03AC9B20B4483F8D020DFF8A02A8F
:104A9000527A022A14D1DFF8BC2BC9B20A44127C24
:104AA000DFF8903AC9B20B4483F85020DFF8A42B0A
:104AB000C9B2525CDFF87C3AC9B20B4483F8D0200B
:104AC000DFF86C2A527A012A14D1DFF88C2BC9B294
:104AD0000A44127CDFF85C3AC9B20B4483F85020D8
:104AE000DFF8742BC9B2525CDFF8483AC9B20B4404
:104AF00083F8D020DFF8382A527A032A2FD1C0B2A7
:104B0000002814D1DFF8442AC9B20A44127CDFF825
:104B1000243AC9B20B4483F85020DFF8302AC9B2D6
:104B2000525CDFF8103AC9B20B4483F8D020C0B20F
:104B3000002814D0DFF8202BC9B20A44127CDFF819
:104B4000F439C9B20B4483F85020DFF80C2BC9B2FA
:104B5000525CDFF8E039C9B20B4483F8D020DFF8AB
:104B6000D029127A002A14D1DFF8E029C9B20A4408
:104B7000127CDFF8C039C9B20B4483F86020DFF83B
:104B8000CC29C9B2525CDFF8AC39C9B20B4483F806
:104B9000E020DFF89C29127A012A14D1DFF8BC2A20
:104BA000C9B20A44127CDFF88C39C9B20B4483F8CD
:104BB0006020DFF8A82AC9B2525CDFF87839C9B2A0
:104BC0000B4483F8E020DFF86829127A022A14D116
:104BD000DFF88C2AC9B20A44127CDFF85839C9B20E
:104BE0000B4483F86020DFF8782AC9B2525CDFF802
:104BF0004439C9B20B4483F8E020DFF83429127A33
:104C0000032A14D1DFF85C2AC9B20A44127CDFF807
:104C10002439C9B20B4483F86020DFF8482AC9B2AE
:104C2000525CDFF81039C9B20B4483F8E020DFF89A
:104C30000029127A042A14D1DFF82C2AC9B20A44B6
:104C4000127CDFF8F038C9B20B4483F86020DFF83B
:104C5000182AC9B2525CDFF8DC38C9B20B4483F8B9
:104C6000E020DFF8CC28127A052A14D1DFF8FC29DD
:104C7000C9B20A44127CDFF8BC38C9B20B4483F8CD
:104C80006020DFF8E829C9B2525CDFF8A838C9B261
:104C90000B4483F8E020DFF898289279002A14D199
:104CA000DFF8CC29C9B20A44127CDFF88838C9B2CF
:104CB0000B4483F84020DFF8B829C9B2525CDFF812
:104CC0007438C9B20B4483F8C020DFF864289279A5
:104CD000012A14D1DFF89829C9B20A44127CDFF8FE
:104CE0005438C9B20B4483F84020DFF88429C9B294
:104CF000525CDFF84038C9B20B4483F8C020DFF8BB
:104D000030289279022A14D1DFF86829C9B20A44FE
:104D1000127CDFF82038C9B20B4483F84020DFF85A
:104D20005429C9B2525CDFF80C38C9B20B4483F87D
:104D3000C020DFF8FC279279032A14D1DFF8342948
:104D4000C9B20A44127CDFF8EC37C9B20B4483F8CD
:104D50004020DFF82029C9B2525CDFF8D837C9B249
:104D60000B4483F8C020DFF8C8279279042A14D1B5
:104D7000DFF80429C9B20A44127CDFF8B837C9B297
:104D80000B4483F84020DFF8F028C9B2525CDFF80A
:104D9000A437C9B20B4483F8C020DFF89427D27837
:104DA000002A13D1DFF8D428C9B20A44127CDFF8F4
:104DB0008437C9B20B441A74DFF8C028C9B2525CF8
:104DC000DFF87037C9B20B4483F89020DFF8602712
:104DD000D278012A13D1DFF8A828C9B20A44127C7C
:104DE000DFF85037C9B20B441A74DFF89428C9B2FF
:104DF000525CDFF84037C9B20B4483F89020DFF8EB
:104E00003027D278022A13D1DFF87828C9B20A44B1
:104E1000127CDFF82037C9B20B441A74DFF864281B
:104E2000C9B2525CDFF80C37C9B20B4483F890204A
:104E3000DFF8FC261279002A14D1DFF84C28C9B219
:104E40000A44127CDFF8EC36C9B20B4483F8202008
:104E5000DFF83428C9B2525CDFF8D836C9B20B4447
:104E600083F8A020DFF8C8261279012A14D1DFF8D0
:104E70001C28C9B20A44127CDFF8B836C9B20B4408
:104E800083F82020DFF80428C9B2525CDFF8A4368A
:104E9000C9B20B4483F8A020491CF5E4B3215FF0AC
:104EA000C042117004215FF0C042117010215FF008
:104EB000C04211700021C9B2802908DADFF87426D7
:104EC000C9B2525CDFF878351A70491CF3E7B22199
:104ED0005FF0C042117004215FF0C04211701021D8
:104EE0005FF0C04211700021C9B280290ADADFF8F0
:104EF0004426C9B20A4492F88020DFF844351A707B
:104F0000491CF1E7704770B50400002000F07AFA00
:104F1000DFF87C57DFF87C67E4B2012C40F0818039
:104F2000DFF80C060079012876D101213000FFF767
:104F30002EFC022000F066FA032000F063FA002045
:104F4000C0B210282FDADFF8E8154979012911D10C
:104F5000DFF8FC16C0B20144097CDFF83C27C0B280
:104F60001154DFF8EC16C0B2095CDFF82C27C0B290
:104F700002441174DFF8B8154979002911D1DFF81E
:104F8000CC15C0B20144097CDFF80C27C0B2115423
:104F9000DFF8B815C0B2095CDFF8FC26C0B20244E5
:104FA0001174401CCCE7B3205FF0C04108700420AE
:104FB0005FF0C041087010205FF0C04108701420FD
:104FC000FFF738FB0020C0B2102808DADFF8C81657
:104FD000C0B2095CDFF868241170401CF3E7B2200E
:104FE0005FF0C041087004205FF0C04108701020DD
:104FF0005FF0C04108701420FFF71CFB0020C0B216
:10500000102817DADFF89016C0B20144097CDFF8E7
:1050100030241170401CF2E701212800FFF7B7FB94
:1050200008E0012000F0EEF9022000F0EBF9032087
:1050300000F0E8F970BD000000000020A40400208A
:1050400010B504000020C0B2152880F24D81DFF8B1
:10505000F0140978002907D1DFF84016C0B2095CC6
:10506000DFF83C26C0B21154DFF8D41409780129C6
:1050700007D1DFF83016C0B2095CDFF82426C0B2D1
:105080001154DFF8BC140978022907D1DFF818168B
:10509000C0B2095CDFF80826C0B21154C0B21128B2
:1050A00009DADFF80816C0B2095CDFF8F425C0B2EF
:1050B0000244517625E0DFF8881449780A290BD19B
:1050C000DFF8EC15C0B2014411F8111CDFF8D0254F
:1050D000C0B20244517614E0C0B211280BD1DFF8FF
:1050E000D415DFF85C245278895CDFF8B425C0B2AF
:1050F0000244517605E02021DFF8A425C0B2024425
:105100005176C0B211280ADADFF8AC15C0B2095CDA
:10511000DFF88C25C0B2024482F8321028E0DFF8B4
:10512000201489780A290CD1DFF88415C0B2014413
:1051300011F8111CDFF86825C0B2024482F8321061
:1051400016E0C0B211280CD1DFF86815DFF8F023A3
:105150009278895CDFF84825C0B2024482F83210A8
:1051600006E02021DFF83825C0B2024482F8321070
:10517000DFF8CC13C978002909D1DFF84015C0B297
:10518000095CDFF81C25C0B2024482F84B10DFF83E
:10519000B013C978012909D1DFF82415C0B2095C20
:1051A000DFF8FC24C0B2024482F84B10DFF8901301
:1051B000C978022909D1DFF80C15C0B2095CDFF803
:1051C000E024C0B2024482F84B10DFF8741309796E
:1051D000002909D1DFF8F014C0B2095CDFF8C0245F
:1051E000C0B2024482F86410D5490979012909D175
:1051F000DFF8D814C0B2095CDFF8A424C0B20244BE
:1052000082F86410CE494979002909D1DFF8C01429
:10521000C0B2095CDFF88824C0B2024482F87D1075
:10522000C7494979012909D1DFF8A814C0B2095C3E
:10523000DFF86C24C0B2024482F87D10C04989793D
:10524000002909D1DFF89014C0B2095CDFF85024BE
:10525000C0B2024482F89610B9498979012909D16E
:10526000DFF87814C0B2095CDFF83424C0B202441D
:1052700082F89610B249C979002909D1DFF8601483
:10528000C0B2095CDFF81824C0B2024482F8AF1043
:10529000AB49C979012909D1DFF84814C0B2095CCA
:1052A000DFF8FC23C0B2024482F8AF10A449097AA7
:1052B000002909D1DFF83014C0B2095CDFF8E0231F
:1052C000C0B2024482F8C8109D49097A012909D167
:1052D000DFF81814C0B2095CDFF8C423C0B202447E
:1052E00082F8C810401CAEE6E4B2022C0AD10021BC
:1052F000DFF8AC03DFF8F823127819235A4310447F
:10530000FFF70AFAE4B2012C0AD10021DFF890037A
:10531000DFF8DC23127819235A431044FFF737FAD9
:10532000E4B2002C02D1002000F06CF8DFF8C003DA
:105330000078062821DA0121DFF86403DFF8B023C2
:10534000127819235A4310441930FFF720FA02212A
:10535000D348DFF89C23127819235A431044323083
:10536000FFF715FA0321CE48DFF8842312781923BA
:105370005A4310444B30FFF70AFADFF87403007801
:10538000062817D10121C648D94A127819235A4351
:1053900010441930FFF7FBF90221C148D44A1278B2
:1053A00019235A4310443230FFF7F1F90321BC4866
:1053B000FFF7EDF9CE480078072811D10121B84850
:1053C000CB4A127819235A4310441930FFF7DFF9FA
:1053D0000221B348FFF7DBF90321C648FFF7D7F9ED
:1053E000C348007808280BD10121AD48FFF7CFF959
:1053F0000221C048FFF7CBF90321BF48FFF7C7F9E7
:1054000010BD000050F0B0015FF0C04211700421E7
:105410005FF0C042117010215FF0C0421170002196
:1054200089B280290BDA0022054B1A700022B2F5EE
:10543000FA7F02D200BF521CF9E7491CF0E770471F
:105440000100006084020020A4020020B0205FF070
:10545000C041087004205FF0C041087010205FF068
:10546000C0410870002080B280280BDA0021A34AD6
:1054700011700021B1F5FA7F02D200BF491CF9E793
:10548000401CF0E7B1205FF0C041087004205FF0DD
:10549000C041087010205FF0C0410870002080B249
:1054A00080280BDA0021954A11700021B1F5FA7FAE
:1054B00002D200BF491CF9E7401CF0E7B2205FF0C0
:1054C000C041087004205FF0C041087010205FF0F8
:1054D000C0410870002080B280280BDA0021874A82
:1054E00011700021B1F5FA7F02D200BF491CF9E723
:1054F000401CF0E7B3205FF0C041087004205FF06B
:10550000C041087010205FF0C0410870002080B2D8
:1055100080280BDA0021794A11700021B1F5FA7F59
:1055200002D200BF491CF9E7401CF0E770470000B9
:10553000DC2A002060220020C4020020E4020020B7
:10554000E82A002044020020640200203C2A0020B7
:10555000B0205FF0C041087004205FF0C0410870C7
:1055600010205FF0C0410870002080B280280DDA62
:10557000634980B2095C614A11700021B1F5FA7F7C
:1055800002D200BF491CF9E7401CEEE7B1205FF0F2
:10559000C041087004205FF0C041087010205FF027
:1055A000C0410870002080B280280FDA544980B2D0
:1055B000014491F88010514A11700021B1F5FA7F31
:1055C00002D200BF491CF9E7401CECE7B2205FF0B3
:1055D000C041087004205FF0C041087010205FF0E7
:1055E000C0410870002080B280280FDA444980B2A0
:1055F000014491F80011414A11700021B1F5FA7F80
:1056000002D200BF491CF9E7401CECE7B3205FF071
:10561000C041087004205FF0C041087010205FF0A6
:10562000C0410870002080B280280FDA344980B26F
:10563000014491F88011314A11700021B1F5FA7FCF
:1056400002D200BF491CF9E7401CECE7704700009C
:10565000E4030020C4030020A403002084030020EE
:1056600004030020240300204403002064030020DE
:10567000440400206404002084040020E40100208D
:10568000040200202402002004040020240400203E
:105690002CC600083CC6000860230020D8C30008C0
:1056A00060240020F0C3000808C4000820C40008DB
:1056B000E4C60008A8C6000838C4000880C4000872
:1056C00050C4000868C40008B0C4000898C40008AA
:1056D000E0C40008C8C4000810C50008F8C40008E9
:1056E00040C5000828C5000858C5000870C5000856
:1056F0006B2B002079240020922400200100006000
:10570000C4BE000870B5040002F01EFA05002600B1
:1057100016F1010F00D0761C02F016FA401BB042C1
:10572000FAD370BD002203F0EFB8000070B582B06C
:10573000040000252078C00640F1CE80DFF8D409AF
:10574000006810F00C0F78D1DFF828090068800796
:1057500004D5A069002801D10120FDE2DFF8140979
:105760000068000705D5DFF80C09006810F0F000AC
:1057700005E0DFF8AC090068000910F0F000216ACC
:10578000884224D2206A00F077FC002801D0012052
:10579000E2E2DFF8E008006850F00800DFF8D41813
:1057A0000860DFF8D008006830F0F000216A084394
:1057B000DFF8C0180860DFF86C09006830F47F403B
:1057C000E16950EA0120DFF85C19086023E0DFF8A6
:1057D000A408006850F00800DFF898180860DFF8A7
:1057E0009408006830F0F000216A0843DFF884185C
:1057F0000860DFF83009006830F47F40E16950EA62
:105800000120DFF820190860206A00F035FC00282C
:1058100001D00120A0E200F08EFBDFF80C19DFF8C8
:10582000F4281268C2F30312895CC840DFF8EC1850
:105830000860002002F0BCFB4EE0A069002834D0D4
:10584000DFF83008006850F00100DFF82818086021
:1058500002F07AF90500DFF81C080068800706D41A
:1058600002F072F9401B0328F5D3032074E2DFF83D
:105870000408006850F00800DFF8F8170860DFF847
:10588000F407006830F0F000216A0843DFF8E417FD
:105890000860DFF89008006830F47F40E16950EA62
:1058A0000120DFF88018086016E0DFF8C8070068FC
:1058B00040084000DFF8BC17086002F045F9050019
:1058C000DFF8B0070068800706D502F03DF9401BFD
:1058D0000328F5D303203FE22078C00771D5DFF815
:1058E0003408006810F00C0008280DD0DFF82408F8
:1058F000006810F00C000C2810D1DFF81C080068BC
:1059000010F00300032809D1DFF86807006880035E
:1059100057D56068002854D101201DE26068B0F5B9
:10592000803F08D1DFF84C07006850F48030DFF882
:105930004417086024E06068B0F5A02F10D1DFF8AC
:105940003407006850F48020DFF828170860DFF87B
:105950002407006850F48030DFF8181708600FE063
:10596000DFF81007006830F48030DFF808170860AF
:10597000DFF80007006830F48020DFF8F8160860D0
:10598000606800280ED002F0DFF80500DFF8E406BA
:105990000068800315D402F0D7F8401B6528F5D3C2
:1059A0000320D9E102F0D0F80500DFF8C80600684E
:1059B000800306D502F0C8F8401B6528F5D3032004
:1059C000CAE12078800767D5DFF84807006810F043
:1059D0000C0004280DD0DFF83C07006810F00C0024
:1059E0000C281CD1DFF83007006810F003000228F3
:1059F00015D1DFF880060068400504D5E06800286E
:105A000001D10120A8E1DFF81C07006830F0F85050
:105A1000216950EA0160DFF80C1708603CE0E0689B
:105A2000002822D0DFF84C06006850F48070DFF8C0
:105A30004416086002F088F80500DFF838060068B0
:105A4000400506D402F080F8401B0328F5D303205C
:105A500082E1DFF8D006006830F0F850216950EAA2
:105A60000160DFF8C016086016E0DFF8080600687D
:105A700030F48070DFF8FC15086002F065F805006E
:105A8000DFF8F0050068400506D502F05DF8401B20
:105A90000328F5D303205FE12078000730D5606943
:105AA000002816D0DFF87806006850F00100DFF813
:105AB0007016086002F048F80500DFF86406006818
:105AC00080071DD402F040F8401B0328F5D30320C3
:105AD00042E1DFF84C06006840084000DFF840165D
